{
  "contractName": "BNBSale",
  "abi": [
    {
      "inputs": [],
      "stateMutability": "nonpayable",
      "type": "constructor"
    },
    {
      "anonymous": false,
      "inputs": [
        {
          "indexed": false,
          "internalType": "address",
          "name": "previousAdmin",
          "type": "address"
        },
        {
          "indexed": false,
          "internalType": "address",
          "name": "newAdmin",
          "type": "address"
        }
      ],
      "name": "AdminChanged",
      "type": "event"
    },
    {
      "anonymous": false,
      "inputs": [
        {
          "indexed": true,
          "internalType": "address",
          "name": "beacon",
          "type": "address"
        }
      ],
      "name": "BeaconUpgraded",
      "type": "event"
    },
    {
      "anonymous": false,
      "inputs": [
        {
          "indexed": true,
          "internalType": "address",
          "name": "previousOwner",
          "type": "address"
        },
        {
          "indexed": true,
          "internalType": "address",
          "name": "newOwner",
          "type": "address"
        }
      ],
      "name": "OwnershipTransferred",
      "type": "event"
    },
    {
      "anonymous": false,
      "inputs": [
        {
          "indexed": true,
          "internalType": "address",
          "name": "account",
          "type": "address"
        },
        {
          "indexed": false,
          "internalType": "address",
          "name": "wallet",
          "type": "address"
        },
        {
          "indexed": false,
          "internalType": "uint256",
          "name": "amount",
          "type": "uint256"
        },
        {
          "indexed": false,
          "internalType": "uint256",
          "name": "rate",
          "type": "uint256"
        },
        {
          "indexed": false,
          "internalType": "uint256",
          "name": "reward",
          "type": "uint256"
        }
      ],
      "name": "TokensPurchased",
      "type": "event"
    },
    {
      "anonymous": false,
      "inputs": [
        {
          "indexed": false,
          "internalType": "uint256",
          "name": "amount",
          "type": "uint256"
        },
        {
          "indexed": false,
          "internalType": "uint256",
          "name": "reward",
          "type": "uint256"
        }
      ],
      "name": "TokensSold",
      "type": "event"
    },
    {
      "anonymous": false,
      "inputs": [
        {
          "indexed": true,
          "internalType": "address",
          "name": "implementation",
          "type": "address"
        }
      ],
      "name": "Upgraded",
      "type": "event"
    },
    {
      "inputs": [
        {
          "internalType": "uint8",
          "name": "days_",
          "type": "uint8"
        }
      ],
      "name": "activeDeadline",
      "outputs": [],
      "stateMutability": "nonpayable",
      "type": "function"
    },
    {
      "inputs": [
        {
          "internalType": "uint8",
          "name": "lock",
          "type": "uint8"
        }
      ],
      "name": "buyTokens",
      "outputs": [],
      "stateMutability": "payable",
      "type": "function"
    },
    {
      "inputs": [],
      "name": "completeSale",
      "outputs": [],
      "stateMutability": "nonpayable",
      "type": "function"
    },
    {
      "inputs": [],
      "name": "deadline",
      "outputs": [
        {
          "internalType": "uint256",
          "name": "",
          "type": "uint256"
        }
      ],
      "stateMutability": "view",
      "type": "function"
    },
    {
      "inputs": [],
      "name": "factory",
      "outputs": [
        {
          "internalType": "contract LockFactory",
          "name": "",
          "type": "address"
        }
      ],
      "stateMutability": "view",
      "type": "function"
    },
    {
      "inputs": [],
      "name": "getWallets",
      "outputs": [
        {
          "internalType": "address[]",
          "name": "",
          "type": "address[]"
        }
      ],
      "stateMutability": "view",
      "type": "function"
    },
    {
      "inputs": [],
      "name": "name",
      "outputs": [
        {
          "internalType": "string",
          "name": "",
          "type": "string"
        }
      ],
      "stateMutability": "view",
      "type": "function"
    },
    {
      "inputs": [],
      "name": "owner",
      "outputs": [
        {
          "internalType": "address",
          "name": "",
          "type": "address"
        }
      ],
      "stateMutability": "view",
      "type": "function"
    },
    {
      "inputs": [],
      "name": "rate",
      "outputs": [
        {
          "internalType": "uint256",
          "name": "",
          "type": "uint256"
        }
      ],
      "stateMutability": "view",
      "type": "function"
    },
    {
      "inputs": [],
      "name": "renounceOwnership",
      "outputs": [],
      "stateMutability": "nonpayable",
      "type": "function"
    },
    {
      "inputs": [],
      "name": "token",
      "outputs": [
        {
          "internalType": "address",
          "name": "",
          "type": "address"
        }
      ],
      "stateMutability": "view",
      "type": "function"
    },
    {
      "inputs": [],
      "name": "totalReward",
      "outputs": [
        {
          "internalType": "uint256",
          "name": "",
          "type": "uint256"
        }
      ],
      "stateMutability": "view",
      "type": "function"
    },
    {
      "inputs": [
        {
          "internalType": "address",
          "name": "newOwner",
          "type": "address"
        }
      ],
      "name": "transferOwnership",
      "outputs": [],
      "stateMutability": "nonpayable",
      "type": "function"
    },
    {
      "inputs": [
        {
          "internalType": "address",
          "name": "newImplementation",
          "type": "address"
        }
      ],
      "name": "upgradeTo",
      "outputs": [],
      "stateMutability": "nonpayable",
      "type": "function"
    },
    {
      "inputs": [
        {
          "internalType": "address",
          "name": "newImplementation",
          "type": "address"
        },
        {
          "internalType": "bytes",
          "name": "data",
          "type": "bytes"
        }
      ],
      "name": "upgradeToAndCall",
      "outputs": [],
      "stateMutability": "payable",
      "type": "function"
    },
    {
      "stateMutability": "payable",
      "type": "receive"
    },
    {
      "inputs": [
        {
          "internalType": "address",
          "name": "token_",
          "type": "address"
        },
        {
          "internalType": "address",
          "name": "locker_",
          "type": "address"
        }
      ],
      "name": "initialize",
      "outputs": [],
      "stateMutability": "nonpayable",
      "type": "function"
    }
  ],
  "bytecode": "0x60a06040523073ffffffffffffffffffffffffffffffffffffffff1660809073ffffffffffffffffffffffffffffffffffffffff1660601b8152503480156200004757600080fd5b50600060019054906101000a900460ff16806200006f575060008054906101000a900460ff16155b620000b1576040517f08c379a0000000000000000000000000000000000000000000000000000000008152600401620000a89062000152565b60405180910390fd5b60008060019054906101000a900460ff16159050801562000102576001600060016101000a81548160ff02191690831515021790555060016000806101000a81548160ff0219169083151502179055505b8015620001245760008060016101000a81548160ff0219169083151502179055505b50620001d4565b60006200013a602e8362000174565b9150620001478262000185565b604082019050919050565b600060208201905081810360008301526200016d816200012b565b9050919050565b600082825260208201905092915050565b7f496e697469616c697a61626c653a20636f6e747261637420697320616c72656160008201527f647920696e697469616c697a6564000000000000000000000000000000000000602082015250565b60805160601c613dc462000208600039600081816106fc0152818161078b01528181610ae00152610b6f0152613dc46000f3fe6080604052600436106100f75760003560e01c8063750142e61161008a578063c45a015511610059578063c45a0155146102c5578063db7a4605146102f0578063f2fde38b1461031b578063fc0c546a1461034457610108565b8063750142e61461022a5780638da5cb5b14610255578063bba5b24e14610280578063c1ce83101461029c57610108565b8063485cc955116100c6578063485cc955146101b75780634d461ed1146101e05780634f1ef286146101f7578063715018a61461021357610108565b806306fdde031461010d57806329dcb0cf146101385780632c4e722e146101635780633659cfe61461018e57610108565b3661010857610106600c61036f565b005b600080fd5b34801561011957600080fd5b50610122610660565b60405161012f91906133da565b60405180910390f35b34801561014457600080fd5b5061014d6106ee565b60405161015a919061355c565b60405180910390f35b34801561016f57600080fd5b506101786106f4565b604051610185919061355c565b60405180910390f35b34801561019a57600080fd5b506101b560048036038101906101b09190612d3b565b6106fa565b005b3480156101c357600080fd5b506101de60048036038101906101d99190612d8d565b6108a9565b005b3480156101ec57600080fd5b506101f5610994565b005b610211600480360381019061020c9190612dc9565b610ade565b005b34801561021f57600080fd5b50610228610c1b565b005b34801561023657600080fd5b5061023f610ca3565b60405161024c919061355c565b60405180910390f35b34801561026157600080fd5b5061026a610ca9565b6040516102779190613297565b60405180910390f35b61029a60048036038101906102959190612eb0565b61036f565b005b3480156102a857600080fd5b506102c360048036038101906102be9190612eb0565b610cd3565b005b3480156102d157600080fd5b506102da610d75565b6040516102e791906133bf565b60405180910390f35b3480156102fc57600080fd5b50610305610d9f565b604051610312919061339d565b60405180910390f35b34801561032757600080fd5b50610342600480360381019061033d9190612d3b565b610e3b565b005b34801561035057600080fd5b50610359610f33565b6040516103669190613297565b60405180910390f35b600060c95411156103bf5760c95442106103be576040517f08c379a00000000000000000000000000000000000000000000000000000000081526004016103b5906134bc565b60405180910390fd5b5b60008060006103cd84610f59565b925092509250600060cd54346103e39190613786565b9050600061040d60646103ff8585610fb290919063ffffffff16565b610fc890919063ffffffff16565b9050808261041b91906136ff565b91508060ce5461042b91906136ff565b60ce819055508160cb60009054906101000a900473ffffffffffffffffffffffffffffffffffffffff1673ffffffffffffffffffffffffffffffffffffffff166370a08231610478610ca9565b6040518263ffffffff1660e01b81526004016104949190613297565b60206040518083038186803b1580156104ac57600080fd5b505afa1580156104c0573d6000803e3d6000fd5b505050506040513d601f19601f820116820180604052508101906104e49190612e87565b10156104ef57600080fd5b600060cc60009054906101000a900473ffffffffffffffffffffffffffffffffffffffff1673ffffffffffffffffffffffffffffffffffffffff1663420790c03360cb60009054906101000a900473ffffffffffffffffffffffffffffffffffffffff16868a8a426040518763ffffffff1660e01b8152600401610578969594939291906132e9565b602060405180830381600087803b15801561059257600080fd5b505af11580156105a6573d6000803e3d6000fd5b505050506040513d601f19601f820116820180604052508101906105ca9190612d64565b905061060160cb60009054906101000a900473ffffffffffffffffffffffffffffffffffffffff166105fa610ca9565b8386610fde565b3373ffffffffffffffffffffffffffffffffffffffff167f377aadedb6b2a771959584d10a6a36eccb5f56b4eb3a48525f76108d2660d8d4828560cd548860405161064f9493929190613358565b60405180910390a250505050505050565b60ca805461066d906138e9565b80601f0160208091040260200160405190810160405280929190818152602001828054610699906138e9565b80156106e65780601f106106bb576101008083540402835291602001916106e6565b820191906000526020600020905b8154815290600101906020018083116106c957829003601f168201915b505050505081565b60c95481565b60cd5481565b7f000000000000000000000000000000000000000000000000000000000000000073ffffffffffffffffffffffffffffffffffffffff163073ffffffffffffffffffffffffffffffffffffffff161415610789576040517f08c379a00000000000000000000000000000000000000000000000000000000081526004016107809061345c565b60405180910390fd5b7f000000000000000000000000000000000000000000000000000000000000000073ffffffffffffffffffffffffffffffffffffffff166107c861114e565b73ffffffffffffffffffffffffffffffffffffffff161461081e576040517f08c379a00000000000000000000000000000000000000000000000000000000081526004016108159061349c565b60405180910390fd5b610827816111a5565b6108a681600067ffffffffffffffff81111561086c577f4e487b7100000000000000000000000000000000000000000000000000000000600052604160045260246000fd5b6040519080825280601f01601f19166020018201604052801561089e5781602001600182028036833780820191505090505b5060006111a8565b50565b600060019054906101000a900460ff16806108cf575060008054906101000a900460ff16155b61090e576040517f08c379a0000000000000000000000000000000000000000000000000000000008152600401610905906134dc565b60405180910390fd5b60008060019054906101000a900460ff16159050801561095e576001600060016101000a81548160ff02191690831515021790555060016000806101000a81548160ff0219169083151502179055505b61096e83836000620186a0611379565b801561098f5760008060016101000a81548160ff0219169083151502179055505b505050565b61099c61154a565b73ffffffffffffffffffffffffffffffffffffffff166109ba610ca9565b73ffffffffffffffffffffffffffffffffffffffff1614610a10576040517f08c379a0000000000000000000000000000000000000000000000000000000008152600401610a079061351c565b60405180910390fd5b60c9544211610a54576040517f08c379a0000000000000000000000000000000000000000000000000000000008152600401610a4b9061343c565b60405180910390fd5b60004790507f9745885914207e14787933537f5e0fc3685e9b3a89eeeecbc1d10207baa4c7908160ce54604051610a8c929190613577565b60405180910390a13373ffffffffffffffffffffffffffffffffffffffff166108fc829081150290604051600060405180830381858888f19350505050158015610ada573d6000803e3d6000fd5b5050565b7f000000000000000000000000000000000000000000000000000000000000000073ffffffffffffffffffffffffffffffffffffffff163073ffffffffffffffffffffffffffffffffffffffff161415610b6d576040517f08c379a0000000000000000000000000000000000000000000000000000000008152600401610b649061345c565b60405180910390fd5b7f000000000000000000000000000000000000000000000000000000000000000073ffffffffffffffffffffffffffffffffffffffff16610bac61114e565b73ffffffffffffffffffffffffffffffffffffffff1614610c02576040517f08c379a0000000000000000000000000000000000000000000000000000000008152600401610bf99061349c565b60405180910390fd5b610c0b826111a5565b610c17828260016111a8565b5050565b610c2361154a565b73ffffffffffffffffffffffffffffffffffffffff16610c41610ca9565b73ffffffffffffffffffffffffffffffffffffffff1614610c97576040517f08c379a0000000000000000000000000000000000000000000000000000000008152600401610c8e9061351c565b60405180910390fd5b610ca16000611552565b565b60ce5481565b6000609760009054906101000a900473ffffffffffffffffffffffffffffffffffffffff16905090565b610cdb61154a565b73ffffffffffffffffffffffffffffffffffffffff16610cf9610ca9565b73ffffffffffffffffffffffffffffffffffffffff1614610d4f576040517f08c379a0000000000000000000000000000000000000000000000000000000008152600401610d469061351c565b60405180910390fd5b610d5b8160ff16611618565b63ffffffff1642610d6c91906136ff565b60c98190555050565b600060cc60009054906101000a900473ffffffffffffffffffffffffffffffffffffffff16905090565b6060610da9610d75565b73ffffffffffffffffffffffffffffffffffffffff1663fe2b0cd1336040518263ffffffff1660e01b8152600401610de19190613297565b60006040518083038186803b158015610df957600080fd5b505afa158015610e0d573d6000803e3d6000fd5b505050506040513d6000823e3d601f19601f82011682018060405250810190610e369190612e1d565b905090565b610e4361154a565b73ffffffffffffffffffffffffffffffffffffffff16610e61610ca9565b73ffffffffffffffffffffffffffffffffffffffff1614610eb7576040517f08c379a0000000000000000000000000000000000000000000000000000000008152600401610eae9061351c565b60405180910390fd5b600073ffffffffffffffffffffffffffffffffffffffff168173ffffffffffffffffffffffffffffffffffffffff161415610f27576040517f08c379a0000000000000000000000000000000000000000000000000000000008152600401610f1e9061341c565b60405180910390fd5b610f3081611552565b50565b60cb60009054906101000a900473ffffffffffffffffffffffffffffffffffffffff1681565b6060806000600c8460ff161415610f7d57610f72611645565b925092509250610fab565b60068460ff161415610f9c57610f91611aab565b925092509250610fab565b610fa4611f0e565b9250925092505b9193909250565b60008183610fc09190613786565b905092915050565b60008183610fd69190613755565b905092915050565b6000808573ffffffffffffffffffffffffffffffffffffffff16604051806060016040528060258152602001613d43602591398051906020012086868660405160240161102d939291906132b2565b604051602081830303815290604052907bffffffffffffffffffffffffffffffffffffffffffffffffffffffff19166020820180517bffffffffffffffffffffffffffffffffffffffffffffffffffffffff83818316178352505050506040516110979190613280565b6000604051808303816000865af19150503d80600081146110d4576040519150601f19603f3d011682016040523d82523d6000602084013e6110d9565b606091505b509150915081801561110757506000815114806111065750808060200190518101906111059190612e5e565b5b5b611146576040517f08c379a000000000000000000000000000000000000000000000000000000000815260040161113d9061347c565b60405180910390fd5b505050505050565b600061117c7f360894a13ba1a3210667c828492db98dca3e2076cc3735a920a3ca505d382bbc60001b612371565b60000160009054906101000a900473ffffffffffffffffffffffffffffffffffffffff16905090565b50565b60006111b261114e565b90506111bd8461237b565b6000835111806111ca5750815b156111db576111d98484612434565b505b60006112097f4910fdfa16fed3260ed0e7147f7cc6da11a60208b5b9406d12a635614ffd914360001b612518565b90508060000160009054906101000a900460ff166113725760018160000160006101000a81548160ff0219169083151502179055506112d585836040516024016112539190613297565b6040516020818303038152906040527f3659cfe6000000000000000000000000000000000000000000000000000000007bffffffffffffffffffffffffffffffffffffffffffffffffffffffff19166020820180517bffffffffffffffffffffffffffffffffffffffffffffffffffffffff8381831617835250505050612434565b5060008160000160006101000a81548160ff0219169083151502179055506112fb61114e565b73ffffffffffffffffffffffffffffffffffffffff168273ffffffffffffffffffffffffffffffffffffffff1614611368576040517f08c379a000000000000000000000000000000000000000000000000000000000815260040161135f906133fc565b60405180910390fd5b61137185612522565b5b5050505050565b600060019054906101000a900460ff168061139f575060008054906101000a900460ff16155b6113de576040517f08c379a00000000000000000000000000000000000000000000000000000000081526004016113d5906134dc565b60405180910390fd5b60008060019054906101000a900460ff16159050801561142e576001600060016101000a81548160ff02191690831515021790555060016000806101000a81548160ff0219169083151502179055505b611436612571565b61143e61265a565b8360cc60006101000a81548173ffffffffffffffffffffffffffffffffffffffff021916908373ffffffffffffffffffffffffffffffffffffffff1602179055508460cb60006101000a81548173ffffffffffffffffffffffffffffffffffffffff021916908373ffffffffffffffffffffffffffffffffffffffff1602179055506040518060400160405280601181526020017f4355502053616c6520436f6e747261637400000000000000000000000000000081525060ca908051906020019061150b929190612b31565b50600060ce819055508260c9819055508160cd8190555080156115435760008060016101000a81548160ff0219169083151502179055505b5050505050565b600033905090565b6000609760009054906101000a900473ffffffffffffffffffffffffffffffffffffffff16905081609760006101000a81548173ffffffffffffffffffffffffffffffffffffffff021916908373ffffffffffffffffffffffffffffffffffffffff1602179055508173ffffffffffffffffffffffffffffffffffffffff168173ffffffffffffffffffffffffffffffffffffffff167f8be0079c531659141344cd1fd0a4f28419497f9722a3daafe3b4186f6b6457e060405160405180910390a35050565b60006018603c808461162a91906137e0565b61163491906137e0565b61163e91906137e0565b9050919050565b606080600080600567ffffffffffffffff81111561168c577f4e487b7100000000000000000000000000000000000000000000000000000000600052604160045260246000fd5b6040519080825280602002602001820160405280156116ba5781602001602082028036833780820191505090505b5090506116c76096611618565b81600081518110611701577f4e487b7100000000000000000000000000000000000000000000000000000000600052603260045260246000fd5b602002602001019063ffffffff16908163ffffffff168152505061172560d2611618565b8160018151811061175f577f4e487b7100000000000000000000000000000000000000000000000000000000600052603260045260246000fd5b602002602001019063ffffffff16908163ffffffff168152505061178461010e611618565b816002815181106117be577f4e487b7100000000000000000000000000000000000000000000000000000000600052603260045260246000fd5b602002602001019063ffffffff16908163ffffffff16815250506117e361014a611618565b8160038151811061181d577f4e487b7100000000000000000000000000000000000000000000000000000000600052603260045260246000fd5b602002602001019063ffffffff16908163ffffffff1681525050611842610168611618565b8160048151811061187c577f4e487b7100000000000000000000000000000000000000000000000000000000600052603260045260246000fd5b602002602001019063ffffffff16908163ffffffff16815250506000600567ffffffffffffffff8111156118d9577f4e487b7100000000000000000000000000000000000000000000000000000000600052604160045260246000fd5b6040519080825280602002602001820160405280156119075781602001602082028036833780820191505090505b509050602881600081518110611946577f4e487b7100000000000000000000000000000000000000000000000000000000600052603260045260246000fd5b602002602001019060ff16908160ff1681525050601e81600181518110611996577f4e487b7100000000000000000000000000000000000000000000000000000000600052603260045260246000fd5b602002602001019060ff16908160ff16815250506014816002815181106119e6577f4e487b7100000000000000000000000000000000000000000000000000000000600052603260045260246000fd5b602002602001019060ff16908160ff1681525050600781600381518110611a36577f4e487b7100000000000000000000000000000000000000000000000000000000600052603260045260246000fd5b602002602001019060ff16908160ff1681525050600381600481518110611a86577f4e487b7100000000000000000000000000000000000000000000000000000000600052603260045260246000fd5b602002602001019060ff16908160ff1681525050818160329450945094505050909192565b606080600080600567ffffffffffffffff811115611af2577f4e487b7100000000000000000000000000000000000000000000000000000000600052604160045260246000fd5b604051908082528060200260200182016040528015611b205781602001602082028036833780820191505090505b509050611b2d603c611618565b81600081518110611b67577f4e487b7100000000000000000000000000000000000000000000000000000000600052603260045260246000fd5b602002602001019063ffffffff16908163ffffffff1681525050611b8b605a611618565b81600181518110611bc5577f4e487b7100000000000000000000000000000000000000000000000000000000600052603260045260246000fd5b602002602001019063ffffffff16908163ffffffff1681525050611be96078611618565b81600281518110611c23577f4e487b7100000000000000000000000000000000000000000000000000000000600052603260045260246000fd5b602002602001019063ffffffff16908163ffffffff1681525050611c476096611618565b81600381518110611c81577f4e487b7100000000000000000000000000000000000000000000000000000000600052603260045260246000fd5b602002602001019063ffffffff16908163ffffffff1681525050611ca560b4611618565b81600481518110611cdf577f4e487b7100000000000000000000000000000000000000000000000000000000600052603260045260246000fd5b602002602001019063ffffffff16908163ffffffff16815250506000600567ffffffffffffffff811115611d3c577f4e487b7100000000000000000000000000000000000000000000000000000000600052604160045260246000fd5b604051908082528060200260200182016040528015611d6a5781602001602082028036833780820191505090505b509050602881600081518110611da9577f4e487b7100000000000000000000000000000000000000000000000000000000600052603260045260246000fd5b602002602001019060ff16908160ff1681525050601e81600181518110611df9577f4e487b7100000000000000000000000000000000000000000000000000000000600052603260045260246000fd5b602002602001019060ff16908160ff1681525050601481600281518110611e49577f4e487b7100000000000000000000000000000000000000000000000000000000600052603260045260246000fd5b602002602001019060ff16908160ff1681525050600781600381518110611e99577f4e487b7100000000000000000000000000000000000000000000000000000000600052603260045260246000fd5b602002602001019060ff16908160ff1681525050600381600481518110611ee9577f4e487b7100000000000000000000000000000000000000000000000000000000600052603260045260246000fd5b602002602001019060ff16908160ff1681525050818160149450945094505050909192565b606080600080600567ffffffffffffffff811115611f55577f4e487b7100000000000000000000000000000000000000000000000000000000600052604160045260246000fd5b604051908082528060200260200182016040528015611f835781602001602082028036833780820191505090505b509050611f90601e611618565b81600081518110611fca577f4e487b7100000000000000000000000000000000000000000000000000000000600052603260045260246000fd5b602002602001019063ffffffff16908163ffffffff1681525050611fee602d611618565b81600181518110612028577f4e487b7100000000000000000000000000000000000000000000000000000000600052603260045260246000fd5b602002602001019063ffffffff16908163ffffffff168152505061204c603c611618565b81600281518110612086577f4e487b7100000000000000000000000000000000000000000000000000000000600052603260045260246000fd5b602002602001019063ffffffff16908163ffffffff16815250506120aa604b611618565b816003815181106120e4577f4e487b7100000000000000000000000000000000000000000000000000000000600052603260045260246000fd5b602002602001019063ffffffff16908163ffffffff1681525050612108605a611618565b81600481518110612142577f4e487b7100000000000000000000000000000000000000000000000000000000600052603260045260246000fd5b602002602001019063ffffffff16908163ffffffff16815250506000600567ffffffffffffffff81111561219f577f4e487b7100000000000000000000000000000000000000000000000000000000600052604160045260246000fd5b6040519080825280602002602001820160405280156121cd5781602001602082028036833780820191505090505b50905060288160008151811061220c577f4e487b7100000000000000000000000000000000000000000000000000000000600052603260045260246000fd5b602002602001019060ff16908160ff1681525050601e8160018151811061225c577f4e487b7100000000000000000000000000000000000000000000000000000000600052603260045260246000fd5b602002602001019060ff16908160ff16815250506014816002815181106122ac577f4e487b7100000000000000000000000000000000000000000000000000000000600052603260045260246000fd5b602002602001019060ff16908160ff16815250506007816003815181106122fc577f4e487b7100000000000000000000000000000000000000000000000000000000600052603260045260246000fd5b602002602001019060ff16908160ff168152505060038160048151811061234c577f4e487b7100000000000000000000000000000000000000000000000000000000600052603260045260246000fd5b602002602001019060ff16908160ff16815250508181600a9450945094505050909192565b6000819050919050565b61238481612743565b6123c3576040517f08c379a00000000000000000000000000000000000000000000000000000000081526004016123ba906134fc565b60405180910390fd5b806123f07f360894a13ba1a3210667c828492db98dca3e2076cc3735a920a3ca505d382bbc60001b612371565b60000160006101000a81548173ffffffffffffffffffffffffffffffffffffffff021916908373ffffffffffffffffffffffffffffffffffffffff16021790555050565b606061243f83612743565b61247e576040517f08c379a00000000000000000000000000000000000000000000000000000000081526004016124759061353c565b60405180910390fd5b6000808473ffffffffffffffffffffffffffffffffffffffff16846040516124a69190613280565b600060405180830381855af49150503d80600081146124e1576040519150601f19603f3d011682016040523d82523d6000602084013e6124e6565b606091505b509150915061250e8282604051806060016040528060278152602001613d6860279139612756565b9250505092915050565b6000819050919050565b61252b8161237b565b8073ffffffffffffffffffffffffffffffffffffffff167fbc7cd75a20ee27fd9adebab32041f755214dbc6bffa90cc0225b39da2e5c2d3b60405160405180910390a250565b600060019054906101000a900460ff1680612597575060008054906101000a900460ff16155b6125d6576040517f08c379a00000000000000000000000000000000000000000000000000000000081526004016125cd906134dc565b60405180910390fd5b60008060019054906101000a900460ff161590508015612626576001600060016101000a81548160ff02191690831515021790555060016000806101000a81548160ff0219169083151502179055505b61262e6127bd565b612636612896565b80156126575760008060016101000a81548160ff0219169083151502179055505b50565b600060019054906101000a900460ff1680612680575060008054906101000a900460ff16155b6126bf576040517f08c379a00000000000000000000000000000000000000000000000000000000081526004016126b6906134dc565b60405180910390fd5b60008060019054906101000a900460ff16159050801561270f576001600060016101000a81548160ff02191690831515021790555060016000806101000a81548160ff0219169083151502179055505b61271761297f565b61271f612a58565b80156127405760008060016101000a81548160ff0219169083151502179055505b50565b600080823b905060008111915050919050565b60608315612766578290506127b6565b6000835111156127795782518084602001fd5b816040517f08c379a00000000000000000000000000000000000000000000000000000000081526004016127ad91906133da565b60405180910390fd5b9392505050565b600060019054906101000a900460ff16806127e3575060008054906101000a900460ff16155b612822576040517f08c379a0000000000000000000000000000000000000000000000000000000008152600401612819906134dc565b60405180910390fd5b60008060019054906101000a900460ff161590508015612872576001600060016101000a81548160ff02191690831515021790555060016000806101000a81548160ff0219169083151502179055505b80156128935760008060016101000a81548160ff0219169083151502179055505b50565b600060019054906101000a900460ff16806128bc575060008054906101000a900460ff16155b6128fb576040517f08c379a00000000000000000000000000000000000000000000000000000000081526004016128f2906134dc565b60405180910390fd5b60008060019054906101000a900460ff16159050801561294b576001600060016101000a81548160ff02191690831515021790555060016000806101000a81548160ff0219169083151502179055505b61295b61295661154a565b611552565b801561297c5760008060016101000a81548160ff0219169083151502179055505b50565b600060019054906101000a900460ff16806129a5575060008054906101000a900460ff16155b6129e4576040517f08c379a00000000000000000000000000000000000000000000000000000000081526004016129db906134dc565b60405180910390fd5b60008060019054906101000a900460ff161590508015612a34576001600060016101000a81548160ff02191690831515021790555060016000806101000a81548160ff0219169083151502179055505b8015612a555760008060016101000a81548160ff0219169083151502179055505b50565b600060019054906101000a900460ff1680612a7e575060008054906101000a900460ff16155b612abd576040517f08c379a0000000000000000000000000000000000000000000000000000000008152600401612ab4906134dc565b60405180910390fd5b60008060019054906101000a900460ff161590508015612b0d576001600060016101000a81548160ff02191690831515021790555060016000806101000a81548160ff0219169083151502179055505b8015612b2e5760008060016101000a81548160ff0219169083151502179055505b50565b828054612b3d906138e9565b90600052602060002090601f016020900481019282612b5f5760008555612ba6565b82601f10612b7857805160ff1916838001178555612ba6565b82800160010185558215612ba6579182015b82811115612ba5578251825591602001919060010190612b8a565b5b509050612bb39190612bb7565b5090565b5b80821115612bd0576000816000905550600101612bb8565b5090565b6000612be7612be2846135c5565b6135a0565b90508083825260208201905082856020860282011115612c0657600080fd5b60005b85811015612c365781612c1c8882612c93565b845260208401935060208301925050600181019050612c09565b5050509392505050565b6000612c53612c4e846135f1565b6135a0565b905082815260208101848484011115612c6b57600080fd5b612c768482856138a7565b509392505050565b600081359050612c8d81613ce6565b92915050565b600081519050612ca281613ce6565b92915050565b600082601f830112612cb957600080fd5b8151612cc9848260208601612bd4565b91505092915050565b600081519050612ce181613cfd565b92915050565b600082601f830112612cf857600080fd5b8135612d08848260208601612c40565b91505092915050565b600081519050612d2081613d14565b92915050565b600081359050612d3581613d2b565b92915050565b600060208284031215612d4d57600080fd5b6000612d5b84828501612c7e565b91505092915050565b600060208284031215612d7657600080fd5b6000612d8484828501612c93565b91505092915050565b60008060408385031215612da057600080fd5b6000612dae85828601612c7e565b9250506020612dbf85828601612c7e565b9150509250929050565b60008060408385031215612ddc57600080fd5b6000612dea85828601612c7e565b925050602083013567ffffffffffffffff811115612e0757600080fd5b612e1385828601612ce7565b9150509250929050565b600060208284031215612e2f57600080fd5b600082015167ffffffffffffffff811115612e4957600080fd5b612e5584828501612ca8565b91505092915050565b600060208284031215612e7057600080fd5b6000612e7e84828501612cd2565b91505092915050565b600060208284031215612e9957600080fd5b6000612ea784828501612d11565b91505092915050565b600060208284031215612ec257600080fd5b6000612ed084828501612d26565b91505092915050565b6000612ee58383612f21565b60208301905092915050565b6000612efd8383613262565b60208301905092915050565b6000612f158383613271565b60208301905092915050565b612f2a8161381e565b82525050565b612f398161381e565b82525050565b6000612f4a82613652565b612f5481856136b0565b9350612f5f83613622565b8060005b83811015612f90578151612f778882612ed9565b9750612f8283613689565b925050600181019050612f63565b5085935050505092915050565b6000612fa88261365d565b612fb281856136c1565b9350612fbd83613632565b8060005b83811015612fee578151612fd58882612ef1565b9750612fe083613696565b925050600181019050612fc1565b5085935050505092915050565b600061300682613668565b61301081856136d2565b935061301b83613642565b8060005b8381101561304c5781516130338882612f09565b975061303e836136a3565b92505060018101905061301f565b5085935050505092915050565b600061306482613673565b61306e81856136e3565b935061307e8185602086016138b6565b80840191505092915050565b61309381613883565b82525050565b60006130a48261367e565b6130ae81856136ee565b93506130be8185602086016138b6565b6130c781613a08565b840191505092915050565b60006130df602f836136ee565b91506130ea82613a19565b604082019050919050565b60006131026026836136ee565b915061310d82613a68565b604082019050919050565b6000613125601e836136ee565b915061313082613ab7565b602082019050919050565b6000613148602c836136ee565b915061315382613ae0565b604082019050919050565b600061316b6019836136ee565b915061317682613b2f565b602082019050919050565b600061318e602c836136ee565b915061319982613b58565b604082019050919050565b60006131b1601e836136ee565b91506131bc82613ba7565b602082019050919050565b60006131d4602e836136ee565b91506131df82613bd0565b604082019050919050565b60006131f7602d836136ee565b915061320282613c1f565b604082019050919050565b600061321a6020836136ee565b915061322582613c6e565b602082019050919050565b600061323d6026836136ee565b915061324882613c97565b604082019050919050565b61325c8161385c565b82525050565b61326b81613866565b82525050565b61327a81613876565b82525050565b600061328c8284613059565b915081905092915050565b60006020820190506132ac6000830184612f30565b92915050565b60006060820190506132c76000830186612f30565b6132d46020830185612f30565b6132e16040830184613253565b949350505050565b600060c0820190506132fe6000830189612f30565b61330b6020830188612f30565b6133186040830187613253565b818103606083015261332a8186612f9d565b9050818103608083015261333e8185612ffb565b905061334d60a0830184613253565b979650505050505050565b600060808201905061336d6000830187612f30565b61337a6020830186613253565b6133876040830185613253565b6133946060830184613253565b95945050505050565b600060208201905081810360008301526133b78184612f3f565b905092915050565b60006020820190506133d4600083018461308a565b92915050565b600060208201905081810360008301526133f48184613099565b905092915050565b60006020820190508181036000830152613415816130d2565b9050919050565b60006020820190508181036000830152613435816130f5565b9050919050565b6000602082019050818103600083015261345581613118565b9050919050565b600060208201905081810360008301526134758161313b565b9050919050565b600060208201905081810360008301526134958161315e565b9050919050565b600060208201905081810360008301526134b581613181565b9050919050565b600060208201905081810360008301526134d5816131a4565b9050919050565b600060208201905081810360008301526134f5816131c7565b9050919050565b60006020820190508181036000830152613515816131ea565b9050919050565b600060208201905081810360008301526135358161320d565b9050919050565b6000602082019050818103600083015261355581613230565b9050919050565b60006020820190506135716000830184613253565b92915050565b600060408201905061358c6000830185613253565b6135996020830184613253565b9392505050565b60006135aa6135bb565b90506135b6828261391b565b919050565b6000604051905090565b600067ffffffffffffffff8211156135e0576135df6139d9565b5b602082029050602081019050919050565b600067ffffffffffffffff82111561360c5761360b6139d9565b5b61361582613a08565b9050602081019050919050565b6000819050602082019050919050565b6000819050602082019050919050565b6000819050602082019050919050565b600081519050919050565b600081519050919050565b600081519050919050565b600081519050919050565b600081519050919050565b6000602082019050919050565b6000602082019050919050565b6000602082019050919050565b600082825260208201905092915050565b600082825260208201905092915050565b600082825260208201905092915050565b600081905092915050565b600082825260208201905092915050565b600061370a8261385c565b91506137158361385c565b9250827fffffffffffffffffffffffffffffffffffffffffffffffffffffffffffffffff0382111561374a5761374961394c565b5b828201905092915050565b60006137608261385c565b915061376b8361385c565b92508261377b5761377a61397b565b5b828204905092915050565b60006137918261385c565b915061379c8361385c565b9250817fffffffffffffffffffffffffffffffffffffffffffffffffffffffffffffffff04831182151516156137d5576137d461394c565b5b828202905092915050565b60006137eb82613866565b91506137f683613866565b92508163ffffffff04831182151516156138135761381261394c565b5b828202905092915050565b60006138298261383c565b9050919050565b60008115159050919050565b600073ffffffffffffffffffffffffffffffffffffffff82169050919050565b6000819050919050565b600063ffffffff82169050919050565b600060ff82169050919050565b600061388e82613895565b9050919050565b60006138a08261383c565b9050919050565b82818337600083830152505050565b60005b838110156138d45780820151818401526020810190506138b9565b838111156138e3576000848401525b50505050565b6000600282049050600182168061390157607f821691505b60208210811415613915576139146139aa565b5b50919050565b61392482613a08565b810181811067ffffffffffffffff82111715613943576139426139d9565b5b80604052505050565b7f4e487b7100000000000000000000000000000000000000000000000000000000600052601160045260246000fd5b7f4e487b7100000000000000000000000000000000000000000000000000000000600052601260045260246000fd5b7f4e487b7100000000000000000000000000000000000000000000000000000000600052602260045260246000fd5b7f4e487b7100000000000000000000000000000000000000000000000000000000600052604160045260246000fd5b6000601f19601f8301169050919050565b7f45524331393637557067726164653a207570677261646520627265616b73206660008201527f7572746865722075706772616465730000000000000000000000000000000000602082015250565b7f4f776e61626c653a206e6577206f776e657220697320746865207a65726f206160008201527f6464726573730000000000000000000000000000000000000000000000000000602082015250565b7f4e65656420746f20636f6d706c6574652053616c6520646561646c696e650000600082015250565b7f46756e6374696f6e206d7573742062652063616c6c6564207468726f7567682060008201527f64656c656761746563616c6c0000000000000000000000000000000000000000602082015250565b7f4355503a205452414e534645525f46524f4d5f4641494c454400000000000000600082015250565b7f46756e6374696f6e206d7573742062652063616c6c6564207468726f7567682060008201527f6163746976652070726f78790000000000000000000000000000000000000000602082015250565b7f43555043616b653a20456e64206f662073616c652e20476f6f64627965210000600082015250565b7f496e697469616c697a61626c653a20636f6e747261637420697320616c72656160008201527f647920696e697469616c697a6564000000000000000000000000000000000000602082015250565b7f455243313936373a206e657720696d706c656d656e746174696f6e206973206e60008201527f6f74206120636f6e747261637400000000000000000000000000000000000000602082015250565b7f4f776e61626c653a2063616c6c6572206973206e6f7420746865206f776e6572600082015250565b7f416464726573733a2064656c65676174652063616c6c20746f206e6f6e2d636f60008201527f6e74726163740000000000000000000000000000000000000000000000000000602082015250565b613cef8161381e565b8114613cfa57600080fd5b50565b613d0681613830565b8114613d1157600080fd5b50565b613d1d8161385c565b8114613d2857600080fd5b50565b613d3481613876565b8114613d3f57600080fd5b5056fe7472616e7366657246726f6d28616464726573732c616464726573732c75696e7432353629416464726573733a206c6f772d6c6576656c2064656c65676174652063616c6c206661696c6564a264697066735822122075c9b0d9154719f29d4c6eb3619e679dec9aa4ef0c47ecb5f9b05a4ba24e51c564736f6c63430008020033",
  "immutableReferences": {
    "612": [
      {
        "length": 32,
        "start": 1788
      },
      {
        "length": 32,
        "start": 1931
      },
      {
        "length": 32,
        "start": 2784
      },
      {
        "length": 32,
        "start": 2927
      }
    ]
  },
  "source": "// SPDX-License-Identifier: MIT\npragma solidity ^0.8.0;\n\nimport \"./CUPCake.sol\";\n\ncontract BNBSale is CUPCake {\n\n    /// @custom:oz-upgrades-unsafe-allow constructor\n    constructor() initializer {}\n\n    function initialize(address token_, address locker_) public initializer {\n        __CUPCake_init(token_, locker_, 0, 100000);\n    }\n}\n",
  "sourcePath": "/Users/cuongnguyen/Documents/contracts/contracts/BNBSale.sol",
  "compiler": {
    "name": "solc",
    "version": "0.8.2+commit.661d1103.Emscripten.clang"
  },
  "schemaVersion": "3.4.3",
  "updatedAt": "2021-11-13T15:23:55.043Z",
  "devdoc": {
    "kind": "dev",
    "methods": {
      "constructor": {
        "custom:oz-upgrades-unsafe-allow": "constructor"
      },
      "owner()": {
        "details": "Returns the address of the current owner."
      },
      "renounceOwnership()": {
        "details": "Leaves the contract without owner. It will not be possible to call `onlyOwner` functions anymore. Can only be called by the current owner. NOTE: Renouncing ownership will leave the contract without an owner, thereby removing any functionality that is only available to the owner."
      },
      "transferOwnership(address)": {
        "details": "Transfers ownership of the contract to a new account (`newOwner`). Can only be called by the current owner."
      },
      "upgradeTo(address)": {
        "details": "Upgrade the implementation of the proxy to `newImplementation`. Calls {_authorizeUpgrade}. Emits an {Upgraded} event."
      },
      "upgradeToAndCall(address,bytes)": {
        "details": "Upgrade the implementation of the proxy to `newImplementation`, and subsequently execute the function call encoded in `data`. Calls {_authorizeUpgrade}. Emits an {Upgraded} event."
      }
    },
    "version": 1
  },
  "userdoc": {
    "kind": "user",
    "methods": {},
    "version": 1
  }
}