{
  "contractName": "BNBSale",
  "abi": [
    {
      "inputs": [],
      "stateMutability": "nonpayable",
      "type": "constructor"
    },
    {
      "anonymous": false,
      "inputs": [
        {
          "indexed": false,
          "internalType": "address",
          "name": "previousAdmin",
          "type": "address"
        },
        {
          "indexed": false,
          "internalType": "address",
          "name": "newAdmin",
          "type": "address"
        }
      ],
      "name": "AdminChanged",
      "type": "event"
    },
    {
      "anonymous": false,
      "inputs": [
        {
          "indexed": true,
          "internalType": "address",
          "name": "beacon",
          "type": "address"
        }
      ],
      "name": "BeaconUpgraded",
      "type": "event"
    },
    {
      "anonymous": false,
      "inputs": [
        {
          "indexed": true,
          "internalType": "address",
          "name": "previousOwner",
          "type": "address"
        },
        {
          "indexed": true,
          "internalType": "address",
          "name": "newOwner",
          "type": "address"
        }
      ],
      "name": "OwnershipTransferred",
      "type": "event"
    },
    {
      "anonymous": false,
      "inputs": [
        {
          "indexed": true,
          "internalType": "address",
          "name": "account",
          "type": "address"
        },
        {
          "indexed": false,
          "internalType": "address",
          "name": "wallet",
          "type": "address"
        },
        {
          "indexed": false,
          "internalType": "uint256",
          "name": "amount",
          "type": "uint256"
        },
        {
          "indexed": false,
          "internalType": "uint256",
          "name": "rate",
          "type": "uint256"
        },
        {
          "indexed": false,
          "internalType": "uint256",
          "name": "reward",
          "type": "uint256"
        }
      ],
      "name": "TokensPurchased",
      "type": "event"
    },
    {
      "anonymous": false,
      "inputs": [
        {
          "indexed": false,
          "internalType": "uint256",
          "name": "amount",
          "type": "uint256"
        },
        {
          "indexed": false,
          "internalType": "uint256",
          "name": "reward",
          "type": "uint256"
        }
      ],
      "name": "TokensSold",
      "type": "event"
    },
    {
      "anonymous": false,
      "inputs": [
        {
          "indexed": true,
          "internalType": "address",
          "name": "implementation",
          "type": "address"
        }
      ],
      "name": "Upgraded",
      "type": "event"
    },
    {
      "inputs": [
        {
          "internalType": "uint8",
          "name": "days_",
          "type": "uint8"
        }
      ],
      "name": "activeDeadline",
      "outputs": [],
      "stateMutability": "nonpayable",
      "type": "function"
    },
    {
      "inputs": [
        {
          "internalType": "uint8",
          "name": "lock",
          "type": "uint8"
        }
      ],
      "name": "buyTokens",
      "outputs": [],
      "stateMutability": "payable",
      "type": "function"
    },
    {
      "inputs": [],
      "name": "completeSale",
      "outputs": [],
      "stateMutability": "nonpayable",
      "type": "function"
    },
    {
      "inputs": [],
      "name": "deadline",
      "outputs": [
        {
          "internalType": "uint256",
          "name": "",
          "type": "uint256"
        }
      ],
      "stateMutability": "view",
      "type": "function"
    },
    {
      "inputs": [],
      "name": "factory",
      "outputs": [
        {
          "internalType": "contract LockFactory",
          "name": "",
          "type": "address"
        }
      ],
      "stateMutability": "view",
      "type": "function"
    },
    {
      "inputs": [],
      "name": "getWallets",
      "outputs": [
        {
          "internalType": "address[]",
          "name": "",
          "type": "address[]"
        }
      ],
      "stateMutability": "view",
      "type": "function"
    },
    {
      "inputs": [],
      "name": "name",
      "outputs": [
        {
          "internalType": "string",
          "name": "",
          "type": "string"
        }
      ],
      "stateMutability": "view",
      "type": "function"
    },
    {
      "inputs": [],
      "name": "owner",
      "outputs": [
        {
          "internalType": "address",
          "name": "",
          "type": "address"
        }
      ],
      "stateMutability": "view",
      "type": "function"
    },
    {
      "inputs": [],
      "name": "rate",
      "outputs": [
        {
          "internalType": "uint256",
          "name": "",
          "type": "uint256"
        }
      ],
      "stateMutability": "view",
      "type": "function"
    },
    {
      "inputs": [],
      "name": "renounceOwnership",
      "outputs": [],
      "stateMutability": "nonpayable",
      "type": "function"
    },
    {
      "inputs": [],
      "name": "token",
      "outputs": [
        {
          "internalType": "address",
          "name": "",
          "type": "address"
        }
      ],
      "stateMutability": "view",
      "type": "function"
    },
    {
      "inputs": [],
      "name": "totalReward",
      "outputs": [
        {
          "internalType": "uint256",
          "name": "",
          "type": "uint256"
        }
      ],
      "stateMutability": "view",
      "type": "function"
    },
    {
      "inputs": [
        {
          "internalType": "address",
          "name": "newOwner",
          "type": "address"
        }
      ],
      "name": "transferOwnership",
      "outputs": [],
      "stateMutability": "nonpayable",
      "type": "function"
    },
    {
      "inputs": [
        {
          "internalType": "address",
          "name": "newImplementation",
          "type": "address"
        }
      ],
      "name": "upgradeTo",
      "outputs": [],
      "stateMutability": "nonpayable",
      "type": "function"
    },
    {
      "inputs": [
        {
          "internalType": "address",
          "name": "newImplementation",
          "type": "address"
        },
        {
          "internalType": "bytes",
          "name": "data",
          "type": "bytes"
        }
      ],
      "name": "upgradeToAndCall",
      "outputs": [],
      "stateMutability": "payable",
      "type": "function"
    },
    {
      "stateMutability": "payable",
      "type": "receive"
    },
    {
      "inputs": [
        {
          "internalType": "address",
          "name": "token_",
          "type": "address"
        },
        {
          "internalType": "address",
          "name": "locker_",
          "type": "address"
        }
      ],
      "name": "initialize",
      "outputs": [],
      "stateMutability": "nonpayable",
      "type": "function"
    }
  ],
  "bytecode": "0x60a06040523073ffffffffffffffffffffffffffffffffffffffff1660809073ffffffffffffffffffffffffffffffffffffffff1660601b8152503480156200004757600080fd5b50600060019054906101000a900460ff16620000725760008054906101000a900460ff161562000083565b620000826200013f60201b60201c565b5b620000c5576040517f08c379a0000000000000000000000000000000000000000000000000000000008152600401620000bc9062000197565b60405180910390fd5b60008060019054906101000a900460ff16159050801562000116576001600060016101000a81548160ff02191690831515021790555060016000806101000a81548160ff0219169083151502179055505b8015620001385760008060016101000a81548160ff0219169083151502179055505b5062000219565b600062000157306200015d60201b62000f641760201c565b15905090565b600080823b905060008111915050919050565b60006200017f602e83620001b9565b91506200018c82620001ca565b604082019050919050565b60006020820190508181036000830152620001b28162000170565b9050919050565b600082825260208201905092915050565b7f496e697469616c697a61626c653a20636f6e747261637420697320616c72656160008201527f647920696e697469616c697a6564000000000000000000000000000000000000602082015250565b60805160601c613b4d6200024d600039600081816106fc0152818161078b01528181610aeb0152610b7a0152613b4d6000f3fe6080604052600436106100f75760003560e01c8063750142e61161008a578063c45a015511610059578063c45a0155146102c5578063db7a4605146102f0578063f2fde38b1461031b578063fc0c546a1461034457610108565b8063750142e61461022a5780638da5cb5b14610255578063bba5b24e14610280578063c1ce83101461029c57610108565b8063485cc955116100c6578063485cc955146101b75780634d461ed1146101e05780634f1ef286146101f7578063715018a61461021357610108565b806306fdde031461010d57806329dcb0cf146101385780632c4e722e146101635780633659cfe61461018e57610108565b3661010857610106600c61036f565b005b600080fd5b34801561011957600080fd5b50610122610660565b60405161012f91906130f4565b60405180910390f35b34801561014457600080fd5b5061014d6106ee565b60405161015a9190613296565b60405180910390f35b34801561016f57600080fd5b506101786106f4565b6040516101859190613296565b60405180910390f35b34801561019a57600080fd5b506101b560048036038101906101b09190612a32565b6106fa565b005b3480156101c357600080fd5b506101de60048036038101906101d99190612a84565b6108a9565b005b3480156101ec57600080fd5b506101f561099f565b005b610211600480360381019061020c9190612ac0565b610ae9565b005b34801561021f57600080fd5b50610228610c26565b005b34801561023657600080fd5b5061023f610cae565b60405161024c9190613296565b60405180910390f35b34801561026157600080fd5b5061026a610cb4565b6040516102779190612fb1565b60405180910390f35b61029a60048036038101906102959190612ba7565b61036f565b005b3480156102a857600080fd5b506102c360048036038101906102be9190612ba7565b610cde565b005b3480156102d157600080fd5b506102da610d80565b6040516102e791906130d9565b60405180910390f35b3480156102fc57600080fd5b50610305610daa565b60405161031291906130b7565b60405180910390f35b34801561032757600080fd5b50610342600480360381019061033d9190612a32565b610e46565b005b34801561035057600080fd5b50610359610f3e565b6040516103669190612fb1565b60405180910390f35b600060c95411156103bf5760c95442106103be576040517f08c379a00000000000000000000000000000000000000000000000000000000081526004016103b5906131d6565b60405180910390fd5b5b60008060006103cd84610f77565b925092509250600060cd54346103e391906134c0565b9050600061040d60646103ff8585610fd090919063ffffffff16565b610fe690919063ffffffff16565b9050808261041b9190613439565b91508060ce5461042b9190613439565b60ce819055508160cb60009054906101000a900473ffffffffffffffffffffffffffffffffffffffff1673ffffffffffffffffffffffffffffffffffffffff166370a08231610478610cb4565b6040518263ffffffff1660e01b81526004016104949190612fb1565b60206040518083038186803b1580156104ac57600080fd5b505afa1580156104c0573d6000803e3d6000fd5b505050506040513d601f19601f820116820180604052508101906104e49190612b7e565b10156104ef57600080fd5b600060cc60009054906101000a900473ffffffffffffffffffffffffffffffffffffffff1673ffffffffffffffffffffffffffffffffffffffff1663420790c03360cb60009054906101000a900473ffffffffffffffffffffffffffffffffffffffff16868a8a426040518763ffffffff1660e01b815260040161057896959493929190613003565b602060405180830381600087803b15801561059257600080fd5b505af11580156105a6573d6000803e3d6000fd5b505050506040513d601f19601f820116820180604052508101906105ca9190612a5b565b905061060160cb60009054906101000a900473ffffffffffffffffffffffffffffffffffffffff166105fa610cb4565b8386610ffc565b3373ffffffffffffffffffffffffffffffffffffffff167f377aadedb6b2a771959584d10a6a36eccb5f56b4eb3a48525f76108d2660d8d4828560cd548860405161064f9493929190613072565b60405180910390a250505050505050565b60ca805461066d90613623565b80601f016020809104026020016040519081016040528092919081815260200182805461069990613623565b80156106e65780601f106106bb576101008083540402835291602001916106e6565b820191906000526020600020905b8154815290600101906020018083116106c957829003601f168201915b505050505081565b60c95481565b60cd5481565b7f000000000000000000000000000000000000000000000000000000000000000073ffffffffffffffffffffffffffffffffffffffff163073ffffffffffffffffffffffffffffffffffffffff161415610789576040517f08c379a000000000000000000000000000000000000000000000000000000000815260040161078090613176565b60405180910390fd5b7f000000000000000000000000000000000000000000000000000000000000000073ffffffffffffffffffffffffffffffffffffffff166107c861116c565b73ffffffffffffffffffffffffffffffffffffffff161461081e576040517f08c379a0000000000000000000000000000000000000000000000000000000008152600401610815906131b6565b60405180910390fd5b610827816111c3565b6108a681600067ffffffffffffffff81111561086c577f4e487b7100000000000000000000000000000000000000000000000000000000600052604160045260246000fd5b6040519080825280601f01601f19166020018201604052801561089e5781602001600182028036833780820191505090505b5060006111c6565b50565b600060019054906101000a900460ff166108d15760008054906101000a900460ff16156108da565b6108d9611397565b5b610919576040517f08c379a0000000000000000000000000000000000000000000000000000000008152600401610910906131f6565b60405180910390fd5b60008060019054906101000a900460ff161590508015610969576001600060016101000a81548160ff02191690831515021790555060016000806101000a81548160ff0219169083151502179055505b61097983836000620186a06113a8565b801561099a5760008060016101000a81548160ff0219169083151502179055505b505050565b6109a7611584565b73ffffffffffffffffffffffffffffffffffffffff166109c5610cb4565b73ffffffffffffffffffffffffffffffffffffffff1614610a1b576040517f08c379a0000000000000000000000000000000000000000000000000000000008152600401610a1290613236565b60405180910390fd5b60c9544211610a5f576040517f08c379a0000000000000000000000000000000000000000000000000000000008152600401610a5690613156565b60405180910390fd5b60004790507f9745885914207e14787933537f5e0fc3685e9b3a89eeeecbc1d10207baa4c7908160ce54604051610a979291906132b1565b60405180910390a13373ffffffffffffffffffffffffffffffffffffffff166108fc829081150290604051600060405180830381858888f19350505050158015610ae5573d6000803e3d6000fd5b5050565b7f000000000000000000000000000000000000000000000000000000000000000073ffffffffffffffffffffffffffffffffffffffff163073ffffffffffffffffffffffffffffffffffffffff161415610b78576040517f08c379a0000000000000000000000000000000000000000000000000000000008152600401610b6f90613176565b60405180910390fd5b7f000000000000000000000000000000000000000000000000000000000000000073ffffffffffffffffffffffffffffffffffffffff16610bb761116c565b73ffffffffffffffffffffffffffffffffffffffff1614610c0d576040517f08c379a0000000000000000000000000000000000000000000000000000000008152600401610c04906131b6565b60405180910390fd5b610c16826111c3565b610c22828260016111c6565b5050565b610c2e611584565b73ffffffffffffffffffffffffffffffffffffffff16610c4c610cb4565b73ffffffffffffffffffffffffffffffffffffffff1614610ca2576040517f08c379a0000000000000000000000000000000000000000000000000000000008152600401610c9990613236565b60405180910390fd5b610cac600061158c565b565b60ce5481565b6000609760009054906101000a900473ffffffffffffffffffffffffffffffffffffffff16905090565b610ce6611584565b73ffffffffffffffffffffffffffffffffffffffff16610d04610cb4565b73ffffffffffffffffffffffffffffffffffffffff1614610d5a576040517f08c379a0000000000000000000000000000000000000000000000000000000008152600401610d5190613236565b60405180910390fd5b610d668160ff16611652565b63ffffffff1642610d779190613439565b60c98190555050565b600060cc60009054906101000a900473ffffffffffffffffffffffffffffffffffffffff16905090565b6060610db4610d80565b73ffffffffffffffffffffffffffffffffffffffff1663fe2b0cd1336040518263ffffffff1660e01b8152600401610dec9190612fb1565b60006040518083038186803b158015610e0457600080fd5b505afa158015610e18573d6000803e3d6000fd5b505050506040513d6000823e3d601f19601f82011682018060405250810190610e419190612b14565b905090565b610e4e611584565b73ffffffffffffffffffffffffffffffffffffffff16610e6c610cb4565b73ffffffffffffffffffffffffffffffffffffffff1614610ec2576040517f08c379a0000000000000000000000000000000000000000000000000000000008152600401610eb990613236565b60405180910390fd5b600073ffffffffffffffffffffffffffffffffffffffff168173ffffffffffffffffffffffffffffffffffffffff161415610f32576040517f08c379a0000000000000000000000000000000000000000000000000000000008152600401610f2990613136565b60405180910390fd5b610f3b8161158c565b50565b60cb60009054906101000a900473ffffffffffffffffffffffffffffffffffffffff1681565b600080823b905060008111915050919050565b6060806000600c8460ff161415610f9b57610f9061167f565b925092509250610fc9565b60068460ff161415610fba57610faf611ae5565b925092509250610fc9565b610fc2611f48565b9250925092505b9193909250565b60008183610fde91906134c0565b905092915050565b60008183610ff4919061348f565b905092915050565b6000808573ffffffffffffffffffffffffffffffffffffffff16604051806060016040528060258152602001613acc602591398051906020012086868660405160240161104b93929190612fcc565b604051602081830303815290604052907bffffffffffffffffffffffffffffffffffffffffffffffffffffffff19166020820180517bffffffffffffffffffffffffffffffffffffffffffffffffffffffff83818316178352505050506040516110b59190612f9a565b6000604051808303816000865af19150503d80600081146110f2576040519150601f19603f3d011682016040523d82523d6000602084013e6110f7565b606091505b509150915081801561112557506000815114806111245750808060200190518101906111239190612b55565b5b5b611164576040517f08c379a000000000000000000000000000000000000000000000000000000000815260040161115b90613196565b60405180910390fd5b505050505050565b600061119a7f360894a13ba1a3210667c828492db98dca3e2076cc3735a920a3ca505d382bbc60001b6123ab565b60000160009054906101000a900473ffffffffffffffffffffffffffffffffffffffff16905090565b50565b60006111d061116c565b90506111db846123b5565b6000835111806111e85750815b156111f9576111f7848461246e565b505b60006112277f4910fdfa16fed3260ed0e7147f7cc6da11a60208b5b9406d12a635614ffd914360001b612552565b90508060000160009054906101000a900460ff166113905760018160000160006101000a81548160ff0219169083151502179055506112f385836040516024016112719190612fb1565b6040516020818303038152906040527f3659cfe6000000000000000000000000000000000000000000000000000000007bffffffffffffffffffffffffffffffffffffffffffffffffffffffff19166020820180517bffffffffffffffffffffffffffffffffffffffffffffffffffffffff838183161783525050505061246e565b5060008160000160006101000a81548160ff02191690831515021790555061131961116c565b73ffffffffffffffffffffffffffffffffffffffff168273ffffffffffffffffffffffffffffffffffffffff1614611386576040517f08c379a000000000000000000000000000000000000000000000000000000000815260040161137d90613116565b60405180910390fd5b61138f8561255c565b5b5050505050565b60006113a230610f64565b15905090565b600060019054906101000a900460ff166113d05760008054906101000a900460ff16156113d9565b6113d8611397565b5b611418576040517f08c379a000000000000000000000000000000000000000000000000000000000815260040161140f906131f6565b60405180910390fd5b60008060019054906101000a900460ff161590508015611468576001600060016101000a81548160ff02191690831515021790555060016000806101000a81548160ff0219169083151502179055505b6114706125ab565b61147861260c565b8360cc60006101000a81548173ffffffffffffffffffffffffffffffffffffffff021916908373ffffffffffffffffffffffffffffffffffffffff1602179055508460cb60006101000a81548173ffffffffffffffffffffffffffffffffffffffff021916908373ffffffffffffffffffffffffffffffffffffffff1602179055506040518060400160405280601181526020017f4355502053616c6520436f6e747261637400000000000000000000000000000081525060ca9080519060200190611545929190612828565b50600060ce819055508260c9819055508160cd81905550801561157d5760008060016101000a81548160ff0219169083151502179055505b5050505050565b600033905090565b6000609760009054906101000a900473ffffffffffffffffffffffffffffffffffffffff16905081609760006101000a81548173ffffffffffffffffffffffffffffffffffffffff021916908373ffffffffffffffffffffffffffffffffffffffff1602179055508173ffffffffffffffffffffffffffffffffffffffff168173ffffffffffffffffffffffffffffffffffffffff167f8be0079c531659141344cd1fd0a4f28419497f9722a3daafe3b4186f6b6457e060405160405180910390a35050565b60006018603c8084611664919061351a565b61166e919061351a565b611678919061351a565b9050919050565b606080600080600567ffffffffffffffff8111156116c6577f4e487b7100000000000000000000000000000000000000000000000000000000600052604160045260246000fd5b6040519080825280602002602001820160405280156116f45781602001602082028036833780820191505090505b5090506117016096611652565b8160008151811061173b577f4e487b7100000000000000000000000000000000000000000000000000000000600052603260045260246000fd5b602002602001019063ffffffff16908163ffffffff168152505061175f60d2611652565b81600181518110611799577f4e487b7100000000000000000000000000000000000000000000000000000000600052603260045260246000fd5b602002602001019063ffffffff16908163ffffffff16815250506117be61010e611652565b816002815181106117f8577f4e487b7100000000000000000000000000000000000000000000000000000000600052603260045260246000fd5b602002602001019063ffffffff16908163ffffffff168152505061181d61014a611652565b81600381518110611857577f4e487b7100000000000000000000000000000000000000000000000000000000600052603260045260246000fd5b602002602001019063ffffffff16908163ffffffff168152505061187c610168611652565b816004815181106118b6577f4e487b7100000000000000000000000000000000000000000000000000000000600052603260045260246000fd5b602002602001019063ffffffff16908163ffffffff16815250506000600567ffffffffffffffff811115611913577f4e487b7100000000000000000000000000000000000000000000000000000000600052604160045260246000fd5b6040519080825280602002602001820160405280156119415781602001602082028036833780820191505090505b509050602881600081518110611980577f4e487b7100000000000000000000000000000000000000000000000000000000600052603260045260246000fd5b602002602001019060ff16908160ff1681525050601e816001815181106119d0577f4e487b7100000000000000000000000000000000000000000000000000000000600052603260045260246000fd5b602002602001019060ff16908160ff1681525050601481600281518110611a20577f4e487b7100000000000000000000000000000000000000000000000000000000600052603260045260246000fd5b602002602001019060ff16908160ff1681525050600781600381518110611a70577f4e487b7100000000000000000000000000000000000000000000000000000000600052603260045260246000fd5b602002602001019060ff16908160ff1681525050600381600481518110611ac0577f4e487b7100000000000000000000000000000000000000000000000000000000600052603260045260246000fd5b602002602001019060ff16908160ff1681525050818160329450945094505050909192565b606080600080600567ffffffffffffffff811115611b2c577f4e487b7100000000000000000000000000000000000000000000000000000000600052604160045260246000fd5b604051908082528060200260200182016040528015611b5a5781602001602082028036833780820191505090505b509050611b67603c611652565b81600081518110611ba1577f4e487b7100000000000000000000000000000000000000000000000000000000600052603260045260246000fd5b602002602001019063ffffffff16908163ffffffff1681525050611bc5605a611652565b81600181518110611bff577f4e487b7100000000000000000000000000000000000000000000000000000000600052603260045260246000fd5b602002602001019063ffffffff16908163ffffffff1681525050611c236078611652565b81600281518110611c5d577f4e487b7100000000000000000000000000000000000000000000000000000000600052603260045260246000fd5b602002602001019063ffffffff16908163ffffffff1681525050611c816096611652565b81600381518110611cbb577f4e487b7100000000000000000000000000000000000000000000000000000000600052603260045260246000fd5b602002602001019063ffffffff16908163ffffffff1681525050611cdf60b4611652565b81600481518110611d19577f4e487b7100000000000000000000000000000000000000000000000000000000600052603260045260246000fd5b602002602001019063ffffffff16908163ffffffff16815250506000600567ffffffffffffffff811115611d76577f4e487b7100000000000000000000000000000000000000000000000000000000600052604160045260246000fd5b604051908082528060200260200182016040528015611da45781602001602082028036833780820191505090505b509050602881600081518110611de3577f4e487b7100000000000000000000000000000000000000000000000000000000600052603260045260246000fd5b602002602001019060ff16908160ff1681525050601e81600181518110611e33577f4e487b7100000000000000000000000000000000000000000000000000000000600052603260045260246000fd5b602002602001019060ff16908160ff1681525050601481600281518110611e83577f4e487b7100000000000000000000000000000000000000000000000000000000600052603260045260246000fd5b602002602001019060ff16908160ff1681525050600781600381518110611ed3577f4e487b7100000000000000000000000000000000000000000000000000000000600052603260045260246000fd5b602002602001019060ff16908160ff1681525050600381600481518110611f23577f4e487b7100000000000000000000000000000000000000000000000000000000600052603260045260246000fd5b602002602001019060ff16908160ff1681525050818160149450945094505050909192565b606080600080600567ffffffffffffffff811115611f8f577f4e487b7100000000000000000000000000000000000000000000000000000000600052604160045260246000fd5b604051908082528060200260200182016040528015611fbd5781602001602082028036833780820191505090505b509050611fca601e611652565b81600081518110612004577f4e487b7100000000000000000000000000000000000000000000000000000000600052603260045260246000fd5b602002602001019063ffffffff16908163ffffffff1681525050612028602d611652565b81600181518110612062577f4e487b7100000000000000000000000000000000000000000000000000000000600052603260045260246000fd5b602002602001019063ffffffff16908163ffffffff1681525050612086603c611652565b816002815181106120c0577f4e487b7100000000000000000000000000000000000000000000000000000000600052603260045260246000fd5b602002602001019063ffffffff16908163ffffffff16815250506120e4604b611652565b8160038151811061211e577f4e487b7100000000000000000000000000000000000000000000000000000000600052603260045260246000fd5b602002602001019063ffffffff16908163ffffffff1681525050612142605a611652565b8160048151811061217c577f4e487b7100000000000000000000000000000000000000000000000000000000600052603260045260246000fd5b602002602001019063ffffffff16908163ffffffff16815250506000600567ffffffffffffffff8111156121d9577f4e487b7100000000000000000000000000000000000000000000000000000000600052604160045260246000fd5b6040519080825280602002602001820160405280156122075781602001602082028036833780820191505090505b509050602881600081518110612246577f4e487b7100000000000000000000000000000000000000000000000000000000600052603260045260246000fd5b602002602001019060ff16908160ff1681525050601e81600181518110612296577f4e487b7100000000000000000000000000000000000000000000000000000000600052603260045260246000fd5b602002602001019060ff16908160ff16815250506014816002815181106122e6577f4e487b7100000000000000000000000000000000000000000000000000000000600052603260045260246000fd5b602002602001019060ff16908160ff1681525050600781600381518110612336577f4e487b7100000000000000000000000000000000000000000000000000000000600052603260045260246000fd5b602002602001019060ff16908160ff1681525050600381600481518110612386577f4e487b7100000000000000000000000000000000000000000000000000000000600052603260045260246000fd5b602002602001019060ff16908160ff16815250508181600a9450945094505050909192565b6000819050919050565b6123be81610f64565b6123fd576040517f08c379a00000000000000000000000000000000000000000000000000000000081526004016123f490613216565b60405180910390fd5b8061242a7f360894a13ba1a3210667c828492db98dca3e2076cc3735a920a3ca505d382bbc60001b6123ab565b60000160006101000a81548173ffffffffffffffffffffffffffffffffffffffff021916908373ffffffffffffffffffffffffffffffffffffffff16021790555050565b606061247983610f64565b6124b8576040517f08c379a00000000000000000000000000000000000000000000000000000000081526004016124af90613256565b60405180910390fd5b6000808473ffffffffffffffffffffffffffffffffffffffff16846040516124e09190612f9a565b600060405180830381855af49150503d806000811461251b576040519150601f19603f3d011682016040523d82523d6000602084013e612520565b606091505b50915091506125488282604051806060016040528060278152602001613af16027913961266d565b9250505092915050565b6000819050919050565b612565816123b5565b8073ffffffffffffffffffffffffffffffffffffffff167fbc7cd75a20ee27fd9adebab32041f755214dbc6bffa90cc0225b39da2e5c2d3b60405160405180910390a250565b600060019054906101000a900460ff166125fa576040517f08c379a00000000000000000000000000000000000000000000000000000000081526004016125f190613276565b60405180910390fd5b6126026126d4565b61260a612725565b565b600060019054906101000a900460ff1661265b576040517f08c379a000000000000000000000000000000000000000000000000000000000815260040161265290613276565b60405180910390fd5b612663612786565b61266b6127d7565b565b6060831561267d578290506126cd565b6000835111156126905782518084602001fd5b816040517f08c379a00000000000000000000000000000000000000000000000000000000081526004016126c491906130f4565b60405180910390fd5b9392505050565b600060019054906101000a900460ff16612723576040517f08c379a000000000000000000000000000000000000000000000000000000000815260040161271a90613276565b60405180910390fd5b565b600060019054906101000a900460ff16612774576040517f08c379a000000000000000000000000000000000000000000000000000000000815260040161276b90613276565b60405180910390fd5b61278461277f611584565b61158c565b565b600060019054906101000a900460ff166127d5576040517f08c379a00000000000000000000000000000000000000000000000000000000081526004016127cc90613276565b60405180910390fd5b565b600060019054906101000a900460ff16612826576040517f08c379a000000000000000000000000000000000000000000000000000000000815260040161281d90613276565b60405180910390fd5b565b82805461283490613623565b90600052602060002090601f016020900481019282612856576000855561289d565b82601f1061286f57805160ff191683800117855561289d565b8280016001018555821561289d579182015b8281111561289c578251825591602001919060010190612881565b5b5090506128aa91906128ae565b5090565b5b808211156128c75760008160009055506001016128af565b5090565b60006128de6128d9846132ff565b6132da565b905080838252602082019050828560208602820111156128fd57600080fd5b60005b8581101561292d5781612913888261298a565b845260208401935060208301925050600181019050612900565b5050509392505050565b600061294a6129458461332b565b6132da565b90508281526020810184848401111561296257600080fd5b61296d8482856135e1565b509392505050565b60008135905061298481613a6f565b92915050565b60008151905061299981613a6f565b92915050565b600082601f8301126129b057600080fd5b81516129c08482602086016128cb565b91505092915050565b6000815190506129d881613a86565b92915050565b600082601f8301126129ef57600080fd5b81356129ff848260208601612937565b91505092915050565b600081519050612a1781613a9d565b92915050565b600081359050612a2c81613ab4565b92915050565b600060208284031215612a4457600080fd5b6000612a5284828501612975565b91505092915050565b600060208284031215612a6d57600080fd5b6000612a7b8482850161298a565b91505092915050565b60008060408385031215612a9757600080fd5b6000612aa585828601612975565b9250506020612ab685828601612975565b9150509250929050565b60008060408385031215612ad357600080fd5b6000612ae185828601612975565b925050602083013567ffffffffffffffff811115612afe57600080fd5b612b0a858286016129de565b9150509250929050565b600060208284031215612b2657600080fd5b600082015167ffffffffffffffff811115612b4057600080fd5b612b4c8482850161299f565b91505092915050565b600060208284031215612b6757600080fd5b6000612b75848285016129c9565b91505092915050565b600060208284031215612b9057600080fd5b6000612b9e84828501612a08565b91505092915050565b600060208284031215612bb957600080fd5b6000612bc784828501612a1d565b91505092915050565b6000612bdc8383612c18565b60208301905092915050565b6000612bf48383612f7c565b60208301905092915050565b6000612c0c8383612f8b565b60208301905092915050565b612c2181613558565b82525050565b612c3081613558565b82525050565b6000612c418261338c565b612c4b81856133ea565b9350612c568361335c565b8060005b83811015612c87578151612c6e8882612bd0565b9750612c79836133c3565b925050600181019050612c5a565b5085935050505092915050565b6000612c9f82613397565b612ca981856133fb565b9350612cb48361336c565b8060005b83811015612ce5578151612ccc8882612be8565b9750612cd7836133d0565b925050600181019050612cb8565b5085935050505092915050565b6000612cfd826133a2565b612d07818561340c565b9350612d128361337c565b8060005b83811015612d43578151612d2a8882612c00565b9750612d35836133dd565b925050600181019050612d16565b5085935050505092915050565b6000612d5b826133ad565b612d65818561341d565b9350612d758185602086016135f0565b80840191505092915050565b612d8a816135bd565b82525050565b6000612d9b826133b8565b612da58185613428565b9350612db58185602086016135f0565b612dbe81613742565b840191505092915050565b6000612dd6602f83613428565b9150612de182613753565b604082019050919050565b6000612df9602683613428565b9150612e04826137a2565b604082019050919050565b6000612e1c601e83613428565b9150612e27826137f1565b602082019050919050565b6000612e3f602c83613428565b9150612e4a8261381a565b604082019050919050565b6000612e62601983613428565b9150612e6d82613869565b602082019050919050565b6000612e85602c83613428565b9150612e9082613892565b604082019050919050565b6000612ea8601e83613428565b9150612eb3826138e1565b602082019050919050565b6000612ecb602e83613428565b9150612ed68261390a565b604082019050919050565b6000612eee602d83613428565b9150612ef982613959565b604082019050919050565b6000612f11602083613428565b9150612f1c826139a8565b602082019050919050565b6000612f34602683613428565b9150612f3f826139d1565b604082019050919050565b6000612f57602b83613428565b9150612f6282613a20565b604082019050919050565b612f7681613596565b82525050565b612f85816135a0565b82525050565b612f94816135b0565b82525050565b6000612fa68284612d50565b915081905092915050565b6000602082019050612fc66000830184612c27565b92915050565b6000606082019050612fe16000830186612c27565b612fee6020830185612c27565b612ffb6040830184612f6d565b949350505050565b600060c0820190506130186000830189612c27565b6130256020830188612c27565b6130326040830187612f6d565b81810360608301526130448186612c94565b905081810360808301526130588185612cf2565b905061306760a0830184612f6d565b979650505050505050565b60006080820190506130876000830187612c27565b6130946020830186612f6d565b6130a16040830185612f6d565b6130ae6060830184612f6d565b95945050505050565b600060208201905081810360008301526130d18184612c36565b905092915050565b60006020820190506130ee6000830184612d81565b92915050565b6000602082019050818103600083015261310e8184612d90565b905092915050565b6000602082019050818103600083015261312f81612dc9565b9050919050565b6000602082019050818103600083015261314f81612dec565b9050919050565b6000602082019050818103600083015261316f81612e0f565b9050919050565b6000602082019050818103600083015261318f81612e32565b9050919050565b600060208201905081810360008301526131af81612e55565b9050919050565b600060208201905081810360008301526131cf81612e78565b9050919050565b600060208201905081810360008301526131ef81612e9b565b9050919050565b6000602082019050818103600083015261320f81612ebe565b9050919050565b6000602082019050818103600083015261322f81612ee1565b9050919050565b6000602082019050818103600083015261324f81612f04565b9050919050565b6000602082019050818103600083015261326f81612f27565b9050919050565b6000602082019050818103600083015261328f81612f4a565b9050919050565b60006020820190506132ab6000830184612f6d565b92915050565b60006040820190506132c66000830185612f6d565b6132d36020830184612f6d565b9392505050565b60006132e46132f5565b90506132f08282613655565b919050565b6000604051905090565b600067ffffffffffffffff82111561331a57613319613713565b5b602082029050602081019050919050565b600067ffffffffffffffff82111561334657613345613713565b5b61334f82613742565b9050602081019050919050565b6000819050602082019050919050565b6000819050602082019050919050565b6000819050602082019050919050565b600081519050919050565b600081519050919050565b600081519050919050565b600081519050919050565b600081519050919050565b6000602082019050919050565b6000602082019050919050565b6000602082019050919050565b600082825260208201905092915050565b600082825260208201905092915050565b600082825260208201905092915050565b600081905092915050565b600082825260208201905092915050565b600061344482613596565b915061344f83613596565b9250827fffffffffffffffffffffffffffffffffffffffffffffffffffffffffffffffff0382111561348457613483613686565b5b828201905092915050565b600061349a82613596565b91506134a583613596565b9250826134b5576134b46136b5565b5b828204905092915050565b60006134cb82613596565b91506134d683613596565b9250817fffffffffffffffffffffffffffffffffffffffffffffffffffffffffffffffff048311821515161561350f5761350e613686565b5b828202905092915050565b6000613525826135a0565b9150613530836135a0565b92508163ffffffff048311821515161561354d5761354c613686565b5b828202905092915050565b600061356382613576565b9050919050565b60008115159050919050565b600073ffffffffffffffffffffffffffffffffffffffff82169050919050565b6000819050919050565b600063ffffffff82169050919050565b600060ff82169050919050565b60006135c8826135cf565b9050919050565b60006135da82613576565b9050919050565b82818337600083830152505050565b60005b8381101561360e5780820151818401526020810190506135f3565b8381111561361d576000848401525b50505050565b6000600282049050600182168061363b57607f821691505b6020821081141561364f5761364e6136e4565b5b50919050565b61365e82613742565b810181811067ffffffffffffffff8211171561367d5761367c613713565b5b80604052505050565b7f4e487b7100000000000000000000000000000000000000000000000000000000600052601160045260246000fd5b7f4e487b7100000000000000000000000000000000000000000000000000000000600052601260045260246000fd5b7f4e487b7100000000000000000000000000000000000000000000000000000000600052602260045260246000fd5b7f4e487b7100000000000000000000000000000000000000000000000000000000600052604160045260246000fd5b6000601f19601f8301169050919050565b7f45524331393637557067726164653a207570677261646520627265616b73206660008201527f7572746865722075706772616465730000000000000000000000000000000000602082015250565b7f4f776e61626c653a206e6577206f776e657220697320746865207a65726f206160008201527f6464726573730000000000000000000000000000000000000000000000000000602082015250565b7f4e65656420746f20636f6d706c6574652053616c6520646561646c696e650000600082015250565b7f46756e6374696f6e206d7573742062652063616c6c6564207468726f7567682060008201527f64656c656761746563616c6c0000000000000000000000000000000000000000602082015250565b7f4355503a205452414e534645525f46524f4d5f4641494c454400000000000000600082015250565b7f46756e6374696f6e206d7573742062652063616c6c6564207468726f7567682060008201527f6163746976652070726f78790000000000000000000000000000000000000000602082015250565b7f43555043616b653a20456e64206f662073616c652e20476f6f64627965210000600082015250565b7f496e697469616c697a61626c653a20636f6e747261637420697320616c72656160008201527f647920696e697469616c697a6564000000000000000000000000000000000000602082015250565b7f455243313936373a206e657720696d706c656d656e746174696f6e206973206e60008201527f6f74206120636f6e747261637400000000000000000000000000000000000000602082015250565b7f4f776e61626c653a2063616c6c6572206973206e6f7420746865206f776e6572600082015250565b7f416464726573733a2064656c65676174652063616c6c20746f206e6f6e2d636f60008201527f6e74726163740000000000000000000000000000000000000000000000000000602082015250565b7f496e697469616c697a61626c653a20636f6e7472616374206973206e6f74206960008201527f6e697469616c697a696e67000000000000000000000000000000000000000000602082015250565b613a7881613558565b8114613a8357600080fd5b50565b613a8f8161356a565b8114613a9a57600080fd5b50565b613aa681613596565b8114613ab157600080fd5b50565b613abd816135b0565b8114613ac857600080fd5b5056fe7472616e7366657246726f6d28616464726573732c616464726573732c75696e7432353629416464726573733a206c6f772d6c6576656c2064656c65676174652063616c6c206661696c6564a26469706673582212207fc2208e372189c124db427c76a6d6b5cf05b1544de6c19db2b053648704fc5964736f6c63430008020033",
  "immutableReferences": {
    "641": [
      {
        "length": 32,
        "start": 1788
      },
      {
        "length": 32,
        "start": 1931
      },
      {
        "length": 32,
        "start": 2795
      },
      {
        "length": 32,
        "start": 2938
      }
    ]
  },
  "source": "// SPDX-License-Identifier: MIT\npragma solidity ^0.8.0;\n\nimport \"./CUPCake.sol\";\n\ncontract BNBSale is CUPCake {\n\n    /// @custom:oz-upgrades-unsafe-allow constructor\n    constructor() initializer {}\n\n    function initialize(address token_, address locker_) public initializer {\n        __CUPCake_init(token_, locker_, 0, 100000);\n    }\n}\n",
  "sourcePath": "/Users/bean/WebstormProjects/cup-contracts/contracts/BNBSale.sol",
  "compiler": {
    "name": "solc",
    "version": "0.8.2+commit.661d1103.Emscripten.clang"
  },
  "schemaVersion": "3.4.3",
  "updatedAt": "2021-12-22T04:29:57.310Z",
  "networkType": "ethereum",
  "devdoc": {
    "kind": "dev",
    "methods": {
      "constructor": {
        "custom:oz-upgrades-unsafe-allow": "constructor"
      },
      "owner()": {
        "details": "Returns the address of the current owner."
      },
      "renounceOwnership()": {
        "details": "Leaves the contract without owner. It will not be possible to call `onlyOwner` functions anymore. Can only be called by the current owner. NOTE: Renouncing ownership will leave the contract without an owner, thereby removing any functionality that is only available to the owner."
      },
      "transferOwnership(address)": {
        "details": "Transfers ownership of the contract to a new account (`newOwner`). Can only be called by the current owner."
      },
      "upgradeTo(address)": {
        "details": "Upgrade the implementation of the proxy to `newImplementation`. Calls {_authorizeUpgrade}. Emits an {Upgraded} event."
      },
      "upgradeToAndCall(address,bytes)": {
        "details": "Upgrade the implementation of the proxy to `newImplementation`, and subsequently execute the function call encoded in `data`. Calls {_authorizeUpgrade}. Emits an {Upgraded} event."
      }
    },
    "version": 1
  },
  "userdoc": {
    "kind": "user",
    "methods": {},
    "version": 1
  }
}