{
  "contractName": "CUP",
  "abi": [
    {
      "inputs": [],
      "stateMutability": "nonpayable",
      "type": "constructor"
    },
    {
      "anonymous": false,
      "inputs": [
        {
          "indexed": false,
          "internalType": "address",
          "name": "previousAdmin",
          "type": "address"
        },
        {
          "indexed": false,
          "internalType": "address",
          "name": "newAdmin",
          "type": "address"
        }
      ],
      "name": "AdminChanged",
      "type": "event"
    },
    {
      "anonymous": false,
      "inputs": [
        {
          "indexed": true,
          "internalType": "address",
          "name": "owner",
          "type": "address"
        },
        {
          "indexed": true,
          "internalType": "address",
          "name": "spender",
          "type": "address"
        },
        {
          "indexed": false,
          "internalType": "uint256",
          "name": "value",
          "type": "uint256"
        }
      ],
      "name": "Approval",
      "type": "event"
    },
    {
      "anonymous": false,
      "inputs": [
        {
          "indexed": true,
          "internalType": "address",
          "name": "beacon",
          "type": "address"
        }
      ],
      "name": "BeaconUpgraded",
      "type": "event"
    },
    {
      "anonymous": false,
      "inputs": [
        {
          "indexed": true,
          "internalType": "address",
          "name": "previousOwner",
          "type": "address"
        },
        {
          "indexed": true,
          "internalType": "address",
          "name": "newOwner",
          "type": "address"
        }
      ],
      "name": "OwnershipTransferred",
      "type": "event"
    },
    {
      "anonymous": false,
      "inputs": [
        {
          "indexed": true,
          "internalType": "address",
          "name": "from",
          "type": "address"
        },
        {
          "indexed": true,
          "internalType": "address",
          "name": "to",
          "type": "address"
        },
        {
          "indexed": false,
          "internalType": "uint256",
          "name": "value",
          "type": "uint256"
        }
      ],
      "name": "Transfer",
      "type": "event"
    },
    {
      "anonymous": false,
      "inputs": [
        {
          "indexed": true,
          "internalType": "address",
          "name": "implementation",
          "type": "address"
        }
      ],
      "name": "Upgraded",
      "type": "event"
    },
    {
      "inputs": [],
      "name": "DOMAIN_SEPARATOR",
      "outputs": [
        {
          "internalType": "bytes32",
          "name": "",
          "type": "bytes32"
        }
      ],
      "stateMutability": "view",
      "type": "function",
      "constant": true
    },
    {
      "inputs": [],
      "name": "PERMIT_TYPEHASH",
      "outputs": [
        {
          "internalType": "bytes32",
          "name": "",
          "type": "bytes32"
        }
      ],
      "stateMutability": "view",
      "type": "function",
      "constant": true
    },
    {
      "inputs": [
        {
          "internalType": "address",
          "name": "",
          "type": "address"
        }
      ],
      "name": "nonces",
      "outputs": [
        {
          "internalType": "uint256",
          "name": "",
          "type": "uint256"
        }
      ],
      "stateMutability": "view",
      "type": "function",
      "constant": true
    },
    {
      "inputs": [],
      "name": "owner",
      "outputs": [
        {
          "internalType": "address",
          "name": "",
          "type": "address"
        }
      ],
      "stateMutability": "view",
      "type": "function",
      "constant": true
    },
    {
      "inputs": [],
      "name": "renounceOwnership",
      "outputs": [],
      "stateMutability": "nonpayable",
      "type": "function"
    },
    {
      "inputs": [
        {
          "internalType": "address",
          "name": "newOwner",
          "type": "address"
        }
      ],
      "name": "transferOwnership",
      "outputs": [],
      "stateMutability": "nonpayable",
      "type": "function"
    },
    {
      "inputs": [
        {
          "internalType": "address",
          "name": "newImplementation",
          "type": "address"
        }
      ],
      "name": "upgradeTo",
      "outputs": [],
      "stateMutability": "nonpayable",
      "type": "function"
    },
    {
      "inputs": [
        {
          "internalType": "address",
          "name": "newImplementation",
          "type": "address"
        },
        {
          "internalType": "bytes",
          "name": "data",
          "type": "bytes"
        }
      ],
      "name": "upgradeToAndCall",
      "outputs": [],
      "stateMutability": "payable",
      "type": "function",
      "payable": true
    },
    {
      "inputs": [],
      "name": "initialize",
      "outputs": [],
      "stateMutability": "nonpayable",
      "type": "function"
    },
    {
      "inputs": [],
      "name": "getOwner",
      "outputs": [
        {
          "internalType": "address",
          "name": "",
          "type": "address"
        }
      ],
      "stateMutability": "view",
      "type": "function",
      "constant": true
    },
    {
      "inputs": [],
      "name": "decimals",
      "outputs": [
        {
          "internalType": "uint8",
          "name": "",
          "type": "uint8"
        }
      ],
      "stateMutability": "view",
      "type": "function",
      "constant": true
    },
    {
      "inputs": [],
      "name": "symbol",
      "outputs": [
        {
          "internalType": "string",
          "name": "",
          "type": "string"
        }
      ],
      "stateMutability": "view",
      "type": "function",
      "constant": true
    },
    {
      "inputs": [],
      "name": "name",
      "outputs": [
        {
          "internalType": "string",
          "name": "",
          "type": "string"
        }
      ],
      "stateMutability": "view",
      "type": "function",
      "constant": true
    },
    {
      "inputs": [],
      "name": "totalSupply",
      "outputs": [
        {
          "internalType": "uint256",
          "name": "",
          "type": "uint256"
        }
      ],
      "stateMutability": "view",
      "type": "function",
      "constant": true
    },
    {
      "inputs": [
        {
          "internalType": "address",
          "name": "account_",
          "type": "address"
        }
      ],
      "name": "balanceOf",
      "outputs": [
        {
          "internalType": "uint256",
          "name": "",
          "type": "uint256"
        }
      ],
      "stateMutability": "view",
      "type": "function",
      "constant": true
    },
    {
      "inputs": [
        {
          "internalType": "address",
          "name": "recipient_",
          "type": "address"
        },
        {
          "internalType": "uint256",
          "name": "amount",
          "type": "uint256"
        }
      ],
      "name": "transfer",
      "outputs": [
        {
          "internalType": "bool",
          "name": "",
          "type": "bool"
        }
      ],
      "stateMutability": "nonpayable",
      "type": "function"
    },
    {
      "inputs": [
        {
          "internalType": "address",
          "name": "owner_",
          "type": "address"
        },
        {
          "internalType": "address",
          "name": "spender_",
          "type": "address"
        }
      ],
      "name": "allowance",
      "outputs": [
        {
          "internalType": "uint256",
          "name": "",
          "type": "uint256"
        }
      ],
      "stateMutability": "view",
      "type": "function",
      "constant": true
    },
    {
      "inputs": [
        {
          "internalType": "address",
          "name": "spender_",
          "type": "address"
        },
        {
          "internalType": "uint256",
          "name": "amount",
          "type": "uint256"
        }
      ],
      "name": "approve",
      "outputs": [
        {
          "internalType": "bool",
          "name": "",
          "type": "bool"
        }
      ],
      "stateMutability": "nonpayable",
      "type": "function"
    },
    {
      "inputs": [
        {
          "internalType": "address",
          "name": "sender_",
          "type": "address"
        },
        {
          "internalType": "address",
          "name": "recipient_",
          "type": "address"
        },
        {
          "internalType": "uint256",
          "name": "amount",
          "type": "uint256"
        }
      ],
      "name": "transferFrom",
      "outputs": [
        {
          "internalType": "bool",
          "name": "",
          "type": "bool"
        }
      ],
      "stateMutability": "nonpayable",
      "type": "function"
    },
    {
      "inputs": [
        {
          "internalType": "address",
          "name": "spender_",
          "type": "address"
        },
        {
          "internalType": "uint256",
          "name": "addedValue",
          "type": "uint256"
        }
      ],
      "name": "increaseAllowance",
      "outputs": [
        {
          "internalType": "bool",
          "name": "",
          "type": "bool"
        }
      ],
      "stateMutability": "nonpayable",
      "type": "function"
    },
    {
      "inputs": [
        {
          "internalType": "address",
          "name": "spender_",
          "type": "address"
        },
        {
          "internalType": "uint256",
          "name": "subtractedValue",
          "type": "uint256"
        }
      ],
      "name": "decreaseAllowance",
      "outputs": [
        {
          "internalType": "bool",
          "name": "",
          "type": "bool"
        }
      ],
      "stateMutability": "nonpayable",
      "type": "function"
    },
    {
      "inputs": [
        {
          "internalType": "address",
          "name": "to_",
          "type": "address"
        },
        {
          "internalType": "uint256",
          "name": "amount",
          "type": "uint256"
        }
      ],
      "name": "mint",
      "outputs": [],
      "stateMutability": "nonpayable",
      "type": "function"
    },
    {
      "inputs": [
        {
          "internalType": "uint256",
          "name": "amount",
          "type": "uint256"
        }
      ],
      "name": "burn",
      "outputs": [
        {
          "internalType": "bool",
          "name": "",
          "type": "bool"
        }
      ],
      "stateMutability": "nonpayable",
      "type": "function"
    },
    {
      "inputs": [
        {
          "internalType": "address",
          "name": "account_",
          "type": "address"
        },
        {
          "internalType": "uint256",
          "name": "amount",
          "type": "uint256"
        }
      ],
      "name": "burnFrom",
      "outputs": [
        {
          "internalType": "bool",
          "name": "",
          "type": "bool"
        }
      ],
      "stateMutability": "nonpayable",
      "type": "function"
    },
    {
      "inputs": [
        {
          "internalType": "address",
          "name": "owner_",
          "type": "address"
        },
        {
          "internalType": "address",
          "name": "spender_",
          "type": "address"
        },
        {
          "internalType": "uint256",
          "name": "value",
          "type": "uint256"
        },
        {
          "internalType": "uint256",
          "name": "deadline",
          "type": "uint256"
        },
        {
          "internalType": "uint8",
          "name": "v",
          "type": "uint8"
        },
        {
          "internalType": "bytes32",
          "name": "r",
          "type": "bytes32"
        },
        {
          "internalType": "bytes32",
          "name": "s",
          "type": "bytes32"
        }
      ],
      "name": "permit",
      "outputs": [],
      "stateMutability": "nonpayable",
      "type": "function"
    }
  ],
  "bytecode": "0x60a06040523073ffffffffffffffffffffffffffffffffffffffff1660809073ffffffffffffffffffffffffffffffffffffffff1660601b8152503480156200004757600080fd5b50600060019054906101000a900460ff16806200006f575060008054906101000a900460ff16155b620000b1576040517f08c379a0000000000000000000000000000000000000000000000000000000008152600401620000a89062000152565b60405180910390fd5b60008060019054906101000a900460ff16159050801562000102576001600060016101000a81548160ff02191690831515021790555060016000806101000a81548160ff0219169083151502179055505b8015620001245760008060016101000a81548160ff0219169083151502179055505b50620001d4565b60006200013a602e8362000174565b9150620001478262000185565b604082019050919050565b600060208201905081810360008301526200016d816200012b565b9050919050565b600082825260208201905092915050565b7f496e697469616c697a61626c653a20636f6e747261637420697320616c72656160008201527f647920696e697469616c697a6564000000000000000000000000000000000000602082015250565b60805160601c613f1f62000208600039600081816107e90152818161087801528181610af10152610b800152613f1f6000f3fe6080604052600436106101665760003560e01c806370a08231116100d15780638da5cb5b1161008a578063a9059cbb11610064578063a9059cbb14610547578063d505accf14610584578063dd62ed3e146105ad578063f2fde38b146105ea57610166565b80638da5cb5b146104b457806395d89b41146104df578063a457c2d71461050a57610166565b806370a08231146103a4578063715018a6146103e157806379cc6790146103f85780637ecebe00146104355780638129fc1c14610472578063893d20e81461048957610166565b80633644e515116101235780633644e515146102915780633659cfe6146102bc57806339509351146102e557806340c10f191461032257806342966c681461034b5780634f1ef2861461038857610166565b806306fdde031461016b578063095ea7b31461019657806318160ddd146101d357806323b872dd146101fe57806330adf81f1461023b578063313ce56714610266575b600080fd5b34801561017757600080fd5b50610180610613565b60405161018d91906131d5565b60405180910390f35b3480156101a257600080fd5b506101bd60048036038101906101b89190612c23565b6106a5565b6040516101ca91906130a6565b60405180910390f35b3480156101df57600080fd5b506101e86106c3565b6040516101f591906133f7565b60405180910390f35b34801561020a57600080fd5b5061022560048036038101906102209190612ae2565b6106cd565b60405161023291906130a6565b60405180910390f35b34801561024757600080fd5b506102506107a6565b60405161025d91906130c1565b60405180910390f35b34801561027257600080fd5b5061027b6107ca565b6040516102889190613412565b60405180910390f35b34801561029d57600080fd5b506102a66107e1565b6040516102b391906130c1565b60405180910390f35b3480156102c857600080fd5b506102e360048036038101906102de9190612a7d565b6107e7565b005b3480156102f157600080fd5b5061030c60048036038101906103079190612c23565b610996565b60405161031991906130a6565b60405180910390f35b34801561032e57600080fd5b5061034960048036038101906103449190612c23565b610a49565b005b34801561035757600080fd5b50610372600480360381019061036d9190612c5f565b610ad3565b60405161037f91906130a6565b60405180910390f35b6103a2600480360381019061039d9190612bcf565b610aef565b005b3480156103b057600080fd5b506103cb60048036038101906103c69190612a7d565b610c2c565b6040516103d891906133f7565b60405180910390f35b3480156103ed57600080fd5b506103f6610c75565b005b34801561040457600080fd5b5061041f600480360381019061041a9190612c23565b610cfd565b60405161042c91906130a6565b60405180910390f35b34801561044157600080fd5b5061045c60048036038101906104579190612a7d565b610d13565b60405161046991906133f7565b60405180910390f35b34801561047e57600080fd5b50610487610d2b565b005b34801561049557600080fd5b5061049e610fa2565b6040516104ab919061308b565b60405180910390f35b3480156104c057600080fd5b506104c9610fb1565b6040516104d6919061308b565b60405180910390f35b3480156104eb57600080fd5b506104f4610fdb565b60405161050191906131d5565b60405180910390f35b34801561051657600080fd5b50610531600480360381019061052c9190612c23565b61106d565b60405161053e91906130a6565b60405180910390f35b34801561055357600080fd5b5061056e60048036038101906105699190612c23565b61113a565b60405161057b91906130a6565b60405180910390f35b34801561059057600080fd5b506105ab60048036038101906105a69190612b31565b611158565b005b3480156105b957600080fd5b506105d460048036038101906105cf9190612aa6565b61137d565b6040516105e191906133f7565b60405180910390f35b3480156105f657600080fd5b50610611600480360381019061060c9190612a7d565b611404565b005b606060ce8054610622906137cb565b80601f016020809104026020016040519081016040528092919081815260200182805461064e906137cb565b801561069b5780601f106106705761010080835404028352916020019161069b565b820191906000526020600020905b81548152906001019060200180831161067e57829003601f168201915b5050505050905090565b60006106b96106b26114fc565b8484611504565b6001905092915050565b600060cb54905090565b60006106da8484846116cf565b61079b846106e66114fc565b61079685604051806060016040528060288152602001613e0a6028913960ca60008b73ffffffffffffffffffffffffffffffffffffffff1673ffffffffffffffffffffffffffffffffffffffff168152602001908152602001600020600061074c6114fc565b73ffffffffffffffffffffffffffffffffffffffff1673ffffffffffffffffffffffffffffffffffffffff1681526020019081526020016000205461195d9092919063ffffffff16565b611504565b600190509392505050565b7fcb43c7723d9634f543decd91bc3fb040b15071156ff9f30a4c54484d76275aa781565b600060cc60009054906101000a900460ff16905090565b60cf5481565b7f000000000000000000000000000000000000000000000000000000000000000073ffffffffffffffffffffffffffffffffffffffff163073ffffffffffffffffffffffffffffffffffffffff161415610876576040517f08c379a000000000000000000000000000000000000000000000000000000000815260040161086d90613277565b60405180910390fd5b7f000000000000000000000000000000000000000000000000000000000000000073ffffffffffffffffffffffffffffffffffffffff166108b56119b2565b73ffffffffffffffffffffffffffffffffffffffff161461090b576040517f08c379a000000000000000000000000000000000000000000000000000000000815260040161090290613297565b60405180910390fd5b61091481611a09565b61099381600067ffffffffffffffff811115610959577f4e487b7100000000000000000000000000000000000000000000000000000000600052604160045260246000fd5b6040519080825280601f01601f19166020018201604052801561098b5781602001600182028036833780820191505090505b506000611a88565b50565b6000610a3f6109a36114fc565b84610a3a8560ca60006109b46114fc565b73ffffffffffffffffffffffffffffffffffffffff1673ffffffffffffffffffffffffffffffffffffffff16815260200190815260200160002060008973ffffffffffffffffffffffffffffffffffffffff1673ffffffffffffffffffffffffffffffffffffffff16815260200190815260200160002054611c5990919063ffffffff16565b611504565b6001905092915050565b610a516114fc565b73ffffffffffffffffffffffffffffffffffffffff16610a6f610fb1565b73ffffffffffffffffffffffffffffffffffffffff1614610ac5576040517f08c379a0000000000000000000000000000000000000000000000000000000008152600401610abc90613337565b60405180910390fd5b610acf8282611c6f565b5050565b6000610ae6610ae06114fc565b83611df9565b60019050919050565b7f000000000000000000000000000000000000000000000000000000000000000073ffffffffffffffffffffffffffffffffffffffff163073ffffffffffffffffffffffffffffffffffffffff161415610b7e576040517f08c379a0000000000000000000000000000000000000000000000000000000008152600401610b7590613277565b60405180910390fd5b7f000000000000000000000000000000000000000000000000000000000000000073ffffffffffffffffffffffffffffffffffffffff16610bbd6119b2565b73ffffffffffffffffffffffffffffffffffffffff1614610c13576040517f08c379a0000000000000000000000000000000000000000000000000000000008152600401610c0a90613297565b60405180910390fd5b610c1c82611a09565b610c2882826001611a88565b5050565b600060c960008373ffffffffffffffffffffffffffffffffffffffff1673ffffffffffffffffffffffffffffffffffffffff168152602001908152602001600020549050919050565b610c7d6114fc565b73ffffffffffffffffffffffffffffffffffffffff16610c9b610fb1565b73ffffffffffffffffffffffffffffffffffffffff1614610cf1576040517f08c379a0000000000000000000000000000000000000000000000000000000008152600401610ce890613337565b60405180910390fd5b610cfb6000611f9d565b565b6000610d098383612063565b6001905092915050565b60d06020528060005260406000206000915090505481565b600060019054906101000a900460ff1680610d51575060008054906101000a900460ff16155b610d90576040517f08c379a0000000000000000000000000000000000000000000000000000000008152600401610d87906132b7565b60405180910390fd5b60008060019054906101000a900460ff161590508015610de0576001600060016101000a81548160ff02191690831515021790555060016000806101000a81548160ff0219169083151502179055505b6040518060400160405280600681526020017f44414f437570000000000000000000000000000000000000000000000000000081525060ce9080519060200190610e2b92919061291e565b506040518060400160405280600381526020017f435550000000000000000000000000000000000000000000000000000000000081525060cd9080519060200190610e7792919061291e565b50601260cc60006101000a81548160ff021916908360ff160217905550610e9c612132565b610ea461221b565b610ed133610ecc6012600a610eb9919061357e565b63cfd41b9161230490919063ffffffff16565b610a49565b60004690507f3cb138da6d2d7fa0e45d63ba80d5c0902dc0f5c3cc8ce33bcfe31dc017a3a41260ce604051610f06919061303d565b60405180910390206040518060400160405280600181526020017f3100000000000000000000000000000000000000000000000000000000000000815250805190602001208330604051602001610f6195949392919061313d565b6040516020818303038152906040528051906020012060cf81905550508015610f9f5760008060016101000a81548160ff0219169083151502179055505b50565b6000610fac610fb1565b905090565b6000609760009054906101000a900473ffffffffffffffffffffffffffffffffffffffff16905090565b606060cd8054610fea906137cb565b80601f0160208091040260200160405190810160405280929190818152602001828054611016906137cb565b80156110635780601f1061103857610100808354040283529160200191611063565b820191906000526020600020905b81548152906001019060200180831161104657829003601f168201915b5050505050905090565b600061113061107a6114fc565b8461112b85604051806060016040528060258152602001613e7f6025913960ca60006110a46114fc565b73ffffffffffffffffffffffffffffffffffffffff1673ffffffffffffffffffffffffffffffffffffffff16815260200190815260200160002060008a73ffffffffffffffffffffffffffffffffffffffff1673ffffffffffffffffffffffffffffffffffffffff1681526020019081526020016000205461195d9092919063ffffffff16565b611504565b6001905092915050565b600061114e6111476114fc565b84846116cf565b6001905092915050565b4284101561119b576040517f08c379a0000000000000000000000000000000000000000000000000000000008152600401611192906133b7565b60405180910390fd5b600060cf547fcb43c7723d9634f543decd91bc3fb040b15071156ff9f30a4c54484d76275aa789898960d060008e73ffffffffffffffffffffffffffffffffffffffff1673ffffffffffffffffffffffffffffffffffffffff16815260200190815260200160002060008154809291906112149061382e565b919050558a60405160200161122e969594939291906130dc565b60405160208183030381529060405280519060200120604051602001611255929190613054565b6040516020818303038152906040528051906020012090506000600182868686604051600081526020016040526040516112929493929190613190565b6020604051602081039080840390855afa1580156112b4573d6000803e3d6000fd5b505050602060405103519050600073ffffffffffffffffffffffffffffffffffffffff168173ffffffffffffffffffffffffffffffffffffffff161415801561132857508873ffffffffffffffffffffffffffffffffffffffff168173ffffffffffffffffffffffffffffffffffffffff16145b611367576040517f08c379a000000000000000000000000000000000000000000000000000000000815260040161135e906132d7565b60405180910390fd5b611372898989611504565b505050505050505050565b600060ca60008473ffffffffffffffffffffffffffffffffffffffff1673ffffffffffffffffffffffffffffffffffffffff16815260200190815260200160002060008373ffffffffffffffffffffffffffffffffffffffff1673ffffffffffffffffffffffffffffffffffffffff16815260200190815260200160002054905092915050565b61140c6114fc565b73ffffffffffffffffffffffffffffffffffffffff1661142a610fb1565b73ffffffffffffffffffffffffffffffffffffffff1614611480576040517f08c379a000000000000000000000000000000000000000000000000000000000815260040161147790613337565b60405180910390fd5b600073ffffffffffffffffffffffffffffffffffffffff168173ffffffffffffffffffffffffffffffffffffffff1614156114f0576040517f08c379a00000000000000000000000000000000000000000000000000000000081526004016114e790613257565b60405180910390fd5b6114f981611f9d565b50565b600033905090565b600073ffffffffffffffffffffffffffffffffffffffff168373ffffffffffffffffffffffffffffffffffffffff161415611574576040517f08c379a000000000000000000000000000000000000000000000000000000000815260040161156b90613217565b60405180910390fd5b600073ffffffffffffffffffffffffffffffffffffffff168273ffffffffffffffffffffffffffffffffffffffff1614156115e4576040517f08c379a00000000000000000000000000000000000000000000000000000000081526004016115db906133d7565b60405180910390fd5b8060ca60008573ffffffffffffffffffffffffffffffffffffffff1673ffffffffffffffffffffffffffffffffffffffff16815260200190815260200160002060008473ffffffffffffffffffffffffffffffffffffffff1673ffffffffffffffffffffffffffffffffffffffff168152602001908152602001600020819055508173ffffffffffffffffffffffffffffffffffffffff168373ffffffffffffffffffffffffffffffffffffffff167f8c5be1e5ebec7d5bd14f71427d1e84f3dd0314c0f7b2291e5b200ac8c7c3b925836040516116c291906133f7565b60405180910390a3505050565b600073ffffffffffffffffffffffffffffffffffffffff168373ffffffffffffffffffffffffffffffffffffffff16141561173f576040517f08c379a0000000000000000000000000000000000000000000000000000000008152600401611736906131f7565b60405180910390fd5b600073ffffffffffffffffffffffffffffffffffffffff168273ffffffffffffffffffffffffffffffffffffffff1614156117af576040517f08c379a00000000000000000000000000000000000000000000000000000000081526004016117a690613357565b60405180910390fd5b61181b81604051806060016040528060268152602001613e596026913960c960008773ffffffffffffffffffffffffffffffffffffffff1673ffffffffffffffffffffffffffffffffffffffff1681526020019081526020016000205461195d9092919063ffffffff16565b60c960008573ffffffffffffffffffffffffffffffffffffffff1673ffffffffffffffffffffffffffffffffffffffff168152602001908152602001600020819055506118b08160c960008573ffffffffffffffffffffffffffffffffffffffff1673ffffffffffffffffffffffffffffffffffffffff16815260200190815260200160002054611c5990919063ffffffff16565b60c960008473ffffffffffffffffffffffffffffffffffffffff1673ffffffffffffffffffffffffffffffffffffffff168152602001908152602001600020819055508173ffffffffffffffffffffffffffffffffffffffff168373ffffffffffffffffffffffffffffffffffffffff167fddf252ad1be2c89b69c2b068fc378daa952ba7f163c4a11628f55a4df523b3ef8360405161195091906133f7565b60405180910390a3505050565b60008383111582906119a5576040517f08c379a000000000000000000000000000000000000000000000000000000000815260040161199c91906131d5565b60405180910390fd5b5082840390509392505050565b60006119e07f360894a13ba1a3210667c828492db98dca3e2076cc3735a920a3ca505d382bbc60001b61231a565b60000160009054906101000a900473ffffffffffffffffffffffffffffffffffffffff16905090565b611a116114fc565b73ffffffffffffffffffffffffffffffffffffffff16611a2f610fb1565b73ffffffffffffffffffffffffffffffffffffffff1614611a85576040517f08c379a0000000000000000000000000000000000000000000000000000000008152600401611a7c90613337565b60405180910390fd5b50565b6000611a926119b2565b9050611a9d84612324565b600083511180611aaa5750815b15611abb57611ab984846123dd565b505b6000611ae97f4910fdfa16fed3260ed0e7147f7cc6da11a60208b5b9406d12a635614ffd914360001b6124c1565b90508060000160009054906101000a900460ff16611c525760018160000160006101000a81548160ff021916908315150217905550611bb58583604051602401611b33919061308b565b6040516020818303038152906040527f3659cfe6000000000000000000000000000000000000000000000000000000007bffffffffffffffffffffffffffffffffffffffffffffffffffffffff19166020820180517bffffffffffffffffffffffffffffffffffffffffffffffffffffffff83818316178352505050506123dd565b5060008160000160006101000a81548160ff021916908315150217905550611bdb6119b2565b73ffffffffffffffffffffffffffffffffffffffff168273ffffffffffffffffffffffffffffffffffffffff1614611c48576040517f08c379a0000000000000000000000000000000000000000000000000000000008152600401611c3f90613237565b60405180910390fd5b611c51856124cb565b5b5050505050565b60008183611c6791906134d5565b905092915050565b600073ffffffffffffffffffffffffffffffffffffffff168273ffffffffffffffffffffffffffffffffffffffff161415611cdf576040517f08c379a0000000000000000000000000000000000000000000000000000000008152600401611cd690613317565b60405180910390fd5b611cf48160cb54611c5990919063ffffffff16565b60cb81905550611d4c8160c960008573ffffffffffffffffffffffffffffffffffffffff1673ffffffffffffffffffffffffffffffffffffffff16815260200190815260200160002054611c5990919063ffffffff16565b60c960008473ffffffffffffffffffffffffffffffffffffffff1673ffffffffffffffffffffffffffffffffffffffff168152602001908152602001600020819055508173ffffffffffffffffffffffffffffffffffffffff16600073ffffffffffffffffffffffffffffffffffffffff167fddf252ad1be2c89b69c2b068fc378daa952ba7f163c4a11628f55a4df523b3ef83604051611ded91906133f7565b60405180910390a35050565b600073ffffffffffffffffffffffffffffffffffffffff168273ffffffffffffffffffffffffffffffffffffffff161415611e69576040517f08c379a0000000000000000000000000000000000000000000000000000000008152600401611e6090613377565b60405180910390fd5b611ed581604051806060016040528060228152602001613ea46022913960c960008673ffffffffffffffffffffffffffffffffffffffff1673ffffffffffffffffffffffffffffffffffffffff1681526020019081526020016000205461195d9092919063ffffffff16565b60c960008473ffffffffffffffffffffffffffffffffffffffff1673ffffffffffffffffffffffffffffffffffffffff16815260200190815260200160002081905550611f2d8160cb5461251a90919063ffffffff16565b60cb81905550600073ffffffffffffffffffffffffffffffffffffffff168273ffffffffffffffffffffffffffffffffffffffff167fddf252ad1be2c89b69c2b068fc378daa952ba7f163c4a11628f55a4df523b3ef83604051611f9191906133f7565b60405180910390a35050565b6000609760009054906101000a900473ffffffffffffffffffffffffffffffffffffffff16905081609760006101000a81548173ffffffffffffffffffffffffffffffffffffffff021916908373ffffffffffffffffffffffffffffffffffffffff1602179055508173ffffffffffffffffffffffffffffffffffffffff168173ffffffffffffffffffffffffffffffffffffffff167f8be0079c531659141344cd1fd0a4f28419497f9722a3daafe3b4186f6b6457e060405160405180910390a35050565b61206d8282611df9565b61212e826120796114fc565b61212984604051806060016040528060248152602001613ec66024913960ca60008973ffffffffffffffffffffffffffffffffffffffff1673ffffffffffffffffffffffffffffffffffffffff16815260200190815260200160002060006120df6114fc565b73ffffffffffffffffffffffffffffffffffffffff1673ffffffffffffffffffffffffffffffffffffffff1681526020019081526020016000205461195d9092919063ffffffff16565b611504565b5050565b600060019054906101000a900460ff1680612158575060008054906101000a900460ff16155b612197576040517f08c379a000000000000000000000000000000000000000000000000000000000815260040161218e906132b7565b60405180910390fd5b60008060019054906101000a900460ff1615905080156121e7576001600060016101000a81548160ff02191690831515021790555060016000806101000a81548160ff0219169083151502179055505b6121ef612530565b6121f7612609565b80156122185760008060016101000a81548160ff0219169083151502179055505b50565b600060019054906101000a900460ff1680612241575060008054906101000a900460ff16155b612280576040517f08c379a0000000000000000000000000000000000000000000000000000000008152600401612277906132b7565b60405180910390fd5b60008060019054906101000a900460ff1615905080156122d0576001600060016101000a81548160ff02191690831515021790555060016000806101000a81548160ff0219169083151502179055505b6122d86126f2565b6122e06127cb565b80156123015760008060016101000a81548160ff0219169083151502179055505b50565b60008183612312919061369c565b905092915050565b6000819050919050565b61232d816128a4565b61236c576040517f08c379a0000000000000000000000000000000000000000000000000000000008152600401612363906132f7565b60405180910390fd5b806123997f360894a13ba1a3210667c828492db98dca3e2076cc3735a920a3ca505d382bbc60001b61231a565b60000160006101000a81548173ffffffffffffffffffffffffffffffffffffffff021916908373ffffffffffffffffffffffffffffffffffffffff16021790555050565b60606123e8836128a4565b612427576040517f08c379a000000000000000000000000000000000000000000000000000000000815260040161241e90613397565b60405180910390fd5b6000808473ffffffffffffffffffffffffffffffffffffffff168460405161244f9190613026565b600060405180830381855af49150503d806000811461248a576040519150601f19603f3d011682016040523d82523d6000602084013e61248f565b606091505b50915091506124b78282604051806060016040528060278152602001613e32602791396128b7565b9250505092915050565b6000819050919050565b6124d481612324565b8073ffffffffffffffffffffffffffffffffffffffff167fbc7cd75a20ee27fd9adebab32041f755214dbc6bffa90cc0225b39da2e5c2d3b60405160405180910390a250565b6000818361252891906136f6565b905092915050565b600060019054906101000a900460ff1680612556575060008054906101000a900460ff16155b612595576040517f08c379a000000000000000000000000000000000000000000000000000000000815260040161258c906132b7565b60405180910390fd5b60008060019054906101000a900460ff1615905080156125e5576001600060016101000a81548160ff02191690831515021790555060016000806101000a81548160ff0219169083151502179055505b80156126065760008060016101000a81548160ff0219169083151502179055505b50565b600060019054906101000a900460ff168061262f575060008054906101000a900460ff16155b61266e576040517f08c379a0000000000000000000000000000000000000000000000000000000008152600401612665906132b7565b60405180910390fd5b60008060019054906101000a900460ff1615905080156126be576001600060016101000a81548160ff02191690831515021790555060016000806101000a81548160ff0219169083151502179055505b6126ce6126c96114fc565b611f9d565b80156126ef5760008060016101000a81548160ff0219169083151502179055505b50565b600060019054906101000a900460ff1680612718575060008054906101000a900460ff16155b612757576040517f08c379a000000000000000000000000000000000000000000000000000000000815260040161274e906132b7565b60405180910390fd5b60008060019054906101000a900460ff1615905080156127a7576001600060016101000a81548160ff02191690831515021790555060016000806101000a81548160ff0219169083151502179055505b80156127c85760008060016101000a81548160ff0219169083151502179055505b50565b600060019054906101000a900460ff16806127f1575060008054906101000a900460ff16155b612830576040517f08c379a0000000000000000000000000000000000000000000000000000000008152600401612827906132b7565b60405180910390fd5b60008060019054906101000a900460ff161590508015612880576001600060016101000a81548160ff02191690831515021790555060016000806101000a81548160ff0219169083151502179055505b80156128a15760008060016101000a81548160ff0219169083151502179055505b50565b600080823b905060008111915050919050565b606083156128c757829050612917565b6000835111156128da5782518084602001fd5b816040517f08c379a000000000000000000000000000000000000000000000000000000000815260040161290e91906131d5565b60405180910390fd5b9392505050565b82805461292a906137cb565b90600052602060002090601f01602090048101928261294c5760008555612993565b82601f1061296557805160ff1916838001178555612993565b82800160010185558215612993579182015b82811115612992578251825591602001919060010190612977565b5b5090506129a091906129a4565b5090565b5b808211156129bd5760008160009055506001016129a5565b5090565b60006129d46129cf84613452565b61342d565b9050828152602081018484840111156129ec57600080fd5b6129f7848285613789565b509392505050565b600081359050612a0e81613dad565b92915050565b600081359050612a2381613dc4565b92915050565b600082601f830112612a3a57600080fd5b8135612a4a8482602086016129c1565b91505092915050565b600081359050612a6281613ddb565b92915050565b600081359050612a7781613df2565b92915050565b600060208284031215612a8f57600080fd5b6000612a9d848285016129ff565b91505092915050565b60008060408385031215612ab957600080fd5b6000612ac7858286016129ff565b9250506020612ad8858286016129ff565b9150509250929050565b600080600060608486031215612af757600080fd5b6000612b05868287016129ff565b9350506020612b16868287016129ff565b9250506040612b2786828701612a53565b9150509250925092565b600080600080600080600060e0888a031215612b4c57600080fd5b6000612b5a8a828b016129ff565b9750506020612b6b8a828b016129ff565b9650506040612b7c8a828b01612a53565b9550506060612b8d8a828b01612a53565b9450506080612b9e8a828b01612a68565b93505060a0612baf8a828b01612a14565b92505060c0612bc08a828b01612a14565b91505092959891949750929550565b60008060408385031215612be257600080fd5b6000612bf0858286016129ff565b925050602083013567ffffffffffffffff811115612c0d57600080fd5b612c1985828601612a29565b9150509250929050565b60008060408385031215612c3657600080fd5b6000612c44858286016129ff565b9250506020612c5585828601612a53565b9150509250929050565b600060208284031215612c7157600080fd5b6000612c7f84828501612a53565b91505092915050565b612c918161372a565b82525050565b612ca08161373c565b82525050565b612caf81613748565b82525050565b612cc6612cc182613748565b613877565b82525050565b6000612cd782613498565b612ce181856134ae565b9350612cf1818560208601613798565b80840191505092915050565b60008154612d0a816137cb565b612d1481866134ae565b94506001821660008114612d2f5760018114612d4057612d73565b60ff19831686528186019350612d73565b612d4985613483565b60005b83811015612d6b57815481890152600182019150602081019050612d4c565b838801955050505b50505092915050565b6000612d87826134a3565b612d9181856134b9565b9350612da1818560208601613798565b612daa8161390e565b840191505092915050565b6000612dc26025836134b9565b9150612dcd8261392c565b604082019050919050565b6000612de56024836134b9565b9150612df08261397b565b604082019050919050565b6000612e08602f836134b9565b9150612e13826139ca565b604082019050919050565b6000612e2b6026836134b9565b9150612e3682613a19565b604082019050919050565b6000612e4e6002836134ca565b9150612e5982613a68565b600282019050919050565b6000612e71602c836134b9565b9150612e7c82613a91565b604082019050919050565b6000612e94602c836134b9565b9150612e9f82613ae0565b604082019050919050565b6000612eb7602e836134b9565b9150612ec282613b2f565b604082019050919050565b6000612eda6016836134b9565b9150612ee582613b7e565b602082019050919050565b6000612efd602d836134b9565b9150612f0882613ba7565b604082019050919050565b6000612f20601f836134b9565b9150612f2b82613bf6565b602082019050919050565b6000612f436020836134b9565b9150612f4e82613c1f565b602082019050919050565b6000612f666023836134b9565b9150612f7182613c48565b604082019050919050565b6000612f896021836134b9565b9150612f9482613c97565b604082019050919050565b6000612fac6026836134b9565b9150612fb782613ce6565b604082019050919050565b6000612fcf600c836134b9565b9150612fda82613d35565b602082019050919050565b6000612ff26022836134b9565b9150612ffd82613d5e565b604082019050919050565b61301181613772565b82525050565b6130208161377c565b82525050565b60006130328284612ccc565b915081905092915050565b60006130498284612cfd565b915081905092915050565b600061305f82612e41565b915061306b8285612cb5565b60208201915061307b8284612cb5565b6020820191508190509392505050565b60006020820190506130a06000830184612c88565b92915050565b60006020820190506130bb6000830184612c97565b92915050565b60006020820190506130d66000830184612ca6565b92915050565b600060c0820190506130f16000830189612ca6565b6130fe6020830188612c88565b61310b6040830187612c88565b6131186060830186613008565b6131256080830185613008565b61313260a0830184613008565b979650505050505050565b600060a0820190506131526000830188612ca6565b61315f6020830187612ca6565b61316c6040830186612ca6565b6131796060830185613008565b6131866080830184612c88565b9695505050505050565b60006080820190506131a56000830187612ca6565b6131b26020830186613017565b6131bf6040830185612ca6565b6131cc6060830184612ca6565b95945050505050565b600060208201905081810360008301526131ef8184612d7c565b905092915050565b6000602082019050818103600083015261321081612db5565b9050919050565b6000602082019050818103600083015261323081612dd8565b9050919050565b6000602082019050818103600083015261325081612dfb565b9050919050565b6000602082019050818103600083015261327081612e1e565b9050919050565b6000602082019050818103600083015261329081612e64565b9050919050565b600060208201905081810360008301526132b081612e87565b9050919050565b600060208201905081810360008301526132d081612eaa565b9050919050565b600060208201905081810360008301526132f081612ecd565b9050919050565b6000602082019050818103600083015261331081612ef0565b9050919050565b6000602082019050818103600083015261333081612f13565b9050919050565b6000602082019050818103600083015261335081612f36565b9050919050565b6000602082019050818103600083015261337081612f59565b9050919050565b6000602082019050818103600083015261339081612f7c565b9050919050565b600060208201905081810360008301526133b081612f9f565b9050919050565b600060208201905081810360008301526133d081612fc2565b9050919050565b600060208201905081810360008301526133f081612fe5565b9050919050565b600060208201905061340c6000830184613008565b92915050565b60006020820190506134276000830184613017565b92915050565b6000613437613448565b905061344382826137fd565b919050565b6000604051905090565b600067ffffffffffffffff82111561346d5761346c6138df565b5b6134768261390e565b9050602081019050919050565b60008190508160005260206000209050919050565b600081519050919050565b600081519050919050565b600081905092915050565b600082825260208201905092915050565b600081905092915050565b60006134e082613772565b91506134eb83613772565b9250827fffffffffffffffffffffffffffffffffffffffffffffffffffffffffffffffff038211156135205761351f613881565b5b828201905092915050565b6000808291508390505b60018511156135755780860481111561355157613550613881565b5b60018516156135605780820291505b808102905061356e8561391f565b9450613535565b94509492505050565b600061358982613772565b91506135948361377c565b92506135c17fffffffffffffffffffffffffffffffffffffffffffffffffffffffffffffffff84846135c9565b905092915050565b6000826135d95760019050613695565b816135e75760009050613695565b81600181146135fd576002811461360757613636565b6001915050613695565b60ff84111561361957613618613881565b5b8360020a9150848211156136305761362f613881565b5b50613695565b5060208310610133831016604e8410600b841016171561366b5782820a90508381111561366657613665613881565b5b613695565b613678848484600161352b565b9250905081840481111561368f5761368e613881565b5b81810290505b9392505050565b60006136a782613772565b91506136b283613772565b9250817fffffffffffffffffffffffffffffffffffffffffffffffffffffffffffffffff04831182151516156136eb576136ea613881565b5b828202905092915050565b600061370182613772565b915061370c83613772565b92508282101561371f5761371e613881565b5b828203905092915050565b600061373582613752565b9050919050565b60008115159050919050565b6000819050919050565b600073ffffffffffffffffffffffffffffffffffffffff82169050919050565b6000819050919050565b600060ff82169050919050565b82818337600083830152505050565b60005b838110156137b657808201518184015260208101905061379b565b838111156137c5576000848401525b50505050565b600060028204905060018216806137e357607f821691505b602082108114156137f7576137f66138b0565b5b50919050565b6138068261390e565b810181811067ffffffffffffffff82111715613825576138246138df565b5b80604052505050565b600061383982613772565b91507fffffffffffffffffffffffffffffffffffffffffffffffffffffffffffffffff82141561386c5761386b613881565b5b600182019050919050565b6000819050919050565b7f4e487b7100000000000000000000000000000000000000000000000000000000600052601160045260246000fd5b7f4e487b7100000000000000000000000000000000000000000000000000000000600052602260045260246000fd5b7f4e487b7100000000000000000000000000000000000000000000000000000000600052604160045260246000fd5b6000601f19601f8301169050919050565b60008160011c9050919050565b7f42455032303a207472616e736665722066726f6d20746865207a65726f20616460008201527f6472657373000000000000000000000000000000000000000000000000000000602082015250565b7f42455032303a20617070726f76652066726f6d20746865207a65726f2061646460008201527f7265737300000000000000000000000000000000000000000000000000000000602082015250565b7f45524331393637557067726164653a207570677261646520627265616b73206660008201527f7572746865722075706772616465730000000000000000000000000000000000602082015250565b7f4f776e61626c653a206e6577206f776e657220697320746865207a65726f206160008201527f6464726573730000000000000000000000000000000000000000000000000000602082015250565b7f1901000000000000000000000000000000000000000000000000000000000000600082015250565b7f46756e6374696f6e206d7573742062652063616c6c6564207468726f7567682060008201527f64656c656761746563616c6c0000000000000000000000000000000000000000602082015250565b7f46756e6374696f6e206d7573742062652063616c6c6564207468726f7567682060008201527f6163746976652070726f78790000000000000000000000000000000000000000602082015250565b7f496e697469616c697a61626c653a20636f6e747261637420697320616c72656160008201527f647920696e697469616c697a6564000000000000000000000000000000000000602082015250565b7f4355503a20494e56414c49445f5349474e415455524500000000000000000000600082015250565b7f455243313936373a206e657720696d706c656d656e746174696f6e206973206e60008201527f6f74206120636f6e747261637400000000000000000000000000000000000000602082015250565b7f42455032303a206d696e7420746f20746865207a65726f206164647265737300600082015250565b7f4f776e61626c653a2063616c6c6572206973206e6f7420746865206f776e6572600082015250565b7f42455032303a207472616e7366657220746f20746865207a65726f206164647260008201527f6573730000000000000000000000000000000000000000000000000000000000602082015250565b7f42455032303a206275726e2066726f6d20746865207a65726f2061646472657360008201527f7300000000000000000000000000000000000000000000000000000000000000602082015250565b7f416464726573733a2064656c65676174652063616c6c20746f206e6f6e2d636f60008201527f6e74726163740000000000000000000000000000000000000000000000000000602082015250565b7f4355503a20455850495245440000000000000000000000000000000000000000600082015250565b7f42455032303a20617070726f766520746f20746865207a65726f20616464726560008201527f7373000000000000000000000000000000000000000000000000000000000000602082015250565b613db68161372a565b8114613dc157600080fd5b50565b613dcd81613748565b8114613dd857600080fd5b50565b613de481613772565b8114613def57600080fd5b50565b613dfb8161377c565b8114613e0657600080fd5b5056fe42455032303a207472616e7366657220616d6f756e74206578636565647320616c6c6f77616e6365416464726573733a206c6f772d6c6576656c2064656c65676174652063616c6c206661696c656442455032303a207472616e7366657220616d6f756e7420657863656564732062616c616e636542455032303a2064656372656173656420616c6c6f77616e63652062656c6f77207a65726f42455032303a206275726e20616d6f756e7420657863656564732062616c616e636542455032303a206275726e20616d6f756e74206578636565647320616c6c6f77616e6365a2646970667358221220b17deeced0ed2b6bca46fc9f1e99ae6edf1ae04932691bf7042aed8c826f01a764736f6c63430008020033",
  "immutableReferences": {
    "612": [
      {
        "length": 32,
        "start": 2025
      },
      {
        "length": 32,
        "start": 2168
      },
      {
        "length": 32,
        "start": 2801
      },
      {
        "length": 32,
        "start": 2944
      }
    ]
  },
  "source": "// SPDX-License-Identifier: MIT\npragma solidity ^0.8.0;\n\nimport \"@openzeppelin/contracts-upgradeable/proxy/utils/Initializable.sol\";\nimport \"@openzeppelin/contracts-upgradeable/proxy/utils/UUPSUpgradeable.sol\";\nimport \"@openzeppelin/contracts-upgradeable/access/OwnableUpgradeable.sol\";\nimport \"@openzeppelin/contracts/utils/math/SafeMath.sol\";\nimport \"./BEP20/SafeBEP20.sol\";\nimport \"./BEP20/IBEP20.sol\";\n\n\ncontract CUP is Initializable, UUPSUpgradeable, OwnableUpgradeable, IBEP20 {\n    using SafeMath for uint256;\n\n    mapping(address => uint256) private _balances;\n\n    mapping(address => mapping(address => uint256)) private _allowances;\n\n    uint256 private _totalSupply;\n    uint8 private _decimals;\n    string private _symbol;\n    string private _name;\n\n    bytes32 public DOMAIN_SEPARATOR;\n    bytes32 public constant PERMIT_TYPEHASH = keccak256(\"Permit(address owner,address spender, uint256 value, uint256 nonce, uint256 deadline)\");\n    mapping(address => uint) public nonces;\n\n    /// @custom:oz-upgrades-unsafe-allow constructor\n    constructor() initializer {}\n\n    function initialize() external initializer {\n        _name = \"DAOCup\";\n        _symbol = \"CUP\";\n        _decimals = 18;\n        __Ownable_init();\n        __UUPSUpgradeable_init();\n\n        mint(msg.sender, uint256(9**10).mul(uint256(10) ** 18));\n\n        uint chainId;\n        assembly {\n            chainId := chainid()\n        }\n        DOMAIN_SEPARATOR = keccak256(\n            abi.encode(\n                keccak256('EIP712Domain(string name, string version, uint256 chainId, address verifyingContract)'),\n                keccak256(bytes(_name)),\n                keccak256(bytes('1')),\n                chainId,\n                address(this)\n            )\n        );\n    }\n\n    function _authorizeUpgrade(address newImplementation) internal override onlyOwner {}\n\n    /**\n     * @dev Returns the bep token owner.\n     */\n    function getOwner() external view override returns (address) {\n        return owner();\n    }\n\n    /**\n     * @dev Returns the token decimals.\n     */\n    function decimals() external view override returns (uint8) {\n        return _decimals;\n    }\n\n    /**\n     * @dev Returns the token symbol.\n     */\n    function symbol() external view override returns (string memory) {\n        return _symbol;\n    }\n\n    /**\n     * @dev Returns the token name.\n     */\n    function name() external view override returns (string memory) {\n        return _name;\n    }\n\n    /**\n     * @dev See {BEP20-totalSupply}.\n     */\n    function totalSupply() external view override returns (uint256) {\n        return _totalSupply;\n    }\n\n    /**\n     * @dev See {BEP20-balanceOf}.\n     */\n    function balanceOf(address account_)\n    external\n    view\n    override\n    returns (uint256)\n    {\n        return _balances[account_];\n    }\n\n    /**\n     * @dev See {BEP20-transfer}.\n     *\n     * Requirements:\n     *\n     * - `recipient` cannot be the zero address.\n     * - the caller must have a balance of at least `amount`.\n     */\n    function transfer(address recipient_, uint256 amount)\n    external\n    override\n    returns (bool)\n    {\n        _transfer(_msgSender(), recipient_, amount);\n        return true;\n    }\n\n    /**\n     * @dev See {BEP20-allowance}.\n     */\n    function allowance(address owner_, address spender_)\n    external\n    view\n    override\n    returns (uint256)\n    {\n        return _allowances[owner_][spender_];\n    }\n\n    /**\n     * @dev See {BEP20-approve}.\n     *\n     * Requirements:\n     *\n     * - `spender` cannot be the zero address.\n     */\n    function approve(address spender_, uint256 amount)\n    external\n    override\n    returns (bool)\n    {\n        _approve(_msgSender(), spender_, amount);\n        return true;\n    }\n\n    /**\n     * @dev See {BEP20-transferFrom}.\n     *\n     * Emits an {Approval} event indicating the updated allowance. This is not\n     * required by the EIP. See the note at the beginning of {BEP20};\n     *\n     * Requirements:\n     * - `sender` and `recipient` cannot be the zero address.\n     * - `sender` must have a balance of at least `amount`.\n     * - the caller must have allowance for `sender`'s tokens of at least\n     * `amount`.\n     */\n    function transferFrom(\n        address sender_,\n        address recipient_,\n        uint256 amount\n    ) external override returns (bool) {\n        _transfer(sender_, recipient_, amount);\n        _approve(\n            sender_,\n            _msgSender(),\n            _allowances[sender_][_msgSender()].sub(\n                amount,\n                \"BEP20: transfer amount exceeds allowance\"\n            )\n        );\n        return true;\n    }\n\n    /**\n     * @dev Atomically increases the allowance granted to `spender` by the caller.\n     *\n     * This is an alternative to {approve} that can be used as a mitigation for\n     * problems described in {BEP20-approve}.\n     *\n     * Emits an {Approval} event indicating the updated allowance.\n     *\n     * Requirements:\n     *\n     * - `spender` cannot be the zero address.\n     */\n    function increaseAllowance(address spender_, uint256 addedValue)\n    public\n    returns (bool)\n    {\n        _approve(\n            _msgSender(),\n            spender_,\n            _allowances[_msgSender()][spender_].add(addedValue)\n        );\n        return true;\n    }\n\n    /**\n     * @dev Atomically decreases the allowance granted to `spender` by the caller.\n     *\n     * This is an alternative to {approve} that can be used as a mitigation for\n     * problems described in {BEP20-approve}.\n     *\n     * Emits an {Approval} event indicating the updated allowance.\n     *\n     * Requirements:\n     *\n     * - `spender` cannot be the zero address.\n     * - `spender` must have allowance for the caller of at least\n     * `subtractedValue`.\n     */\n    function decreaseAllowance(address spender_, uint256 subtractedValue)\n    public\n    returns (bool)\n    {\n        _approve(\n            _msgSender(),\n            spender_,\n            _allowances[_msgSender()][spender_].sub(\n                subtractedValue,\n                \"BEP20: decreased allowance below zero\"\n            )\n        );\n        return true;\n    }\n\n    /**\n     * @dev Creates `amount` tokens and assigns them to `msg.sender`, increasing\n     * the total supply.\n     *\n     * Requirements\n     *\n     * - `msg.sender` must be the token owner\n     */\n    function mint(address to_, uint256 amount) public onlyOwner {\n        _mint(to_, amount);\n    }\n\n    /**\n     * @dev Burn `amount` tokens\n     *\n     * Requirements\n     * - `msg.sender` must have a balance of at least `amount`\n     */\n    function burn(uint256 amount) public returns (bool) {\n        _burn(_msgSender(), amount);\n        return true;\n    }\n\n    /**\n     * @dev Burn `amount` tokens of `account` from allowed sender\n     */\n    function burnFrom(address account_, uint256 amount) public returns (bool) {\n        _burnFrom(account_, amount);\n        return true;\n    }\n\n    /**\n     * @dev Moves tokens `amount` from `sender` to `recipient`.\n     *\n     * This is internal function is equivalent to {transfer}, and can be used to\n     * e.g. implement automatic token fees, slashing mechanisms, etc.\n     *\n     * Emits a {Transfer} event.\n     *\n     * Requirements:\n     *\n     * - `sender` cannot be the zero address.\n     * - `recipient` cannot be the zero address.\n     * - `sender` must have a balance of at least `amount`.\n     */\n    function _transfer(\n        address sender_,\n        address recipient_,\n        uint256 amount\n    ) internal {\n        require(sender_ != address(0), \"BEP20: transfer from the zero address\");\n        require(recipient_ != address(0), \"BEP20: transfer to the zero address\");\n\n        _balances[sender_] = _balances[sender_].sub(\n            amount,\n            \"BEP20: transfer amount exceeds balance\"\n        );\n        _balances[recipient_] = _balances[recipient_].add(amount);\n        emit Transfer(sender_, recipient_, amount);\n    }\n\n    /** @dev Creates `amount` tokens and assigns them to `account`, increasing\n     * the total supply.\n     *\n     * Emits a {Transfer} event with `from` set to the zero address.\n     *\n     * Requirements\n     *\n     * - `to` cannot be the zero address.\n     */\n    function _mint(address account_, uint256 amount) internal {\n        require(account_ != address(0), \"BEP20: mint to the zero address\");\n\n        _totalSupply = _totalSupply.add(amount);\n        _balances[account_] = _balances[account_].add(amount);\n        emit Transfer(address(0), account_, amount);\n    }\n\n    /**\n     * @dev Destroys `amount` tokens from `account`, reducing the\n     * total supply.\n     *\n     * Emits a {Transfer} event with `to` set to the zero address.\n     *\n     * Requirements\n     *\n     * - `account` cannot be the zero address.\n     * - `account` must have at least `amount` tokens.\n     */\n    function _burn(address account_, uint256 amount) internal {\n        require(account_ != address(0), \"BEP20: burn from the zero address\");\n\n        _balances[account_] = _balances[account_].sub(\n            amount,\n            \"BEP20: burn amount exceeds balance\"\n        );\n        _totalSupply = _totalSupply.sub(amount);\n        emit Transfer(account_, address(0), amount);\n    }\n\n    /**\n     * @dev Sets `amount` as the allowance of `spender` over the `owner`s tokens.\n     *\n     * This is internal function is equivalent to `approve`, and can be used to\n     * e.g. set automatic allowances for certain subsystems, etc.\n     *\n     * Emits an {Approval} event.\n     *\n     * Requirements:\n     *\n     * - `owner` cannot be the zero address.\n     * - `spender` cannot be the zero address.\n     */\n    function _approve(\n        address owner_,\n        address spender_,\n        uint256 amount\n    ) internal {\n        require(owner_ != address(0), \"BEP20: approve from the zero address\");\n        require(spender_ != address(0), \"BEP20: approve to the zero address\");\n\n        _allowances[owner_][spender_] = amount;\n        emit Approval(owner_, spender_, amount);\n    }\n\n    /**\n     * @dev Destroys `amount` tokens from `account`.`amount` is then deducted\n     * from the caller's allowance.\n     *\n     * See {_burn} and {_approve}.\n     */\n    function _burnFrom(address account_, uint256 amount_) internal {\n        _burn(account_, amount_);\n        _approve(\n            account_,\n            _msgSender(),\n            _allowances[account_][_msgSender()].sub(\n                amount_,\n                \"BEP20: burn amount exceeds allowance\"\n            )\n        );\n    }\n\n    function permit(address owner_, address spender_, uint value, uint deadline, uint8 v, bytes32 r, bytes32 s) external {\n        require(deadline >= block.timestamp, 'CUP: EXPIRED');\n        bytes32 digest = keccak256(\n            abi.encodePacked(\n                '\\x19\\x01',\n                DOMAIN_SEPARATOR,\n                keccak256(abi.encode(PERMIT_TYPEHASH, owner_, spender_, value, nonces[owner_]++, deadline))\n            )\n        );\n        address recoveredAddress = ecrecover(digest, v, r, s);\n        require(recoveredAddress != address(0) && recoveredAddress == owner_, 'CUP: INVALID_SIGNATURE');\n        _approve(owner_, spender_, value);\n    }\n}",
  "sourcePath": "/Users/bean/IdeaProjects/opencoin/contracts/CUP.sol",
  "compiler": {
    "name": "solc",
    "version": "0.8.2+commit.661d1103.Emscripten.clang"
  },
  "schemaVersion": "3.4.3",
  "updatedAt": "2021-10-08T04:34:06.387Z",
  "networkType": "ethereum",
  "devdoc": {
    "kind": "dev",
    "methods": {
      "allowance(address,address)": {
        "details": "See {BEP20-allowance}."
      },
      "approve(address,uint256)": {
        "details": "See {BEP20-approve}. Requirements: - `spender` cannot be the zero address."
      },
      "balanceOf(address)": {
        "details": "See {BEP20-balanceOf}."
      },
      "burn(uint256)": {
        "details": "Burn `amount` tokens Requirements - `msg.sender` must have a balance of at least `amount`"
      },
      "burnFrom(address,uint256)": {
        "details": "Burn `amount` tokens of `account` from allowed sender"
      },
      "constructor": {
        "custom:oz-upgrades-unsafe-allow": "constructor"
      },
      "decimals()": {
        "details": "Returns the token decimals."
      },
      "decreaseAllowance(address,uint256)": {
        "details": "Atomically decreases the allowance granted to `spender` by the caller. This is an alternative to {approve} that can be used as a mitigation for problems described in {BEP20-approve}. Emits an {Approval} event indicating the updated allowance. Requirements: - `spender` cannot be the zero address. - `spender` must have allowance for the caller of at least `subtractedValue`."
      },
      "getOwner()": {
        "details": "Returns the bep token owner."
      },
      "increaseAllowance(address,uint256)": {
        "details": "Atomically increases the allowance granted to `spender` by the caller. This is an alternative to {approve} that can be used as a mitigation for problems described in {BEP20-approve}. Emits an {Approval} event indicating the updated allowance. Requirements: - `spender` cannot be the zero address."
      },
      "mint(address,uint256)": {
        "details": "Creates `amount` tokens and assigns them to `msg.sender`, increasing the total supply. Requirements - `msg.sender` must be the token owner"
      },
      "name()": {
        "details": "Returns the token name."
      },
      "owner()": {
        "details": "Returns the address of the current owner."
      },
      "renounceOwnership()": {
        "details": "Leaves the contract without owner. It will not be possible to call `onlyOwner` functions anymore. Can only be called by the current owner. NOTE: Renouncing ownership will leave the contract without an owner, thereby removing any functionality that is only available to the owner."
      },
      "symbol()": {
        "details": "Returns the token symbol."
      },
      "totalSupply()": {
        "details": "See {BEP20-totalSupply}."
      },
      "transfer(address,uint256)": {
        "details": "See {BEP20-transfer}. Requirements: - `recipient` cannot be the zero address. - the caller must have a balance of at least `amount`."
      },
      "transferFrom(address,address,uint256)": {
        "details": "See {BEP20-transferFrom}. Emits an {Approval} event indicating the updated allowance. This is not required by the EIP. See the note at the beginning of {BEP20}; Requirements: - `sender` and `recipient` cannot be the zero address. - `sender` must have a balance of at least `amount`. - the caller must have allowance for `sender`'s tokens of at least `amount`."
      },
      "transferOwnership(address)": {
        "details": "Transfers ownership of the contract to a new account (`newOwner`). Can only be called by the current owner."
      },
      "upgradeTo(address)": {
        "details": "Upgrade the implementation of the proxy to `newImplementation`. Calls {_authorizeUpgrade}. Emits an {Upgraded} event."
      },
      "upgradeToAndCall(address,bytes)": {
        "details": "Upgrade the implementation of the proxy to `newImplementation`, and subsequently execute the function call encoded in `data`. Calls {_authorizeUpgrade}. Emits an {Upgraded} event."
      }
    },
    "version": 1
  },
  "userdoc": {
    "kind": "user",
    "methods": {},
    "version": 1
  }
}