{
  "contractName": "CUP",
  "abi": [
    {
      "inputs": [],
      "stateMutability": "nonpayable",
      "type": "constructor"
    },
    {
      "anonymous": false,
      "inputs": [
        {
          "indexed": false,
          "internalType": "address",
          "name": "previousAdmin",
          "type": "address"
        },
        {
          "indexed": false,
          "internalType": "address",
          "name": "newAdmin",
          "type": "address"
        }
      ],
      "name": "AdminChanged",
      "type": "event"
    },
    {
      "anonymous": false,
      "inputs": [
        {
          "indexed": true,
          "internalType": "address",
          "name": "owner",
          "type": "address"
        },
        {
          "indexed": true,
          "internalType": "address",
          "name": "spender",
          "type": "address"
        },
        {
          "indexed": false,
          "internalType": "uint256",
          "name": "value",
          "type": "uint256"
        }
      ],
      "name": "Approval",
      "type": "event"
    },
    {
      "anonymous": false,
      "inputs": [
        {
          "indexed": true,
          "internalType": "address",
          "name": "beacon",
          "type": "address"
        }
      ],
      "name": "BeaconUpgraded",
      "type": "event"
    },
    {
      "anonymous": false,
      "inputs": [
        {
          "indexed": true,
          "internalType": "address",
          "name": "previousOwner",
          "type": "address"
        },
        {
          "indexed": true,
          "internalType": "address",
          "name": "newOwner",
          "type": "address"
        }
      ],
      "name": "OwnershipTransferred",
      "type": "event"
    },
    {
      "anonymous": false,
      "inputs": [
        {
          "indexed": true,
          "internalType": "address",
          "name": "from",
          "type": "address"
        },
        {
          "indexed": true,
          "internalType": "address",
          "name": "to",
          "type": "address"
        },
        {
          "indexed": false,
          "internalType": "uint256",
          "name": "value",
          "type": "uint256"
        }
      ],
      "name": "Transfer",
      "type": "event"
    },
    {
      "anonymous": false,
      "inputs": [
        {
          "indexed": true,
          "internalType": "address",
          "name": "implementation",
          "type": "address"
        }
      ],
      "name": "Upgraded",
      "type": "event"
    },
    {
      "inputs": [],
      "name": "DOMAIN_SEPARATOR",
      "outputs": [
        {
          "internalType": "bytes32",
          "name": "",
          "type": "bytes32"
        }
      ],
      "stateMutability": "view",
      "type": "function",
      "constant": true
    },
    {
      "inputs": [],
      "name": "PERMIT_TYPEHASH",
      "outputs": [
        {
          "internalType": "bytes32",
          "name": "",
          "type": "bytes32"
        }
      ],
      "stateMutability": "view",
      "type": "function",
      "constant": true
    },
    {
      "inputs": [
        {
          "internalType": "address",
          "name": "owner",
          "type": "address"
        },
        {
          "internalType": "address",
          "name": "spender",
          "type": "address"
        }
      ],
      "name": "allowance",
      "outputs": [
        {
          "internalType": "uint256",
          "name": "",
          "type": "uint256"
        }
      ],
      "stateMutability": "view",
      "type": "function",
      "constant": true
    },
    {
      "inputs": [
        {
          "internalType": "address",
          "name": "spender",
          "type": "address"
        },
        {
          "internalType": "uint256",
          "name": "amount",
          "type": "uint256"
        }
      ],
      "name": "approve",
      "outputs": [
        {
          "internalType": "bool",
          "name": "",
          "type": "bool"
        }
      ],
      "stateMutability": "nonpayable",
      "type": "function"
    },
    {
      "inputs": [
        {
          "internalType": "address",
          "name": "account",
          "type": "address"
        }
      ],
      "name": "balanceOf",
      "outputs": [
        {
          "internalType": "uint256",
          "name": "",
          "type": "uint256"
        }
      ],
      "stateMutability": "view",
      "type": "function",
      "constant": true
    },
    {
      "inputs": [],
      "name": "decimals",
      "outputs": [
        {
          "internalType": "uint8",
          "name": "",
          "type": "uint8"
        }
      ],
      "stateMutability": "view",
      "type": "function",
      "constant": true
    },
    {
      "inputs": [
        {
          "internalType": "address",
          "name": "spender",
          "type": "address"
        },
        {
          "internalType": "uint256",
          "name": "subtractedValue",
          "type": "uint256"
        }
      ],
      "name": "decreaseAllowance",
      "outputs": [
        {
          "internalType": "bool",
          "name": "",
          "type": "bool"
        }
      ],
      "stateMutability": "nonpayable",
      "type": "function"
    },
    {
      "inputs": [],
      "name": "getOwner",
      "outputs": [
        {
          "internalType": "address",
          "name": "",
          "type": "address"
        }
      ],
      "stateMutability": "view",
      "type": "function",
      "constant": true
    },
    {
      "inputs": [
        {
          "internalType": "address",
          "name": "spender",
          "type": "address"
        },
        {
          "internalType": "uint256",
          "name": "addedValue",
          "type": "uint256"
        }
      ],
      "name": "increaseAllowance",
      "outputs": [
        {
          "internalType": "bool",
          "name": "",
          "type": "bool"
        }
      ],
      "stateMutability": "nonpayable",
      "type": "function"
    },
    {
      "inputs": [],
      "name": "name",
      "outputs": [
        {
          "internalType": "string",
          "name": "",
          "type": "string"
        }
      ],
      "stateMutability": "view",
      "type": "function",
      "constant": true
    },
    {
      "inputs": [
        {
          "internalType": "address",
          "name": "",
          "type": "address"
        }
      ],
      "name": "nonces",
      "outputs": [
        {
          "internalType": "uint256",
          "name": "",
          "type": "uint256"
        }
      ],
      "stateMutability": "view",
      "type": "function",
      "constant": true
    },
    {
      "inputs": [],
      "name": "owner",
      "outputs": [
        {
          "internalType": "address",
          "name": "",
          "type": "address"
        }
      ],
      "stateMutability": "view",
      "type": "function",
      "constant": true
    },
    {
      "inputs": [],
      "name": "renounceOwnership",
      "outputs": [],
      "stateMutability": "nonpayable",
      "type": "function"
    },
    {
      "inputs": [],
      "name": "symbol",
      "outputs": [
        {
          "internalType": "string",
          "name": "",
          "type": "string"
        }
      ],
      "stateMutability": "view",
      "type": "function",
      "constant": true
    },
    {
      "inputs": [],
      "name": "totalSupply",
      "outputs": [
        {
          "internalType": "uint256",
          "name": "",
          "type": "uint256"
        }
      ],
      "stateMutability": "view",
      "type": "function",
      "constant": true
    },
    {
      "inputs": [
        {
          "internalType": "address",
          "name": "recipient",
          "type": "address"
        },
        {
          "internalType": "uint256",
          "name": "amount",
          "type": "uint256"
        }
      ],
      "name": "transfer",
      "outputs": [
        {
          "internalType": "bool",
          "name": "",
          "type": "bool"
        }
      ],
      "stateMutability": "nonpayable",
      "type": "function"
    },
    {
      "inputs": [
        {
          "internalType": "address",
          "name": "sender_",
          "type": "address"
        },
        {
          "internalType": "address",
          "name": "recipient_",
          "type": "address"
        },
        {
          "internalType": "uint256",
          "name": "amount",
          "type": "uint256"
        }
      ],
      "name": "transferFrom",
      "outputs": [
        {
          "internalType": "bool",
          "name": "",
          "type": "bool"
        }
      ],
      "stateMutability": "nonpayable",
      "type": "function"
    },
    {
      "inputs": [
        {
          "internalType": "address",
          "name": "newOwner",
          "type": "address"
        }
      ],
      "name": "transferOwnership",
      "outputs": [],
      "stateMutability": "nonpayable",
      "type": "function"
    },
    {
      "inputs": [
        {
          "internalType": "address",
          "name": "newImplementation",
          "type": "address"
        }
      ],
      "name": "upgradeTo",
      "outputs": [],
      "stateMutability": "nonpayable",
      "type": "function"
    },
    {
      "inputs": [
        {
          "internalType": "address",
          "name": "newImplementation",
          "type": "address"
        },
        {
          "internalType": "bytes",
          "name": "data",
          "type": "bytes"
        }
      ],
      "name": "upgradeToAndCall",
      "outputs": [],
      "stateMutability": "payable",
      "type": "function",
      "payable": true
    },
    {
      "inputs": [],
      "name": "initialize",
      "outputs": [],
      "stateMutability": "nonpayable",
      "type": "function"
    },
    {
      "inputs": [
        {
          "internalType": "address",
          "name": "to",
          "type": "address"
        },
        {
          "internalType": "uint256",
          "name": "amount",
          "type": "uint256"
        }
      ],
      "name": "mint",
      "outputs": [],
      "stateMutability": "nonpayable",
      "type": "function"
    },
    {
      "inputs": [
        {
          "internalType": "address",
          "name": "owner_",
          "type": "address"
        },
        {
          "internalType": "address",
          "name": "spender_",
          "type": "address"
        },
        {
          "internalType": "uint256",
          "name": "value",
          "type": "uint256"
        },
        {
          "internalType": "uint256",
          "name": "deadline",
          "type": "uint256"
        },
        {
          "internalType": "uint8",
          "name": "v",
          "type": "uint8"
        },
        {
          "internalType": "bytes32",
          "name": "r",
          "type": "bytes32"
        },
        {
          "internalType": "bytes32",
          "name": "s",
          "type": "bytes32"
        }
      ],
      "name": "permit",
      "outputs": [],
      "stateMutability": "nonpayable",
      "type": "function"
    }
  ],
  "bytecode": "0x60a06040523073ffffffffffffffffffffffffffffffffffffffff1660809073ffffffffffffffffffffffffffffffffffffffff1660601b8152503480156200004757600080fd5b50600060019054906101000a900460ff16806200006f575060008054906101000a900460ff16155b620000b1576040517f08c379a0000000000000000000000000000000000000000000000000000000008152600401620000a89062000152565b60405180910390fd5b60008060019054906101000a900460ff16159050801562000102576001600060016101000a81548160ff02191690831515021790555060016000806101000a81548160ff0219169083151502179055505b8015620001245760008060016101000a81548160ff0219169083151502179055505b50620001d4565b60006200013a602e8362000174565b9150620001478262000185565b604082019050919050565b600060208201905081810360008301526200016d816200012b565b9050919050565b600082825260208201905092915050565b7f496e697469616c697a61626c653a20636f6e747261637420697320616c72656160008201527f647920696e697469616c697a6564000000000000000000000000000000000000602082015250565b60805160601c613ca562000208600039600081816105f00152818161067f0152818161083d01526108cc0152613ca56000f3fe6080604052600436106101405760003560e01c806370a08231116100b657806395d89b411161006f57806395d89b411461043f578063a457c2d71461046a578063a9059cbb146104a7578063d505accf146104e4578063dd62ed3e1461050d578063f2fde38b1461054a57610140565b806370a0823114610341578063715018a61461037e5780637ecebe00146103955780638129fc1c146103d2578063893d20e8146103e95780638da5cb5b1461041457610140565b8063313ce56711610108578063313ce567146102405780633644e5151461026b5780633659cfe61461029657806339509351146102bf57806340c10f19146102fc5780634f1ef2861461032557610140565b806306fdde0314610145578063095ea7b31461017057806318160ddd146101ad57806323b872dd146101d857806330adf81f14610215575b600080fd5b34801561015157600080fd5b5061015a610573565b6040516101679190612f7f565b60405180910390f35b34801561017c57600080fd5b5061019760048036038101906101929190612a46565b610582565b6040516101a49190612e50565b60405180910390f35b3480156101b957600080fd5b506101c2610596565b6040516101cf91906131e1565b60405180910390f35b3480156101e457600080fd5b506101ff60048036038101906101fa9190612905565b6105a5565b60405161020c9190612e50565b60405180910390f35b34801561022157600080fd5b5061022a6105bb565b6040516102379190612e6b565b60405180910390f35b34801561024c57600080fd5b506102556105df565b60405161026291906131fc565b60405180910390f35b34801561027757600080fd5b506102806105e8565b60405161028d9190612e6b565b60405180910390f35b3480156102a257600080fd5b506102bd60048036038101906102b891906128a0565b6105ee565b005b3480156102cb57600080fd5b506102e660048036038101906102e19190612a46565b61079d565b6040516102f39190612e50565b60405180910390f35b34801561030857600080fd5b50610323600480360381019061031e9190612a46565b6107b1565b005b61033f600480360381019061033a91906129f2565b61083b565b005b34801561034d57600080fd5b50610368600480360381019061036391906128a0565b610978565b60405161037591906131e1565b60405180910390f35b34801561038a57600080fd5b5061039361098a565b005b3480156103a157600080fd5b506103bc60048036038101906103b791906128a0565b610a12565b6040516103c991906131e1565b60405180910390f35b3480156103de57600080fd5b506103e7610a2a565b005b3480156103f557600080fd5b506103fe610c88565b60405161040b9190612e35565b60405180910390f35b34801561042057600080fd5b50610429610c97565b6040516104369190612e35565b60405180910390f35b34801561044b57600080fd5b50610454610cc1565b6040516104619190612f7f565b60405180910390f35b34801561047657600080fd5b50610491600480360381019061048c9190612a46565b610cd0565b60405161049e9190612e50565b60405180910390f35b3480156104b357600080fd5b506104ce60048036038101906104c99190612a46565b610ce4565b6040516104db9190612e50565b60405180910390f35b3480156104f057600080fd5b5061050b60048036038101906105069190612954565b610cf8565b005b34801561051957600080fd5b50610534600480360381019061052f91906128c9565b610f1d565b60405161054191906131e1565b60405180910390f35b34801561055657600080fd5b50610571600480360381019061056c91906128a0565b610f31565b005b606061057d611029565b905090565b600061058e83836110bb565b905092915050565b60006105a06110d9565b905090565b60006105b28484846110e3565b90509392505050565b7fcb43c7723d9634f543decd91bc3fb040b15071156ff9f30a4c54484d76275aa781565b60006012905090565b60fb5481565b7f000000000000000000000000000000000000000000000000000000000000000073ffffffffffffffffffffffffffffffffffffffff163073ffffffffffffffffffffffffffffffffffffffff16141561067d576040517f08c379a000000000000000000000000000000000000000000000000000000000815260040161067490613021565b60405180910390fd5b7f000000000000000000000000000000000000000000000000000000000000000073ffffffffffffffffffffffffffffffffffffffff166106bc6111db565b73ffffffffffffffffffffffffffffffffffffffff1614610712576040517f08c379a000000000000000000000000000000000000000000000000000000000815260040161070990613061565b60405180910390fd5b61071b81611232565b61079a81600067ffffffffffffffff811115610760577f4e487b7100000000000000000000000000000000000000000000000000000000600052604160045260246000fd5b6040519080825280601f01601f1916602001820160405280156107925781602001600182028036833780820191505090505b5060006112b1565b50565b60006107a98383611482565b905092915050565b6107b961156d565b73ffffffffffffffffffffffffffffffffffffffff166107d7610c97565b73ffffffffffffffffffffffffffffffffffffffff161461082d576040517f08c379a000000000000000000000000000000000000000000000000000000000815260040161082490613101565b60405180910390fd5b6108378282611575565b5050565b7f000000000000000000000000000000000000000000000000000000000000000073ffffffffffffffffffffffffffffffffffffffff163073ffffffffffffffffffffffffffffffffffffffff1614156108ca576040517f08c379a00000000000000000000000000000000000000000000000000000000081526004016108c190613021565b60405180910390fd5b7f000000000000000000000000000000000000000000000000000000000000000073ffffffffffffffffffffffffffffffffffffffff166109096111db565b73ffffffffffffffffffffffffffffffffffffffff161461095f576040517f08c379a000000000000000000000000000000000000000000000000000000000815260040161095690613061565b60405180910390fd5b61096882611232565b610974828260016112b1565b5050565b6000610983826116d6565b9050919050565b61099261156d565b73ffffffffffffffffffffffffffffffffffffffff166109b0610c97565b73ffffffffffffffffffffffffffffffffffffffff1614610a06576040517f08c379a00000000000000000000000000000000000000000000000000000000081526004016109fd90613101565b60405180910390fd5b610a10600061171f565b565b60fc6020528060005260406000206000915090505481565b600060019054906101000a900460ff1680610a50575060008054906101000a900460ff16155b610a8f576040517f08c379a0000000000000000000000000000000000000000000000000000000008152600401610a8690613081565b60405180910390fd5b60008060019054906101000a900460ff161590508015610adf576001600060016101000a81548160ff02191690831515021790555060016000806101000a81548160ff0219169083151502179055505b610b536040518060400160405280600681526020017f44414f43757000000000000000000000000000000000000000000000000000008152506040518060400160405280600381526020017f43555000000000000000000000000000000000000000000000000000000000008152506117e5565b610b5b6118d2565b610b636119bb565b610b9133610b8c6012600a610b789190613353565b6414f46b0400611aa490919063ffffffff16565b6107b1565b60004690507f3cb138da6d2d7fa0e45d63ba80d5c0902dc0f5c3cc8ce33bcfe31dc017a3a4126040518060400160405280600681526020017f44414f4375700000000000000000000000000000000000000000000000000000815250805190602001206040518060400160405280600181526020017f3100000000000000000000000000000000000000000000000000000000000000815250805190602001208330604051602001610c47959493929190612ee7565b6040516020818303038152906040528051906020012060fb81905550508015610c855760008060016101000a81548160ff0219169083151502179055505b50565b6000610c92610c97565b905090565b6000606560009054906101000a900473ffffffffffffffffffffffffffffffffffffffff16905090565b6060610ccb611aba565b905090565b6000610cdc8383611482565b905092915050565b6000610cf08383611b4c565b905092915050565b42841015610d3b576040517f08c379a0000000000000000000000000000000000000000000000000000000008152600401610d3290613161565b60405180910390fd5b600060fb547fcb43c7723d9634f543decd91bc3fb040b15071156ff9f30a4c54484d76275aa789898960fc60008e73ffffffffffffffffffffffffffffffffffffffff1673ffffffffffffffffffffffffffffffffffffffff1681526020019081526020016000206000815480929190610db4906135cf565b919050558a604051602001610dce96959493929190612e86565b60405160208183030381529060405280519060200120604051602001610df5929190612dfe565b604051602081830303815290604052805190602001209050600060018286868660405160008152602001604052604051610e329493929190612f3a565b6020604051602081039080840390855afa158015610e54573d6000803e3d6000fd5b505050602060405103519050600073ffffffffffffffffffffffffffffffffffffffff168173ffffffffffffffffffffffffffffffffffffffff1614158015610ec857508873ffffffffffffffffffffffffffffffffffffffff168173ffffffffffffffffffffffffffffffffffffffff16145b610f07576040517f08c379a0000000000000000000000000000000000000000000000000000000008152600401610efe906130a1565b60405180910390fd5b610f12898989611b6a565b505050505050505050565b6000610f298383611d35565b905092915050565b610f3961156d565b73ffffffffffffffffffffffffffffffffffffffff16610f57610c97565b73ffffffffffffffffffffffffffffffffffffffff1614610fad576040517f08c379a0000000000000000000000000000000000000000000000000000000008152600401610fa490613101565b60405180910390fd5b600073ffffffffffffffffffffffffffffffffffffffff168173ffffffffffffffffffffffffffffffffffffffff16141561101d576040517f08c379a000000000000000000000000000000000000000000000000000000000815260040161101490612fe1565b60405180910390fd5b6110268161171f565b50565b6060603680546110389061356c565b80601f01602080910402602001604051908101604052809291908181526020018280546110649061356c565b80156110b15780601f10611086576101008083540402835291602001916110b1565b820191906000526020600020905b81548152906001019060200180831161109457829003601f168201915b5050505050905090565b60006110cf6110c861156d565b8484611b6a565b6001905092915050565b6000603554905090565b60006110f0848484611dbc565b6000603460008673ffffffffffffffffffffffffffffffffffffffff1673ffffffffffffffffffffffffffffffffffffffff168152602001908152602001600020600061113b61156d565b73ffffffffffffffffffffffffffffffffffffffff1673ffffffffffffffffffffffffffffffffffffffff168152602001908152602001600020549050828110156111bb576040517f08c379a00000000000000000000000000000000000000000000000000000000081526004016111b2906130e1565b60405180910390fd5b6111cf856111c761156d565b858403611b6a565b60019150509392505050565b60006112097f360894a13ba1a3210667c828492db98dca3e2076cc3735a920a3ca505d382bbc60001b612040565b60000160009054906101000a900473ffffffffffffffffffffffffffffffffffffffff16905090565b61123a61156d565b73ffffffffffffffffffffffffffffffffffffffff16611258610c97565b73ffffffffffffffffffffffffffffffffffffffff16146112ae576040517f08c379a00000000000000000000000000000000000000000000000000000000081526004016112a590613101565b60405180910390fd5b50565b60006112bb6111db565b90506112c68461204a565b6000835111806112d35750815b156112e4576112e28484612103565b505b60006113127f4910fdfa16fed3260ed0e7147f7cc6da11a60208b5b9406d12a635614ffd914360001b6121e7565b90508060000160009054906101000a900460ff1661147b5760018160000160006101000a81548160ff0219169083151502179055506113de858360405160240161135c9190612e35565b6040516020818303038152906040527f3659cfe6000000000000000000000000000000000000000000000000000000007bffffffffffffffffffffffffffffffffffffffffffffffffffffffff19166020820180517bffffffffffffffffffffffffffffffffffffffffffffffffffffffff8381831617835250505050612103565b5060008160000160006101000a81548160ff0219169083151502179055506114046111db565b73ffffffffffffffffffffffffffffffffffffffff168273ffffffffffffffffffffffffffffffffffffffff1614611471576040517f08c379a000000000000000000000000000000000000000000000000000000000815260040161146890612fc1565b60405180910390fd5b61147a856121f1565b5b5050505050565b6000806034600061149161156d565b73ffffffffffffffffffffffffffffffffffffffff1673ffffffffffffffffffffffffffffffffffffffff16815260200190815260200160002060008573ffffffffffffffffffffffffffffffffffffffff1673ffffffffffffffffffffffffffffffffffffffff1681526020019081526020016000205490508281101561154e576040517f08c379a0000000000000000000000000000000000000000000000000000000008152600401611545906131a1565b60405180910390fd5b61156261155961156d565b85858403611b6a565b600191505092915050565b600033905090565b600073ffffffffffffffffffffffffffffffffffffffff168273ffffffffffffffffffffffffffffffffffffffff1614156115e5576040517f08c379a00000000000000000000000000000000000000000000000000000000081526004016115dc906131c1565b60405180910390fd5b6115f160008383612240565b806035600082825461160391906132aa565b9250508190555080603360008473ffffffffffffffffffffffffffffffffffffffff1673ffffffffffffffffffffffffffffffffffffffff168152602001908152602001600020600082825461165991906132aa565b925050819055508173ffffffffffffffffffffffffffffffffffffffff16600073ffffffffffffffffffffffffffffffffffffffff167fddf252ad1be2c89b69c2b068fc378daa952ba7f163c4a11628f55a4df523b3ef836040516116be91906131e1565b60405180910390a36116d260008383612245565b5050565b6000603360008373ffffffffffffffffffffffffffffffffffffffff1673ffffffffffffffffffffffffffffffffffffffff168152602001908152602001600020549050919050565b6000606560009054906101000a900473ffffffffffffffffffffffffffffffffffffffff16905081606560006101000a81548173ffffffffffffffffffffffffffffffffffffffff021916908373ffffffffffffffffffffffffffffffffffffffff1602179055508173ffffffffffffffffffffffffffffffffffffffff168173ffffffffffffffffffffffffffffffffffffffff167f8be0079c531659141344cd1fd0a4f28419497f9722a3daafe3b4186f6b6457e060405160405180910390a35050565b600060019054906101000a900460ff168061180b575060008054906101000a900460ff16155b61184a576040517f08c379a000000000000000000000000000000000000000000000000000000000815260040161184190613081565b60405180910390fd5b60008060019054906101000a900460ff16159050801561189a576001600060016101000a81548160ff02191690831515021790555060016000806101000a81548160ff0219169083151502179055505b6118a261224a565b6118ac8383612323565b80156118cd5760008060016101000a81548160ff0219169083151502179055505b505050565b600060019054906101000a900460ff16806118f8575060008054906101000a900460ff16155b611937576040517f08c379a000000000000000000000000000000000000000000000000000000000815260040161192e90613081565b60405180910390fd5b60008060019054906101000a900460ff161590508015611987576001600060016101000a81548160ff02191690831515021790555060016000806101000a81548160ff0219169083151502179055505b61198f61224a565b61199761242c565b80156119b85760008060016101000a81548160ff0219169083151502179055505b50565b600060019054906101000a900460ff16806119e1575060008054906101000a900460ff16155b611a20576040517f08c379a0000000000000000000000000000000000000000000000000000000008152600401611a1790613081565b60405180910390fd5b60008060019054906101000a900460ff161590508015611a70576001600060016101000a81548160ff02191690831515021790555060016000806101000a81548160ff0219169083151502179055505b611a78612515565b611a806125ee565b8015611aa15760008060016101000a81548160ff0219169083151502179055505b50565b60008183611ab29190613471565b905092915050565b606060378054611ac99061356c565b80601f0160208091040260200160405190810160405280929190818152602001828054611af59061356c565b8015611b425780601f10611b1757610100808354040283529160200191611b42565b820191906000526020600020905b815481529060010190602001808311611b2557829003601f168201915b5050505050905090565b6000611b60611b5961156d565b8484611dbc565b6001905092915050565b600073ffffffffffffffffffffffffffffffffffffffff168373ffffffffffffffffffffffffffffffffffffffff161415611bda576040517f08c379a0000000000000000000000000000000000000000000000000000000008152600401611bd190613181565b60405180910390fd5b600073ffffffffffffffffffffffffffffffffffffffff168273ffffffffffffffffffffffffffffffffffffffff161415611c4a576040517f08c379a0000000000000000000000000000000000000000000000000000000008152600401611c4190613001565b60405180910390fd5b80603460008573ffffffffffffffffffffffffffffffffffffffff1673ffffffffffffffffffffffffffffffffffffffff16815260200190815260200160002060008473ffffffffffffffffffffffffffffffffffffffff1673ffffffffffffffffffffffffffffffffffffffff168152602001908152602001600020819055508173ffffffffffffffffffffffffffffffffffffffff168373ffffffffffffffffffffffffffffffffffffffff167f8c5be1e5ebec7d5bd14f71427d1e84f3dd0314c0f7b2291e5b200ac8c7c3b92583604051611d2891906131e1565b60405180910390a3505050565b6000603460008473ffffffffffffffffffffffffffffffffffffffff1673ffffffffffffffffffffffffffffffffffffffff16815260200190815260200160002060008373ffffffffffffffffffffffffffffffffffffffff1673ffffffffffffffffffffffffffffffffffffffff16815260200190815260200160002054905092915050565b600073ffffffffffffffffffffffffffffffffffffffff168373ffffffffffffffffffffffffffffffffffffffff161415611e2c576040517f08c379a0000000000000000000000000000000000000000000000000000000008152600401611e2390613141565b60405180910390fd5b600073ffffffffffffffffffffffffffffffffffffffff168273ffffffffffffffffffffffffffffffffffffffff161415611e9c576040517f08c379a0000000000000000000000000000000000000000000000000000000008152600401611e9390612fa1565b60405180910390fd5b611ea7838383612240565b6000603360008573ffffffffffffffffffffffffffffffffffffffff1673ffffffffffffffffffffffffffffffffffffffff16815260200190815260200160002054905081811015611f2e576040517f08c379a0000000000000000000000000000000000000000000000000000000008152600401611f2590613041565b60405180910390fd5b818103603360008673ffffffffffffffffffffffffffffffffffffffff1673ffffffffffffffffffffffffffffffffffffffff1681526020019081526020016000208190555081603360008573ffffffffffffffffffffffffffffffffffffffff1673ffffffffffffffffffffffffffffffffffffffff1681526020019081526020016000206000828254611fc391906132aa565b925050819055508273ffffffffffffffffffffffffffffffffffffffff168473ffffffffffffffffffffffffffffffffffffffff167fddf252ad1be2c89b69c2b068fc378daa952ba7f163c4a11628f55a4df523b3ef8460405161202791906131e1565b60405180910390a361203a848484612245565b50505050565b6000819050919050565b612053816126c7565b612092576040517f08c379a0000000000000000000000000000000000000000000000000000000008152600401612089906130c1565b60405180910390fd5b806120bf7f360894a13ba1a3210667c828492db98dca3e2076cc3735a920a3ca505d382bbc60001b612040565b60000160006101000a81548173ffffffffffffffffffffffffffffffffffffffff021916908373ffffffffffffffffffffffffffffffffffffffff16021790555050565b606061210e836126c7565b61214d576040517f08c379a000000000000000000000000000000000000000000000000000000000815260040161214490613121565b60405180910390fd5b6000808473ffffffffffffffffffffffffffffffffffffffff16846040516121759190612de7565b600060405180830381855af49150503d80600081146121b0576040519150601f19603f3d011682016040523d82523d6000602084013e6121b5565b606091505b50915091506121dd8282604051806060016040528060278152602001613c49602791396126da565b9250505092915050565b6000819050919050565b6121fa8161204a565b8073ffffffffffffffffffffffffffffffffffffffff167fbc7cd75a20ee27fd9adebab32041f755214dbc6bffa90cc0225b39da2e5c2d3b60405160405180910390a250565b505050565b505050565b600060019054906101000a900460ff1680612270575060008054906101000a900460ff16155b6122af576040517f08c379a00000000000000000000000000000000000000000000000000000000081526004016122a690613081565b60405180910390fd5b60008060019054906101000a900460ff1615905080156122ff576001600060016101000a81548160ff02191690831515021790555060016000806101000a81548160ff0219169083151502179055505b80156123205760008060016101000a81548160ff0219169083151502179055505b50565b600060019054906101000a900460ff1680612349575060008054906101000a900460ff16155b612388576040517f08c379a000000000000000000000000000000000000000000000000000000000815260040161237f90613081565b60405180910390fd5b60008060019054906101000a900460ff1615905080156123d8576001600060016101000a81548160ff02191690831515021790555060016000806101000a81548160ff0219169083151502179055505b82603690805190602001906123ee929190612741565b508160379080519060200190612405929190612741565b5080156124275760008060016101000a81548160ff0219169083151502179055505b505050565b600060019054906101000a900460ff1680612452575060008054906101000a900460ff16155b612491576040517f08c379a000000000000000000000000000000000000000000000000000000000815260040161248890613081565b60405180910390fd5b60008060019054906101000a900460ff1615905080156124e1576001600060016101000a81548160ff02191690831515021790555060016000806101000a81548160ff0219169083151502179055505b6124f16124ec61156d565b61171f565b80156125125760008060016101000a81548160ff0219169083151502179055505b50565b600060019054906101000a900460ff168061253b575060008054906101000a900460ff16155b61257a576040517f08c379a000000000000000000000000000000000000000000000000000000000815260040161257190613081565b60405180910390fd5b60008060019054906101000a900460ff1615905080156125ca576001600060016101000a81548160ff02191690831515021790555060016000806101000a81548160ff0219169083151502179055505b80156125eb5760008060016101000a81548160ff0219169083151502179055505b50565b600060019054906101000a900460ff1680612614575060008054906101000a900460ff16155b612653576040517f08c379a000000000000000000000000000000000000000000000000000000000815260040161264a90613081565b60405180910390fd5b60008060019054906101000a900460ff1615905080156126a3576001600060016101000a81548160ff02191690831515021790555060016000806101000a81548160ff0219169083151502179055505b80156126c45760008060016101000a81548160ff0219169083151502179055505b50565b600080823b905060008111915050919050565b606083156126ea5782905061273a565b6000835111156126fd5782518084602001fd5b816040517f08c379a00000000000000000000000000000000000000000000000000000000081526004016127319190612f7f565b60405180910390fd5b9392505050565b82805461274d9061356c565b90600052602060002090601f01602090048101928261276f57600085556127b6565b82601f1061278857805160ff19168380011785556127b6565b828001600101855582156127b6579182015b828111156127b557825182559160200191906001019061279a565b5b5090506127c391906127c7565b5090565b5b808211156127e05760008160009055506001016127c8565b5090565b60006127f76127f28461323c565b613217565b90508281526020810184848401111561280f57600080fd5b61281a84828561352a565b509392505050565b60008135905061283181613bec565b92915050565b60008135905061284681613c03565b92915050565b600082601f83011261285d57600080fd5b813561286d8482602086016127e4565b91505092915050565b60008135905061288581613c1a565b92915050565b60008135905061289a81613c31565b92915050565b6000602082840312156128b257600080fd5b60006128c084828501612822565b91505092915050565b600080604083850312156128dc57600080fd5b60006128ea85828601612822565b92505060206128fb85828601612822565b9150509250929050565b60008060006060848603121561291a57600080fd5b600061292886828701612822565b935050602061293986828701612822565b925050604061294a86828701612876565b9150509250925092565b600080600080600080600060e0888a03121561296f57600080fd5b600061297d8a828b01612822565b975050602061298e8a828b01612822565b965050604061299f8a828b01612876565b95505060606129b08a828b01612876565b94505060806129c18a828b0161288b565b93505060a06129d28a828b01612837565b92505060c06129e38a828b01612837565b91505092959891949750929550565b60008060408385031215612a0557600080fd5b6000612a1385828601612822565b925050602083013567ffffffffffffffff811115612a3057600080fd5b612a3c8582860161284c565b9150509250929050565b60008060408385031215612a5957600080fd5b6000612a6785828601612822565b9250506020612a7885828601612876565b9150509250929050565b612a8b816134cb565b82525050565b612a9a816134dd565b82525050565b612aa9816134e9565b82525050565b612ac0612abb826134e9565b613618565b82525050565b6000612ad18261326d565b612adb8185613283565b9350612aeb818560208601613539565b80840191505092915050565b6000612b0282613278565b612b0c818561328e565b9350612b1c818560208601613539565b612b25816136af565b840191505092915050565b6000612b3d60238361328e565b9150612b48826136cd565b604082019050919050565b6000612b60602f8361328e565b9150612b6b8261371c565b604082019050919050565b6000612b8360268361328e565b9150612b8e8261376b565b604082019050919050565b6000612ba660228361328e565b9150612bb1826137ba565b604082019050919050565b6000612bc960028361329f565b9150612bd482613809565b600282019050919050565b6000612bec602c8361328e565b9150612bf782613832565b604082019050919050565b6000612c0f60268361328e565b9150612c1a82613881565b604082019050919050565b6000612c32602c8361328e565b9150612c3d826138d0565b604082019050919050565b6000612c55602e8361328e565b9150612c608261391f565b604082019050919050565b6000612c7860168361328e565b9150612c838261396e565b602082019050919050565b6000612c9b602d8361328e565b9150612ca682613997565b604082019050919050565b6000612cbe60288361328e565b9150612cc9826139e6565b604082019050919050565b6000612ce160208361328e565b9150612cec82613a35565b602082019050919050565b6000612d0460268361328e565b9150612d0f82613a5e565b604082019050919050565b6000612d2760258361328e565b9150612d3282613aad565b604082019050919050565b6000612d4a600c8361328e565b9150612d5582613afc565b602082019050919050565b6000612d6d60248361328e565b9150612d7882613b25565b604082019050919050565b6000612d9060258361328e565b9150612d9b82613b74565b604082019050919050565b6000612db3601f8361328e565b9150612dbe82613bc3565b602082019050919050565b612dd281613513565b82525050565b612de18161351d565b82525050565b6000612df38284612ac6565b915081905092915050565b6000612e0982612bbc565b9150612e158285612aaf565b602082019150612e258284612aaf565b6020820191508190509392505050565b6000602082019050612e4a6000830184612a82565b92915050565b6000602082019050612e656000830184612a91565b92915050565b6000602082019050612e806000830184612aa0565b92915050565b600060c082019050612e9b6000830189612aa0565b612ea86020830188612a82565b612eb56040830187612a82565b612ec26060830186612dc9565b612ecf6080830185612dc9565b612edc60a0830184612dc9565b979650505050505050565b600060a082019050612efc6000830188612aa0565b612f096020830187612aa0565b612f166040830186612aa0565b612f236060830185612dc9565b612f306080830184612a82565b9695505050505050565b6000608082019050612f4f6000830187612aa0565b612f5c6020830186612dd8565b612f696040830185612aa0565b612f766060830184612aa0565b95945050505050565b60006020820190508181036000830152612f998184612af7565b905092915050565b60006020820190508181036000830152612fba81612b30565b9050919050565b60006020820190508181036000830152612fda81612b53565b9050919050565b60006020820190508181036000830152612ffa81612b76565b9050919050565b6000602082019050818103600083015261301a81612b99565b9050919050565b6000602082019050818103600083015261303a81612bdf565b9050919050565b6000602082019050818103600083015261305a81612c02565b9050919050565b6000602082019050818103600083015261307a81612c25565b9050919050565b6000602082019050818103600083015261309a81612c48565b9050919050565b600060208201905081810360008301526130ba81612c6b565b9050919050565b600060208201905081810360008301526130da81612c8e565b9050919050565b600060208201905081810360008301526130fa81612cb1565b9050919050565b6000602082019050818103600083015261311a81612cd4565b9050919050565b6000602082019050818103600083015261313a81612cf7565b9050919050565b6000602082019050818103600083015261315a81612d1a565b9050919050565b6000602082019050818103600083015261317a81612d3d565b9050919050565b6000602082019050818103600083015261319a81612d60565b9050919050565b600060208201905081810360008301526131ba81612d83565b9050919050565b600060208201905081810360008301526131da81612da6565b9050919050565b60006020820190506131f66000830184612dc9565b92915050565b60006020820190506132116000830184612dd8565b92915050565b6000613221613232565b905061322d828261359e565b919050565b6000604051905090565b600067ffffffffffffffff82111561325757613256613680565b5b613260826136af565b9050602081019050919050565b600081519050919050565b600081519050919050565b600081905092915050565b600082825260208201905092915050565b600081905092915050565b60006132b582613513565b91506132c083613513565b9250827fffffffffffffffffffffffffffffffffffffffffffffffffffffffffffffffff038211156132f5576132f4613622565b5b828201905092915050565b6000808291508390505b600185111561334a5780860481111561332657613325613622565b5b60018516156133355780820291505b8081029050613343856136c0565b945061330a565b94509492505050565b600061335e82613513565b91506133698361351d565b92506133967fffffffffffffffffffffffffffffffffffffffffffffffffffffffffffffffff848461339e565b905092915050565b6000826133ae576001905061346a565b816133bc576000905061346a565b81600181146133d257600281146133dc5761340b565b600191505061346a565b60ff8411156133ee576133ed613622565b5b8360020a91508482111561340557613404613622565b5b5061346a565b5060208310610133831016604e8410600b84101617156134405782820a90508381111561343b5761343a613622565b5b61346a565b61344d8484846001613300565b9250905081840481111561346457613463613622565b5b81810290505b9392505050565b600061347c82613513565b915061348783613513565b9250817fffffffffffffffffffffffffffffffffffffffffffffffffffffffffffffffff04831182151516156134c0576134bf613622565b5b828202905092915050565b60006134d6826134f3565b9050919050565b60008115159050919050565b6000819050919050565b600073ffffffffffffffffffffffffffffffffffffffff82169050919050565b6000819050919050565b600060ff82169050919050565b82818337600083830152505050565b60005b8381101561355757808201518184015260208101905061353c565b83811115613566576000848401525b50505050565b6000600282049050600182168061358457607f821691505b6020821081141561359857613597613651565b5b50919050565b6135a7826136af565b810181811067ffffffffffffffff821117156135c6576135c5613680565b5b80604052505050565b60006135da82613513565b91507fffffffffffffffffffffffffffffffffffffffffffffffffffffffffffffffff82141561360d5761360c613622565b5b600182019050919050565b6000819050919050565b7f4e487b7100000000000000000000000000000000000000000000000000000000600052601160045260246000fd5b7f4e487b7100000000000000000000000000000000000000000000000000000000600052602260045260246000fd5b7f4e487b7100000000000000000000000000000000000000000000000000000000600052604160045260246000fd5b6000601f19601f8301169050919050565b60008160011c9050919050565b7f45524332303a207472616e7366657220746f20746865207a65726f206164647260008201527f6573730000000000000000000000000000000000000000000000000000000000602082015250565b7f45524331393637557067726164653a207570677261646520627265616b73206660008201527f7572746865722075706772616465730000000000000000000000000000000000602082015250565b7f4f776e61626c653a206e6577206f776e657220697320746865207a65726f206160008201527f6464726573730000000000000000000000000000000000000000000000000000602082015250565b7f45524332303a20617070726f766520746f20746865207a65726f20616464726560008201527f7373000000000000000000000000000000000000000000000000000000000000602082015250565b7f1901000000000000000000000000000000000000000000000000000000000000600082015250565b7f46756e6374696f6e206d7573742062652063616c6c6564207468726f7567682060008201527f64656c656761746563616c6c0000000000000000000000000000000000000000602082015250565b7f45524332303a207472616e7366657220616d6f756e742065786365656473206260008201527f616c616e63650000000000000000000000000000000000000000000000000000602082015250565b7f46756e6374696f6e206d7573742062652063616c6c6564207468726f7567682060008201527f6163746976652070726f78790000000000000000000000000000000000000000602082015250565b7f496e697469616c697a61626c653a20636f6e747261637420697320616c72656160008201527f647920696e697469616c697a6564000000000000000000000000000000000000602082015250565b7f4355503a20494e56414c49445f5349474e415455524500000000000000000000600082015250565b7f455243313936373a206e657720696d706c656d656e746174696f6e206973206e60008201527f6f74206120636f6e747261637400000000000000000000000000000000000000602082015250565b7f45524332303a207472616e7366657220616d6f756e742065786365656473206160008201527f6c6c6f77616e6365000000000000000000000000000000000000000000000000602082015250565b7f4f776e61626c653a2063616c6c6572206973206e6f7420746865206f776e6572600082015250565b7f416464726573733a2064656c65676174652063616c6c20746f206e6f6e2d636f60008201527f6e74726163740000000000000000000000000000000000000000000000000000602082015250565b7f45524332303a207472616e736665722066726f6d20746865207a65726f20616460008201527f6472657373000000000000000000000000000000000000000000000000000000602082015250565b7f4355503a20455850495245440000000000000000000000000000000000000000600082015250565b7f45524332303a20617070726f76652066726f6d20746865207a65726f2061646460008201527f7265737300000000000000000000000000000000000000000000000000000000602082015250565b7f45524332303a2064656372656173656420616c6c6f77616e63652062656c6f7760008201527f207a65726f000000000000000000000000000000000000000000000000000000602082015250565b7f45524332303a206d696e7420746f20746865207a65726f206164647265737300600082015250565b613bf5816134cb565b8114613c0057600080fd5b50565b613c0c816134e9565b8114613c1757600080fd5b50565b613c2381613513565b8114613c2e57600080fd5b50565b613c3a8161351d565b8114613c4557600080fd5b5056fe416464726573733a206c6f772d6c6576656c2064656c65676174652063616c6c206661696c6564a2646970667358221220a1ba441363f83faade28dfcfb4911393cd4ff6c69282c621d3e583a759a0888e64736f6c63430008020033",
  "immutableReferences": {
    "612": [
      {
        "length": 32,
        "start": 1520
      },
      {
        "length": 32,
        "start": 1663
      },
      {
        "length": 32,
        "start": 2109
      },
      {
        "length": 32,
        "start": 2252
      }
    ]
  },
  "source": "// SPDX-License-Identifier: MIT\npragma solidity ^0.8.0;\n\nimport \"@openzeppelin/contracts-upgradeable/token/ERC20/ERC20Upgradeable.sol\";\nimport \"@openzeppelin/contracts-upgradeable/access/OwnableUpgradeable.sol\";\nimport \"@openzeppelin/contracts-upgradeable/proxy/utils/Initializable.sol\";\nimport \"@openzeppelin/contracts-upgradeable/proxy/utils/UUPSUpgradeable.sol\";\nimport \"@openzeppelin/contracts/utils/math/SafeMath.sol\";\nimport \"@openzeppelin/contracts/token/ERC20/ERC20.sol\";\nimport \"./BEP20/SafeBEP20.sol\";\nimport \"./BEP20/IBEP20.sol\";\nimport \"./BEP20/BaseERC20.sol\";\n\n\ncontract CUP is Initializable, BaseERC20, UUPSUpgradeable {\n    using SafeMath for uint256;\n\n    bytes32 public DOMAIN_SEPARATOR;\n    bytes32 public constant PERMIT_TYPEHASH = keccak256(\"Permit(address owner,address spender, uint256 value, uint256 nonce, uint256 deadline)\");\n    mapping(address => uint) public nonces;\n\n    /// @custom:oz-upgrades-unsafe-allow constructor\n    constructor() initializer {}\n\n    function initialize() external initializer {\n        __ERC20_init(\"DAOCup\", \"CUP\");\n        __Ownable_init();\n        __UUPSUpgradeable_init();\n\n        mint(msg.sender, uint256(90000000000).mul(uint256(10) ** 18));\n\n        uint chainId;\n        assembly {\n            chainId := chainid()\n        }\n        DOMAIN_SEPARATOR = keccak256(\n            abi.encode(\n                keccak256('EIP712Domain(string name, string version, uint256 chainId, address verifyingContract)'),\n                keccak256(bytes(\"DAOCup\")),\n                keccak256(bytes('1')),\n                chainId,\n                address(this)\n            )\n        );\n    }\n\n    function _authorizeUpgrade(address newImplementation) internal override onlyOwner {}\n\n    function mint(address to, uint256 amount) public onlyOwner {\n        _mint(to, amount);\n    }\n\n    function permit(address owner_, address spender_, uint value, uint deadline, uint8 v, bytes32 r, bytes32 s) external {\n        require(deadline >= block.timestamp, 'CUP: EXPIRED');\n        bytes32 digest = keccak256(\n            abi.encodePacked(\n                '\\x19\\x01',\n                DOMAIN_SEPARATOR,\n                keccak256(abi.encode(PERMIT_TYPEHASH, owner_, spender_, value, nonces[owner_]++, deadline))\n            )\n        );\n        address recoveredAddress = ecrecover(digest, v, r, s);\n        require(recoveredAddress != address(0) && recoveredAddress == owner_, 'CUP: INVALID_SIGNATURE');\n        _approve(owner_, spender_, value);\n    }\n}",
  "sourcePath": "/Users/bean/IdeaProjects/opencoin/contracts/CUP.sol",
  "compiler": {
    "name": "solc",
    "version": "0.8.2+commit.661d1103.Emscripten.clang"
  },
  "schemaVersion": "3.4.3",
  "updatedAt": "2021-10-10T09:21:07.916Z",
  "networkType": "ethereum",
  "devdoc": {
    "kind": "dev",
    "methods": {
      "allowance(address,address)": {
        "details": "See {IERC20-allowance}."
      },
      "approve(address,uint256)": {
        "details": "See {IERC20-approve}. Requirements: - `spender` cannot be the zero address."
      },
      "balanceOf(address)": {
        "details": "See {IERC20-balanceOf}."
      },
      "constructor": {
        "custom:oz-upgrades-unsafe-allow": "constructor"
      },
      "decimals()": {
        "details": "Returns the number of decimals used to get its user representation. For example, if `decimals` equals `2`, a balance of `505` tokens should be displayed to a user as `5.05` (`505 / 10 ** 2`). Tokens usually opt for a value of 18, imitating the relationship between Ether and Wei. This is the value {ERC20} uses, unless this function is overridden; NOTE: This information is only used for _display_ purposes: it in no way affects any of the arithmetic of the contract, including {IERC20-balanceOf} and {IERC20-transfer}."
      },
      "decreaseAllowance(address,uint256)": {
        "details": "Atomically decreases the allowance granted to `spender` by the caller. This is an alternative to {approve} that can be used as a mitigation for problems described in {IERC20-approve}. Emits an {Approval} event indicating the updated allowance. Requirements: - `spender` cannot be the zero address. - `spender` must have allowance for the caller of at least `subtractedValue`."
      },
      "getOwner()": {
        "details": "Returns the bep token owner."
      },
      "increaseAllowance(address,uint256)": {
        "details": "Atomically increases the allowance granted to `spender` by the caller. This is an alternative to {approve} that can be used as a mitigation for problems described in {IERC20-approve}. Emits an {Approval} event indicating the updated allowance. Requirements: - `spender` cannot be the zero address."
      },
      "name()": {
        "details": "Returns the name of the token."
      },
      "owner()": {
        "details": "Returns the address of the current owner."
      },
      "renounceOwnership()": {
        "details": "Leaves the contract without owner. It will not be possible to call `onlyOwner` functions anymore. Can only be called by the current owner. NOTE: Renouncing ownership will leave the contract without an owner, thereby removing any functionality that is only available to the owner."
      },
      "symbol()": {
        "details": "Returns the symbol of the token, usually a shorter version of the name."
      },
      "totalSupply()": {
        "details": "See {IERC20-totalSupply}."
      },
      "transfer(address,uint256)": {
        "details": "See {IERC20-transfer}. Requirements: - `recipient` cannot be the zero address. - the caller must have a balance of at least `amount`."
      },
      "transferFrom(address,address,uint256)": {
        "details": "See {BEP20-transferFrom}. Emits an {Approval} event indicating the updated allowance. This is not required by the EIP. See the note at the beginning of {BEP20}; Requirements: - `sender` and `recipient` cannot be the zero address. - `sender` must have a balance of at least `amount`. - the caller must have allowance for `sender`'s tokens of at least `amount`."
      },
      "transferOwnership(address)": {
        "details": "Transfers ownership of the contract to a new account (`newOwner`). Can only be called by the current owner."
      },
      "upgradeTo(address)": {
        "details": "Upgrade the implementation of the proxy to `newImplementation`. Calls {_authorizeUpgrade}. Emits an {Upgraded} event."
      },
      "upgradeToAndCall(address,bytes)": {
        "details": "Upgrade the implementation of the proxy to `newImplementation`, and subsequently execute the function call encoded in `data`. Calls {_authorizeUpgrade}. Emits an {Upgraded} event."
      }
    },
    "version": 1
  },
  "userdoc": {
    "kind": "user",
    "methods": {},
    "version": 1
  }
}