{
  "contractName": "CUP",
  "abi": [
    {
      "inputs": [],
      "stateMutability": "nonpayable",
      "type": "constructor"
    },
    {
      "anonymous": false,
      "inputs": [
        {
          "indexed": false,
          "internalType": "address",
          "name": "previousAdmin",
          "type": "address"
        },
        {
          "indexed": false,
          "internalType": "address",
          "name": "newAdmin",
          "type": "address"
        }
      ],
      "name": "AdminChanged",
      "type": "event"
    },
    {
      "anonymous": false,
      "inputs": [
        {
          "indexed": true,
          "internalType": "address",
          "name": "owner",
          "type": "address"
        },
        {
          "indexed": true,
          "internalType": "address",
          "name": "spender",
          "type": "address"
        },
        {
          "indexed": false,
          "internalType": "uint256",
          "name": "value",
          "type": "uint256"
        }
      ],
      "name": "Approval",
      "type": "event"
    },
    {
      "anonymous": false,
      "inputs": [
        {
          "indexed": true,
          "internalType": "address",
          "name": "beacon",
          "type": "address"
        }
      ],
      "name": "BeaconUpgraded",
      "type": "event"
    },
    {
      "anonymous": false,
      "inputs": [
        {
          "indexed": true,
          "internalType": "address",
          "name": "previousOwner",
          "type": "address"
        },
        {
          "indexed": true,
          "internalType": "address",
          "name": "newOwner",
          "type": "address"
        }
      ],
      "name": "OwnershipTransferred",
      "type": "event"
    },
    {
      "anonymous": false,
      "inputs": [
        {
          "indexed": true,
          "internalType": "address",
          "name": "from",
          "type": "address"
        },
        {
          "indexed": true,
          "internalType": "address",
          "name": "to",
          "type": "address"
        },
        {
          "indexed": false,
          "internalType": "uint256",
          "name": "value",
          "type": "uint256"
        }
      ],
      "name": "Transfer",
      "type": "event"
    },
    {
      "anonymous": false,
      "inputs": [
        {
          "indexed": true,
          "internalType": "address",
          "name": "implementation",
          "type": "address"
        }
      ],
      "name": "Upgraded",
      "type": "event"
    },
    {
      "inputs": [],
      "name": "DOMAIN_SEPARATOR",
      "outputs": [
        {
          "internalType": "bytes32",
          "name": "",
          "type": "bytes32"
        }
      ],
      "stateMutability": "view",
      "type": "function",
      "constant": true
    },
    {
      "inputs": [],
      "name": "PERMIT_TYPEHASH",
      "outputs": [
        {
          "internalType": "bytes32",
          "name": "",
          "type": "bytes32"
        }
      ],
      "stateMutability": "view",
      "type": "function",
      "constant": true
    },
    {
      "inputs": [
        {
          "internalType": "address",
          "name": "owner",
          "type": "address"
        },
        {
          "internalType": "address",
          "name": "spender",
          "type": "address"
        }
      ],
      "name": "allowance",
      "outputs": [
        {
          "internalType": "uint256",
          "name": "",
          "type": "uint256"
        }
      ],
      "stateMutability": "view",
      "type": "function",
      "constant": true
    },
    {
      "inputs": [
        {
          "internalType": "address",
          "name": "spender",
          "type": "address"
        },
        {
          "internalType": "uint256",
          "name": "amount",
          "type": "uint256"
        }
      ],
      "name": "approve",
      "outputs": [
        {
          "internalType": "bool",
          "name": "",
          "type": "bool"
        }
      ],
      "stateMutability": "nonpayable",
      "type": "function"
    },
    {
      "inputs": [
        {
          "internalType": "address",
          "name": "account",
          "type": "address"
        }
      ],
      "name": "balanceOf",
      "outputs": [
        {
          "internalType": "uint256",
          "name": "",
          "type": "uint256"
        }
      ],
      "stateMutability": "view",
      "type": "function",
      "constant": true
    },
    {
      "inputs": [],
      "name": "decimals",
      "outputs": [
        {
          "internalType": "uint8",
          "name": "",
          "type": "uint8"
        }
      ],
      "stateMutability": "view",
      "type": "function",
      "constant": true
    },
    {
      "inputs": [
        {
          "internalType": "address",
          "name": "spender",
          "type": "address"
        },
        {
          "internalType": "uint256",
          "name": "subtractedValue",
          "type": "uint256"
        }
      ],
      "name": "decreaseAllowance",
      "outputs": [
        {
          "internalType": "bool",
          "name": "",
          "type": "bool"
        }
      ],
      "stateMutability": "nonpayable",
      "type": "function"
    },
    {
      "inputs": [],
      "name": "getOwner",
      "outputs": [
        {
          "internalType": "address",
          "name": "",
          "type": "address"
        }
      ],
      "stateMutability": "view",
      "type": "function",
      "constant": true
    },
    {
      "inputs": [
        {
          "internalType": "address",
          "name": "spender",
          "type": "address"
        },
        {
          "internalType": "uint256",
          "name": "addedValue",
          "type": "uint256"
        }
      ],
      "name": "increaseAllowance",
      "outputs": [
        {
          "internalType": "bool",
          "name": "",
          "type": "bool"
        }
      ],
      "stateMutability": "nonpayable",
      "type": "function"
    },
    {
      "inputs": [],
      "name": "name",
      "outputs": [
        {
          "internalType": "string",
          "name": "",
          "type": "string"
        }
      ],
      "stateMutability": "view",
      "type": "function",
      "constant": true
    },
    {
      "inputs": [
        {
          "internalType": "address",
          "name": "",
          "type": "address"
        }
      ],
      "name": "nonces",
      "outputs": [
        {
          "internalType": "uint256",
          "name": "",
          "type": "uint256"
        }
      ],
      "stateMutability": "view",
      "type": "function",
      "constant": true
    },
    {
      "inputs": [],
      "name": "owner",
      "outputs": [
        {
          "internalType": "address",
          "name": "",
          "type": "address"
        }
      ],
      "stateMutability": "view",
      "type": "function",
      "constant": true
    },
    {
      "inputs": [],
      "name": "renounceOwnership",
      "outputs": [],
      "stateMutability": "nonpayable",
      "type": "function"
    },
    {
      "inputs": [],
      "name": "symbol",
      "outputs": [
        {
          "internalType": "string",
          "name": "",
          "type": "string"
        }
      ],
      "stateMutability": "view",
      "type": "function",
      "constant": true
    },
    {
      "inputs": [],
      "name": "totalSupply",
      "outputs": [
        {
          "internalType": "uint256",
          "name": "",
          "type": "uint256"
        }
      ],
      "stateMutability": "view",
      "type": "function",
      "constant": true
    },
    {
      "inputs": [
        {
          "internalType": "address",
          "name": "recipient",
          "type": "address"
        },
        {
          "internalType": "uint256",
          "name": "amount",
          "type": "uint256"
        }
      ],
      "name": "transfer",
      "outputs": [
        {
          "internalType": "bool",
          "name": "",
          "type": "bool"
        }
      ],
      "stateMutability": "nonpayable",
      "type": "function"
    },
    {
      "inputs": [
        {
          "internalType": "address",
          "name": "sender_",
          "type": "address"
        },
        {
          "internalType": "address",
          "name": "recipient_",
          "type": "address"
        },
        {
          "internalType": "uint256",
          "name": "amount",
          "type": "uint256"
        }
      ],
      "name": "transferFrom",
      "outputs": [
        {
          "internalType": "bool",
          "name": "",
          "type": "bool"
        }
      ],
      "stateMutability": "nonpayable",
      "type": "function"
    },
    {
      "inputs": [
        {
          "internalType": "address",
          "name": "newOwner",
          "type": "address"
        }
      ],
      "name": "transferOwnership",
      "outputs": [],
      "stateMutability": "nonpayable",
      "type": "function"
    },
    {
      "inputs": [
        {
          "internalType": "address",
          "name": "newImplementation",
          "type": "address"
        }
      ],
      "name": "upgradeTo",
      "outputs": [],
      "stateMutability": "nonpayable",
      "type": "function"
    },
    {
      "inputs": [
        {
          "internalType": "address",
          "name": "newImplementation",
          "type": "address"
        },
        {
          "internalType": "bytes",
          "name": "data",
          "type": "bytes"
        }
      ],
      "name": "upgradeToAndCall",
      "outputs": [],
      "stateMutability": "payable",
      "type": "function",
      "payable": true
    },
    {
      "inputs": [],
      "name": "initialize",
      "outputs": [],
      "stateMutability": "nonpayable",
      "type": "function"
    },
    {
      "inputs": [
        {
          "internalType": "address",
          "name": "to",
          "type": "address"
        },
        {
          "internalType": "uint256",
          "name": "amount",
          "type": "uint256"
        }
      ],
      "name": "mint",
      "outputs": [],
      "stateMutability": "nonpayable",
      "type": "function"
    },
    {
      "inputs": [
        {
          "internalType": "address",
          "name": "owner_",
          "type": "address"
        },
        {
          "internalType": "address",
          "name": "spender_",
          "type": "address"
        },
        {
          "internalType": "uint256",
          "name": "value",
          "type": "uint256"
        },
        {
          "internalType": "uint256",
          "name": "deadline",
          "type": "uint256"
        },
        {
          "internalType": "uint8",
          "name": "v",
          "type": "uint8"
        },
        {
          "internalType": "bytes32",
          "name": "r",
          "type": "bytes32"
        },
        {
          "internalType": "bytes32",
          "name": "s",
          "type": "bytes32"
        }
      ],
      "name": "permit",
      "outputs": [],
      "stateMutability": "nonpayable",
      "type": "function"
    }
  ],
  "bytecode": "0x60a06040523073ffffffffffffffffffffffffffffffffffffffff1660809073ffffffffffffffffffffffffffffffffffffffff1660601b8152503480156200004757600080fd5b50600060019054906101000a900460ff16620000725760008054906101000a900460ff161562000083565b620000826200013f60201b60201c565b5b620000c5576040517f08c379a0000000000000000000000000000000000000000000000000000000008152600401620000bc9062000197565b60405180910390fd5b60008060019054906101000a900460ff16159050801562000116576001600060016101000a81548160ff02191690831515021790555060016000806101000a81548160ff0219169083151502179055505b8015620001385760008060016101000a81548160ff0219169083151502179055505b5062000219565b600062000157306200015d60201b620010341760201c565b15905090565b600080823b905060008111915050919050565b60006200017f602e83620001b9565b91506200018c82620001ca565b604082019050919050565b60006020820190508181036000830152620001b28162000170565b9050919050565b600082825260208201905092915050565b7f496e697469616c697a61626c653a20636f6e747261637420697320616c72656160008201527f647920696e697469616c697a6564000000000000000000000000000000000000602082015250565b60805160601c6139136200024d600039600081816105f00152818161067f0152818161083d01526108cc01526139136000f3fe6080604052600436106101405760003560e01c806370a08231116100b657806395d89b411161006f57806395d89b411461043f578063a457c2d71461046a578063a9059cbb146104a7578063d505accf146104e4578063dd62ed3e1461050d578063f2fde38b1461054a57610140565b806370a0823114610341578063715018a61461037e5780637ecebe00146103955780638129fc1c146103d2578063893d20e8146103e95780638da5cb5b1461041457610140565b8063313ce56711610108578063313ce567146102405780633644e5151461026b5780633659cfe61461029657806339509351146102bf57806340c10f19146102fc5780634f1ef2861461032557610140565b806306fdde0314610145578063095ea7b31461017057806318160ddd146101ad57806323b872dd146101d857806330adf81f14610215575b600080fd5b34801561015157600080fd5b5061015a610573565b6040516101679190612b7e565b60405180910390f35b34801561017c57600080fd5b5061019760048036038101906101929190612622565b610582565b6040516101a49190612a4f565b60405180910390f35b3480156101b957600080fd5b506101c2610596565b6040516101cf9190612e00565b60405180910390f35b3480156101e457600080fd5b506101ff60048036038101906101fa91906124e1565b6105a5565b60405161020c9190612a4f565b60405180910390f35b34801561022157600080fd5b5061022a6105bb565b6040516102379190612a6a565b60405180910390f35b34801561024c57600080fd5b506102556105df565b6040516102629190612e1b565b60405180910390f35b34801561027757600080fd5b506102806105e8565b60405161028d9190612a6a565b60405180910390f35b3480156102a257600080fd5b506102bd60048036038101906102b8919061247c565b6105ee565b005b3480156102cb57600080fd5b506102e660048036038101906102e19190612622565b61079d565b6040516102f39190612a4f565b60405180910390f35b34801561030857600080fd5b50610323600480360381019061031e9190612622565b6107b1565b005b61033f600480360381019061033a91906125ce565b61083b565b005b34801561034d57600080fd5b506103686004803603810190610363919061247c565b610978565b6040516103759190612e00565b60405180910390f35b34801561038a57600080fd5b5061039361098a565b005b3480156103a157600080fd5b506103bc60048036038101906103b7919061247c565b610a12565b6040516103c99190612e00565b60405180910390f35b3480156103de57600080fd5b506103e7610a2a565b005b3480156103f557600080fd5b506103fe610c93565b60405161040b9190612a34565b60405180910390f35b34801561042057600080fd5b50610429610ca2565b6040516104369190612a34565b60405180910390f35b34801561044b57600080fd5b50610454610ccc565b6040516104619190612b7e565b60405180910390f35b34801561047657600080fd5b50610491600480360381019061048c9190612622565b610cdb565b60405161049e9190612a4f565b60405180910390f35b3480156104b357600080fd5b506104ce60048036038101906104c99190612622565b610cef565b6040516104db9190612a4f565b60405180910390f35b3480156104f057600080fd5b5061050b60048036038101906105069190612530565b610d03565b005b34801561051957600080fd5b50610534600480360381019061052f91906124a5565b610f28565b6040516105419190612e00565b60405180910390f35b34801561055657600080fd5b50610571600480360381019061056c919061247c565b610f3c565b005b606061057d611047565b905090565b600061058e83836110d9565b905092915050565b60006105a06110f7565b905090565b60006105b2848484611101565b90509392505050565b7fcb43c7723d9634f543decd91bc3fb040b15071156ff9f30a4c54484d76275aa781565b60006012905090565b60fb5481565b7f000000000000000000000000000000000000000000000000000000000000000073ffffffffffffffffffffffffffffffffffffffff163073ffffffffffffffffffffffffffffffffffffffff16141561067d576040517f08c379a000000000000000000000000000000000000000000000000000000000815260040161067490612c20565b60405180910390fd5b7f000000000000000000000000000000000000000000000000000000000000000073ffffffffffffffffffffffffffffffffffffffff166106bc6111f9565b73ffffffffffffffffffffffffffffffffffffffff1614610712576040517f08c379a000000000000000000000000000000000000000000000000000000000815260040161070990612c60565b60405180910390fd5b61071b81611250565b61079a81600067ffffffffffffffff811115610760577f4e487b7100000000000000000000000000000000000000000000000000000000600052604160045260246000fd5b6040519080825280601f01601f1916602001820160405280156107925781602001600182028036833780820191505090505b5060006112cf565b50565b60006107a983836114a0565b905092915050565b6107b961158b565b73ffffffffffffffffffffffffffffffffffffffff166107d7610ca2565b73ffffffffffffffffffffffffffffffffffffffff161461082d576040517f08c379a000000000000000000000000000000000000000000000000000000000815260040161082490612d00565b60405180910390fd5b6108378282611593565b5050565b7f000000000000000000000000000000000000000000000000000000000000000073ffffffffffffffffffffffffffffffffffffffff163073ffffffffffffffffffffffffffffffffffffffff1614156108ca576040517f08c379a00000000000000000000000000000000000000000000000000000000081526004016108c190612c20565b60405180910390fd5b7f000000000000000000000000000000000000000000000000000000000000000073ffffffffffffffffffffffffffffffffffffffff166109096111f9565b73ffffffffffffffffffffffffffffffffffffffff161461095f576040517f08c379a000000000000000000000000000000000000000000000000000000000815260040161095690612c60565b60405180910390fd5b61096882611250565b610974828260016112cf565b5050565b6000610983826116f4565b9050919050565b61099261158b565b73ffffffffffffffffffffffffffffffffffffffff166109b0610ca2565b73ffffffffffffffffffffffffffffffffffffffff1614610a06576040517f08c379a00000000000000000000000000000000000000000000000000000000081526004016109fd90612d00565b60405180910390fd5b610a10600061173d565b565b60fc6020528060005260406000206000915090505481565b600060019054906101000a900460ff16610a525760008054906101000a900460ff1615610a5b565b610a5a611803565b5b610a9a576040517f08c379a0000000000000000000000000000000000000000000000000000000008152600401610a9190612c80565b60405180910390fd5b60008060019054906101000a900460ff161590508015610aea576001600060016101000a81548160ff02191690831515021790555060016000806101000a81548160ff0219169083151502179055505b610b5e6040518060400160405280600681526020017f44414f43757000000000000000000000000000000000000000000000000000008152506040518060400160405280600381526020017f4355500000000000000000000000000000000000000000000000000000000000815250611814565b610b66611879565b610b6e6118da565b610b9c33610b976012600a610b839190612f72565b6414f46b040061193b90919063ffffffff16565b6107b1565b60004690507f3cb138da6d2d7fa0e45d63ba80d5c0902dc0f5c3cc8ce33bcfe31dc017a3a4126040518060400160405280600681526020017f44414f4375700000000000000000000000000000000000000000000000000000815250805190602001206040518060400160405280600181526020017f3100000000000000000000000000000000000000000000000000000000000000815250805190602001208330604051602001610c52959493929190612ae6565b6040516020818303038152906040528051906020012060fb81905550508015610c905760008060016101000a81548160ff0219169083151502179055505b50565b6000610c9d610ca2565b905090565b6000606560009054906101000a900473ffffffffffffffffffffffffffffffffffffffff16905090565b6060610cd6611951565b905090565b6000610ce783836114a0565b905092915050565b6000610cfb83836119e3565b905092915050565b42841015610d46576040517f08c379a0000000000000000000000000000000000000000000000000000000008152600401610d3d90612d60565b60405180910390fd5b600060fb547fcb43c7723d9634f543decd91bc3fb040b15071156ff9f30a4c54484d76275aa789898960fc60008e73ffffffffffffffffffffffffffffffffffffffff1673ffffffffffffffffffffffffffffffffffffffff1681526020019081526020016000206000815480929190610dbf906131ee565b919050558a604051602001610dd996959493929190612a85565b60405160208183030381529060405280519060200120604051602001610e009291906129fd565b604051602081830303815290604052805190602001209050600060018286868660405160008152602001604052604051610e3d9493929190612b39565b6020604051602081039080840390855afa158015610e5f573d6000803e3d6000fd5b505050602060405103519050600073ffffffffffffffffffffffffffffffffffffffff168173ffffffffffffffffffffffffffffffffffffffff1614158015610ed357508873ffffffffffffffffffffffffffffffffffffffff168173ffffffffffffffffffffffffffffffffffffffff16145b610f12576040517f08c379a0000000000000000000000000000000000000000000000000000000008152600401610f0990612ca0565b60405180910390fd5b610f1d898989611a01565b505050505050505050565b6000610f348383611bcc565b905092915050565b610f4461158b565b73ffffffffffffffffffffffffffffffffffffffff16610f62610ca2565b73ffffffffffffffffffffffffffffffffffffffff1614610fb8576040517f08c379a0000000000000000000000000000000000000000000000000000000008152600401610faf90612d00565b60405180910390fd5b600073ffffffffffffffffffffffffffffffffffffffff168173ffffffffffffffffffffffffffffffffffffffff161415611028576040517f08c379a000000000000000000000000000000000000000000000000000000000815260040161101f90612be0565b60405180910390fd5b6110318161173d565b50565b600080823b905060008111915050919050565b6060603680546110569061318b565b80601f01602080910402602001604051908101604052809291908181526020018280546110829061318b565b80156110cf5780601f106110a4576101008083540402835291602001916110cf565b820191906000526020600020905b8154815290600101906020018083116110b257829003601f168201915b5050505050905090565b60006110ed6110e661158b565b8484611a01565b6001905092915050565b6000603554905090565b600061110e848484611c53565b6000603460008673ffffffffffffffffffffffffffffffffffffffff1673ffffffffffffffffffffffffffffffffffffffff168152602001908152602001600020600061115961158b565b73ffffffffffffffffffffffffffffffffffffffff1673ffffffffffffffffffffffffffffffffffffffff168152602001908152602001600020549050828110156111d9576040517f08c379a00000000000000000000000000000000000000000000000000000000081526004016111d090612ce0565b60405180910390fd5b6111ed856111e561158b565b858403611a01565b60019150509392505050565b60006112277f360894a13ba1a3210667c828492db98dca3e2076cc3735a920a3ca505d382bbc60001b611ed7565b60000160009054906101000a900473ffffffffffffffffffffffffffffffffffffffff16905090565b61125861158b565b73ffffffffffffffffffffffffffffffffffffffff16611276610ca2565b73ffffffffffffffffffffffffffffffffffffffff16146112cc576040517f08c379a00000000000000000000000000000000000000000000000000000000081526004016112c390612d00565b60405180910390fd5b50565b60006112d96111f9565b90506112e484611ee1565b6000835111806112f15750815b15611302576113008484611f9a565b505b60006113307f4910fdfa16fed3260ed0e7147f7cc6da11a60208b5b9406d12a635614ffd914360001b61207e565b90508060000160009054906101000a900460ff166114995760018160000160006101000a81548160ff0219169083151502179055506113fc858360405160240161137a9190612a34565b6040516020818303038152906040527f3659cfe6000000000000000000000000000000000000000000000000000000007bffffffffffffffffffffffffffffffffffffffffffffffffffffffff19166020820180517bffffffffffffffffffffffffffffffffffffffffffffffffffffffff8381831617835250505050611f9a565b5060008160000160006101000a81548160ff0219169083151502179055506114226111f9565b73ffffffffffffffffffffffffffffffffffffffff168273ffffffffffffffffffffffffffffffffffffffff161461148f576040517f08c379a000000000000000000000000000000000000000000000000000000000815260040161148690612bc0565b60405180910390fd5b61149885612088565b5b5050505050565b600080603460006114af61158b565b73ffffffffffffffffffffffffffffffffffffffff1673ffffffffffffffffffffffffffffffffffffffff16815260200190815260200160002060008573ffffffffffffffffffffffffffffffffffffffff1673ffffffffffffffffffffffffffffffffffffffff1681526020019081526020016000205490508281101561156c576040517f08c379a000000000000000000000000000000000000000000000000000000000815260040161156390612dc0565b60405180910390fd5b61158061157761158b565b85858403611a01565b600191505092915050565b600033905090565b600073ffffffffffffffffffffffffffffffffffffffff168273ffffffffffffffffffffffffffffffffffffffff161415611603576040517f08c379a00000000000000000000000000000000000000000000000000000000081526004016115fa90612de0565b60405180910390fd5b61160f600083836120d7565b80603560008282546116219190612ec9565b9250508190555080603360008473ffffffffffffffffffffffffffffffffffffffff1673ffffffffffffffffffffffffffffffffffffffff16815260200190815260200160002060008282546116779190612ec9565b925050819055508173ffffffffffffffffffffffffffffffffffffffff16600073ffffffffffffffffffffffffffffffffffffffff167fddf252ad1be2c89b69c2b068fc378daa952ba7f163c4a11628f55a4df523b3ef836040516116dc9190612e00565b60405180910390a36116f0600083836120dc565b5050565b6000603360008373ffffffffffffffffffffffffffffffffffffffff1673ffffffffffffffffffffffffffffffffffffffff168152602001908152602001600020549050919050565b6000606560009054906101000a900473ffffffffffffffffffffffffffffffffffffffff16905081606560006101000a81548173ffffffffffffffffffffffffffffffffffffffff021916908373ffffffffffffffffffffffffffffffffffffffff1602179055508173ffffffffffffffffffffffffffffffffffffffff168173ffffffffffffffffffffffffffffffffffffffff167f8be0079c531659141344cd1fd0a4f28419497f9722a3daafe3b4186f6b6457e060405160405180910390a35050565b600061180e30611034565b15905090565b600060019054906101000a900460ff16611863576040517f08c379a000000000000000000000000000000000000000000000000000000000815260040161185a90612da0565b60405180910390fd5b61186b6120e1565b6118758282612132565b5050565b600060019054906101000a900460ff166118c8576040517f08c379a00000000000000000000000000000000000000000000000000000000081526004016118bf90612da0565b60405180910390fd5b6118d06120e1565b6118d86121b3565b565b600060019054906101000a900460ff16611929576040517f08c379a000000000000000000000000000000000000000000000000000000000815260040161192090612da0565b60405180910390fd5b611931612214565b611939612265565b565b600081836119499190613090565b905092915050565b6060603780546119609061318b565b80601f016020809104026020016040519081016040528092919081815260200182805461198c9061318b565b80156119d95780601f106119ae576101008083540402835291602001916119d9565b820191906000526020600020905b8154815290600101906020018083116119bc57829003601f168201915b5050505050905090565b60006119f76119f061158b565b8484611c53565b6001905092915050565b600073ffffffffffffffffffffffffffffffffffffffff168373ffffffffffffffffffffffffffffffffffffffff161415611a71576040517f08c379a0000000000000000000000000000000000000000000000000000000008152600401611a6890612d80565b60405180910390fd5b600073ffffffffffffffffffffffffffffffffffffffff168273ffffffffffffffffffffffffffffffffffffffff161415611ae1576040517f08c379a0000000000000000000000000000000000000000000000000000000008152600401611ad890612c00565b60405180910390fd5b80603460008573ffffffffffffffffffffffffffffffffffffffff1673ffffffffffffffffffffffffffffffffffffffff16815260200190815260200160002060008473ffffffffffffffffffffffffffffffffffffffff1673ffffffffffffffffffffffffffffffffffffffff168152602001908152602001600020819055508173ffffffffffffffffffffffffffffffffffffffff168373ffffffffffffffffffffffffffffffffffffffff167f8c5be1e5ebec7d5bd14f71427d1e84f3dd0314c0f7b2291e5b200ac8c7c3b92583604051611bbf9190612e00565b60405180910390a3505050565b6000603460008473ffffffffffffffffffffffffffffffffffffffff1673ffffffffffffffffffffffffffffffffffffffff16815260200190815260200160002060008373ffffffffffffffffffffffffffffffffffffffff1673ffffffffffffffffffffffffffffffffffffffff16815260200190815260200160002054905092915050565b600073ffffffffffffffffffffffffffffffffffffffff168373ffffffffffffffffffffffffffffffffffffffff161415611cc3576040517f08c379a0000000000000000000000000000000000000000000000000000000008152600401611cba90612d40565b60405180910390fd5b600073ffffffffffffffffffffffffffffffffffffffff168273ffffffffffffffffffffffffffffffffffffffff161415611d33576040517f08c379a0000000000000000000000000000000000000000000000000000000008152600401611d2a90612ba0565b60405180910390fd5b611d3e8383836120d7565b6000603360008573ffffffffffffffffffffffffffffffffffffffff1673ffffffffffffffffffffffffffffffffffffffff16815260200190815260200160002054905081811015611dc5576040517f08c379a0000000000000000000000000000000000000000000000000000000008152600401611dbc90612c40565b60405180910390fd5b818103603360008673ffffffffffffffffffffffffffffffffffffffff1673ffffffffffffffffffffffffffffffffffffffff1681526020019081526020016000208190555081603360008573ffffffffffffffffffffffffffffffffffffffff1673ffffffffffffffffffffffffffffffffffffffff1681526020019081526020016000206000828254611e5a9190612ec9565b925050819055508273ffffffffffffffffffffffffffffffffffffffff168473ffffffffffffffffffffffffffffffffffffffff167fddf252ad1be2c89b69c2b068fc378daa952ba7f163c4a11628f55a4df523b3ef84604051611ebe9190612e00565b60405180910390a3611ed18484846120dc565b50505050565b6000819050919050565b611eea81611034565b611f29576040517f08c379a0000000000000000000000000000000000000000000000000000000008152600401611f2090612cc0565b60405180910390fd5b80611f567f360894a13ba1a3210667c828492db98dca3e2076cc3735a920a3ca505d382bbc60001b611ed7565b60000160006101000a81548173ffffffffffffffffffffffffffffffffffffffff021916908373ffffffffffffffffffffffffffffffffffffffff16021790555050565b6060611fa583611034565b611fe4576040517f08c379a0000000000000000000000000000000000000000000000000000000008152600401611fdb90612d20565b60405180910390fd5b6000808473ffffffffffffffffffffffffffffffffffffffff168460405161200c91906129e6565b600060405180830381855af49150503d8060008114612047576040519150601f19603f3d011682016040523d82523d6000602084013e61204c565b606091505b509150915061207482826040518060600160405280602781526020016138b7602791396122b6565b9250505092915050565b6000819050919050565b61209181611ee1565b8073ffffffffffffffffffffffffffffffffffffffff167fbc7cd75a20ee27fd9adebab32041f755214dbc6bffa90cc0225b39da2e5c2d3b60405160405180910390a250565b505050565b505050565b600060019054906101000a900460ff16612130576040517f08c379a000000000000000000000000000000000000000000000000000000000815260040161212790612da0565b60405180910390fd5b565b600060019054906101000a900460ff16612181576040517f08c379a000000000000000000000000000000000000000000000000000000000815260040161217890612da0565b60405180910390fd5b816036908051906020019061219792919061231d565b5080603790805190602001906121ae92919061231d565b505050565b600060019054906101000a900460ff16612202576040517f08c379a00000000000000000000000000000000000000000000000000000000081526004016121f990612da0565b60405180910390fd5b61221261220d61158b565b61173d565b565b600060019054906101000a900460ff16612263576040517f08c379a000000000000000000000000000000000000000000000000000000000815260040161225a90612da0565b60405180910390fd5b565b600060019054906101000a900460ff166122b4576040517f08c379a00000000000000000000000000000000000000000000000000000000081526004016122ab90612da0565b60405180910390fd5b565b606083156122c657829050612316565b6000835111156122d95782518084602001fd5b816040517f08c379a000000000000000000000000000000000000000000000000000000000815260040161230d9190612b7e565b60405180910390fd5b9392505050565b8280546123299061318b565b90600052602060002090601f01602090048101928261234b5760008555612392565b82601f1061236457805160ff1916838001178555612392565b82800160010185558215612392579182015b82811115612391578251825591602001919060010190612376565b5b50905061239f91906123a3565b5090565b5b808211156123bc5760008160009055506001016123a4565b5090565b60006123d36123ce84612e5b565b612e36565b9050828152602081018484840111156123eb57600080fd5b6123f6848285613149565b509392505050565b60008135905061240d8161385a565b92915050565b60008135905061242281613871565b92915050565b600082601f83011261243957600080fd5b81356124498482602086016123c0565b91505092915050565b60008135905061246181613888565b92915050565b6000813590506124768161389f565b92915050565b60006020828403121561248e57600080fd5b600061249c848285016123fe565b91505092915050565b600080604083850312156124b857600080fd5b60006124c6858286016123fe565b92505060206124d7858286016123fe565b9150509250929050565b6000806000606084860312156124f657600080fd5b6000612504868287016123fe565b9350506020612515868287016123fe565b925050604061252686828701612452565b9150509250925092565b600080600080600080600060e0888a03121561254b57600080fd5b60006125598a828b016123fe565b975050602061256a8a828b016123fe565b965050604061257b8a828b01612452565b955050606061258c8a828b01612452565b945050608061259d8a828b01612467565b93505060a06125ae8a828b01612413565b92505060c06125bf8a828b01612413565b91505092959891949750929550565b600080604083850312156125e157600080fd5b60006125ef858286016123fe565b925050602083013567ffffffffffffffff81111561260c57600080fd5b61261885828601612428565b9150509250929050565b6000806040838503121561263557600080fd5b6000612643858286016123fe565b925050602061265485828601612452565b9150509250929050565b612667816130ea565b82525050565b612676816130fc565b82525050565b61268581613108565b82525050565b61269c61269782613108565b613237565b82525050565b60006126ad82612e8c565b6126b78185612ea2565b93506126c7818560208601613158565b80840191505092915050565b60006126de82612e97565b6126e88185612ead565b93506126f8818560208601613158565b612701816132ce565b840191505092915050565b6000612719602383612ead565b9150612724826132ec565b604082019050919050565b600061273c602f83612ead565b91506127478261333b565b604082019050919050565b600061275f602683612ead565b915061276a8261338a565b604082019050919050565b6000612782602283612ead565b915061278d826133d9565b604082019050919050565b60006127a5600283612ebe565b91506127b082613428565b600282019050919050565b60006127c8602c83612ead565b91506127d382613451565b604082019050919050565b60006127eb602683612ead565b91506127f6826134a0565b604082019050919050565b600061280e602c83612ead565b9150612819826134ef565b604082019050919050565b6000612831602e83612ead565b915061283c8261353e565b604082019050919050565b6000612854601683612ead565b915061285f8261358d565b602082019050919050565b6000612877602d83612ead565b9150612882826135b6565b604082019050919050565b600061289a602883612ead565b91506128a582613605565b604082019050919050565b60006128bd602083612ead565b91506128c882613654565b602082019050919050565b60006128e0602683612ead565b91506128eb8261367d565b604082019050919050565b6000612903602583612ead565b915061290e826136cc565b604082019050919050565b6000612926600c83612ead565b91506129318261371b565b602082019050919050565b6000612949602483612ead565b915061295482613744565b604082019050919050565b600061296c602b83612ead565b915061297782613793565b604082019050919050565b600061298f602583612ead565b915061299a826137e2565b604082019050919050565b60006129b2601f83612ead565b91506129bd82613831565b602082019050919050565b6129d181613132565b82525050565b6129e08161313c565b82525050565b60006129f282846126a2565b915081905092915050565b6000612a0882612798565b9150612a14828561268b565b602082019150612a24828461268b565b6020820191508190509392505050565b6000602082019050612a49600083018461265e565b92915050565b6000602082019050612a64600083018461266d565b92915050565b6000602082019050612a7f600083018461267c565b92915050565b600060c082019050612a9a600083018961267c565b612aa7602083018861265e565b612ab4604083018761265e565b612ac160608301866129c8565b612ace60808301856129c8565b612adb60a08301846129c8565b979650505050505050565b600060a082019050612afb600083018861267c565b612b08602083018761267c565b612b15604083018661267c565b612b2260608301856129c8565b612b2f608083018461265e565b9695505050505050565b6000608082019050612b4e600083018761267c565b612b5b60208301866129d7565b612b68604083018561267c565b612b75606083018461267c565b95945050505050565b60006020820190508181036000830152612b9881846126d3565b905092915050565b60006020820190508181036000830152612bb98161270c565b9050919050565b60006020820190508181036000830152612bd98161272f565b9050919050565b60006020820190508181036000830152612bf981612752565b9050919050565b60006020820190508181036000830152612c1981612775565b9050919050565b60006020820190508181036000830152612c39816127bb565b9050919050565b60006020820190508181036000830152612c59816127de565b9050919050565b60006020820190508181036000830152612c7981612801565b9050919050565b60006020820190508181036000830152612c9981612824565b9050919050565b60006020820190508181036000830152612cb981612847565b9050919050565b60006020820190508181036000830152612cd98161286a565b9050919050565b60006020820190508181036000830152612cf98161288d565b9050919050565b60006020820190508181036000830152612d19816128b0565b9050919050565b60006020820190508181036000830152612d39816128d3565b9050919050565b60006020820190508181036000830152612d59816128f6565b9050919050565b60006020820190508181036000830152612d7981612919565b9050919050565b60006020820190508181036000830152612d998161293c565b9050919050565b60006020820190508181036000830152612db98161295f565b9050919050565b60006020820190508181036000830152612dd981612982565b9050919050565b60006020820190508181036000830152612df9816129a5565b9050919050565b6000602082019050612e1560008301846129c8565b92915050565b6000602082019050612e3060008301846129d7565b92915050565b6000612e40612e51565b9050612e4c82826131bd565b919050565b6000604051905090565b600067ffffffffffffffff821115612e7657612e7561329f565b5b612e7f826132ce565b9050602081019050919050565b600081519050919050565b600081519050919050565b600081905092915050565b600082825260208201905092915050565b600081905092915050565b6000612ed482613132565b9150612edf83613132565b9250827fffffffffffffffffffffffffffffffffffffffffffffffffffffffffffffffff03821115612f1457612f13613241565b5b828201905092915050565b6000808291508390505b6001851115612f6957808604811115612f4557612f44613241565b5b6001851615612f545780820291505b8081029050612f62856132df565b9450612f29565b94509492505050565b6000612f7d82613132565b9150612f888361313c565b9250612fb57fffffffffffffffffffffffffffffffffffffffffffffffffffffffffffffffff8484612fbd565b905092915050565b600082612fcd5760019050613089565b81612fdb5760009050613089565b8160018114612ff15760028114612ffb5761302a565b6001915050613089565b60ff84111561300d5761300c613241565b5b8360020a91508482111561302457613023613241565b5b50613089565b5060208310610133831016604e8410600b841016171561305f5782820a90508381111561305a57613059613241565b5b613089565b61306c8484846001612f1f565b9250905081840481111561308357613082613241565b5b81810290505b9392505050565b600061309b82613132565b91506130a683613132565b9250817fffffffffffffffffffffffffffffffffffffffffffffffffffffffffffffffff04831182151516156130df576130de613241565b5b828202905092915050565b60006130f582613112565b9050919050565b60008115159050919050565b6000819050919050565b600073ffffffffffffffffffffffffffffffffffffffff82169050919050565b6000819050919050565b600060ff82169050919050565b82818337600083830152505050565b60005b8381101561317657808201518184015260208101905061315b565b83811115613185576000848401525b50505050565b600060028204905060018216806131a357607f821691505b602082108114156131b7576131b6613270565b5b50919050565b6131c6826132ce565b810181811067ffffffffffffffff821117156131e5576131e461329f565b5b80604052505050565b60006131f982613132565b91507fffffffffffffffffffffffffffffffffffffffffffffffffffffffffffffffff82141561322c5761322b613241565b5b600182019050919050565b6000819050919050565b7f4e487b7100000000000000000000000000000000000000000000000000000000600052601160045260246000fd5b7f4e487b7100000000000000000000000000000000000000000000000000000000600052602260045260246000fd5b7f4e487b7100000000000000000000000000000000000000000000000000000000600052604160045260246000fd5b6000601f19601f8301169050919050565b60008160011c9050919050565b7f45524332303a207472616e7366657220746f20746865207a65726f206164647260008201527f6573730000000000000000000000000000000000000000000000000000000000602082015250565b7f45524331393637557067726164653a207570677261646520627265616b73206660008201527f7572746865722075706772616465730000000000000000000000000000000000602082015250565b7f4f776e61626c653a206e6577206f776e657220697320746865207a65726f206160008201527f6464726573730000000000000000000000000000000000000000000000000000602082015250565b7f45524332303a20617070726f766520746f20746865207a65726f20616464726560008201527f7373000000000000000000000000000000000000000000000000000000000000602082015250565b7f1901000000000000000000000000000000000000000000000000000000000000600082015250565b7f46756e6374696f6e206d7573742062652063616c6c6564207468726f7567682060008201527f64656c656761746563616c6c0000000000000000000000000000000000000000602082015250565b7f45524332303a207472616e7366657220616d6f756e742065786365656473206260008201527f616c616e63650000000000000000000000000000000000000000000000000000602082015250565b7f46756e6374696f6e206d7573742062652063616c6c6564207468726f7567682060008201527f6163746976652070726f78790000000000000000000000000000000000000000602082015250565b7f496e697469616c697a61626c653a20636f6e747261637420697320616c72656160008201527f647920696e697469616c697a6564000000000000000000000000000000000000602082015250565b7f4355503a20494e56414c49445f5349474e415455524500000000000000000000600082015250565b7f455243313936373a206e657720696d706c656d656e746174696f6e206973206e60008201527f6f74206120636f6e747261637400000000000000000000000000000000000000602082015250565b7f45524332303a207472616e7366657220616d6f756e742065786365656473206160008201527f6c6c6f77616e6365000000000000000000000000000000000000000000000000602082015250565b7f4f776e61626c653a2063616c6c6572206973206e6f7420746865206f776e6572600082015250565b7f416464726573733a2064656c65676174652063616c6c20746f206e6f6e2d636f60008201527f6e74726163740000000000000000000000000000000000000000000000000000602082015250565b7f45524332303a207472616e736665722066726f6d20746865207a65726f20616460008201527f6472657373000000000000000000000000000000000000000000000000000000602082015250565b7f4355503a20455850495245440000000000000000000000000000000000000000600082015250565b7f45524332303a20617070726f76652066726f6d20746865207a65726f2061646460008201527f7265737300000000000000000000000000000000000000000000000000000000602082015250565b7f496e697469616c697a61626c653a20636f6e7472616374206973206e6f74206960008201527f6e697469616c697a696e67000000000000000000000000000000000000000000602082015250565b7f45524332303a2064656372656173656420616c6c6f77616e63652062656c6f7760008201527f207a65726f000000000000000000000000000000000000000000000000000000602082015250565b7f45524332303a206d696e7420746f20746865207a65726f206164647265737300600082015250565b613863816130ea565b811461386e57600080fd5b50565b61387a81613108565b811461388557600080fd5b50565b61389181613132565b811461389c57600080fd5b50565b6138a88161313c565b81146138b357600080fd5b5056fe416464726573733a206c6f772d6c6576656c2064656c65676174652063616c6c206661696c6564a26469706673582212202cfd5032da119ad10f4503d92dd769070b0fc0007c759d556ef61cfc936d168e64736f6c63430008020033",
  "immutableReferences": {
    "641": [
      {
        "length": 32,
        "start": 1520
      },
      {
        "length": 32,
        "start": 1663
      },
      {
        "length": 32,
        "start": 2109
      },
      {
        "length": 32,
        "start": 2252
      }
    ]
  },
  "source": "// SPDX-License-Identifier: MIT\npragma solidity ^0.8.0;\n\nimport \"@openzeppelin/contracts-upgradeable/token/ERC20/ERC20Upgradeable.sol\";\nimport \"@openzeppelin/contracts-upgradeable/access/OwnableUpgradeable.sol\";\nimport \"@openzeppelin/contracts-upgradeable/proxy/utils/Initializable.sol\";\nimport \"@openzeppelin/contracts-upgradeable/proxy/utils/UUPSUpgradeable.sol\";\nimport \"@openzeppelin/contracts/utils/math/SafeMath.sol\";\nimport \"@openzeppelin/contracts/token/ERC20/ERC20.sol\";\nimport \"./BEP20/IBEP20.sol\";\nimport \"./BEP20/BaseERC20.sol\";\n\n\ncontract CUP is Initializable, BaseERC20, UUPSUpgradeable {\n    using SafeMath for uint256;\n\n    bytes32 public DOMAIN_SEPARATOR;\n    bytes32 public constant PERMIT_TYPEHASH = keccak256(\"Permit(address owner,address spender, uint256 value, uint256 nonce, uint256 deadline)\");\n    mapping(address => uint) public nonces;\n\n    /// @custom:oz-upgrades-unsafe-allow constructor\n    constructor() initializer {}\n\n    function initialize() external initializer {\n        __ERC20_init(\"DAOCup\", \"CUP\");\n        __Ownable_init();\n        __UUPSUpgradeable_init();\n\n        mint(msg.sender, uint256(90000000000).mul(uint256(10) ** 18));\n\n        uint chainId;\n        assembly {\n            chainId := chainid()\n        }\n        DOMAIN_SEPARATOR = keccak256(\n            abi.encode(\n                keccak256('EIP712Domain(string name, string version, uint256 chainId, address verifyingContract)'),\n                keccak256(bytes(\"DAOCup\")),\n                keccak256(bytes('1')),\n                chainId,\n                address(this)\n            )\n        );\n    }\n\n    function _authorizeUpgrade(address newImplementation) internal override onlyOwner {}\n\n    function mint(address to, uint256 amount) public onlyOwner {\n        _mint(to, amount);\n    }\n\n    function permit(address owner_, address spender_, uint value, uint deadline, uint8 v, bytes32 r, bytes32 s) external {\n        require(deadline >= block.timestamp, 'CUP: EXPIRED');\n        bytes32 digest = keccak256(\n            abi.encodePacked(\n                '\\x19\\x01',\n                DOMAIN_SEPARATOR,\n                keccak256(abi.encode(PERMIT_TYPEHASH, owner_, spender_, value, nonces[owner_]++, deadline))\n            )\n        );\n        address recoveredAddress = ecrecover(digest, v, r, s);\n        require(recoveredAddress != address(0) && recoveredAddress == owner_, 'CUP: INVALID_SIGNATURE');\n        _approve(owner_, spender_, value);\n    }\n}",
  "sourcePath": "/Users/bean/WebstormProjects/cup-contracts/contracts/CUP.sol",
  "compiler": {
    "name": "solc",
    "version": "0.8.2+commit.661d1103.Emscripten.clang"
  },
  "schemaVersion": "3.4.3",
  "updatedAt": "2021-12-22T04:29:57.290Z",
  "networkType": "ethereum",
  "devdoc": {
    "kind": "dev",
    "methods": {
      "allowance(address,address)": {
        "details": "See {IERC20-allowance}."
      },
      "approve(address,uint256)": {
        "details": "See {IERC20-approve}. Requirements: - `spender` cannot be the zero address."
      },
      "balanceOf(address)": {
        "details": "See {IERC20-balanceOf}."
      },
      "constructor": {
        "custom:oz-upgrades-unsafe-allow": "constructor"
      },
      "decimals()": {
        "details": "Returns the number of decimals used to get its user representation. For example, if `decimals` equals `2`, a balance of `505` tokens should be displayed to a user as `5.05` (`505 / 10 ** 2`). Tokens usually opt for a value of 18, imitating the relationship between Ether and Wei. This is the value {ERC20} uses, unless this function is overridden; NOTE: This information is only used for _display_ purposes: it in no way affects any of the arithmetic of the contract, including {IERC20-balanceOf} and {IERC20-transfer}."
      },
      "decreaseAllowance(address,uint256)": {
        "details": "Atomically decreases the allowance granted to `spender` by the caller. This is an alternative to {approve} that can be used as a mitigation for problems described in {IERC20-approve}. Emits an {Approval} event indicating the updated allowance. Requirements: - `spender` cannot be the zero address. - `spender` must have allowance for the caller of at least `subtractedValue`."
      },
      "getOwner()": {
        "details": "Returns the bep token owner."
      },
      "increaseAllowance(address,uint256)": {
        "details": "Atomically increases the allowance granted to `spender` by the caller. This is an alternative to {approve} that can be used as a mitigation for problems described in {IERC20-approve}. Emits an {Approval} event indicating the updated allowance. Requirements: - `spender` cannot be the zero address."
      },
      "name()": {
        "details": "Returns the name of the token."
      },
      "owner()": {
        "details": "Returns the address of the current owner."
      },
      "renounceOwnership()": {
        "details": "Leaves the contract without owner. It will not be possible to call `onlyOwner` functions anymore. Can only be called by the current owner. NOTE: Renouncing ownership will leave the contract without an owner, thereby removing any functionality that is only available to the owner."
      },
      "symbol()": {
        "details": "Returns the symbol of the token, usually a shorter version of the name."
      },
      "totalSupply()": {
        "details": "See {IERC20-totalSupply}."
      },
      "transfer(address,uint256)": {
        "details": "See {IERC20-transfer}. Requirements: - `recipient` cannot be the zero address. - the caller must have a balance of at least `amount`."
      },
      "transferFrom(address,address,uint256)": {
        "details": "See {BEP20-transferFrom}. Emits an {Approval} event indicating the updated allowance. This is not required by the EIP. See the note at the beginning of {BEP20}; Requirements: - `sender` and `recipient` cannot be the zero address. - `sender` must have a balance of at least `amount`. - the caller must have allowance for `sender`'s tokens of at least `amount`."
      },
      "transferOwnership(address)": {
        "details": "Transfers ownership of the contract to a new account (`newOwner`). Can only be called by the current owner."
      },
      "upgradeTo(address)": {
        "details": "Upgrade the implementation of the proxy to `newImplementation`. Calls {_authorizeUpgrade}. Emits an {Upgraded} event."
      },
      "upgradeToAndCall(address,bytes)": {
        "details": "Upgrade the implementation of the proxy to `newImplementation`, and subsequently execute the function call encoded in `data`. Calls {_authorizeUpgrade}. Emits an {Upgraded} event."
      }
    },
    "version": 1
  },
  "userdoc": {
    "kind": "user",
    "methods": {},
    "version": 1
  }
}