{
  "contractName": "CUPSale",
  "abi": [
    {
      "inputs": [],
      "stateMutability": "nonpayable",
      "type": "constructor"
    },
    {
      "anonymous": false,
      "inputs": [
        {
          "indexed": false,
          "internalType": "address",
          "name": "previousAdmin",
          "type": "address"
        },
        {
          "indexed": false,
          "internalType": "address",
          "name": "newAdmin",
          "type": "address"
        }
      ],
      "name": "AdminChanged",
      "type": "event"
    },
    {
      "anonymous": false,
      "inputs": [
        {
          "indexed": true,
          "internalType": "address",
          "name": "beacon",
          "type": "address"
        }
      ],
      "name": "BeaconUpgraded",
      "type": "event"
    },
    {
      "anonymous": false,
      "inputs": [
        {
          "indexed": true,
          "internalType": "address",
          "name": "previousOwner",
          "type": "address"
        },
        {
          "indexed": true,
          "internalType": "address",
          "name": "newOwner",
          "type": "address"
        }
      ],
      "name": "OwnershipTransferred",
      "type": "event"
    },
    {
      "anonymous": false,
      "inputs": [
        {
          "indexed": true,
          "internalType": "address",
          "name": "account",
          "type": "address"
        },
        {
          "indexed": false,
          "internalType": "address",
          "name": "wallet",
          "type": "address"
        },
        {
          "indexed": false,
          "internalType": "uint256",
          "name": "amount",
          "type": "uint256"
        },
        {
          "indexed": false,
          "internalType": "uint256",
          "name": "rate",
          "type": "uint256"
        },
        {
          "indexed": false,
          "internalType": "uint256",
          "name": "reward",
          "type": "uint256"
        }
      ],
      "name": "TokensPurchased",
      "type": "event"
    },
    {
      "anonymous": false,
      "inputs": [
        {
          "indexed": false,
          "internalType": "uint256",
          "name": "amount",
          "type": "uint256"
        },
        {
          "indexed": false,
          "internalType": "uint256",
          "name": "reward",
          "type": "uint256"
        }
      ],
      "name": "TokensSold",
      "type": "event"
    },
    {
      "anonymous": false,
      "inputs": [
        {
          "indexed": true,
          "internalType": "address",
          "name": "implementation",
          "type": "address"
        }
      ],
      "name": "Upgraded",
      "type": "event"
    },
    {
      "inputs": [],
      "name": "deadline",
      "outputs": [
        {
          "internalType": "uint256",
          "name": "",
          "type": "uint256"
        }
      ],
      "stateMutability": "view",
      "type": "function",
      "constant": true
    },
    {
      "inputs": [],
      "name": "name",
      "outputs": [
        {
          "internalType": "string",
          "name": "",
          "type": "string"
        }
      ],
      "stateMutability": "view",
      "type": "function",
      "constant": true
    },
    {
      "inputs": [],
      "name": "owner",
      "outputs": [
        {
          "internalType": "address",
          "name": "",
          "type": "address"
        }
      ],
      "stateMutability": "view",
      "type": "function",
      "constant": true
    },
    {
      "inputs": [],
      "name": "rate",
      "outputs": [
        {
          "internalType": "uint256",
          "name": "",
          "type": "uint256"
        }
      ],
      "stateMutability": "view",
      "type": "function",
      "constant": true
    },
    {
      "inputs": [],
      "name": "renounceOwnership",
      "outputs": [],
      "stateMutability": "nonpayable",
      "type": "function"
    },
    {
      "inputs": [],
      "name": "token",
      "outputs": [
        {
          "internalType": "address",
          "name": "",
          "type": "address"
        }
      ],
      "stateMutability": "view",
      "type": "function",
      "constant": true
    },
    {
      "inputs": [],
      "name": "totalReward",
      "outputs": [
        {
          "internalType": "uint256",
          "name": "",
          "type": "uint256"
        }
      ],
      "stateMutability": "view",
      "type": "function",
      "constant": true
    },
    {
      "inputs": [
        {
          "internalType": "address",
          "name": "newOwner",
          "type": "address"
        }
      ],
      "name": "transferOwnership",
      "outputs": [],
      "stateMutability": "nonpayable",
      "type": "function"
    },
    {
      "inputs": [
        {
          "internalType": "address",
          "name": "newImplementation",
          "type": "address"
        }
      ],
      "name": "upgradeTo",
      "outputs": [],
      "stateMutability": "nonpayable",
      "type": "function"
    },
    {
      "inputs": [
        {
          "internalType": "address",
          "name": "newImplementation",
          "type": "address"
        },
        {
          "internalType": "bytes",
          "name": "data",
          "type": "bytes"
        }
      ],
      "name": "upgradeToAndCall",
      "outputs": [],
      "stateMutability": "payable",
      "type": "function",
      "payable": true
    },
    {
      "stateMutability": "payable",
      "type": "receive",
      "payable": true
    },
    {
      "inputs": [
        {
          "internalType": "address",
          "name": "token_",
          "type": "address"
        },
        {
          "internalType": "address",
          "name": "locker_",
          "type": "address"
        },
        {
          "internalType": "uint256",
          "name": "rate_",
          "type": "uint256"
        }
      ],
      "name": "initialize",
      "outputs": [],
      "stateMutability": "nonpayable",
      "type": "function"
    },
    {
      "inputs": [
        {
          "internalType": "uint8",
          "name": "lock",
          "type": "uint8"
        }
      ],
      "name": "buyTokens",
      "outputs": [],
      "stateMutability": "payable",
      "type": "function",
      "payable": true
    },
    {
      "inputs": [],
      "name": "getWallets",
      "outputs": [
        {
          "internalType": "address[]",
          "name": "",
          "type": "address[]"
        }
      ],
      "stateMutability": "view",
      "type": "function",
      "constant": true
    },
    {
      "inputs": [],
      "name": "factory",
      "outputs": [
        {
          "internalType": "contract LockFactory",
          "name": "",
          "type": "address"
        }
      ],
      "stateMutability": "view",
      "type": "function",
      "constant": true
    },
    {
      "inputs": [
        {
          "internalType": "uint8",
          "name": "month",
          "type": "uint8"
        }
      ],
      "name": "activeDeadline",
      "outputs": [],
      "stateMutability": "nonpayable",
      "type": "function"
    },
    {
      "inputs": [],
      "name": "completeSale",
      "outputs": [],
      "stateMutability": "nonpayable",
      "type": "function"
    }
  ],
  "bytecode": "0x60a06040523073ffffffffffffffffffffffffffffffffffffffff1660809073ffffffffffffffffffffffffffffffffffffffff1660601b8152503480156200004757600080fd5b50600060019054906101000a900460ff16806200006f575060008054906101000a900460ff16155b620000b1576040517f08c379a0000000000000000000000000000000000000000000000000000000008152600401620000a89062000152565b60405180910390fd5b60008060019054906101000a900460ff16159050801562000102576001600060016101000a81548160ff02191690831515021790555060016000806101000a81548160ff0219169083151502179055505b8015620001245760008060016101000a81548160ff0219169083151502179055505b50620001d4565b60006200013a602e8362000174565b9150620001478262000185565b604082019050919050565b600060208201905081810360008301526200016d816200012b565b9050919050565b600082825260208201905092915050565b7f496e697469616c697a61626c653a20636f6e747261637420697320616c72656160008201527f647920696e697469616c697a6564000000000000000000000000000000000000602082015250565b60805160601c613d4862000208600039600081816108cd0152818161095c01528181610bc60152610c550152613d486000f3fe6080604052600436106100f75760003560e01c8063750142e61161008a578063c45a015511610059578063c45a0155146102c5578063db7a4605146102f0578063f2fde38b1461031b578063fc0c546a1461034457610108565b8063750142e61461022a5780638da5cb5b14610255578063bba5b24e14610280578063c1ce83101461029c57610108565b80633659cfe6116100c65780633659cfe6146101b75780634d461ed1146101e05780634f1ef286146101f7578063715018a61461021357610108565b806306fdde031461010d5780631794bb3c1461013857806329dcb0cf146101615780632c4e722e1461018c57610108565b3661010857610106600c61036f565b005b600080fd5b34801561011957600080fd5b50610122610660565b60405161012f9190613323565b60405180910390f35b34801561014457600080fd5b5061015f600480360381019061015a9190612cc3565b6106ee565b005b34801561016d57600080fd5b506101766108bf565b60405161018391906134a5565b60405180910390f35b34801561019857600080fd5b506101a16108c5565b6040516101ae91906134a5565b60405180910390f35b3480156101c357600080fd5b506101de60048036038101906101d99190612c71565b6108cb565b005b3480156101ec57600080fd5b506101f5610a7a565b005b610211600480360381019061020c9190612d12565b610bc4565b005b34801561021f57600080fd5b50610228610d01565b005b34801561023657600080fd5b5061023f610d89565b60405161024c91906134a5565b60405180910390f35b34801561026157600080fd5b5061026a610d8f565b60405161027791906131e0565b60405180910390f35b61029a60048036038101906102959190612df9565b61036f565b005b3480156102a857600080fd5b506102c360048036038101906102be9190612df9565b610db9565b005b3480156102d157600080fd5b506102da610e67565b6040516102e79190613308565b60405180910390f35b3480156102fc57600080fd5b50610305610e91565b60405161031291906132e6565b60405180910390f35b34801561032757600080fd5b50610342600480360381019061033d9190612c71565b610f2d565b005b34801561035057600080fd5b50610359611025565b60405161036691906131e0565b60405180910390f35b600060c95411156103bf5760c95442106103be576040517f08c379a00000000000000000000000000000000000000000000000000000000081526004016103b5906133e5565b60405180910390fd5b5b60008060006103cd8461104b565b925092509250600060cd54346103e391906136cf565b9050600061040d60646103ff85856110a490919063ffffffff16565b6110ba90919063ffffffff16565b9050808261041b9190613648565b91508060ce5461042b9190613648565b60ce819055508160cb60009054906101000a900473ffffffffffffffffffffffffffffffffffffffff1673ffffffffffffffffffffffffffffffffffffffff166370a08231610478610d8f565b6040518263ffffffff1660e01b815260040161049491906131e0565b60206040518083038186803b1580156104ac57600080fd5b505afa1580156104c0573d6000803e3d6000fd5b505050506040513d601f19601f820116820180604052508101906104e49190612dd0565b10156104ef57600080fd5b600060cc60009054906101000a900473ffffffffffffffffffffffffffffffffffffffff1673ffffffffffffffffffffffffffffffffffffffff1663420790c03360cb60009054906101000a900473ffffffffffffffffffffffffffffffffffffffff16868a8a426040518763ffffffff1660e01b815260040161057896959493929190613232565b602060405180830381600087803b15801561059257600080fd5b505af11580156105a6573d6000803e3d6000fd5b505050506040513d601f19601f820116820180604052508101906105ca9190612c9a565b905061060160cb60009054906101000a900473ffffffffffffffffffffffffffffffffffffffff166105fa610d8f565b83866110d0565b3373ffffffffffffffffffffffffffffffffffffffff167f377aadedb6b2a771959584d10a6a36eccb5f56b4eb3a48525f76108d2660d8d4828560cd548860405161064f94939291906132a1565b60405180910390a250505050505050565b60ca805461066d9061386d565b80601f01602080910402602001604051908101604052809291908181526020018280546106999061386d565b80156106e65780601f106106bb576101008083540402835291602001916106e6565b820191906000526020600020905b8154815290600101906020018083116106c957829003601f168201915b505050505081565b600060019054906101000a900460ff1680610714575060008054906101000a900460ff16155b610753576040517f08c379a000000000000000000000000000000000000000000000000000000000815260040161074a90613425565b60405180910390fd5b60008060019054906101000a900460ff1615905080156107a3576001600060016101000a81548160ff02191690831515021790555060016000806101000a81548160ff0219169083151502179055505b6107ab611240565b6107b3611329565b8260cc60006101000a81548173ffffffffffffffffffffffffffffffffffffffff021916908373ffffffffffffffffffffffffffffffffffffffff1602179055508360cb60006101000a81548173ffffffffffffffffffffffffffffffffffffffff021916908373ffffffffffffffffffffffffffffffffffffffff1602179055508160cd819055506040518060400160405280601181526020017f4355502053616c6520436f6e747261637400000000000000000000000000000081525060ca9080519060200190610887929190612a52565b50600060c981905550600060ce8190555080156108b95760008060016101000a81548160ff0219169083151502179055505b50505050565b60c95481565b60cd5481565b7f000000000000000000000000000000000000000000000000000000000000000073ffffffffffffffffffffffffffffffffffffffff163073ffffffffffffffffffffffffffffffffffffffff16141561095a576040517f08c379a0000000000000000000000000000000000000000000000000000000008152600401610951906133a5565b60405180910390fd5b7f000000000000000000000000000000000000000000000000000000000000000073ffffffffffffffffffffffffffffffffffffffff16610999611412565b73ffffffffffffffffffffffffffffffffffffffff16146109ef576040517f08c379a00000000000000000000000000000000000000000000000000000000081526004016109e690613405565b60405180910390fd5b6109f881611469565b610a7781600067ffffffffffffffff811115610a3d577f4e487b7100000000000000000000000000000000000000000000000000000000600052604160045260246000fd5b6040519080825280601f01601f191660200182016040528015610a6f5781602001600182028036833780820191505090505b50600061146c565b50565b610a8261163d565b73ffffffffffffffffffffffffffffffffffffffff16610aa0610d8f565b73ffffffffffffffffffffffffffffffffffffffff1614610af6576040517f08c379a0000000000000000000000000000000000000000000000000000000008152600401610aed90613465565b60405180910390fd5b60c9544211610b3a576040517f08c379a0000000000000000000000000000000000000000000000000000000008152600401610b3190613385565b60405180910390fd5b60004790507f9745885914207e14787933537f5e0fc3685e9b3a89eeeecbc1d10207baa4c7908160ce54604051610b729291906134c0565b60405180910390a13373ffffffffffffffffffffffffffffffffffffffff166108fc829081150290604051600060405180830381858888f19350505050158015610bc0573d6000803e3d6000fd5b5050565b7f000000000000000000000000000000000000000000000000000000000000000073ffffffffffffffffffffffffffffffffffffffff163073ffffffffffffffffffffffffffffffffffffffff161415610c53576040517f08c379a0000000000000000000000000000000000000000000000000000000008152600401610c4a906133a5565b60405180910390fd5b7f000000000000000000000000000000000000000000000000000000000000000073ffffffffffffffffffffffffffffffffffffffff16610c92611412565b73ffffffffffffffffffffffffffffffffffffffff1614610ce8576040517f08c379a0000000000000000000000000000000000000000000000000000000008152600401610cdf90613405565b60405180910390fd5b610cf182611469565b610cfd8282600161146c565b5050565b610d0961163d565b73ffffffffffffffffffffffffffffffffffffffff16610d27610d8f565b73ffffffffffffffffffffffffffffffffffffffff1614610d7d576040517f08c379a0000000000000000000000000000000000000000000000000000000008152600401610d7490613465565b60405180910390fd5b610d876000611645565b565b60ce5481565b6000609760009054906101000a900473ffffffffffffffffffffffffffffffffffffffff16905090565b610dc161163d565b73ffffffffffffffffffffffffffffffffffffffff16610ddf610d8f565b73ffffffffffffffffffffffffffffffffffffffff1614610e35576040517f08c379a0000000000000000000000000000000000000000000000000000000008152600401610e2c90613465565b60405180910390fd5b610e4d81601e610e459190613767565b60ff1661170b565b63ffffffff1642610e5e9190613648565b60c98190555050565b600060cc60009054906101000a900473ffffffffffffffffffffffffffffffffffffffff16905090565b6060610e9b610e67565b73ffffffffffffffffffffffffffffffffffffffff1663fe2b0cd1336040518263ffffffff1660e01b8152600401610ed391906131e0565b60006040518083038186803b158015610eeb57600080fd5b505afa158015610eff573d6000803e3d6000fd5b505050506040513d6000823e3d601f19601f82011682018060405250810190610f289190612d66565b905090565b610f3561163d565b73ffffffffffffffffffffffffffffffffffffffff16610f53610d8f565b73ffffffffffffffffffffffffffffffffffffffff1614610fa9576040517f08c379a0000000000000000000000000000000000000000000000000000000008152600401610fa090613465565b60405180910390fd5b600073ffffffffffffffffffffffffffffffffffffffff168173ffffffffffffffffffffffffffffffffffffffff161415611019576040517f08c379a000000000000000000000000000000000000000000000000000000000815260040161101090613365565b60405180910390fd5b61102281611645565b50565b60cb60009054906101000a900473ffffffffffffffffffffffffffffffffffffffff1681565b6060806000600c8460ff16141561106f57611064611738565b92509250925061109d565b60068460ff16141561108e57611083611b9e565b92509250925061109d565b611096612001565b9250925092505b9193909250565b600081836110b291906136cf565b905092915050565b600081836110c8919061369e565b905092915050565b6000808573ffffffffffffffffffffffffffffffffffffffff16604051806060016040528060258152602001613cc7602591398051906020012086868660405160240161111f939291906131fb565b604051602081830303815290604052907bffffffffffffffffffffffffffffffffffffffffffffffffffffffff19166020820180517bffffffffffffffffffffffffffffffffffffffffffffffffffffffff838183161783525050505060405161118991906131c9565b6000604051808303816000865af19150503d80600081146111c6576040519150601f19603f3d011682016040523d82523d6000602084013e6111cb565b606091505b50915091508180156111f957506000815114806111f85750808060200190518101906111f79190612da7565b5b5b611238576040517f08c379a000000000000000000000000000000000000000000000000000000000815260040161122f906133c5565b60405180910390fd5b505050505050565b600060019054906101000a900460ff1680611266575060008054906101000a900460ff16155b6112a5576040517f08c379a000000000000000000000000000000000000000000000000000000000815260040161129c90613425565b60405180910390fd5b60008060019054906101000a900460ff1615905080156112f5576001600060016101000a81548160ff02191690831515021790555060016000806101000a81548160ff0219169083151502179055505b6112fd612464565b61130561253d565b80156113265760008060016101000a81548160ff0219169083151502179055505b50565b600060019054906101000a900460ff168061134f575060008054906101000a900460ff16155b61138e576040517f08c379a000000000000000000000000000000000000000000000000000000000815260040161138590613425565b60405180910390fd5b60008060019054906101000a900460ff1615905080156113de576001600060016101000a81548160ff02191690831515021790555060016000806101000a81548160ff0219169083151502179055505b6113e6612626565b6113ee6126ff565b801561140f5760008060016101000a81548160ff0219169083151502179055505b50565b60006114407f360894a13ba1a3210667c828492db98dca3e2076cc3735a920a3ca505d382bbc60001b6127d8565b60000160009054906101000a900473ffffffffffffffffffffffffffffffffffffffff16905090565b50565b6000611476611412565b9050611481846127e2565b60008351118061148e5750815b1561149f5761149d848461289b565b505b60006114cd7f4910fdfa16fed3260ed0e7147f7cc6da11a60208b5b9406d12a635614ffd914360001b61297f565b90508060000160009054906101000a900460ff166116365760018160000160006101000a81548160ff021916908315150217905550611599858360405160240161151791906131e0565b6040516020818303038152906040527f3659cfe6000000000000000000000000000000000000000000000000000000007bffffffffffffffffffffffffffffffffffffffffffffffffffffffff19166020820180517bffffffffffffffffffffffffffffffffffffffffffffffffffffffff838183161783525050505061289b565b5060008160000160006101000a81548160ff0219169083151502179055506115bf611412565b73ffffffffffffffffffffffffffffffffffffffff168273ffffffffffffffffffffffffffffffffffffffff161461162c576040517f08c379a000000000000000000000000000000000000000000000000000000000815260040161162390613345565b60405180910390fd5b61163585612989565b5b5050505050565b600033905090565b6000609760009054906101000a900473ffffffffffffffffffffffffffffffffffffffff16905081609760006101000a81548173ffffffffffffffffffffffffffffffffffffffff021916908373ffffffffffffffffffffffffffffffffffffffff1602179055508173ffffffffffffffffffffffffffffffffffffffff168173ffffffffffffffffffffffffffffffffffffffff167f8be0079c531659141344cd1fd0a4f28419497f9722a3daafe3b4186f6b6457e060405160405180910390a35050565b60006018603c808461171d9190613729565b6117279190613729565b6117319190613729565b9050919050565b606080600080600567ffffffffffffffff81111561177f577f4e487b7100000000000000000000000000000000000000000000000000000000600052604160045260246000fd5b6040519080825280602002602001820160405280156117ad5781602001602082028036833780820191505090505b5090506117ba609661170b565b816000815181106117f4577f4e487b7100000000000000000000000000000000000000000000000000000000600052603260045260246000fd5b602002602001019063ffffffff16908163ffffffff168152505061181860d261170b565b81600181518110611852577f4e487b7100000000000000000000000000000000000000000000000000000000600052603260045260246000fd5b602002602001019063ffffffff16908163ffffffff168152505061187761010e61170b565b816002815181106118b1577f4e487b7100000000000000000000000000000000000000000000000000000000600052603260045260246000fd5b602002602001019063ffffffff16908163ffffffff16815250506118d661014a61170b565b81600381518110611910577f4e487b7100000000000000000000000000000000000000000000000000000000600052603260045260246000fd5b602002602001019063ffffffff16908163ffffffff168152505061193561016861170b565b8160048151811061196f577f4e487b7100000000000000000000000000000000000000000000000000000000600052603260045260246000fd5b602002602001019063ffffffff16908163ffffffff16815250506000600567ffffffffffffffff8111156119cc577f4e487b7100000000000000000000000000000000000000000000000000000000600052604160045260246000fd5b6040519080825280602002602001820160405280156119fa5781602001602082028036833780820191505090505b509050602881600081518110611a39577f4e487b7100000000000000000000000000000000000000000000000000000000600052603260045260246000fd5b602002602001019060ff16908160ff1681525050601e81600181518110611a89577f4e487b7100000000000000000000000000000000000000000000000000000000600052603260045260246000fd5b602002602001019060ff16908160ff1681525050601481600281518110611ad9577f4e487b7100000000000000000000000000000000000000000000000000000000600052603260045260246000fd5b602002602001019060ff16908160ff1681525050600781600381518110611b29577f4e487b7100000000000000000000000000000000000000000000000000000000600052603260045260246000fd5b602002602001019060ff16908160ff1681525050600381600481518110611b79577f4e487b7100000000000000000000000000000000000000000000000000000000600052603260045260246000fd5b602002602001019060ff16908160ff1681525050818160329450945094505050909192565b606080600080600567ffffffffffffffff811115611be5577f4e487b7100000000000000000000000000000000000000000000000000000000600052604160045260246000fd5b604051908082528060200260200182016040528015611c135781602001602082028036833780820191505090505b509050611c20603c61170b565b81600081518110611c5a577f4e487b7100000000000000000000000000000000000000000000000000000000600052603260045260246000fd5b602002602001019063ffffffff16908163ffffffff1681525050611c7e605a61170b565b81600181518110611cb8577f4e487b7100000000000000000000000000000000000000000000000000000000600052603260045260246000fd5b602002602001019063ffffffff16908163ffffffff1681525050611cdc607861170b565b81600281518110611d16577f4e487b7100000000000000000000000000000000000000000000000000000000600052603260045260246000fd5b602002602001019063ffffffff16908163ffffffff1681525050611d3a609661170b565b81600381518110611d74577f4e487b7100000000000000000000000000000000000000000000000000000000600052603260045260246000fd5b602002602001019063ffffffff16908163ffffffff1681525050611d9860b461170b565b81600481518110611dd2577f4e487b7100000000000000000000000000000000000000000000000000000000600052603260045260246000fd5b602002602001019063ffffffff16908163ffffffff16815250506000600567ffffffffffffffff811115611e2f577f4e487b7100000000000000000000000000000000000000000000000000000000600052604160045260246000fd5b604051908082528060200260200182016040528015611e5d5781602001602082028036833780820191505090505b509050602881600081518110611e9c577f4e487b7100000000000000000000000000000000000000000000000000000000600052603260045260246000fd5b602002602001019060ff16908160ff1681525050601e81600181518110611eec577f4e487b7100000000000000000000000000000000000000000000000000000000600052603260045260246000fd5b602002602001019060ff16908160ff1681525050601481600281518110611f3c577f4e487b7100000000000000000000000000000000000000000000000000000000600052603260045260246000fd5b602002602001019060ff16908160ff1681525050600781600381518110611f8c577f4e487b7100000000000000000000000000000000000000000000000000000000600052603260045260246000fd5b602002602001019060ff16908160ff1681525050600381600481518110611fdc577f4e487b7100000000000000000000000000000000000000000000000000000000600052603260045260246000fd5b602002602001019060ff16908160ff1681525050818160149450945094505050909192565b606080600080600567ffffffffffffffff811115612048577f4e487b7100000000000000000000000000000000000000000000000000000000600052604160045260246000fd5b6040519080825280602002602001820160405280156120765781602001602082028036833780820191505090505b509050612083601e61170b565b816000815181106120bd577f4e487b7100000000000000000000000000000000000000000000000000000000600052603260045260246000fd5b602002602001019063ffffffff16908163ffffffff16815250506120e1602d61170b565b8160018151811061211b577f4e487b7100000000000000000000000000000000000000000000000000000000600052603260045260246000fd5b602002602001019063ffffffff16908163ffffffff168152505061213f603c61170b565b81600281518110612179577f4e487b7100000000000000000000000000000000000000000000000000000000600052603260045260246000fd5b602002602001019063ffffffff16908163ffffffff168152505061219d604b61170b565b816003815181106121d7577f4e487b7100000000000000000000000000000000000000000000000000000000600052603260045260246000fd5b602002602001019063ffffffff16908163ffffffff16815250506121fb605a61170b565b81600481518110612235577f4e487b7100000000000000000000000000000000000000000000000000000000600052603260045260246000fd5b602002602001019063ffffffff16908163ffffffff16815250506000600567ffffffffffffffff811115612292577f4e487b7100000000000000000000000000000000000000000000000000000000600052604160045260246000fd5b6040519080825280602002602001820160405280156122c05781602001602082028036833780820191505090505b5090506028816000815181106122ff577f4e487b7100000000000000000000000000000000000000000000000000000000600052603260045260246000fd5b602002602001019060ff16908160ff1681525050601e8160018151811061234f577f4e487b7100000000000000000000000000000000000000000000000000000000600052603260045260246000fd5b602002602001019060ff16908160ff168152505060148160028151811061239f577f4e487b7100000000000000000000000000000000000000000000000000000000600052603260045260246000fd5b602002602001019060ff16908160ff16815250506007816003815181106123ef577f4e487b7100000000000000000000000000000000000000000000000000000000600052603260045260246000fd5b602002602001019060ff16908160ff168152505060038160048151811061243f577f4e487b7100000000000000000000000000000000000000000000000000000000600052603260045260246000fd5b602002602001019060ff16908160ff16815250508181600a9450945094505050909192565b600060019054906101000a900460ff168061248a575060008054906101000a900460ff16155b6124c9576040517f08c379a00000000000000000000000000000000000000000000000000000000081526004016124c090613425565b60405180910390fd5b60008060019054906101000a900460ff161590508015612519576001600060016101000a81548160ff02191690831515021790555060016000806101000a81548160ff0219169083151502179055505b801561253a5760008060016101000a81548160ff0219169083151502179055505b50565b600060019054906101000a900460ff1680612563575060008054906101000a900460ff16155b6125a2576040517f08c379a000000000000000000000000000000000000000000000000000000000815260040161259990613425565b60405180910390fd5b60008060019054906101000a900460ff1615905080156125f2576001600060016101000a81548160ff02191690831515021790555060016000806101000a81548160ff0219169083151502179055505b6126026125fd61163d565b611645565b80156126235760008060016101000a81548160ff0219169083151502179055505b50565b600060019054906101000a900460ff168061264c575060008054906101000a900460ff16155b61268b576040517f08c379a000000000000000000000000000000000000000000000000000000000815260040161268290613425565b60405180910390fd5b60008060019054906101000a900460ff1615905080156126db576001600060016101000a81548160ff02191690831515021790555060016000806101000a81548160ff0219169083151502179055505b80156126fc5760008060016101000a81548160ff0219169083151502179055505b50565b600060019054906101000a900460ff1680612725575060008054906101000a900460ff16155b612764576040517f08c379a000000000000000000000000000000000000000000000000000000000815260040161275b90613425565b60405180910390fd5b60008060019054906101000a900460ff1615905080156127b4576001600060016101000a81548160ff02191690831515021790555060016000806101000a81548160ff0219169083151502179055505b80156127d55760008060016101000a81548160ff0219169083151502179055505b50565b6000819050919050565b6127eb816129d8565b61282a576040517f08c379a000000000000000000000000000000000000000000000000000000000815260040161282190613445565b60405180910390fd5b806128577f360894a13ba1a3210667c828492db98dca3e2076cc3735a920a3ca505d382bbc60001b6127d8565b60000160006101000a81548173ffffffffffffffffffffffffffffffffffffffff021916908373ffffffffffffffffffffffffffffffffffffffff16021790555050565b60606128a6836129d8565b6128e5576040517f08c379a00000000000000000000000000000000000000000000000000000000081526004016128dc90613485565b60405180910390fd5b6000808473ffffffffffffffffffffffffffffffffffffffff168460405161290d91906131c9565b600060405180830381855af49150503d8060008114612948576040519150601f19603f3d011682016040523d82523d6000602084013e61294d565b606091505b50915091506129758282604051806060016040528060278152602001613cec602791396129eb565b9250505092915050565b6000819050919050565b612992816127e2565b8073ffffffffffffffffffffffffffffffffffffffff167fbc7cd75a20ee27fd9adebab32041f755214dbc6bffa90cc0225b39da2e5c2d3b60405160405180910390a250565b600080823b905060008111915050919050565b606083156129fb57829050612a4b565b600083511115612a0e5782518084602001fd5b816040517f08c379a0000000000000000000000000000000000000000000000000000000008152600401612a429190613323565b60405180910390fd5b9392505050565b828054612a5e9061386d565b90600052602060002090601f016020900481019282612a805760008555612ac7565b82601f10612a9957805160ff1916838001178555612ac7565b82800160010185558215612ac7579182015b82811115612ac6578251825591602001919060010190612aab565b5b509050612ad49190612ad8565b5090565b5b80821115612af1576000816000905550600101612ad9565b5090565b6000612b08612b038461350e565b6134e9565b90508083825260208201905082856020860282011115612b2757600080fd5b60005b85811015612b575781612b3d8882612bb4565b845260208401935060208301925050600181019050612b2a565b5050509392505050565b6000612b74612b6f8461353a565b6134e9565b905082815260208101848484011115612b8c57600080fd5b612b9784828561382b565b509392505050565b600081359050612bae81613c6a565b92915050565b600081519050612bc381613c6a565b92915050565b600082601f830112612bda57600080fd5b8151612bea848260208601612af5565b91505092915050565b600081519050612c0281613c81565b92915050565b600082601f830112612c1957600080fd5b8135612c29848260208601612b61565b91505092915050565b600081359050612c4181613c98565b92915050565b600081519050612c5681613c98565b92915050565b600081359050612c6b81613caf565b92915050565b600060208284031215612c8357600080fd5b6000612c9184828501612b9f565b91505092915050565b600060208284031215612cac57600080fd5b6000612cba84828501612bb4565b91505092915050565b600080600060608486031215612cd857600080fd5b6000612ce686828701612b9f565b9350506020612cf786828701612b9f565b9250506040612d0886828701612c32565b9150509250925092565b60008060408385031215612d2557600080fd5b6000612d3385828601612b9f565b925050602083013567ffffffffffffffff811115612d5057600080fd5b612d5c85828601612c08565b9150509250929050565b600060208284031215612d7857600080fd5b600082015167ffffffffffffffff811115612d9257600080fd5b612d9e84828501612bc9565b91505092915050565b600060208284031215612db957600080fd5b6000612dc784828501612bf3565b91505092915050565b600060208284031215612de257600080fd5b6000612df084828501612c47565b91505092915050565b600060208284031215612e0b57600080fd5b6000612e1984828501612c5c565b91505092915050565b6000612e2e8383612e6a565b60208301905092915050565b6000612e4683836131ab565b60208301905092915050565b6000612e5e83836131ba565b60208301905092915050565b612e73816137a2565b82525050565b612e82816137a2565b82525050565b6000612e938261359b565b612e9d81856135f9565b9350612ea88361356b565b8060005b83811015612ed9578151612ec08882612e22565b9750612ecb836135d2565b925050600181019050612eac565b5085935050505092915050565b6000612ef1826135a6565b612efb818561360a565b9350612f068361357b565b8060005b83811015612f37578151612f1e8882612e3a565b9750612f29836135df565b925050600181019050612f0a565b5085935050505092915050565b6000612f4f826135b1565b612f59818561361b565b9350612f648361358b565b8060005b83811015612f95578151612f7c8882612e52565b9750612f87836135ec565b925050600181019050612f68565b5085935050505092915050565b6000612fad826135bc565b612fb7818561362c565b9350612fc781856020860161383a565b80840191505092915050565b612fdc81613807565b82525050565b6000612fed826135c7565b612ff78185613637565b935061300781856020860161383a565b6130108161398c565b840191505092915050565b6000613028602f83613637565b91506130338261399d565b604082019050919050565b600061304b602683613637565b9150613056826139ec565b604082019050919050565b600061306e601e83613637565b915061307982613a3b565b602082019050919050565b6000613091602c83613637565b915061309c82613a64565b604082019050919050565b60006130b4601983613637565b91506130bf82613ab3565b602082019050919050565b60006130d7601e83613637565b91506130e282613adc565b602082019050919050565b60006130fa602c83613637565b915061310582613b05565b604082019050919050565b600061311d602e83613637565b915061312882613b54565b604082019050919050565b6000613140602d83613637565b915061314b82613ba3565b604082019050919050565b6000613163602083613637565b915061316e82613bf2565b602082019050919050565b6000613186602683613637565b915061319182613c1b565b604082019050919050565b6131a5816137e0565b82525050565b6131b4816137ea565b82525050565b6131c3816137fa565b82525050565b60006131d58284612fa2565b915081905092915050565b60006020820190506131f56000830184612e79565b92915050565b60006060820190506132106000830186612e79565b61321d6020830185612e79565b61322a604083018461319c565b949350505050565b600060c0820190506132476000830189612e79565b6132546020830188612e79565b613261604083018761319c565b81810360608301526132738186612ee6565b905081810360808301526132878185612f44565b905061329660a083018461319c565b979650505050505050565b60006080820190506132b66000830187612e79565b6132c3602083018661319c565b6132d0604083018561319c565b6132dd606083018461319c565b95945050505050565b600060208201905081810360008301526133008184612e88565b905092915050565b600060208201905061331d6000830184612fd3565b92915050565b6000602082019050818103600083015261333d8184612fe2565b905092915050565b6000602082019050818103600083015261335e8161301b565b9050919050565b6000602082019050818103600083015261337e8161303e565b9050919050565b6000602082019050818103600083015261339e81613061565b9050919050565b600060208201905081810360008301526133be81613084565b9050919050565b600060208201905081810360008301526133de816130a7565b9050919050565b600060208201905081810360008301526133fe816130ca565b9050919050565b6000602082019050818103600083015261341e816130ed565b9050919050565b6000602082019050818103600083015261343e81613110565b9050919050565b6000602082019050818103600083015261345e81613133565b9050919050565b6000602082019050818103600083015261347e81613156565b9050919050565b6000602082019050818103600083015261349e81613179565b9050919050565b60006020820190506134ba600083018461319c565b92915050565b60006040820190506134d5600083018561319c565b6134e2602083018461319c565b9392505050565b60006134f3613504565b90506134ff828261389f565b919050565b6000604051905090565b600067ffffffffffffffff8211156135295761352861395d565b5b602082029050602081019050919050565b600067ffffffffffffffff8211156135555761355461395d565b5b61355e8261398c565b9050602081019050919050565b6000819050602082019050919050565b6000819050602082019050919050565b6000819050602082019050919050565b600081519050919050565b600081519050919050565b600081519050919050565b600081519050919050565b600081519050919050565b6000602082019050919050565b6000602082019050919050565b6000602082019050919050565b600082825260208201905092915050565b600082825260208201905092915050565b600082825260208201905092915050565b600081905092915050565b600082825260208201905092915050565b6000613653826137e0565b915061365e836137e0565b9250827fffffffffffffffffffffffffffffffffffffffffffffffffffffffffffffffff03821115613693576136926138d0565b5b828201905092915050565b60006136a9826137e0565b91506136b4836137e0565b9250826136c4576136c36138ff565b5b828204905092915050565b60006136da826137e0565b91506136e5836137e0565b9250817fffffffffffffffffffffffffffffffffffffffffffffffffffffffffffffffff048311821515161561371e5761371d6138d0565b5b828202905092915050565b6000613734826137ea565b915061373f836137ea565b92508163ffffffff048311821515161561375c5761375b6138d0565b5b828202905092915050565b6000613772826137fa565b915061377d836137fa565b92508160ff0483118215151615613797576137966138d0565b5b828202905092915050565b60006137ad826137c0565b9050919050565b60008115159050919050565b600073ffffffffffffffffffffffffffffffffffffffff82169050919050565b6000819050919050565b600063ffffffff82169050919050565b600060ff82169050919050565b600061381282613819565b9050919050565b6000613824826137c0565b9050919050565b82818337600083830152505050565b60005b8381101561385857808201518184015260208101905061383d565b83811115613867576000848401525b50505050565b6000600282049050600182168061388557607f821691505b602082108114156138995761389861392e565b5b50919050565b6138a88261398c565b810181811067ffffffffffffffff821117156138c7576138c661395d565b5b80604052505050565b7f4e487b7100000000000000000000000000000000000000000000000000000000600052601160045260246000fd5b7f4e487b7100000000000000000000000000000000000000000000000000000000600052601260045260246000fd5b7f4e487b7100000000000000000000000000000000000000000000000000000000600052602260045260246000fd5b7f4e487b7100000000000000000000000000000000000000000000000000000000600052604160045260246000fd5b6000601f19601f8301169050919050565b7f45524331393637557067726164653a207570677261646520627265616b73206660008201527f7572746865722075706772616465730000000000000000000000000000000000602082015250565b7f4f776e61626c653a206e6577206f776e657220697320746865207a65726f206160008201527f6464726573730000000000000000000000000000000000000000000000000000602082015250565b7f4e65656420746f20636f6d706c6574652053616c6520646561646c696e650000600082015250565b7f46756e6374696f6e206d7573742062652063616c6c6564207468726f7567682060008201527f64656c656761746563616c6c0000000000000000000000000000000000000000602082015250565b7f4355503a205452414e534645525f46524f4d5f4641494c454400000000000000600082015250565b7f43555053616c653a20456e64206f662073616c652e20476f6f64627965210000600082015250565b7f46756e6374696f6e206d7573742062652063616c6c6564207468726f7567682060008201527f6163746976652070726f78790000000000000000000000000000000000000000602082015250565b7f496e697469616c697a61626c653a20636f6e747261637420697320616c72656160008201527f647920696e697469616c697a6564000000000000000000000000000000000000602082015250565b7f455243313936373a206e657720696d706c656d656e746174696f6e206973206e60008201527f6f74206120636f6e747261637400000000000000000000000000000000000000602082015250565b7f4f776e61626c653a2063616c6c6572206973206e6f7420746865206f776e6572600082015250565b7f416464726573733a2064656c65676174652063616c6c20746f206e6f6e2d636f60008201527f6e74726163740000000000000000000000000000000000000000000000000000602082015250565b613c73816137a2565b8114613c7e57600080fd5b50565b613c8a816137b4565b8114613c9557600080fd5b50565b613ca1816137e0565b8114613cac57600080fd5b50565b613cb8816137fa565b8114613cc357600080fd5b5056fe7472616e7366657246726f6d28616464726573732c616464726573732c75696e7432353629416464726573733a206c6f772d6c6576656c2064656c65676174652063616c6c206661696c6564a264697066735822122000fc2855a0904b9aacd07135618bb3c9012b1533ba7e7e63c91ca16db6c9c27364736f6c63430008020033",
  "immutableReferences": {
    "612": [
      {
        "length": 32,
        "start": 2253
      },
      {
        "length": 32,
        "start": 2396
      },
      {
        "length": 32,
        "start": 3014
      },
      {
        "length": 32,
        "start": 3157
      }
    ]
  },
  "source": "// SPDX-License-Identifier: MIT\npragma solidity ^0.8.0;\n\nimport \"@openzeppelin/contracts-upgradeable/proxy/utils/Initializable.sol\";\nimport \"@openzeppelin/contracts-upgradeable/proxy/utils/UUPSUpgradeable.sol\";\nimport \"@openzeppelin/contracts-upgradeable/access/OwnableUpgradeable.sol\";\nimport \"@openzeppelin/contracts/utils/math/SafeMath.sol\";\nimport \"./BEP20/IBEP20.sol\";\nimport \"./CUP.sol\";\nimport \"./TokenTimeLock.sol\";\n\ninterface LockFactory {\n    function createBlockWallet(\n        address user_,\n        address token_,\n        uint256 amount_,\n        uint32[] calldata lockDurations_,\n        uint8[] calldata releasePercents_,\n        uint256 startDate_\n    ) external returns (address);\n\n    function getLockWallets(address owner) external view returns (address[] memory);\n}\n\ncontract CUPSale is Initializable, UUPSUpgradeable, OwnableUpgradeable {\n    using SafeMath for uint256;\n    uint256 public deadline;\n    string public name;\n    address public token;\n    LockFactory private lockerFactory;\n    uint public rate;\n    uint256 public totalReward;\n    bytes4 private constant TRANSFER_FROM_SELECTOR = bytes4(keccak256(bytes('transferFrom(address,address,uint256)')));\n\n    event TokensPurchased(\n        address indexed account,\n        address wallet,\n        uint256 amount,\n        uint rate,\n        uint256 reward\n    );\n\n    event TokensSold(\n        uint256 amount,\n        uint256 reward\n    );\n\n    /// @custom:oz-upgrades-unsafe-allow constructor\n    constructor() initializer {}\n\n    function initialize(address token_, address locker_, uint rate_) public initializer {\n        __Ownable_init();\n        __UUPSUpgradeable_init();\n        lockerFactory = LockFactory(locker_);\n        token = token_;\n        rate = rate_;\n        name = \"CUP Sale Contract\";\n        deadline = 0;\n        totalReward = 0;\n    }\n\n    function buyTokens(uint8 lock) public payable {\n        if (deadline > 0) {\n            require(block.timestamp < deadline, \"CUPSale: End of sale. Goodbye!\");\n        }\n        (uint32[] memory lockAmount, uint8[] memory percentRelease, uint256 reward) = releaseStrategy(lock);\n        // Calculate the number of tokens to buy\n        uint256 tokenAmount = msg.value * rate;\n        uint256 rewardAmount = tokenAmount.mul(reward).div(100);\n        tokenAmount = tokenAmount + rewardAmount;\n        totalReward = totalReward + rewardAmount;\n\n        // Transfer tokens to the user\n        require(IBEP20(token).balanceOf(owner()) >= tokenAmount);\n        address lockAddress = LockFactory(lockerFactory).createBlockWallet(msg.sender, token, tokenAmount, lockAmount, percentRelease, block.timestamp);\n\n        _safeTransferFrom(token, owner(), lockAddress, tokenAmount);\n        // Emit an event\n        emit TokensPurchased(msg.sender, lockAddress, tokenAmount, rate, reward);\n    }\n\n    function _safeTransferFrom(address _token, address sender, address recipient, uint value) private {\n        (bool success, bytes memory data) = _token.call(abi.encodeWithSelector(TRANSFER_FROM_SELECTOR, sender, recipient, value));\n        require(success && (data.length == 0 || abi.decode(data, (bool))), 'CUP: TRANSFER_FROM_FAILED');\n    }\n\n    function getWallets() public view returns (address[] memory) {\n        return factory().getLockWallets(msg.sender);\n    }\n\n    function factory() public view returns (LockFactory) {\n        return LockFactory(lockerFactory);\n    }\n\n    function _authorizeUpgrade(address newImplementation) internal override {}\n\n    function daysToSeconds(uint32 day) private pure returns (uint32) {\n        return day * 60 * 60 * 24;\n    }\n\n    function releaseStrategy(uint8 lock) private pure returns (uint32[] memory, uint8[] memory, uint256) {\n        if (lock == 12) {\n            return release12MonthsStrategy();\n        }\n\n        if (lock == 6) {\n            return release6MonthsStrategy();\n        }\n\n        return release3MonthsStrategy();\n    }\n\n    function release12MonthsStrategy() private pure returns (uint32[] memory, uint8[] memory, uint256) {\n        uint32[] memory lockAmount = new uint32[](5);\n        lockAmount[0] = daysToSeconds(30 * 5);\n        lockAmount[1] = daysToSeconds(30 * 7);\n        lockAmount[2] = daysToSeconds(30 * 9);\n        lockAmount[3] = daysToSeconds(30 * 11);\n        lockAmount[4] = daysToSeconds(30 * 12);\n        uint8[] memory percentRelease = new uint8[](5);\n        percentRelease[0] = 40;\n        percentRelease[1] = 30;\n        percentRelease[2] = 20;\n        percentRelease[3] = 7;\n        percentRelease[4] = 3;\n        return (lockAmount, percentRelease, uint256(50));\n    }\n\n    function release6MonthsStrategy() private pure returns (uint32[] memory, uint8[] memory, uint256) {\n        uint32[] memory lockAmount = new uint32[](5);\n        lockAmount[0] = daysToSeconds(30 * 2);\n        lockAmount[1] = daysToSeconds(30 * 3);\n        lockAmount[2] = daysToSeconds(30 * 4);\n        lockAmount[3] = daysToSeconds(30 * 5);\n        lockAmount[4] = daysToSeconds(30 * 6);\n        uint8[] memory percentRelease = new uint8[](5);\n        percentRelease[0] = 40;\n        percentRelease[1] = 30;\n        percentRelease[2] = 20;\n        percentRelease[3] = 7;\n        percentRelease[4] = 3;\n        return (lockAmount, percentRelease, uint256(20));\n    }\n\n    function release3MonthsStrategy() private pure returns (uint32[] memory, uint8[] memory, uint256) {\n        uint32[] memory lockAmount = new uint32[](5);\n        lockAmount[0] = daysToSeconds(15 * 2);\n        lockAmount[1] = daysToSeconds(15 * 3);\n        lockAmount[2] = daysToSeconds(15 * 4);\n        lockAmount[3] = daysToSeconds(15 * 5);\n        lockAmount[4] = daysToSeconds(15 * 6);\n        uint8[] memory percentRelease = new uint8[](5);\n        percentRelease[0] = 40;\n        percentRelease[1] = 30;\n        percentRelease[2] = 20;\n        percentRelease[3] = 7;\n        percentRelease[4] = 3;\n        return (lockAmount, percentRelease, uint256(10));\n    }\n\n    function activeDeadline(uint8 month) public onlyOwner {\n        deadline = block.timestamp + daysToSeconds(30*month);\n    }\n\n    function completeSale() public onlyOwner{\n        require(block.timestamp > deadline, \"Need to complete Sale deadline\");\n        uint256 balance = address(this).balance;\n        emit TokensSold(balance, totalReward);\n        payable(msg.sender).transfer(balance);\n    }\n\n    receive() external payable {\n        buyTokens(12);\n    }\n}\n",
  "sourcePath": "/Users/bean/IdeaProjects/opencoin/contracts/CUPSale.sol",
  "compiler": {
    "name": "solc",
    "version": "0.8.2+commit.661d1103.Emscripten.clang"
  },
  "schemaVersion": "3.4.3",
  "updatedAt": "2021-10-10T05:18:37.426Z",
  "networkType": "ethereum",
  "devdoc": {
    "kind": "dev",
    "methods": {
      "constructor": {
        "custom:oz-upgrades-unsafe-allow": "constructor"
      },
      "owner()": {
        "details": "Returns the address of the current owner."
      },
      "renounceOwnership()": {
        "details": "Leaves the contract without owner. It will not be possible to call `onlyOwner` functions anymore. Can only be called by the current owner. NOTE: Renouncing ownership will leave the contract without an owner, thereby removing any functionality that is only available to the owner."
      },
      "transferOwnership(address)": {
        "details": "Transfers ownership of the contract to a new account (`newOwner`). Can only be called by the current owner."
      },
      "upgradeTo(address)": {
        "details": "Upgrade the implementation of the proxy to `newImplementation`. Calls {_authorizeUpgrade}. Emits an {Upgraded} event."
      },
      "upgradeToAndCall(address,bytes)": {
        "details": "Upgrade the implementation of the proxy to `newImplementation`, and subsequently execute the function call encoded in `data`. Calls {_authorizeUpgrade}. Emits an {Upgraded} event."
      }
    },
    "version": 1
  },
  "userdoc": {
    "kind": "user",
    "methods": {},
    "version": 1
  }
}