{
  "contractName": "TokenTimeLock",
  "abi": [
    {
      "anonymous": false,
      "inputs": [
        {
          "indexed": true,
          "internalType": "address",
          "name": "previousOwner",
          "type": "address"
        },
        {
          "indexed": true,
          "internalType": "address",
          "name": "newOwner",
          "type": "address"
        }
      ],
      "name": "OwnershipTransferred",
      "type": "event"
    },
    {
      "anonymous": false,
      "inputs": [
        {
          "indexed": false,
          "internalType": "uint256",
          "name": "phaseReleasedAmount",
          "type": "uint256"
        },
        {
          "indexed": false,
          "internalType": "uint256",
          "name": "totalReleasedAmount",
          "type": "uint256"
        },
        {
          "indexed": false,
          "internalType": "uint32",
          "name": "fromIdx",
          "type": "uint32"
        },
        {
          "indexed": false,
          "internalType": "uint32",
          "name": "toIdx",
          "type": "uint32"
        },
        {
          "indexed": false,
          "internalType": "uint64",
          "name": "date",
          "type": "uint64"
        }
      ],
      "name": "Released",
      "type": "event"
    },
    {
      "anonymous": false,
      "inputs": [
        {
          "indexed": false,
          "internalType": "uint256",
          "name": "amount",
          "type": "uint256"
        },
        {
          "indexed": false,
          "internalType": "address",
          "name": "to",
          "type": "address"
        },
        {
          "indexed": false,
          "internalType": "uint64",
          "name": "date",
          "type": "uint64"
        }
      ],
      "name": "SafetyReleaseActivated",
      "type": "event"
    },
    {
      "inputs": [],
      "name": "owner",
      "outputs": [
        {
          "internalType": "address",
          "name": "",
          "type": "address"
        }
      ],
      "stateMutability": "view",
      "type": "function",
      "constant": true
    },
    {
      "inputs": [],
      "name": "renounceOwnership",
      "outputs": [],
      "stateMutability": "nonpayable",
      "type": "function"
    },
    {
      "inputs": [
        {
          "internalType": "address",
          "name": "newOwner",
          "type": "address"
        }
      ],
      "name": "transferOwnership",
      "outputs": [],
      "stateMutability": "nonpayable",
      "type": "function"
    },
    {
      "inputs": [],
      "name": "token",
      "outputs": [
        {
          "internalType": "contract BaseERC20",
          "name": "",
          "type": "address"
        }
      ],
      "stateMutability": "view",
      "type": "function",
      "constant": true
    },
    {
      "inputs": [],
      "name": "beneficiary",
      "outputs": [
        {
          "internalType": "address",
          "name": "",
          "type": "address"
        }
      ],
      "stateMutability": "view",
      "type": "function",
      "constant": true
    },
    {
      "inputs": [],
      "name": "amount",
      "outputs": [
        {
          "internalType": "uint256",
          "name": "",
          "type": "uint256"
        }
      ],
      "stateMutability": "view",
      "type": "function",
      "constant": true
    },
    {
      "inputs": [],
      "name": "releasedAmount",
      "outputs": [
        {
          "internalType": "uint256",
          "name": "",
          "type": "uint256"
        }
      ],
      "stateMutability": "view",
      "type": "function",
      "constant": true
    },
    {
      "inputs": [],
      "name": "startDate",
      "outputs": [
        {
          "internalType": "uint256",
          "name": "",
          "type": "uint256"
        }
      ],
      "stateMutability": "view",
      "type": "function",
      "constant": true
    },
    {
      "inputs": [],
      "name": "lockDurations",
      "outputs": [
        {
          "internalType": "uint32[]",
          "name": "",
          "type": "uint32[]"
        }
      ],
      "stateMutability": "view",
      "type": "function",
      "constant": true
    },
    {
      "inputs": [],
      "name": "releasePercents",
      "outputs": [
        {
          "internalType": "uint8[]",
          "name": "",
          "type": "uint8[]"
        }
      ],
      "stateMutability": "view",
      "type": "function",
      "constant": true
    },
    {
      "inputs": [],
      "name": "releaseDates",
      "outputs": [
        {
          "internalType": "uint64[]",
          "name": "",
          "type": "uint64[]"
        }
      ],
      "stateMutability": "view",
      "type": "function",
      "constant": true
    },
    {
      "inputs": [],
      "name": "nextReleaseIdx",
      "outputs": [
        {
          "internalType": "uint32",
          "name": "",
          "type": "uint32"
        }
      ],
      "stateMutability": "view",
      "type": "function",
      "constant": true
    },
    {
      "inputs": [],
      "name": "lockData",
      "outputs": [
        {
          "internalType": "address",
          "name": "user",
          "type": "address"
        },
        {
          "internalType": "address",
          "name": "token_",
          "type": "address"
        },
        {
          "internalType": "uint256",
          "name": "amount_",
          "type": "uint256"
        },
        {
          "internalType": "uint256",
          "name": "releasedAmount_",
          "type": "uint256"
        },
        {
          "internalType": "uint256",
          "name": "startDate_",
          "type": "uint256"
        },
        {
          "internalType": "uint32[]",
          "name": "lockDurations_",
          "type": "uint32[]"
        },
        {
          "internalType": "uint8[]",
          "name": "releasePercents_",
          "type": "uint8[]"
        },
        {
          "internalType": "uint64[]",
          "name": "releaseDates_",
          "type": "uint64[]"
        },
        {
          "internalType": "uint32",
          "name": "nextReleaseIdx_",
          "type": "uint32"
        }
      ],
      "stateMutability": "view",
      "type": "function",
      "constant": true
    },
    {
      "inputs": [
        {
          "internalType": "address",
          "name": "user_",
          "type": "address"
        },
        {
          "internalType": "address",
          "name": "token_",
          "type": "address"
        },
        {
          "internalType": "uint256",
          "name": "amount_",
          "type": "uint256"
        },
        {
          "internalType": "uint32[]",
          "name": "lockDurations_",
          "type": "uint32[]"
        },
        {
          "internalType": "uint8[]",
          "name": "releasePercents_",
          "type": "uint8[]"
        },
        {
          "internalType": "uint256",
          "name": "startDate_",
          "type": "uint256"
        }
      ],
      "name": "initialize",
      "outputs": [
        {
          "internalType": "bool",
          "name": "",
          "type": "bool"
        }
      ],
      "stateMutability": "nonpayable",
      "type": "function"
    },
    {
      "inputs": [],
      "name": "release",
      "outputs": [
        {
          "internalType": "bool",
          "name": "",
          "type": "bool"
        }
      ],
      "stateMutability": "nonpayable",
      "type": "function"
    }
  ],
  "bytecode": "0x608060405234801561001057600080fd5b50612cde806100206000396000f3fe608060405234801561001057600080fd5b50600436106100f55760003560e01c80638da5cb5b11610097578063e090008011610066578063e090008014610242578063f2fde38b14610260578063f8fcd1561461027c578063fc0c546a146102a2576100f5565b80638da5cb5b146101ca578063aa8c217c146101e8578063c00de5fc14610206578063d6ec527014610224576100f5565b806344f2f90a116100d357806344f2f90a1461015457806345d30a1714610184578063715018a6146101a257806386d1a69f146101ac576100f5565b80630b97bc86146100fa5780632a62a4b21461011857806338af3eed14610136575b600080fd5b6101026102c0565b60405161010f9190612460565b60405180910390f35b6101206102ca565b60405161012d9190612286565b60405180910390f35b61013e610348565b60405161014b919061215c565b60405180910390f35b61016e60048036038101906101699190611c33565b610372565b60405161017b91906122a8565b60405180910390f35b61018c6106de565b6040516101999190612460565b60405180910390f35b6101aa6106e8565b005b6101b4610770565b6040516101c191906122a8565b60405180910390f35b6101d2610d88565b6040516101df919061215c565b60405180910390f35b6101f0610db2565b6040516101fd9190612460565b60405180910390f35b61020e610dbc565b60405161021b9190612264565b60405180910390f35b61022c610e48565b60405161023991906124ce565b60405180910390f35b61024a610e62565b6040516102579190612242565b60405180910390f35b61027a60048036038101906102759190611c0a565b610ee6565b005b610284610fde565b60405161029999989796959493929190612177565b60405180910390f35b6102aa61106d565b6040516102b791906122c3565b60405180910390f35b6000606b54905090565b6060606780548060200260200160405190810160405280929190818152602001828054801561033e57602002820191906000526020600020906000905b82829054906101000a900460ff1660ff16815260200190600101906020826000010492830192600103820291508084116103075790505b5050505050905090565b6000606a60009054906101000a900473ffffffffffffffffffffffffffffffffffffffff16905090565b60008060019054906101000a900460ff1680610399575060008054906101000a900460ff16155b6103d8576040517f08c379a00000000000000000000000000000000000000000000000000000000081526004016103cf90612380565b60405180910390fd5b60008060019054906101000a900460ff161590508015610428576001600060016101000a81548160ff02191690831515021790555060016000806101000a81548160ff0219169083151502179055505b610430611097565b848490508787905014610478576040517f08c379a000000000000000000000000000000000000000000000000000000000815260040161046f906123a0565b60405180910390fd5b6000805b868690508110156104f6578686828181106104c0577f4e487b7100000000000000000000000000000000000000000000000000000000600052603260045260246000fd5b90506020020160208101906104d59190611d48565b60ff16826104e391906125c6565b9150806104ef9061281d565b905061047c565b506064811461053a576040517f08c379a0000000000000000000000000000000000000000000000000000000008152600401610531906123e0565b60405180910390fd5b8a606a60006101000a81548173ffffffffffffffffffffffffffffffffffffffff021916908373ffffffffffffffffffffffffffffffffffffffff16021790555089606c60046101000a81548173ffffffffffffffffffffffffffffffffffffffff021916908373ffffffffffffffffffffffffffffffffffffffff16021790555083606b819055508787606691906105d49291906118d4565b508585606791906105e692919061198a565b508860688190555060006069819055506000606c60006101000a81548163ffffffff021916908363ffffffff16021790555060668054905067ffffffffffffffff81111561065d577f4e487b7100000000000000000000000000000000000000000000000000000000600052604160045260246000fd5b60405190808252806020026020018201604052801561068b5781602001602082028036833780820191505090505b50606590805190602001906106a1929190611a34565b506106ab8b610ee6565b600192505080156106d15760008060016101000a81548160ff0219169083151502179055505b5098975050505050505050565b6000606954905090565b6106f0611180565b73ffffffffffffffffffffffffffffffffffffffff1661070e610d88565b73ffffffffffffffffffffffffffffffffffffffff1614610764576040517f08c379a000000000000000000000000000000000000000000000000000000000815260040161075b906123c0565b60405180910390fd5b61076e6000611188565b565b600061077a611180565b73ffffffffffffffffffffffffffffffffffffffff16610798610d88565b73ffffffffffffffffffffffffffffffffffffffff16146107ee576040517f08c379a00000000000000000000000000000000000000000000000000000000081526004016107e5906123c0565b60405180910390fd5b6000606680549050905080606c60009054906101000a900463ffffffff1663ffffffff1610610852576040517f08c379a000000000000000000000000000000000000000000000000000000000815260040161084990612300565b60405180910390fd5b60016066606c60009054906101000a900463ffffffff1663ffffffff16815481106108a6577f4e487b7100000000000000000000000000000000000000000000000000000000600052603260045260246000fd5b90600052602060002090600891828204019190066004029054906101000a900463ffffffff166108d691906126a7565b63ffffffff16606b546108e991906125c6565b42101561092b576040517f08c379a000000000000000000000000000000000000000000000000000000000815260040161092290612400565b60405180910390fd5b6000606c60009054906101000a900463ffffffff1663ffffffff16905060005b82606c60009054906101000a900463ffffffff1663ffffffff16108015610a08575060016066606c60009054906101000a900463ffffffff1663ffffffff16815481106109c1577f4e487b7100000000000000000000000000000000000000000000000000000000600052603260045260246000fd5b90600052602060002090600891828204019190066004029054906101000a900463ffffffff166109f191906126a7565b63ffffffff16606b54610a0491906125c6565b4210155b15610b41576000600184610a1c91906126e5565b606c60009054906101000a900463ffffffff1663ffffffff161415610a5d5781606954606854610a4c91906126e5565b610a5691906126e5565b9050610aec565b610ae96067606c60009054906101000a900463ffffffff1663ffffffff1681548110610ab2577f4e487b7100000000000000000000000000000000000000000000000000000000600052603260045260246000fd5b90600052602060002090602091828204019190069054906101000a900460ff1660ff16606460685461124e9092919063ffffffff16565b90505b8082610af891906125c6565b9150606c600081819054906101000a900463ffffffff1680929190610b1c90612866565b91906101000a81548163ffffffff021916908363ffffffff160217905550505061094b565b6000610b4b61106d565b73ffffffffffffffffffffffffffffffffffffffff166370a08231306040518263ffffffff1660e01b8152600401610b83919061215c565b60206040518083038186803b158015610b9b57600080fd5b505afa158015610baf573d6000803e3d6000fd5b505050506040513d601f19601f82011682018060405250810190610bd39190611d1f565b905081811015610c18576040517f08c379a0000000000000000000000000000000000000000000000000000000008152600401610c0f90612420565b60405180910390fd5b8160696000828254610c2a91906125c6565b92505081905550610c6a610c3c610348565b83610c4561106d565b73ffffffffffffffffffffffffffffffffffffffff166113c79092919063ffffffff16565b600042905060008490505b606c60009054906101000a900463ffffffff1663ffffffff16811015610d1c578160658281548110610cd0577f4e487b7100000000000000000000000000000000000000000000000000000000600052603260045260246000fd5b90600052602060002090600491828204019190066008026101000a81548167ffffffffffffffff021916908367ffffffffffffffff16021790555080610d159061281d565b9050610c75565b507f76264100b4b20aa06c294636c2e40aaf398c3490112488330659f4577010713f83606954866001606c60009054906101000a900463ffffffff16610d629190612719565b85604051610d7495949392919061247b565b60405180910390a160019550505050505090565b6000603360009054906101000a900473ffffffffffffffffffffffffffffffffffffffff16905090565b6000606854905090565b60606065805480602002602001604051908101604052809291908181526020018280548015610e3e57602002820191906000526020600020906000905b82829054906101000a900467ffffffffffffffff1667ffffffffffffffff1681526020019060080190602082600701049283019260010382029150808411610df95790505b5050505050905090565b6000606c60009054906101000a900463ffffffff16905090565b60606066805480602002602001604051908101604052809291908181526020018280548015610edc57602002820191906000526020600020906000905b82829054906101000a900463ffffffff1663ffffffff1681526020019060040190602082600301049283019260010382029150808411610e9f5790505b5050505050905090565b610eee611180565b73ffffffffffffffffffffffffffffffffffffffff16610f0c610d88565b73ffffffffffffffffffffffffffffffffffffffff1614610f62576040517f08c379a0000000000000000000000000000000000000000000000000000000008152600401610f59906123c0565b60405180910390fd5b600073ffffffffffffffffffffffffffffffffffffffff168173ffffffffffffffffffffffffffffffffffffffff161415610fd2576040517f08c379a0000000000000000000000000000000000000000000000000000000008152600401610fc990612340565b60405180910390fd5b610fdb81611188565b50565b600080600080600060608060606000610ff5610348565b606c60049054906101000a900473ffffffffffffffffffffffffffffffffffffffff16611020610db2565b6110286106de565b6110306102c0565b611038610e62565b6110406102ca565b611048610dbc565b611050610e48565b985098509850985098509850985098509850909192939495969798565b6000606c60049054906101000a900473ffffffffffffffffffffffffffffffffffffffff16905090565b600060019054906101000a900460ff16806110bd575060008054906101000a900460ff16155b6110fc576040517f08c379a00000000000000000000000000000000000000000000000000000000081526004016110f390612380565b60405180910390fd5b60008060019054906101000a900460ff16159050801561114c576001600060016101000a81548160ff02191690831515021790555060016000806101000a81548160ff0219169083151502179055505b61115461144d565b61115c611526565b801561117d5760008060016101000a81548160ff0219169083151502179055505b50565b600033905090565b6000603360009054906101000a900473ffffffffffffffffffffffffffffffffffffffff16905081603360006101000a81548173ffffffffffffffffffffffffffffffffffffffff021916908373ffffffffffffffffffffffffffffffffffffffff1602179055508173ffffffffffffffffffffffffffffffffffffffff168173ffffffffffffffffffffffffffffffffffffffff167f8be0079c531659141344cd1fd0a4f28419497f9722a3daafe3b4186f6b6457e060405160405180910390a35050565b600080611276836fffffffffffffffffffffffffffffffff168661160f90919063ffffffff16565b9050600061129f846fffffffffffffffffffffffffffffffff168761162590919063ffffffff16565b905060006112c8856fffffffffffffffffffffffffffffffff168761160f90919063ffffffff16565b905060006112f1866fffffffffffffffffffffffffffffffff168861162590919063ffffffff16565b90506113ba611375611330886fffffffffffffffffffffffffffffffff16611322858861163b90919063ffffffff16565b61160f90919063ffffffff16565b611367611346868861163b90919063ffffffff16565b611359868a61163b90919063ffffffff16565b61165190919063ffffffff16565b61165190919063ffffffff16565b6113ac886fffffffffffffffffffffffffffffffff1661139e868961163b90919063ffffffff16565b61163b90919063ffffffff16565b61165190919063ffffffff16565b9450505050509392505050565b6114488363a9059cbb60e01b84846040516024016113e6929190612219565b604051602081830303815290604052907bffffffffffffffffffffffffffffffffffffffffffffffffffffffff19166020820180517bffffffffffffffffffffffffffffffffffffffffffffffffffffffff8381831617835250505050611667565b505050565b600060019054906101000a900460ff1680611473575060008054906101000a900460ff16155b6114b2576040517f08c379a00000000000000000000000000000000000000000000000000000000081526004016114a990612380565b60405180910390fd5b60008060019054906101000a900460ff161590508015611502576001600060016101000a81548160ff02191690831515021790555060016000806101000a81548160ff0219169083151502179055505b80156115235760008060016101000a81548160ff0219169083151502179055505b50565b600060019054906101000a900460ff168061154c575060008054906101000a900460ff16155b61158b576040517f08c379a000000000000000000000000000000000000000000000000000000000815260040161158290612380565b60405180910390fd5b60008060019054906101000a900460ff1615905080156115db576001600060016101000a81548160ff02191690831515021790555060016000806101000a81548160ff0219169083151502179055505b6115eb6115e6611180565b611188565b801561160c5760008060016101000a81548160ff0219169083151502179055505b50565b6000818361161d919061261c565b905092915050565b600081836116339190612893565b905092915050565b60008183611649919061264d565b905092915050565b6000818361165f91906125c6565b905092915050565b60006116c9826040518060400160405280602081526020017f5361666542455032303a206c6f772d6c6576656c2063616c6c206661696c65648152508573ffffffffffffffffffffffffffffffffffffffff1661172e9092919063ffffffff16565b905060008151111561172957808060200190518101906116e99190611cf6565b611728576040517f08c379a000000000000000000000000000000000000000000000000000000000815260040161171f90612320565b60405180910390fd5b5b505050565b606061173d8484600085611746565b90509392505050565b60608247101561178b576040517f08c379a000000000000000000000000000000000000000000000000000000000815260040161178290612360565b60405180910390fd5b6117948561185a565b6117d3576040517f08c379a00000000000000000000000000000000000000000000000000000000081526004016117ca90612440565b60405180910390fd5b6000808673ffffffffffffffffffffffffffffffffffffffff1685876040516117fc9190612145565b60006040518083038185875af1925050503d8060008114611839576040519150601f19603f3d011682016040523d82523d6000602084013e61183e565b606091505b509150915061184e82828661186d565b92505050949350505050565b600080823b905060008111915050919050565b6060831561187d578290506118cd565b6000835111156118905782518084602001fd5b816040517f08c379a00000000000000000000000000000000000000000000000000000000081526004016118c491906122de565b60405180910390fd5b9392505050565b828054828255906000526020600020906007016008900481019282156119795791602002820160005b8382111561194757833563ffffffff1683826101000a81548163ffffffff021916908363ffffffff16021790555092602001926004016020816003010492830192600103026118fd565b80156119775782816101000a81549063ffffffff0219169055600401602081600301049283019260010302611947565b505b5090506119869190611af0565b5090565b82805482825590600052602060002090601f01602090048101928215611a235791602002820160005b838211156119f457833560ff1683826101000a81548160ff021916908360ff16021790555092602001926001016020816000010492830192600103026119b3565b8015611a215782816101000a81549060ff02191690556001016020816000010492830192600103026119f4565b505b509050611a309190611af0565b5090565b82805482825590600052602060002090600301600490048101928215611adf5791602002820160005b83821115611aa957835183826101000a81548167ffffffffffffffff021916908367ffffffffffffffff1602179055509260200192600801602081600701049283019260010302611a5d565b8015611add5782816101000a81549067ffffffffffffffff0219169055600801602081600701049283019260010302611aa9565b505b509050611aec9190611af0565b5090565b5b80821115611b09576000816000905550600101611af1565b5090565b600081359050611b1c81612c4c565b92915050565b60008083601f840112611b3457600080fd5b8235905067ffffffffffffffff811115611b4d57600080fd5b602083019150836020820283011115611b6557600080fd5b9250929050565b60008083601f840112611b7e57600080fd5b8235905067ffffffffffffffff811115611b9757600080fd5b602083019150836020820283011115611baf57600080fd5b9250929050565b600081519050611bc581612c63565b92915050565b600081359050611bda81612c7a565b92915050565b600081519050611bef81612c7a565b92915050565b600081359050611c0481612c91565b92915050565b600060208284031215611c1c57600080fd5b6000611c2a84828501611b0d565b91505092915050565b60008060008060008060008060c0898b031215611c4f57600080fd5b6000611c5d8b828c01611b0d565b9850506020611c6e8b828c01611b0d565b9750506040611c7f8b828c01611bcb565b965050606089013567ffffffffffffffff811115611c9c57600080fd5b611ca88b828c01611b22565b9550955050608089013567ffffffffffffffff811115611cc757600080fd5b611cd38b828c01611b6c565b935093505060a0611ce68b828c01611bcb565b9150509295985092959890939650565b600060208284031215611d0857600080fd5b6000611d1684828501611bb6565b91505092915050565b600060208284031215611d3157600080fd5b6000611d3f84828501611be0565b91505092915050565b600060208284031215611d5a57600080fd5b6000611d6884828501611bf5565b91505092915050565b6000611d7d83836120fa565b60208301905092915050565b6000611d958383612118565b60208301905092915050565b6000611dad8383612136565b60208301905092915050565b611dc28161274d565b82525050565b6000611dd382612519565b611ddd8185612577565b9350611de8836124e9565b8060005b83811015611e19578151611e008882611d71565b9750611e0b83612550565b925050600181019050611dec565b5085935050505092915050565b6000611e3182612524565b611e3b8185612588565b9350611e46836124f9565b8060005b83811015611e77578151611e5e8882611d89565b9750611e698361255d565b925050600181019050611e4a565b5085935050505092915050565b6000611e8f8261252f565b611e998185612599565b9350611ea483612509565b8060005b83811015611ed5578151611ebc8882611da1565b9750611ec78361256a565b925050600181019050611ea8565b5085935050505092915050565b611eeb8161275f565b82525050565b6000611efc8261253a565b611f0681856125aa565b9350611f168185602086016127ea565b80840191505092915050565b611f2b816127c6565b82525050565b6000611f3c82612545565b611f4681856125b5565b9350611f568185602086016127ea565b611f5f81612922565b840191505092915050565b6000611f776026836125b5565b9150611f8282612933565b604082019050919050565b6000611f9a602a836125b5565b9150611fa582612982565b604082019050919050565b6000611fbd6026836125b5565b9150611fc8826129d1565b604082019050919050565b6000611fe06026836125b5565b9150611feb82612a20565b604082019050919050565b6000612003602e836125b5565b915061200e82612a6f565b604082019050919050565b60006120266026836125b5565b915061203182612abe565b604082019050919050565b60006120496020836125b5565b915061205482612b0d565b602082019050919050565b600061206c602b836125b5565b915061207782612b36565b604082019050919050565b600061208f6025836125b5565b915061209a82612b85565b604082019050919050565b60006120b26023836125b5565b91506120bd82612bd4565b604082019050919050565b60006120d5601d836125b5565b91506120e082612c23565b602082019050919050565b6120f48161278b565b82525050565b61210381612795565b82525050565b61211281612795565b82525050565b612121816127a5565b82525050565b612130816127a5565b82525050565b61213f816127b9565b82525050565b60006121518284611ef1565b915081905092915050565b60006020820190506121716000830184611db9565b92915050565b60006101208201905061218d600083018c611db9565b61219a602083018b611db9565b6121a7604083018a6120eb565b6121b460608301896120eb565b6121c160808301886120eb565b81810360a08301526121d38187611dc8565b905081810360c08301526121e78186611e84565b905081810360e08301526121fb8185611e26565b905061220b610100830184612109565b9a9950505050505050505050565b600060408201905061222e6000830185611db9565b61223b60208301846120eb565b9392505050565b6000602082019050818103600083015261225c8184611dc8565b905092915050565b6000602082019050818103600083015261227e8184611e26565b905092915050565b600060208201905081810360008301526122a08184611e84565b905092915050565b60006020820190506122bd6000830184611ee2565b92915050565b60006020820190506122d86000830184611f22565b92915050565b600060208201905081810360008301526122f88184611f31565b905092915050565b6000602082019050818103600083015261231981611f6a565b9050919050565b6000602082019050818103600083015261233981611f8d565b9050919050565b6000602082019050818103600083015261235981611fb0565b9050919050565b6000602082019050818103600083015261237981611fd3565b9050919050565b6000602082019050818103600083015261239981611ff6565b9050919050565b600060208201905081810360008301526123b981612019565b9050919050565b600060208201905081810360008301526123d98161203c565b9050919050565b600060208201905081810360008301526123f98161205f565b9050919050565b6000602082019050818103600083015261241981612082565b9050919050565b60006020820190508181036000830152612439816120a5565b9050919050565b60006020820190508181036000830152612459816120c8565b9050919050565b600060208201905061247560008301846120eb565b92915050565b600060a08201905061249060008301886120eb565b61249d60208301876120eb565b6124aa6040830186612109565b6124b76060830185612109565b6124c46080830184612127565b9695505050505050565b60006020820190506124e36000830184612109565b92915050565b6000819050602082019050919050565b6000819050602082019050919050565b6000819050602082019050919050565b600081519050919050565b600081519050919050565b600081519050919050565b600081519050919050565b600081519050919050565b6000602082019050919050565b6000602082019050919050565b6000602082019050919050565b600082825260208201905092915050565b600082825260208201905092915050565b600082825260208201905092915050565b600081905092915050565b600082825260208201905092915050565b60006125d18261278b565b91506125dc8361278b565b9250827fffffffffffffffffffffffffffffffffffffffffffffffffffffffffffffffff03821115612611576126106128c4565b5b828201905092915050565b60006126278261278b565b91506126328361278b565b925082612642576126416128f3565b5b828204905092915050565b60006126588261278b565b91506126638361278b565b9250817fffffffffffffffffffffffffffffffffffffffffffffffffffffffffffffffff048311821515161561269c5761269b6128c4565b5b828202905092915050565b60006126b282612795565b91506126bd83612795565b92508163ffffffff04831182151516156126da576126d96128c4565b5b828202905092915050565b60006126f08261278b565b91506126fb8361278b565b92508282101561270e5761270d6128c4565b5b828203905092915050565b600061272482612795565b915061272f83612795565b925082821015612742576127416128c4565b5b828203905092915050565b60006127588261276b565b9050919050565b60008115159050919050565b600073ffffffffffffffffffffffffffffffffffffffff82169050919050565b6000819050919050565b600063ffffffff82169050919050565b600067ffffffffffffffff82169050919050565b600060ff82169050919050565b60006127d1826127d8565b9050919050565b60006127e38261276b565b9050919050565b60005b838110156128085780820151818401526020810190506127ed565b83811115612817576000848401525b50505050565b60006128288261278b565b91507fffffffffffffffffffffffffffffffffffffffffffffffffffffffffffffffff82141561285b5761285a6128c4565b5b600182019050919050565b600061287182612795565b915063ffffffff821415612888576128876128c4565b5b600182019050919050565b600061289e8261278b565b91506128a98361278b565b9250826128b9576128b86128f3565b5b828206905092915050565b7f4e487b7100000000000000000000000000000000000000000000000000000000600052601160045260246000fd5b7f4e487b7100000000000000000000000000000000000000000000000000000000600052601260045260246000fd5b6000601f19601f8301169050919050565b7f546f6b656e54696d654c6f636b3a20616c6c207068617365732061726520726560008201527f6c65617365640000000000000000000000000000000000000000000000000000602082015250565b7f5361666542455032303a204245503230206f7065726174696f6e20646964206e60008201527f6f74207375636365656400000000000000000000000000000000000000000000602082015250565b7f4f776e61626c653a206e6577206f776e657220697320746865207a65726f206160008201527f6464726573730000000000000000000000000000000000000000000000000000602082015250565b7f416464726573733a20696e73756666696369656e742062616c616e636520666f60008201527f722063616c6c0000000000000000000000000000000000000000000000000000602082015250565b7f496e697469616c697a61626c653a20636f6e747261637420697320616c72656160008201527f647920696e697469616c697a6564000000000000000000000000000000000000602082015250565b7f546f6b656e54696d654c6f636b3a20756e6c6f636b206c656e677468206e6f7460008201527f206d617463680000000000000000000000000000000000000000000000000000602082015250565b7f4f776e61626c653a2063616c6c6572206973206e6f7420746865206f776e6572600082015250565b7f546f6b656e54696d654c6f636b3a20756e6c6f636b2070657263656e74206e6f60008201527f74206d6174636820313030000000000000000000000000000000000000000000602082015250565b7f546f6b656e54696d654c6f636b3a206e65787420706861736520756e6176616960008201527f6c61626c65000000000000000000000000000000000000000000000000000000602082015250565b7f546f6b656e54696d654c6f636b3a20696e73756666696369656e742062616c6160008201527f6e63650000000000000000000000000000000000000000000000000000000000602082015250565b7f416464726573733a2063616c6c20746f206e6f6e2d636f6e7472616374000000600082015250565b612c558161274d565b8114612c6057600080fd5b50565b612c6c8161275f565b8114612c7757600080fd5b50565b612c838161278b565b8114612c8e57600080fd5b50565b612c9a816127b9565b8114612ca557600080fd5b5056fea26469706673582212202bd151d3e7e1ab6499aeba36665bb988446b21c1ea6d75cfefb279ddf52e4fd264736f6c63430008020033",
  "immutableReferences": {},
  "source": "// SPDX-License-Identifier: MIT\npragma solidity ^0.8.0;\n\nimport \"@openzeppelin/contracts-upgradeable/access/OwnableUpgradeable.sol\";\nimport \"./math/SafeMathX.sol\";\nimport \"./BEP20/SafeBEP20.sol\";\nimport \"./BEP20/BaseERC20.sol\";\n\ncontract TokenTimeLock is OwnableUpgradeable {\n    using SafeBEP20 for BaseERC20;\n    using SafeMathX for uint256;\n\n    // Release date that user initiates a release of each phase\n    uint64[] private _releaseDates;\n\n    // Lock duration (in seconds) of each phase\n    uint32[] private _lockDurations;\n\n    // Release percent of each phase\n    uint8[] private _releasePercents;\n\n    // Total locked tokens\n    uint256 private _amount;\n\n    // Total released amount to user\n    uint256 private _releasedAmount;\n\n    // Beneficiary\n    address private _user;\n\n    // Start date of the lock\n    uint256 private _startDate;\n\n    // Next release phase\n    uint32 private _nextReleaseIdx;\n\n    // Token address\n    address private _token;\n\n    event Released(\n        uint256 phaseReleasedAmount,\n        uint256 totalReleasedAmount,\n        uint32 fromIdx,\n        uint32 toIdx,\n        uint64 date\n    );\n\n    event SafetyReleaseActivated(uint256 amount, address to, uint64 date);\n\n    function token() public view returns (BaseERC20) {\n        return BaseERC20(_token);\n    }\n\n    function beneficiary() public view returns (address) {\n        return _user;\n    }\n\n    function amount() public view returns (uint256) {\n        return _amount;\n    }\n\n    function releasedAmount() public view returns (uint256) {\n        return _releasedAmount;\n    }\n\n    function startDate() public view returns (uint256) {\n        return _startDate;\n    }\n\n    function lockDurations() public view returns (uint32[] memory) {\n        return _lockDurations;\n    }\n\n    function releasePercents() public view returns (uint8[] memory) {\n        return _releasePercents;\n    }\n\n    function releaseDates() public view returns (uint64[] memory) {\n        return _releaseDates;\n    }\n\n    function nextReleaseIdx() public view returns (uint32) {\n        return _nextReleaseIdx;\n    }\n\n    function lockData()\n    public\n    view\n    returns (\n        address user,\n        address token_,\n        uint256 amount_,\n        uint256 releasedAmount_,\n        uint256 startDate_,\n        uint32[] memory lockDurations_,\n        uint8[] memory releasePercents_,\n        uint64[] memory releaseDates_,\n        uint32 nextReleaseIdx_\n    )\n    {\n        return (\n        beneficiary(),\n        _token,\n        amount(),\n        releasedAmount(),\n        startDate(),\n        lockDurations(),\n        releasePercents(),\n        releaseDates(),\n        nextReleaseIdx()\n        );\n    }\n\n    function initialize(\n        address user_,\n        address token_,\n        uint256 amount_,\n        uint32[] calldata lockDurations_,\n        uint8[] calldata releasePercents_,\n        uint256 startDate_\n    ) public initializer returns (bool) {\n        __Ownable_init();\n        require(\n            lockDurations_.length == releasePercents_.length,\n            \"TokenTimeLock: unlock length not match\"\n        );\n\n        uint256 _sum = 0;\n        for (uint256 i = 0; i < releasePercents_.length; ++i) {\n            _sum += releasePercents_[i];\n        }\n\n        require(_sum == 100, \"TokenTimeLock: unlock percent not match 100\");\n\n        _user = user_;\n        _token = token_;\n        _startDate = startDate_;\n        _lockDurations = lockDurations_;\n        _releasePercents = releasePercents_;\n        _amount = amount_;\n        _releasedAmount = 0;\n        _nextReleaseIdx = 0;\n        _releaseDates = new uint64[](_lockDurations.length);\n\n        transferOwnership(user_);\n\n        return true;\n    }\n\n    function release() onlyOwner public returns (bool) {\n        uint256 numOfPhases = _lockDurations.length;\n\n        require(\n            _nextReleaseIdx < numOfPhases,\n            \"TokenTimeLock: all phases are released\"\n        );\n        require(\n            block.timestamp >=\n            _startDate + _lockDurations[_nextReleaseIdx] * 1 seconds,\n            \"TokenTimeLock: next phase unavailable\"\n        );\n\n        uint256 prevReleaseIdx = _nextReleaseIdx;\n\n        uint256 availableReleaseAmount = 0;\n        while (\n            _nextReleaseIdx < numOfPhases &&\n            block.timestamp >=\n            _startDate + _lockDurations[_nextReleaseIdx] * 1 seconds\n        ) {\n            uint256 stepReleaseAmount = 0;\n            if (_nextReleaseIdx == numOfPhases - 1) {\n                stepReleaseAmount =\n                _amount -\n                _releasedAmount -\n                availableReleaseAmount;\n            } else {\n                stepReleaseAmount = _amount.mulScale(\n                    _releasePercents[_nextReleaseIdx],\n                    100\n                );\n            }\n\n            availableReleaseAmount += stepReleaseAmount;\n            _nextReleaseIdx++;\n        }\n\n        uint256 balance = token().balanceOf(address(this));\n        require(\n            balance >= availableReleaseAmount,\n            \"TokenTimeLock: insufficient balance\"\n        );\n        _releasedAmount += availableReleaseAmount;\n        token().safeTransfer(beneficiary(), availableReleaseAmount);\n\n        uint64 releaseDate = uint64(block.timestamp);\n\n        for (uint256 i = prevReleaseIdx; i < _nextReleaseIdx; ++i) {\n            _releaseDates[i] = releaseDate;\n        }\n\n        emit Released(\n            availableReleaseAmount,\n            _releasedAmount,\n            uint32(prevReleaseIdx),\n            _nextReleaseIdx - 1,\n            releaseDate\n        );\n\n        return true;\n    }\n}\n",
  "sourcePath": "/Users/bean/WebstormProjects/cup-contracts/contracts/TokenTimeLock.sol",
  "compiler": {
    "name": "solc",
    "version": "0.8.2+commit.661d1103.Emscripten.clang"
  },
  "schemaVersion": "3.4.3",
  "updatedAt": "2021-10-15T13:04:37.877Z",
  "networkType": "ethereum",
  "devdoc": {
    "kind": "dev",
    "methods": {
      "owner()": {
        "details": "Returns the address of the current owner."
      },
      "renounceOwnership()": {
        "details": "Leaves the contract without owner. It will not be possible to call `onlyOwner` functions anymore. Can only be called by the current owner. NOTE: Renouncing ownership will leave the contract without an owner, thereby removing any functionality that is only available to the owner."
      },
      "transferOwnership(address)": {
        "details": "Transfers ownership of the contract to a new account (`newOwner`). Can only be called by the current owner."
      }
    },
    "version": 1
  },
  "userdoc": {
    "kind": "user",
    "methods": {},
    "version": 1
  }
}