{
  "contractName": "TokenTimeLockProxyFactory",
  "abi": [
    {
      "anonymous": false,
      "inputs": [
        {
          "indexed": false,
          "internalType": "address",
          "name": "previousAdmin",
          "type": "address"
        },
        {
          "indexed": false,
          "internalType": "address",
          "name": "newAdmin",
          "type": "address"
        }
      ],
      "name": "AdminChanged",
      "type": "event"
    },
    {
      "anonymous": false,
      "inputs": [
        {
          "indexed": true,
          "internalType": "address",
          "name": "beacon",
          "type": "address"
        }
      ],
      "name": "BeaconUpgraded",
      "type": "event"
    },
    {
      "anonymous": false,
      "inputs": [
        {
          "indexed": true,
          "internalType": "address",
          "name": "previousOwner",
          "type": "address"
        },
        {
          "indexed": true,
          "internalType": "address",
          "name": "newOwner",
          "type": "address"
        }
      ],
      "name": "OwnershipTransferred",
      "type": "event"
    },
    {
      "anonymous": false,
      "inputs": [
        {
          "indexed": true,
          "internalType": "address",
          "name": "implementation",
          "type": "address"
        }
      ],
      "name": "Upgraded",
      "type": "event"
    },
    {
      "inputs": [],
      "name": "owner",
      "outputs": [
        {
          "internalType": "address",
          "name": "",
          "type": "address"
        }
      ],
      "stateMutability": "view",
      "type": "function",
      "constant": true
    },
    {
      "inputs": [],
      "name": "renounceOwnership",
      "outputs": [],
      "stateMutability": "nonpayable",
      "type": "function"
    },
    {
      "inputs": [
        {
          "internalType": "address",
          "name": "newOwner",
          "type": "address"
        }
      ],
      "name": "transferOwnership",
      "outputs": [],
      "stateMutability": "nonpayable",
      "type": "function"
    },
    {
      "inputs": [
        {
          "internalType": "address",
          "name": "newImplementation",
          "type": "address"
        }
      ],
      "name": "upgradeTo",
      "outputs": [],
      "stateMutability": "nonpayable",
      "type": "function"
    },
    {
      "inputs": [
        {
          "internalType": "address",
          "name": "newImplementation",
          "type": "address"
        },
        {
          "internalType": "bytes",
          "name": "data",
          "type": "bytes"
        }
      ],
      "name": "upgradeToAndCall",
      "outputs": [],
      "stateMutability": "payable",
      "type": "function",
      "payable": true
    },
    {
      "stateMutability": "payable",
      "type": "receive",
      "payable": true
    },
    {
      "inputs": [
        {
          "internalType": "address",
          "name": "_masterContract",
          "type": "address"
        }
      ],
      "name": "initialize",
      "outputs": [],
      "stateMutability": "nonpayable",
      "type": "function"
    },
    {
      "inputs": [
        {
          "internalType": "address",
          "name": "user_",
          "type": "address"
        },
        {
          "internalType": "address",
          "name": "token_",
          "type": "address"
        },
        {
          "internalType": "uint256",
          "name": "amount_",
          "type": "uint256"
        },
        {
          "internalType": "uint32[]",
          "name": "lockDurations_",
          "type": "uint32[]"
        },
        {
          "internalType": "uint8[]",
          "name": "releasePercents_",
          "type": "uint8[]"
        },
        {
          "internalType": "uint256",
          "name": "startDate_",
          "type": "uint256"
        }
      ],
      "name": "createBlockWallet",
      "outputs": [
        {
          "internalType": "address",
          "name": "",
          "type": "address"
        }
      ],
      "stateMutability": "nonpayable",
      "type": "function"
    },
    {
      "inputs": [
        {
          "internalType": "address",
          "name": "owner_",
          "type": "address"
        }
      ],
      "name": "getLockWallets",
      "outputs": [
        {
          "internalType": "address[]",
          "name": "",
          "type": "address[]"
        }
      ],
      "stateMutability": "view",
      "type": "function",
      "constant": true
    }
  ],
  "bytecode": "0x60a06040523073ffffffffffffffffffffffffffffffffffffffff1660809073ffffffffffffffffffffffffffffffffffffffff1660601b81525034801561004657600080fd5b5060805160601c61256e61007a600039600081816101e3015281816102720152818161055001526105df015261256e6000f3fe60806040526004361061007f5760003560e01c80638da5cb5b1161004e5780638da5cb5b14610127578063c4d66de814610152578063f2fde38b1461017b578063fe2b0cd1146101a457610089565b80633659cfe61461008e578063420790c0146100b75780634f1ef286146100f4578063715018a61461011057610089565b3661008957600080fd5b600080fd5b34801561009a57600080fd5b506100b560048036038101906100b0919061180c565b6101e1565b005b3480156100c357600080fd5b506100de60048036038101906100d99190611835565b610390565b6040516100eb9190611d22565b60405180910390f35b61010e600480360381019061010991906118f8565b61054e565b005b34801561011c57600080fd5b5061012561068b565b005b34801561013357600080fd5b5061013c610713565b6040516101499190611d22565b60405180910390f35b34801561015e57600080fd5b506101796004803603810190610174919061180c565b61073d565b005b34801561018757600080fd5b506101a2600480360381019061019d919061180c565b6108d8565b005b3480156101b057600080fd5b506101cb60048036038101906101c6919061180c565b6109d0565b6040516101d89190611db0565b60405180910390f35b7f000000000000000000000000000000000000000000000000000000000000000073ffffffffffffffffffffffffffffffffffffffff163073ffffffffffffffffffffffffffffffffffffffff161415610270576040517f08c379a000000000000000000000000000000000000000000000000000000000815260040161026790611e34565b60405180910390fd5b7f000000000000000000000000000000000000000000000000000000000000000073ffffffffffffffffffffffffffffffffffffffff166102af610a9d565b73ffffffffffffffffffffffffffffffffffffffff1614610305576040517f08c379a00000000000000000000000000000000000000000000000000000000081526004016102fc90611e54565b60405180910390fd5b61030e81610af4565b61038d81600067ffffffffffffffff811115610353577f4e487b7100000000000000000000000000000000000000000000000000000000600052604160045260246000fd5b6040519080825280601f01601f1916602001820160405280156103855781602001600182028036833780820191505090505b506000610b73565b50565b6000806103be60ca60009054906101000a900473ffffffffffffffffffffffffffffffffffffffff16610d44565b905060008173ffffffffffffffffffffffffffffffffffffffff166344f2f90a8c8c8c8c8c8c8c8c6040518963ffffffff1660e01b8152600401610409989796959493929190611d3d565b602060405180830381600087803b15801561042357600080fd5b505af1158015610437573d6000803e3d6000fd5b505050506040513d601f19601f8201168201806040525081019061045b919061194c565b905060c960008c73ffffffffffffffffffffffffffffffffffffffff1673ffffffffffffffffffffffffffffffffffffffff168152602001908152602001600020829080600181540180825580915050600190039060005260206000200160009091909190916101000a81548173ffffffffffffffffffffffffffffffffffffffff021916908373ffffffffffffffffffffffffffffffffffffffff1602179055508061053d576040517f08c379a000000000000000000000000000000000000000000000000000000000815260040161053490611e74565b60405180910390fd5b819250505098975050505050505050565b7f000000000000000000000000000000000000000000000000000000000000000073ffffffffffffffffffffffffffffffffffffffff163073ffffffffffffffffffffffffffffffffffffffff1614156105dd576040517f08c379a00000000000000000000000000000000000000000000000000000000081526004016105d490611e34565b60405180910390fd5b7f000000000000000000000000000000000000000000000000000000000000000073ffffffffffffffffffffffffffffffffffffffff1661061c610a9d565b73ffffffffffffffffffffffffffffffffffffffff1614610672576040517f08c379a000000000000000000000000000000000000000000000000000000000815260040161066990611e54565b60405180910390fd5b61067b82610af4565b61068782826001610b73565b5050565b610693610e19565b73ffffffffffffffffffffffffffffffffffffffff166106b1610713565b73ffffffffffffffffffffffffffffffffffffffff1614610707576040517f08c379a00000000000000000000000000000000000000000000000000000000081526004016106fe90611ef4565b60405180910390fd5b6107116000610e21565b565b6000609760009054906101000a900473ffffffffffffffffffffffffffffffffffffffff16905090565b600060019054906101000a900460ff1680610763575060008054906101000a900460ff16155b6107a2576040517f08c379a000000000000000000000000000000000000000000000000000000000815260040161079990611eb4565b60405180910390fd5b60008060019054906101000a900460ff1615905080156107f2576001600060016101000a81548160ff02191690831515021790555060016000806101000a81548160ff0219169083151502179055505b600073ffffffffffffffffffffffffffffffffffffffff168273ffffffffffffffffffffffffffffffffffffffff161415610862576040517f08c379a000000000000000000000000000000000000000000000000000000000815260040161085990611f14565b60405180910390fd5b61086a610ee7565b610872610fd0565b8160ca60006101000a81548173ffffffffffffffffffffffffffffffffffffffff021916908373ffffffffffffffffffffffffffffffffffffffff16021790555080156108d45760008060016101000a81548160ff0219169083151502179055505b5050565b6108e0610e19565b73ffffffffffffffffffffffffffffffffffffffff166108fe610713565b73ffffffffffffffffffffffffffffffffffffffff1614610954576040517f08c379a000000000000000000000000000000000000000000000000000000000815260040161094b90611ef4565b60405180910390fd5b600073ffffffffffffffffffffffffffffffffffffffff168173ffffffffffffffffffffffffffffffffffffffff1614156109c4576040517f08c379a00000000000000000000000000000000000000000000000000000000081526004016109bb90611e14565b60405180910390fd5b6109cd81610e21565b50565b606060c960008373ffffffffffffffffffffffffffffffffffffffff1673ffffffffffffffffffffffffffffffffffffffff168152602001908152602001600020805480602002602001604051908101604052809291908181526020018280548015610a9157602002820191906000526020600020905b8160009054906101000a900473ffffffffffffffffffffffffffffffffffffffff1673ffffffffffffffffffffffffffffffffffffffff1681526020019060010190808311610a47575b50505050509050919050565b6000610acb7f360894a13ba1a3210667c828492db98dca3e2076cc3735a920a3ca505d382bbc60001b6110b9565b60000160009054906101000a900473ffffffffffffffffffffffffffffffffffffffff16905090565b610afc610e19565b73ffffffffffffffffffffffffffffffffffffffff16610b1a610713565b73ffffffffffffffffffffffffffffffffffffffff1614610b70576040517f08c379a0000000000000000000000000000000000000000000000000000000008152600401610b6790611ef4565b60405180910390fd5b50565b6000610b7d610a9d565b9050610b88846110c3565b600083511180610b955750815b15610ba657610ba4848461117c565b505b6000610bd47f4910fdfa16fed3260ed0e7147f7cc6da11a60208b5b9406d12a635614ffd914360001b611260565b90508060000160009054906101000a900460ff16610d3d5760018160000160006101000a81548160ff021916908315150217905550610ca08583604051602401610c1e9190611d22565b6040516020818303038152906040527f3659cfe6000000000000000000000000000000000000000000000000000000007bffffffffffffffffffffffffffffffffffffffffffffffffffffffff19166020820180517bffffffffffffffffffffffffffffffffffffffffffffffffffffffff838183161783525050505061117c565b5060008160000160006101000a81548160ff021916908315150217905550610cc6610a9d565b73ffffffffffffffffffffffffffffffffffffffff168273ffffffffffffffffffffffffffffffffffffffff1614610d33576040517f08c379a0000000000000000000000000000000000000000000000000000000008152600401610d2a90611df4565b60405180910390fd5b610d3c8561126a565b5b5050505050565b60006040517f3d602d80600a3d3981f3363d3d373d3d3d363d7300000000000000000000000081528260601b60148201527f5af43d82803e903d91602b57fd5bf3000000000000000000000000000000000060288201526037816000f0915050600073ffffffffffffffffffffffffffffffffffffffff168173ffffffffffffffffffffffffffffffffffffffff161415610e14576040517f08c379a0000000000000000000000000000000000000000000000000000000008152600401610e0b90611e94565b60405180910390fd5b919050565b600033905090565b6000609760009054906101000a900473ffffffffffffffffffffffffffffffffffffffff16905081609760006101000a81548173ffffffffffffffffffffffffffffffffffffffff021916908373ffffffffffffffffffffffffffffffffffffffff1602179055508173ffffffffffffffffffffffffffffffffffffffff168173ffffffffffffffffffffffffffffffffffffffff167f8be0079c531659141344cd1fd0a4f28419497f9722a3daafe3b4186f6b6457e060405160405180910390a35050565b600060019054906101000a900460ff1680610f0d575060008054906101000a900460ff16155b610f4c576040517f08c379a0000000000000000000000000000000000000000000000000000000008152600401610f4390611eb4565b60405180910390fd5b60008060019054906101000a900460ff161590508015610f9c576001600060016101000a81548160ff02191690831515021790555060016000806101000a81548160ff0219169083151502179055505b610fa46112b9565b610fac611392565b8015610fcd5760008060016101000a81548160ff0219169083151502179055505b50565b600060019054906101000a900460ff1680610ff6575060008054906101000a900460ff16155b611035576040517f08c379a000000000000000000000000000000000000000000000000000000000815260040161102c90611eb4565b60405180910390fd5b60008060019054906101000a900460ff161590508015611085576001600060016101000a81548160ff02191690831515021790555060016000806101000a81548160ff0219169083151502179055505b61108d61147b565b611095611554565b80156110b65760008060016101000a81548160ff0219169083151502179055505b50565b6000819050919050565b6110cc8161162d565b61110b576040517f08c379a000000000000000000000000000000000000000000000000000000000815260040161110290611ed4565b60405180910390fd5b806111387f360894a13ba1a3210667c828492db98dca3e2076cc3735a920a3ca505d382bbc60001b6110b9565b60000160006101000a81548173ffffffffffffffffffffffffffffffffffffffff021916908373ffffffffffffffffffffffffffffffffffffffff16021790555050565b60606111878361162d565b6111c6576040517f08c379a00000000000000000000000000000000000000000000000000000000081526004016111bd90611f34565b60405180910390fd5b6000808473ffffffffffffffffffffffffffffffffffffffff16846040516111ee9190611d0b565b600060405180830381855af49150503d8060008114611229576040519150601f19603f3d011682016040523d82523d6000602084013e61122e565b606091505b5091509150611256828260405180606001604052806027815260200161251260279139611640565b9250505092915050565b6000819050919050565b611273816110c3565b8073ffffffffffffffffffffffffffffffffffffffff167fbc7cd75a20ee27fd9adebab32041f755214dbc6bffa90cc0225b39da2e5c2d3b60405160405180910390a250565b600060019054906101000a900460ff16806112df575060008054906101000a900460ff16155b61131e576040517f08c379a000000000000000000000000000000000000000000000000000000000815260040161131590611eb4565b60405180910390fd5b60008060019054906101000a900460ff16159050801561136e576001600060016101000a81548160ff02191690831515021790555060016000806101000a81548160ff0219169083151502179055505b801561138f5760008060016101000a81548160ff0219169083151502179055505b50565b600060019054906101000a900460ff16806113b8575060008054906101000a900460ff16155b6113f7576040517f08c379a00000000000000000000000000000000000000000000000000000000081526004016113ee90611eb4565b60405180910390fd5b60008060019054906101000a900460ff161590508015611447576001600060016101000a81548160ff02191690831515021790555060016000806101000a81548160ff0219169083151502179055505b611457611452610e19565b610e21565b80156114785760008060016101000a81548160ff0219169083151502179055505b50565b600060019054906101000a900460ff16806114a1575060008054906101000a900460ff16155b6114e0576040517f08c379a00000000000000000000000000000000000000000000000000000000081526004016114d790611eb4565b60405180910390fd5b60008060019054906101000a900460ff161590508015611530576001600060016101000a81548160ff02191690831515021790555060016000806101000a81548160ff0219169083151502179055505b80156115515760008060016101000a81548160ff0219169083151502179055505b50565b600060019054906101000a900460ff168061157a575060008054906101000a900460ff16155b6115b9576040517f08c379a00000000000000000000000000000000000000000000000000000000081526004016115b090611eb4565b60405180910390fd5b60008060019054906101000a900460ff161590508015611609576001600060016101000a81548160ff02191690831515021790555060016000806101000a81548160ff0219169083151502179055505b801561162a5760008060016101000a81548160ff0219169083151502179055505b50565b600080823b905060008111915050919050565b60608315611650578290506116a0565b6000835111156116635782518084602001fd5b816040517f08c379a00000000000000000000000000000000000000000000000000000000081526004016116979190611dd2565b60405180910390fd5b9392505050565b60006116ba6116b584611f79565b611f54565b9050828152602081018484840111156116d257600080fd5b6116dd8482856120f8565b509392505050565b6000813590506116f48161249e565b92915050565b60008083601f84011261170c57600080fd5b8235905067ffffffffffffffff81111561172557600080fd5b60208301915083602082028301111561173d57600080fd5b9250929050565b60008083601f84011261175657600080fd5b8235905067ffffffffffffffff81111561176f57600080fd5b60208301915083602082028301111561178757600080fd5b9250929050565b60008151905061179d816124b5565b92915050565b600082601f8301126117b457600080fd5b81356117c48482602086016116a7565b91505092915050565b6000813590506117dc816124cc565b92915050565b6000813590506117f1816124e3565b92915050565b600081359050611806816124fa565b92915050565b60006020828403121561181e57600080fd5b600061182c848285016116e5565b91505092915050565b60008060008060008060008060c0898b03121561185157600080fd5b600061185f8b828c016116e5565b98505060206118708b828c016116e5565b97505060406118818b828c016117cd565b965050606089013567ffffffffffffffff81111561189e57600080fd5b6118aa8b828c016116fa565b9550955050608089013567ffffffffffffffff8111156118c957600080fd5b6118d58b828c01611744565b935093505060a06118e88b828c016117cd565b9150509295985092959890939650565b6000806040838503121561190b57600080fd5b6000611919858286016116e5565b925050602083013567ffffffffffffffff81111561193657600080fd5b611942858286016117a3565b9150509250929050565b60006020828403121561195e57600080fd5b600061196c8482850161178e565b91505092915050565b600061198183836119bd565b60208301905092915050565b60006119998383611ced565b60208301905092915050565b60006119b18383611cfc565b60208301905092915050565b6119c681612093565b82525050565b6119d581612093565b82525050565b60006119e682611fce565b6119f08185612016565b93506119fb83611faa565b8060005b83811015611a2c578151611a138882611975565b9750611a1e83611fef565b9250506001810190506119ff565b5085935050505092915050565b6000611a458385612027565b9350611a5082611fba565b8060005b85811015611a8957611a668284612065565b611a70888261198d565b9750611a7b83611ffc565b925050600181019050611a54565b5085925050509392505050565b6000611aa28385612038565b9350611aad82611fc4565b8060005b85811015611ae657611ac3828461207c565b611acd88826119a5565b9750611ad883612009565b925050600181019050611ab1565b5085925050509392505050565b6000611afe82611fd9565b611b088185612049565b9350611b18818560208601612107565b80840191505092915050565b6000611b2f82611fe4565b611b398185612054565b9350611b49818560208601612107565b611b528161219a565b840191505092915050565b6000611b6a602f83612054565b9150611b75826121ab565b604082019050919050565b6000611b8d602683612054565b9150611b98826121fa565b604082019050919050565b6000611bb0602c83612054565b9150611bbb82612249565b604082019050919050565b6000611bd3602c83612054565b9150611bde82612298565b604082019050919050565b6000611bf6602383612054565b9150611c01826122e7565b604082019050919050565b6000611c19601683612054565b9150611c2482612336565b602082019050919050565b6000611c3c602e83612054565b9150611c478261235f565b604082019050919050565b6000611c5f602d83612054565b9150611c6a826123ae565b604082019050919050565b6000611c82602083612054565b9150611c8d826123fd565b602082019050919050565b6000611ca5601283612054565b9150611cb082612426565b602082019050919050565b6000611cc8602683612054565b9150611cd38261244f565b604082019050919050565b611ce7816120d1565b82525050565b611cf6816120db565b82525050565b611d05816120eb565b82525050565b6000611d178284611af3565b915081905092915050565b6000602082019050611d3760008301846119cc565b92915050565b600060c082019050611d52600083018b6119cc565b611d5f602083018a6119cc565b611d6c6040830189611cde565b8181036060830152611d7f818789611a39565b90508181036080830152611d94818587611a96565b9050611da360a0830184611cde565b9998505050505050505050565b60006020820190508181036000830152611dca81846119db565b905092915050565b60006020820190508181036000830152611dec8184611b24565b905092915050565b60006020820190508181036000830152611e0d81611b5d565b9050919050565b60006020820190508181036000830152611e2d81611b80565b9050919050565b60006020820190508181036000830152611e4d81611ba3565b9050919050565b60006020820190508181036000830152611e6d81611bc6565b9050919050565b60006020820190508181036000830152611e8d81611be9565b9050919050565b60006020820190508181036000830152611ead81611c0c565b9050919050565b60006020820190508181036000830152611ecd81611c2f565b9050919050565b60006020820190508181036000830152611eed81611c52565b9050919050565b60006020820190508181036000830152611f0d81611c75565b9050919050565b60006020820190508181036000830152611f2d81611c98565b9050919050565b60006020820190508181036000830152611f4d81611cbb565b9050919050565b6000611f5e611f6f565b9050611f6a828261213a565b919050565b6000604051905090565b600067ffffffffffffffff821115611f9457611f9361216b565b5b611f9d8261219a565b9050602081019050919050565b6000819050602082019050919050565b6000819050919050565b6000819050919050565b600081519050919050565b600081519050919050565b600081519050919050565b6000602082019050919050565b6000602082019050919050565b6000602082019050919050565b600082825260208201905092915050565b600082825260208201905092915050565b600082825260208201905092915050565b600081905092915050565b600082825260208201905092915050565b600061207460208401846117e2565b905092915050565b600061208b60208401846117f7565b905092915050565b600061209e826120b1565b9050919050565b60008115159050919050565b600073ffffffffffffffffffffffffffffffffffffffff82169050919050565b6000819050919050565b600063ffffffff82169050919050565b600060ff82169050919050565b82818337600083830152505050565b60005b8381101561212557808201518184015260208101905061210a565b83811115612134576000848401525b50505050565b6121438261219a565b810181811067ffffffffffffffff821117156121625761216161216b565b5b80604052505050565b7f4e487b7100000000000000000000000000000000000000000000000000000000600052604160045260246000fd5b6000601f19601f8301169050919050565b7f45524331393637557067726164653a207570677261646520627265616b73206660008201527f7572746865722075706772616465730000000000000000000000000000000000602082015250565b7f4f776e61626c653a206e6577206f776e657220697320746865207a65726f206160008201527f6464726573730000000000000000000000000000000000000000000000000000602082015250565b7f46756e6374696f6e206d7573742062652063616c6c6564207468726f7567682060008201527f64656c656761746563616c6c0000000000000000000000000000000000000000602082015250565b7f46756e6374696f6e206d7573742062652063616c6c6564207468726f7567682060008201527f6163746976652070726f78790000000000000000000000000000000000000000602082015250565b7f546f6b656e54696d654c6f636b20636f6e74726163743a2063616e277420736560008201527f7475700000000000000000000000000000000000000000000000000000000000602082015250565b7f455243313136373a20637265617465206661696c656400000000000000000000600082015250565b7f496e697469616c697a61626c653a20636f6e747261637420697320616c72656160008201527f647920696e697469616c697a6564000000000000000000000000000000000000602082015250565b7f455243313936373a206e657720696d706c656d656e746174696f6e206973206e60008201527f6f74206120636f6e747261637400000000000000000000000000000000000000602082015250565b7f4f776e61626c653a2063616c6c6572206973206e6f7420746865206f776e6572600082015250565b7f436f6d70617469626c6520616464726573730000000000000000000000000000600082015250565b7f416464726573733a2064656c65676174652063616c6c20746f206e6f6e2d636f60008201527f6e74726163740000000000000000000000000000000000000000000000000000602082015250565b6124a781612093565b81146124b257600080fd5b50565b6124be816120a5565b81146124c957600080fd5b50565b6124d5816120d1565b81146124e057600080fd5b50565b6124ec816120db565b81146124f757600080fd5b50565b612503816120eb565b811461250e57600080fd5b5056fe416464726573733a206c6f772d6c6576656c2064656c65676174652063616c6c206661696c6564a2646970667358221220dfee342dbef8423f98129daff8926d74bfe0e1ee5ddc845dc0cff6379babfb6064736f6c63430008020033",
  "immutableReferences": {
    "612": [
      {
        "length": 32,
        "start": 483
      },
      {
        "length": 32,
        "start": 626
      },
      {
        "length": 32,
        "start": 1360
      },
      {
        "length": 32,
        "start": 1503
      }
    ]
  },
  "source": "// SPDX-License-Identifier: MIT\npragma solidity ^0.8.0;\n\nimport \"@openzeppelin/contracts/proxy/Clones.sol\";\nimport \"@openzeppelin/contracts-upgradeable/proxy/utils/Initializable.sol\";\nimport \"@openzeppelin/contracts-upgradeable/proxy/utils/UUPSUpgradeable.sol\";\nimport \"@openzeppelin/contracts-upgradeable/access/OwnableUpgradeable.sol\";\nimport \"./TokenTimeLock.sol\";\nimport \"./CUPCake.sol\";\n\ncontract TokenTimeLockProxyFactory is Initializable, UUPSUpgradeable, OwnableUpgradeable, LockFactory {\n    mapping(address => address[]) wallets;\n    address masterContract;\n\n    function initialize(address _masterContract) external initializer {\n        require(_masterContract != address(0), \"Compatible address\");\n        __Ownable_init();\n        __UUPSUpgradeable_init();\n\n        masterContract = _masterContract;\n    }\n\n    function _authorizeUpgrade(address newImplementation) internal override onlyOwner {}\n\n    function createBlockWallet(\n        address user_,\n        address token_,\n        uint256 amount_,\n        uint32[] calldata lockDurations_,\n        uint8[] calldata releasePercents_,\n        uint256 startDate_\n    )\n    external\n    override\n    returns (address) {\n        TokenTimeLock timeLockWallet = TokenTimeLock(Clones.clone(masterContract));\n        bool setupResult = timeLockWallet.initialize(\n            user_,\n            token_,\n            amount_,\n            lockDurations_,\n            releasePercents_,\n            startDate_\n        );\n        wallets[user_].push(address(timeLockWallet));\n        require(setupResult, \"TokenTimeLock contract: can't setup\");\n        return address(timeLockWallet);\n    }\n\n    function getLockWallets(address owner_)\n    external\n    override\n    view returns (address[] memory){\n        return wallets[owner_];\n    }\n\n    receive() external payable {\n        revert();\n    }\n}\n",
  "sourcePath": "/Users/cuongnguyen/contracts/contracts/TokenTimeLockProxyFactory.sol",
  "compiler": {
    "name": "solc",
    "version": "0.8.2+commit.661d1103.Emscripten.clang"
  },
  "schemaVersion": "3.4.3",
  "updatedAt": "2021-12-01T02:55:32.577Z",
  "networkType": "ethereum",
  "devdoc": {
    "kind": "dev",
    "methods": {
      "owner()": {
        "details": "Returns the address of the current owner."
      },
      "renounceOwnership()": {
        "details": "Leaves the contract without owner. It will not be possible to call `onlyOwner` functions anymore. Can only be called by the current owner. NOTE: Renouncing ownership will leave the contract without an owner, thereby removing any functionality that is only available to the owner."
      },
      "transferOwnership(address)": {
        "details": "Transfers ownership of the contract to a new account (`newOwner`). Can only be called by the current owner."
      },
      "upgradeTo(address)": {
        "details": "Upgrade the implementation of the proxy to `newImplementation`. Calls {_authorizeUpgrade}. Emits an {Upgraded} event."
      },
      "upgradeToAndCall(address,bytes)": {
        "details": "Upgrade the implementation of the proxy to `newImplementation`, and subsequently execute the function call encoded in `data`. Calls {_authorizeUpgrade}. Emits an {Upgraded} event."
      }
    },
    "version": 1
  },
  "userdoc": {
    "kind": "user",
    "methods": {},
    "version": 1
  }
}