{
  "contractName": "TokenTimeLock",
  "abi": [
    {
      "anonymous": false,
      "inputs": [
        {
          "indexed": true,
          "internalType": "address",
          "name": "previousOwner",
          "type": "address"
        },
        {
          "indexed": true,
          "internalType": "address",
          "name": "newOwner",
          "type": "address"
        }
      ],
      "name": "OwnershipTransferred",
      "type": "event"
    },
    {
      "anonymous": false,
      "inputs": [
        {
          "indexed": false,
          "internalType": "uint256",
          "name": "phaseReleasedAmount",
          "type": "uint256"
        },
        {
          "indexed": false,
          "internalType": "uint256",
          "name": "totalReleasedAmount",
          "type": "uint256"
        },
        {
          "indexed": false,
          "internalType": "uint32",
          "name": "fromIdx",
          "type": "uint32"
        },
        {
          "indexed": false,
          "internalType": "uint32",
          "name": "toIdx",
          "type": "uint32"
        },
        {
          "indexed": false,
          "internalType": "uint64",
          "name": "date",
          "type": "uint64"
        }
      ],
      "name": "Released",
      "type": "event"
    },
    {
      "anonymous": false,
      "inputs": [
        {
          "indexed": false,
          "internalType": "uint256",
          "name": "amount",
          "type": "uint256"
        },
        {
          "indexed": false,
          "internalType": "address",
          "name": "to",
          "type": "address"
        },
        {
          "indexed": false,
          "internalType": "uint64",
          "name": "date",
          "type": "uint64"
        }
      ],
      "name": "SafetyReleaseActivated",
      "type": "event"
    },
    {
      "inputs": [],
      "name": "owner",
      "outputs": [
        {
          "internalType": "address",
          "name": "",
          "type": "address"
        }
      ],
      "stateMutability": "view",
      "type": "function",
      "constant": true
    },
    {
      "inputs": [],
      "name": "renounceOwnership",
      "outputs": [],
      "stateMutability": "nonpayable",
      "type": "function"
    },
    {
      "inputs": [
        {
          "internalType": "address",
          "name": "newOwner",
          "type": "address"
        }
      ],
      "name": "transferOwnership",
      "outputs": [],
      "stateMutability": "nonpayable",
      "type": "function"
    },
    {
      "inputs": [],
      "name": "token",
      "outputs": [
        {
          "internalType": "contract BaseERC20",
          "name": "",
          "type": "address"
        }
      ],
      "stateMutability": "view",
      "type": "function",
      "constant": true
    },
    {
      "inputs": [],
      "name": "beneficiary",
      "outputs": [
        {
          "internalType": "address",
          "name": "",
          "type": "address"
        }
      ],
      "stateMutability": "view",
      "type": "function",
      "constant": true
    },
    {
      "inputs": [],
      "name": "amount",
      "outputs": [
        {
          "internalType": "uint256",
          "name": "",
          "type": "uint256"
        }
      ],
      "stateMutability": "view",
      "type": "function",
      "constant": true
    },
    {
      "inputs": [],
      "name": "releasedAmount",
      "outputs": [
        {
          "internalType": "uint256",
          "name": "",
          "type": "uint256"
        }
      ],
      "stateMutability": "view",
      "type": "function",
      "constant": true
    },
    {
      "inputs": [],
      "name": "startDate",
      "outputs": [
        {
          "internalType": "uint256",
          "name": "",
          "type": "uint256"
        }
      ],
      "stateMutability": "view",
      "type": "function",
      "constant": true
    },
    {
      "inputs": [],
      "name": "lockDurations",
      "outputs": [
        {
          "internalType": "uint32[]",
          "name": "",
          "type": "uint32[]"
        }
      ],
      "stateMutability": "view",
      "type": "function",
      "constant": true
    },
    {
      "inputs": [],
      "name": "releasePercents",
      "outputs": [
        {
          "internalType": "uint8[]",
          "name": "",
          "type": "uint8[]"
        }
      ],
      "stateMutability": "view",
      "type": "function",
      "constant": true
    },
    {
      "inputs": [],
      "name": "releaseDates",
      "outputs": [
        {
          "internalType": "uint64[]",
          "name": "",
          "type": "uint64[]"
        }
      ],
      "stateMutability": "view",
      "type": "function",
      "constant": true
    },
    {
      "inputs": [],
      "name": "nextReleaseIdx",
      "outputs": [
        {
          "internalType": "uint32",
          "name": "",
          "type": "uint32"
        }
      ],
      "stateMutability": "view",
      "type": "function",
      "constant": true
    },
    {
      "inputs": [],
      "name": "lockData",
      "outputs": [
        {
          "internalType": "address",
          "name": "user",
          "type": "address"
        },
        {
          "internalType": "address",
          "name": "token_",
          "type": "address"
        },
        {
          "internalType": "uint256",
          "name": "amount_",
          "type": "uint256"
        },
        {
          "internalType": "uint256",
          "name": "releasedAmount_",
          "type": "uint256"
        },
        {
          "internalType": "uint256",
          "name": "startDate_",
          "type": "uint256"
        },
        {
          "internalType": "uint32[]",
          "name": "lockDurations_",
          "type": "uint32[]"
        },
        {
          "internalType": "uint8[]",
          "name": "releasePercents_",
          "type": "uint8[]"
        },
        {
          "internalType": "uint64[]",
          "name": "releaseDates_",
          "type": "uint64[]"
        },
        {
          "internalType": "uint32",
          "name": "nextReleaseIdx_",
          "type": "uint32"
        }
      ],
      "stateMutability": "view",
      "type": "function",
      "constant": true
    },
    {
      "inputs": [
        {
          "internalType": "address",
          "name": "user_",
          "type": "address"
        },
        {
          "internalType": "address",
          "name": "token_",
          "type": "address"
        },
        {
          "internalType": "uint256",
          "name": "amount_",
          "type": "uint256"
        },
        {
          "internalType": "uint32[]",
          "name": "lockDurations_",
          "type": "uint32[]"
        },
        {
          "internalType": "uint8[]",
          "name": "releasePercents_",
          "type": "uint8[]"
        },
        {
          "internalType": "uint256",
          "name": "startDate_",
          "type": "uint256"
        }
      ],
      "name": "initialize",
      "outputs": [
        {
          "internalType": "bool",
          "name": "",
          "type": "bool"
        }
      ],
      "stateMutability": "nonpayable",
      "type": "function"
    },
    {
      "inputs": [],
      "name": "release",
      "outputs": [
        {
          "internalType": "bool",
          "name": "",
          "type": "bool"
        }
      ],
      "stateMutability": "nonpayable",
      "type": "function"
    }
  ],
  "bytecode": "0x608060405234801561001057600080fd5b50612c07806100206000396000f3fe608060405234801561001057600080fd5b50600436106100f55760003560e01c80638da5cb5b11610097578063e090008011610066578063e090008014610242578063f2fde38b14610260578063f8fcd1561461027c578063fc0c546a146102a2576100f5565b80638da5cb5b146101ca578063aa8c217c146101e8578063c00de5fc14610206578063d6ec527014610224576100f5565b806344f2f90a116100d357806344f2f90a1461015457806345d30a1714610184578063715018a6146101a257806386d1a69f146101ac576100f5565b80630b97bc86146100fa5780632a62a4b21461011857806338af3eed14610136575b600080fd5b6101026102c0565b60405161010f919061233a565b60405180910390f35b6101206102ca565b60405161012d9190612140565b60405180910390f35b61013e610348565b60405161014b9190612016565b60405180910390f35b61016e60048036038101906101699190611aca565b610372565b60405161017b9190612162565b60405180910390f35b61018c6106e9565b604051610199919061233a565b60405180910390f35b6101aa6106f3565b005b6101b461077b565b6040516101c19190612162565b60405180910390f35b6101d2610d93565b6040516101df9190612016565b60405180910390f35b6101f0610dbd565b6040516101fd919061233a565b60405180910390f35b61020e610dc7565b60405161021b919061211e565b60405180910390f35b61022c610e53565b60405161023991906123a8565b60405180910390f35b61024a610e6d565b60405161025791906120fc565b60405180910390f35b61027a60048036038101906102759190611aa1565b610ef1565b005b610284610fe9565b60405161029999989796959493929190612031565b60405180910390f35b6102aa611078565b6040516102b7919061217d565b60405180910390f35b6000606b54905090565b6060606780548060200260200160405190810160405280929190818152602001828054801561033e57602002820191906000526020600020906000905b82829054906101000a900460ff1660ff16815260200190600101906020826000010492830192600103820291508084116103075790505b5050505050905090565b6000606a60009054906101000a900473ffffffffffffffffffffffffffffffffffffffff16905090565b60008060019054906101000a900460ff1661039b5760008054906101000a900460ff16156103a4565b6103a36110a2565b5b6103e3576040517f08c379a00000000000000000000000000000000000000000000000000000000081526004016103da9061221a565b60405180910390fd5b60008060019054906101000a900460ff161590508015610433576001600060016101000a81548160ff02191690831515021790555060016000806101000a81548160ff0219169083151502179055505b61043b6110b3565b6104448a610ef1565b84849050878790501461048c576040517f08c379a00000000000000000000000000000000000000000000000000000000081526004016104839061223a565b60405180910390fd5b6000805b8686905081101561050a578686828181106104d4577f4e487b7100000000000000000000000000000000000000000000000000000000600052603260045260246000fd5b90506020020160208101906104e99190611bdf565b60ff16826104f791906124a0565b915080610503906126f7565b9050610490565b506064811461054e576040517f08c379a00000000000000000000000000000000000000000000000000000000081526004016105459061227a565b60405180910390fd5b8a606a60006101000a81548173ffffffffffffffffffffffffffffffffffffffff021916908373ffffffffffffffffffffffffffffffffffffffff16021790555089606c60046101000a81548173ffffffffffffffffffffffffffffffffffffffff021916908373ffffffffffffffffffffffffffffffffffffffff16021790555083606b819055508787606691906105e892919061176b565b508585606791906105fa929190611821565b508860688190555060006069819055506000606c60006101000a81548163ffffffff021916908363ffffffff16021790555060668054905067ffffffffffffffff811115610671577f4e487b7100000000000000000000000000000000000000000000000000000000600052604160045260246000fd5b60405190808252806020026020018201604052801561069f5781602001602082028036833780820191505090505b50606590805190602001906106b59291906118cb565b50600192505080156106dc5760008060016101000a81548160ff0219169083151502179055505b5098975050505050505050565b6000606954905090565b6106fb611114565b73ffffffffffffffffffffffffffffffffffffffff16610719610d93565b73ffffffffffffffffffffffffffffffffffffffff161461076f576040517f08c379a00000000000000000000000000000000000000000000000000000000081526004016107669061225a565b60405180910390fd5b610779600061111c565b565b6000610785611114565b73ffffffffffffffffffffffffffffffffffffffff166107a3610d93565b73ffffffffffffffffffffffffffffffffffffffff16146107f9576040517f08c379a00000000000000000000000000000000000000000000000000000000081526004016107f09061225a565b60405180910390fd5b6000606680549050905080606c60009054906101000a900463ffffffff1663ffffffff161061085d576040517f08c379a0000000000000000000000000000000000000000000000000000000008152600401610854906121ba565b60405180910390fd5b60016066606c60009054906101000a900463ffffffff1663ffffffff16815481106108b1577f4e487b7100000000000000000000000000000000000000000000000000000000600052603260045260246000fd5b90600052602060002090600891828204019190066004029054906101000a900463ffffffff166108e19190612581565b63ffffffff16606b546108f491906124a0565b421015610936576040517f08c379a000000000000000000000000000000000000000000000000000000000815260040161092d9061229a565b60405180910390fd5b6000606c60009054906101000a900463ffffffff1663ffffffff16905060005b82606c60009054906101000a900463ffffffff1663ffffffff16108015610a13575060016066606c60009054906101000a900463ffffffff1663ffffffff16815481106109cc577f4e487b7100000000000000000000000000000000000000000000000000000000600052603260045260246000fd5b90600052602060002090600891828204019190066004029054906101000a900463ffffffff166109fc9190612581565b63ffffffff16606b54610a0f91906124a0565b4210155b15610b4c576000600184610a2791906125bf565b606c60009054906101000a900463ffffffff1663ffffffff161415610a685781606954606854610a5791906125bf565b610a6191906125bf565b9050610af7565b610af46067606c60009054906101000a900463ffffffff1663ffffffff1681548110610abd577f4e487b7100000000000000000000000000000000000000000000000000000000600052603260045260246000fd5b90600052602060002090602091828204019190069054906101000a900460ff1660ff1660646068546111e29092919063ffffffff16565b90505b8082610b0391906124a0565b9150606c600081819054906101000a900463ffffffff1680929190610b2790612740565b91906101000a81548163ffffffff021916908363ffffffff1602179055505050610956565b6000610b56611078565b73ffffffffffffffffffffffffffffffffffffffff166370a08231306040518263ffffffff1660e01b8152600401610b8e9190612016565b60206040518083038186803b158015610ba657600080fd5b505afa158015610bba573d6000803e3d6000fd5b505050506040513d601f19601f82011682018060405250810190610bde9190611bb6565b905081811015610c23576040517f08c379a0000000000000000000000000000000000000000000000000000000008152600401610c1a906122ba565b60405180910390fd5b8160696000828254610c3591906124a0565b92505081905550610c75610c47610348565b83610c50611078565b73ffffffffffffffffffffffffffffffffffffffff1661135b9092919063ffffffff16565b600042905060008490505b606c60009054906101000a900463ffffffff1663ffffffff16811015610d27578160658281548110610cdb577f4e487b7100000000000000000000000000000000000000000000000000000000600052603260045260246000fd5b90600052602060002090600491828204019190066008026101000a81548167ffffffffffffffff021916908367ffffffffffffffff16021790555080610d20906126f7565b9050610c80565b507f76264100b4b20aa06c294636c2e40aaf398c3490112488330659f4577010713f83606954866001606c60009054906101000a900463ffffffff16610d6d91906125f3565b85604051610d7f959493929190612355565b60405180910390a160019550505050505090565b6000603360009054906101000a900473ffffffffffffffffffffffffffffffffffffffff16905090565b6000606854905090565b60606065805480602002602001604051908101604052809291908181526020018280548015610e4957602002820191906000526020600020906000905b82829054906101000a900467ffffffffffffffff1667ffffffffffffffff1681526020019060080190602082600701049283019260010382029150808411610e045790505b5050505050905090565b6000606c60009054906101000a900463ffffffff16905090565b60606066805480602002602001604051908101604052809291908181526020018280548015610ee757602002820191906000526020600020906000905b82829054906101000a900463ffffffff1663ffffffff1681526020019060040190602082600301049283019260010382029150808411610eaa5790505b5050505050905090565b610ef9611114565b73ffffffffffffffffffffffffffffffffffffffff16610f17610d93565b73ffffffffffffffffffffffffffffffffffffffff1614610f6d576040517f08c379a0000000000000000000000000000000000000000000000000000000008152600401610f649061225a565b60405180910390fd5b600073ffffffffffffffffffffffffffffffffffffffff168173ffffffffffffffffffffffffffffffffffffffff161415610fdd576040517f08c379a0000000000000000000000000000000000000000000000000000000008152600401610fd4906121da565b60405180910390fd5b610fe68161111c565b50565b600080600080600060608060606000611000610348565b606c60049054906101000a900473ffffffffffffffffffffffffffffffffffffffff1661102b610dbd565b6110336106e9565b61103b6102c0565b611043610e6d565b61104b6102ca565b611053610dc7565b61105b610e53565b985098509850985098509850985098509850909192939495969798565b6000606c60049054906101000a900473ffffffffffffffffffffffffffffffffffffffff16905090565b60006110ad306113e1565b15905090565b600060019054906101000a900460ff16611102576040517f08c379a00000000000000000000000000000000000000000000000000000000081526004016110f9906122fa565b60405180910390fd5b61110a6113f4565b611112611445565b565b600033905090565b6000603360009054906101000a900473ffffffffffffffffffffffffffffffffffffffff16905081603360006101000a81548173ffffffffffffffffffffffffffffffffffffffff021916908373ffffffffffffffffffffffffffffffffffffffff1602179055508173ffffffffffffffffffffffffffffffffffffffff168173ffffffffffffffffffffffffffffffffffffffff167f8be0079c531659141344cd1fd0a4f28419497f9722a3daafe3b4186f6b6457e060405160405180910390a35050565b60008061120a836fffffffffffffffffffffffffffffffff16866114a690919063ffffffff16565b90506000611233846fffffffffffffffffffffffffffffffff16876114bc90919063ffffffff16565b9050600061125c856fffffffffffffffffffffffffffffffff16876114a690919063ffffffff16565b90506000611285866fffffffffffffffffffffffffffffffff16886114bc90919063ffffffff16565b905061134e6113096112c4886fffffffffffffffffffffffffffffffff166112b685886114d290919063ffffffff16565b6114a690919063ffffffff16565b6112fb6112da86886114d290919063ffffffff16565b6112ed868a6114d290919063ffffffff16565b6114e890919063ffffffff16565b6114e890919063ffffffff16565b611340886fffffffffffffffffffffffffffffffff1661133286896114d290919063ffffffff16565b6114d290919063ffffffff16565b6114e890919063ffffffff16565b9450505050509392505050565b6113dc8363a9059cbb60e01b848460405160240161137a9291906120d3565b604051602081830303815290604052907bffffffffffffffffffffffffffffffffffffffffffffffffffffffff19166020820180517bffffffffffffffffffffffffffffffffffffffffffffffffffffffff83818316178352505050506114fe565b505050565b600080823b905060008111915050919050565b600060019054906101000a900460ff16611443576040517f08c379a000000000000000000000000000000000000000000000000000000000815260040161143a906122fa565b60405180910390fd5b565b600060019054906101000a900460ff16611494576040517f08c379a000000000000000000000000000000000000000000000000000000000815260040161148b906122fa565b60405180910390fd5b6114a461149f611114565b61111c565b565b600081836114b491906124f6565b905092915050565b600081836114ca919061276d565b905092915050565b600081836114e09190612527565b905092915050565b600081836114f691906124a0565b905092915050565b6000611560826040518060400160405280602081526020017f5361666545524332303a206c6f772d6c6576656c2063616c6c206661696c65648152508573ffffffffffffffffffffffffffffffffffffffff166115c59092919063ffffffff16565b90506000815111156115c057808060200190518101906115809190611b8d565b6115bf576040517f08c379a00000000000000000000000000000000000000000000000000000000081526004016115b69061231a565b60405180910390fd5b5b505050565b60606115d484846000856115dd565b90509392505050565b606082471015611622576040517f08c379a0000000000000000000000000000000000000000000000000000000008152600401611619906121fa565b60405180910390fd5b61162b856116f1565b61166a576040517f08c379a0000000000000000000000000000000000000000000000000000000008152600401611661906122da565b60405180910390fd5b6000808673ffffffffffffffffffffffffffffffffffffffff1685876040516116939190611fff565b60006040518083038185875af1925050503d80600081146116d0576040519150601f19603f3d011682016040523d82523d6000602084013e6116d5565b606091505b50915091506116e5828286611704565b92505050949350505050565b600080823b905060008111915050919050565b6060831561171457829050611764565b6000835111156117275782518084602001fd5b816040517f08c379a000000000000000000000000000000000000000000000000000000000815260040161175b9190612198565b60405180910390fd5b9392505050565b828054828255906000526020600020906007016008900481019282156118105791602002820160005b838211156117de57833563ffffffff1683826101000a81548163ffffffff021916908363ffffffff1602179055509260200192600401602081600301049283019260010302611794565b801561180e5782816101000a81549063ffffffff02191690556004016020816003010492830192600103026117de565b505b50905061181d9190611987565b5090565b82805482825590600052602060002090601f016020900481019282156118ba5791602002820160005b8382111561188b57833560ff1683826101000a81548160ff021916908360ff160217905550926020019260010160208160000104928301926001030261184a565b80156118b85782816101000a81549060ff021916905560010160208160000104928301926001030261188b565b505b5090506118c79190611987565b5090565b828054828255906000526020600020906003016004900481019282156119765791602002820160005b8382111561194057835183826101000a81548167ffffffffffffffff021916908367ffffffffffffffff16021790555092602001926008016020816007010492830192600103026118f4565b80156119745782816101000a81549067ffffffffffffffff0219169055600801602081600701049283019260010302611940565b505b5090506119839190611987565b5090565b5b808211156119a0576000816000905550600101611988565b5090565b6000813590506119b381612b75565b92915050565b60008083601f8401126119cb57600080fd5b8235905067ffffffffffffffff8111156119e457600080fd5b6020830191508360208202830111156119fc57600080fd5b9250929050565b60008083601f840112611a1557600080fd5b8235905067ffffffffffffffff811115611a2e57600080fd5b602083019150836020820283011115611a4657600080fd5b9250929050565b600081519050611a5c81612b8c565b92915050565b600081359050611a7181612ba3565b92915050565b600081519050611a8681612ba3565b92915050565b600081359050611a9b81612bba565b92915050565b600060208284031215611ab357600080fd5b6000611ac1848285016119a4565b91505092915050565b60008060008060008060008060c0898b031215611ae657600080fd5b6000611af48b828c016119a4565b9850506020611b058b828c016119a4565b9750506040611b168b828c01611a62565b965050606089013567ffffffffffffffff811115611b3357600080fd5b611b3f8b828c016119b9565b9550955050608089013567ffffffffffffffff811115611b5e57600080fd5b611b6a8b828c01611a03565b935093505060a0611b7d8b828c01611a62565b9150509295985092959890939650565b600060208284031215611b9f57600080fd5b6000611bad84828501611a4d565b91505092915050565b600060208284031215611bc857600080fd5b6000611bd684828501611a77565b91505092915050565b600060208284031215611bf157600080fd5b6000611bff84828501611a8c565b91505092915050565b6000611c148383611fb4565b60208301905092915050565b6000611c2c8383611fd2565b60208301905092915050565b6000611c448383611ff0565b60208301905092915050565b611c5981612627565b82525050565b6000611c6a826123f3565b611c748185612451565b9350611c7f836123c3565b8060005b83811015611cb0578151611c978882611c08565b9750611ca28361242a565b925050600181019050611c83565b5085935050505092915050565b6000611cc8826123fe565b611cd28185612462565b9350611cdd836123d3565b8060005b83811015611d0e578151611cf58882611c20565b9750611d0083612437565b925050600181019050611ce1565b5085935050505092915050565b6000611d2682612409565b611d308185612473565b9350611d3b836123e3565b8060005b83811015611d6c578151611d538882611c38565b9750611d5e83612444565b925050600181019050611d3f565b5085935050505092915050565b611d8281612639565b82525050565b6000611d9382612414565b611d9d8185612484565b9350611dad8185602086016126c4565b80840191505092915050565b611dc2816126a0565b82525050565b6000611dd38261241f565b611ddd818561248f565b9350611ded8185602086016126c4565b611df6816127fc565b840191505092915050565b6000611e0e60268361248f565b9150611e198261280d565b604082019050919050565b6000611e3160268361248f565b9150611e3c8261285c565b604082019050919050565b6000611e5460268361248f565b9150611e5f826128ab565b604082019050919050565b6000611e77602e8361248f565b9150611e82826128fa565b604082019050919050565b6000611e9a60268361248f565b9150611ea582612949565b604082019050919050565b6000611ebd60208361248f565b9150611ec882612998565b602082019050919050565b6000611ee0602b8361248f565b9150611eeb826129c1565b604082019050919050565b6000611f0360258361248f565b9150611f0e82612a10565b604082019050919050565b6000611f2660238361248f565b9150611f3182612a5f565b604082019050919050565b6000611f49601d8361248f565b9150611f5482612aae565b602082019050919050565b6000611f6c602b8361248f565b9150611f7782612ad7565b604082019050919050565b6000611f8f602a8361248f565b9150611f9a82612b26565b604082019050919050565b611fae81612665565b82525050565b611fbd8161266f565b82525050565b611fcc8161266f565b82525050565b611fdb8161267f565b82525050565b611fea8161267f565b82525050565b611ff981612693565b82525050565b600061200b8284611d88565b915081905092915050565b600060208201905061202b6000830184611c50565b92915050565b600061012082019050612047600083018c611c50565b612054602083018b611c50565b612061604083018a611fa5565b61206e6060830189611fa5565b61207b6080830188611fa5565b81810360a083015261208d8187611c5f565b905081810360c08301526120a18186611d1b565b905081810360e08301526120b58185611cbd565b90506120c5610100830184611fc3565b9a9950505050505050505050565b60006040820190506120e86000830185611c50565b6120f56020830184611fa5565b9392505050565b600060208201905081810360008301526121168184611c5f565b905092915050565b600060208201905081810360008301526121388184611cbd565b905092915050565b6000602082019050818103600083015261215a8184611d1b565b905092915050565b60006020820190506121776000830184611d79565b92915050565b60006020820190506121926000830184611db9565b92915050565b600060208201905081810360008301526121b28184611dc8565b905092915050565b600060208201905081810360008301526121d381611e01565b9050919050565b600060208201905081810360008301526121f381611e24565b9050919050565b6000602082019050818103600083015261221381611e47565b9050919050565b6000602082019050818103600083015261223381611e6a565b9050919050565b6000602082019050818103600083015261225381611e8d565b9050919050565b6000602082019050818103600083015261227381611eb0565b9050919050565b6000602082019050818103600083015261229381611ed3565b9050919050565b600060208201905081810360008301526122b381611ef6565b9050919050565b600060208201905081810360008301526122d381611f19565b9050919050565b600060208201905081810360008301526122f381611f3c565b9050919050565b6000602082019050818103600083015261231381611f5f565b9050919050565b6000602082019050818103600083015261233381611f82565b9050919050565b600060208201905061234f6000830184611fa5565b92915050565b600060a08201905061236a6000830188611fa5565b6123776020830187611fa5565b6123846040830186611fc3565b6123916060830185611fc3565b61239e6080830184611fe1565b9695505050505050565b60006020820190506123bd6000830184611fc3565b92915050565b6000819050602082019050919050565b6000819050602082019050919050565b6000819050602082019050919050565b600081519050919050565b600081519050919050565b600081519050919050565b600081519050919050565b600081519050919050565b6000602082019050919050565b6000602082019050919050565b6000602082019050919050565b600082825260208201905092915050565b600082825260208201905092915050565b600082825260208201905092915050565b600081905092915050565b600082825260208201905092915050565b60006124ab82612665565b91506124b683612665565b9250827fffffffffffffffffffffffffffffffffffffffffffffffffffffffffffffffff038211156124eb576124ea61279e565b5b828201905092915050565b600061250182612665565b915061250c83612665565b92508261251c5761251b6127cd565b5b828204905092915050565b600061253282612665565b915061253d83612665565b9250817fffffffffffffffffffffffffffffffffffffffffffffffffffffffffffffffff04831182151516156125765761257561279e565b5b828202905092915050565b600061258c8261266f565b91506125978361266f565b92508163ffffffff04831182151516156125b4576125b361279e565b5b828202905092915050565b60006125ca82612665565b91506125d583612665565b9250828210156125e8576125e761279e565b5b828203905092915050565b60006125fe8261266f565b91506126098361266f565b92508282101561261c5761261b61279e565b5b828203905092915050565b600061263282612645565b9050919050565b60008115159050919050565b600073ffffffffffffffffffffffffffffffffffffffff82169050919050565b6000819050919050565b600063ffffffff82169050919050565b600067ffffffffffffffff82169050919050565b600060ff82169050919050565b60006126ab826126b2565b9050919050565b60006126bd82612645565b9050919050565b60005b838110156126e25780820151818401526020810190506126c7565b838111156126f1576000848401525b50505050565b600061270282612665565b91507fffffffffffffffffffffffffffffffffffffffffffffffffffffffffffffffff8214156127355761273461279e565b5b600182019050919050565b600061274b8261266f565b915063ffffffff8214156127625761276161279e565b5b600182019050919050565b600061277882612665565b915061278383612665565b925082612793576127926127cd565b5b828206905092915050565b7f4e487b7100000000000000000000000000000000000000000000000000000000600052601160045260246000fd5b7f4e487b7100000000000000000000000000000000000000000000000000000000600052601260045260246000fd5b6000601f19601f8301169050919050565b7f546f6b656e54696d654c6f636b3a20616c6c207068617365732061726520726560008201527f6c65617365640000000000000000000000000000000000000000000000000000602082015250565b7f4f776e61626c653a206e6577206f776e657220697320746865207a65726f206160008201527f6464726573730000000000000000000000000000000000000000000000000000602082015250565b7f416464726573733a20696e73756666696369656e742062616c616e636520666f60008201527f722063616c6c0000000000000000000000000000000000000000000000000000602082015250565b7f496e697469616c697a61626c653a20636f6e747261637420697320616c72656160008201527f647920696e697469616c697a6564000000000000000000000000000000000000602082015250565b7f546f6b656e54696d654c6f636b3a20756e6c6f636b206c656e677468206e6f7460008201527f206d617463680000000000000000000000000000000000000000000000000000602082015250565b7f4f776e61626c653a2063616c6c6572206973206e6f7420746865206f776e6572600082015250565b7f546f6b656e54696d654c6f636b3a20756e6c6f636b2070657263656e74206e6f60008201527f74206d6174636820313030000000000000000000000000000000000000000000602082015250565b7f546f6b656e54696d654c6f636b3a206e65787420706861736520756e6176616960008201527f6c61626c65000000000000000000000000000000000000000000000000000000602082015250565b7f546f6b656e54696d654c6f636b3a20696e73756666696369656e742062616c6160008201527f6e63650000000000000000000000000000000000000000000000000000000000602082015250565b7f416464726573733a2063616c6c20746f206e6f6e2d636f6e7472616374000000600082015250565b7f496e697469616c697a61626c653a20636f6e7472616374206973206e6f74206960008201527f6e697469616c697a696e67000000000000000000000000000000000000000000602082015250565b7f5361666545524332303a204552433230206f7065726174696f6e20646964206e60008201527f6f74207375636365656400000000000000000000000000000000000000000000602082015250565b612b7e81612627565b8114612b8957600080fd5b50565b612b9581612639565b8114612ba057600080fd5b50565b612bac81612665565b8114612bb757600080fd5b50565b612bc381612693565b8114612bce57600080fd5b5056fea2646970667358221220d0f70a90681feedac4a340fe2af6bde76152c21043d3edc489909efa45a46cdf64736f6c63430008020033",
  "immutableReferences": {},
  "source": "// SPDX-License-Identifier: MIT\npragma solidity ^0.8.0;\n\nimport \"@openzeppelin/contracts-upgradeable/access/OwnableUpgradeable.sol\";\nimport \"./math/SafeMathX.sol\";\nimport \"./BEP20/SafeERC20.sol\";\nimport \"./BEP20/BaseERC20.sol\";\n\ncontract TokenTimeLock is OwnableUpgradeable {\n    using SafeERC20 for BaseERC20;\n    using SafeMathX for uint256;\n\n    // Release date that user initiates a release of each phase\n    uint64[] private _releaseDates;\n\n    // Lock duration (in seconds) of each phase\n    uint32[] private _lockDurations;\n\n    // Release percent of each phase\n    uint8[] private _releasePercents;\n\n    // Total locked tokens\n    uint256 private _amount;\n\n    // Total released amount to user\n    uint256 private _releasedAmount;\n\n    // Beneficiary\n    address private _user;\n\n    // Start date of the lock\n    uint256 private _startDate;\n\n    // Next release phase\n    uint32 private _nextReleaseIdx;\n\n    // Token address\n    address private _token;\n\n    event Released(\n        uint256 phaseReleasedAmount,\n        uint256 totalReleasedAmount,\n        uint32 fromIdx,\n        uint32 toIdx,\n        uint64 date\n    );\n\n    event SafetyReleaseActivated(uint256 amount, address to, uint64 date);\n\n    function token() public view returns (BaseERC20) {\n        return BaseERC20(_token);\n    }\n\n    function beneficiary() public view returns (address) {\n        return _user;\n    }\n\n    function amount() public view returns (uint256) {\n        return _amount;\n    }\n\n    function releasedAmount() public view returns (uint256) {\n        return _releasedAmount;\n    }\n\n    function startDate() public view returns (uint256) {\n        return _startDate;\n    }\n\n    function lockDurations() public view returns (uint32[] memory) {\n        return _lockDurations;\n    }\n\n    function releasePercents() public view returns (uint8[] memory) {\n        return _releasePercents;\n    }\n\n    function releaseDates() public view returns (uint64[] memory) {\n        return _releaseDates;\n    }\n\n    function nextReleaseIdx() public view returns (uint32) {\n        return _nextReleaseIdx;\n    }\n\n    function lockData()\n    public\n    view\n    returns (\n        address user,\n        address token_,\n        uint256 amount_,\n        uint256 releasedAmount_,\n        uint256 startDate_,\n        uint32[] memory lockDurations_,\n        uint8[] memory releasePercents_,\n        uint64[] memory releaseDates_,\n        uint32 nextReleaseIdx_\n    )\n    {\n        return (\n        beneficiary(),\n        _token,\n        amount(),\n        releasedAmount(),\n        startDate(),\n        lockDurations(),\n        releasePercents(),\n        releaseDates(),\n        nextReleaseIdx()\n        );\n    }\n\n    function initialize(\n        address user_,\n        address token_,\n        uint256 amount_,\n        uint32[] calldata lockDurations_,\n        uint8[] calldata releasePercents_,\n        uint256 startDate_\n    ) public initializer returns (bool) {\n        __Ownable_init();\n        transferOwnership(user_);\n        require(\n            lockDurations_.length == releasePercents_.length,\n            \"TokenTimeLock: unlock length not match\"\n        );\n\n        uint256 _sum = 0;\n        for (uint256 i = 0; i < releasePercents_.length; ++i) {\n            _sum += releasePercents_[i];\n        }\n\n        require(_sum == 100, \"TokenTimeLock: unlock percent not match 100\");\n\n        _user = user_;\n        _token = token_;\n        _startDate = startDate_;\n        _lockDurations = lockDurations_;\n        _releasePercents = releasePercents_;\n        _amount = amount_;\n        _releasedAmount = 0;\n        _nextReleaseIdx = 0;\n        _releaseDates = new uint64[](_lockDurations.length);\n\n        return true;\n    }\n\n    function release() onlyOwner public returns (bool) {\n        uint256 numOfPhases = _lockDurations.length;\n\n        require(\n            _nextReleaseIdx < numOfPhases,\n            \"TokenTimeLock: all phases are released\"\n        );\n        require(\n            block.timestamp >=\n            _startDate + _lockDurations[_nextReleaseIdx] * 1 seconds,\n            \"TokenTimeLock: next phase unavailable\"\n        );\n\n        uint256 prevReleaseIdx = _nextReleaseIdx;\n\n        uint256 availableReleaseAmount = 0;\n        while (\n            _nextReleaseIdx < numOfPhases &&\n            block.timestamp >=\n            _startDate + _lockDurations[_nextReleaseIdx] * 1 seconds\n        ) {\n            uint256 stepReleaseAmount = 0;\n            if (_nextReleaseIdx == numOfPhases - 1) {\n                stepReleaseAmount =\n                _amount -\n                _releasedAmount -\n                availableReleaseAmount;\n            } else {\n                stepReleaseAmount = _amount.mulScale(\n                    _releasePercents[_nextReleaseIdx],\n                    100\n                );\n            }\n\n            availableReleaseAmount += stepReleaseAmount;\n            _nextReleaseIdx++;\n        }\n\n        uint256 balance = token().balanceOf(address(this));\n        require(\n            balance >= availableReleaseAmount,\n            \"TokenTimeLock: insufficient balance\"\n        );\n        _releasedAmount += availableReleaseAmount;\n        token().safeTransfer(beneficiary(), availableReleaseAmount);\n\n        uint64 releaseDate = uint64(block.timestamp);\n\n        for (uint256 i = prevReleaseIdx; i < _nextReleaseIdx; ++i) {\n            _releaseDates[i] = releaseDate;\n        }\n\n        emit Released(\n            availableReleaseAmount,\n            _releasedAmount,\n            uint32(prevReleaseIdx),\n            _nextReleaseIdx - 1,\n            releaseDate\n        );\n\n        return true;\n    }\n}\n",
  "sourcePath": "/Users/bean/WebstormProjects/cup-contracts/contracts/TokenTimeLock.sol",
  "compiler": {
    "name": "solc",
    "version": "0.8.2+commit.661d1103.Emscripten.clang"
  },
  "schemaVersion": "3.4.3",
  "updatedAt": "2021-12-22T04:29:57.358Z",
  "networkType": "ethereum",
  "devdoc": {
    "kind": "dev",
    "methods": {
      "owner()": {
        "details": "Returns the address of the current owner."
      },
      "renounceOwnership()": {
        "details": "Leaves the contract without owner. It will not be possible to call `onlyOwner` functions anymore. Can only be called by the current owner. NOTE: Renouncing ownership will leave the contract without an owner, thereby removing any functionality that is only available to the owner."
      },
      "transferOwnership(address)": {
        "details": "Transfers ownership of the contract to a new account (`newOwner`). Can only be called by the current owner."
      }
    },
    "version": 1
  },
  "userdoc": {
    "kind": "user",
    "methods": {},
    "version": 1
  }
}