{
  "contractName": "TokenTimeLockProxyFactory",
  "abi": [
    {
      "anonymous": false,
      "inputs": [
        {
          "indexed": false,
          "internalType": "address",
          "name": "previousAdmin",
          "type": "address"
        },
        {
          "indexed": false,
          "internalType": "address",
          "name": "newAdmin",
          "type": "address"
        }
      ],
      "name": "AdminChanged",
      "type": "event"
    },
    {
      "anonymous": false,
      "inputs": [
        {
          "indexed": true,
          "internalType": "address",
          "name": "beacon",
          "type": "address"
        }
      ],
      "name": "BeaconUpgraded",
      "type": "event"
    },
    {
      "anonymous": false,
      "inputs": [
        {
          "indexed": true,
          "internalType": "address",
          "name": "previousOwner",
          "type": "address"
        },
        {
          "indexed": true,
          "internalType": "address",
          "name": "newOwner",
          "type": "address"
        }
      ],
      "name": "OwnershipTransferred",
      "type": "event"
    },
    {
      "anonymous": false,
      "inputs": [
        {
          "indexed": true,
          "internalType": "address",
          "name": "implementation",
          "type": "address"
        }
      ],
      "name": "Upgraded",
      "type": "event"
    },
    {
      "inputs": [],
      "name": "owner",
      "outputs": [
        {
          "internalType": "address",
          "name": "",
          "type": "address"
        }
      ],
      "stateMutability": "view",
      "type": "function",
      "constant": true
    },
    {
      "inputs": [],
      "name": "renounceOwnership",
      "outputs": [],
      "stateMutability": "nonpayable",
      "type": "function"
    },
    {
      "inputs": [
        {
          "internalType": "address",
          "name": "newOwner",
          "type": "address"
        }
      ],
      "name": "transferOwnership",
      "outputs": [],
      "stateMutability": "nonpayable",
      "type": "function"
    },
    {
      "inputs": [
        {
          "internalType": "address",
          "name": "newImplementation",
          "type": "address"
        }
      ],
      "name": "upgradeTo",
      "outputs": [],
      "stateMutability": "nonpayable",
      "type": "function"
    },
    {
      "inputs": [
        {
          "internalType": "address",
          "name": "newImplementation",
          "type": "address"
        },
        {
          "internalType": "bytes",
          "name": "data",
          "type": "bytes"
        }
      ],
      "name": "upgradeToAndCall",
      "outputs": [],
      "stateMutability": "payable",
      "type": "function",
      "payable": true
    },
    {
      "stateMutability": "payable",
      "type": "receive",
      "payable": true
    },
    {
      "inputs": [
        {
          "internalType": "address",
          "name": "_masterContract",
          "type": "address"
        }
      ],
      "name": "initialize",
      "outputs": [],
      "stateMutability": "nonpayable",
      "type": "function"
    },
    {
      "inputs": [
        {
          "internalType": "address",
          "name": "user_",
          "type": "address"
        },
        {
          "internalType": "address",
          "name": "token_",
          "type": "address"
        },
        {
          "internalType": "uint256",
          "name": "amount_",
          "type": "uint256"
        },
        {
          "internalType": "uint32[]",
          "name": "lockDurations_",
          "type": "uint32[]"
        },
        {
          "internalType": "uint8[]",
          "name": "releasePercents_",
          "type": "uint8[]"
        },
        {
          "internalType": "uint256",
          "name": "startDate_",
          "type": "uint256"
        }
      ],
      "name": "createBlockWallet",
      "outputs": [
        {
          "internalType": "address",
          "name": "",
          "type": "address"
        }
      ],
      "stateMutability": "nonpayable",
      "type": "function"
    },
    {
      "inputs": [
        {
          "internalType": "address",
          "name": "owner_",
          "type": "address"
        }
      ],
      "name": "getLockWallets",
      "outputs": [
        {
          "internalType": "address[]",
          "name": "",
          "type": "address[]"
        }
      ],
      "stateMutability": "view",
      "type": "function",
      "constant": true
    }
  ],
  "bytecode": "0x60a06040523073ffffffffffffffffffffffffffffffffffffffff1660809073ffffffffffffffffffffffffffffffffffffffff1660601b81525034801561004657600080fd5b5060805160601c6122ec61007a600039600081816101e3015281816102720152818161055001526105df01526122ec6000f3fe60806040526004361061007f5760003560e01c80638da5cb5b1161004e5780638da5cb5b14610127578063c4d66de814610152578063f2fde38b1461017b578063fe2b0cd1146101a457610089565b80633659cfe61461008e578063420790c0146100b75780634f1ef286146100f4578063715018a61461011057610089565b3661008957600080fd5b600080fd5b34801561009a57600080fd5b506100b560048036038101906100b091906114f8565b6101e1565b005b3480156100c357600080fd5b506100de60048036038101906100d99190611521565b610390565b6040516100eb9190611a31565b60405180910390f35b61010e600480360381019061010991906115e4565b61054e565b005b34801561011c57600080fd5b5061012561068b565b005b34801561013357600080fd5b5061013c610713565b6040516101499190611a31565b60405180910390f35b34801561015e57600080fd5b50610179600480360381019061017491906114f8565b61073d565b005b34801561018757600080fd5b506101a2600480360381019061019d91906114f8565b6108e3565b005b3480156101b057600080fd5b506101cb60048036038101906101c691906114f8565b6109db565b6040516101d89190611abf565b60405180910390f35b7f000000000000000000000000000000000000000000000000000000000000000073ffffffffffffffffffffffffffffffffffffffff163073ffffffffffffffffffffffffffffffffffffffff161415610270576040517f08c379a000000000000000000000000000000000000000000000000000000000815260040161026790611b43565b60405180910390fd5b7f000000000000000000000000000000000000000000000000000000000000000073ffffffffffffffffffffffffffffffffffffffff166102af610aa8565b73ffffffffffffffffffffffffffffffffffffffff1614610305576040517f08c379a00000000000000000000000000000000000000000000000000000000081526004016102fc90611b63565b60405180910390fd5b61030e81610aff565b61038d81600067ffffffffffffffff811115610353577f4e487b7100000000000000000000000000000000000000000000000000000000600052604160045260246000fd5b6040519080825280601f01601f1916602001820160405280156103855781602001600182028036833780820191505090505b506000610b7e565b50565b6000806103be60ca60009054906101000a900473ffffffffffffffffffffffffffffffffffffffff16610d4f565b905060008173ffffffffffffffffffffffffffffffffffffffff166344f2f90a8c8c8c8c8c8c8c8c6040518963ffffffff1660e01b8152600401610409989796959493929190611a4c565b602060405180830381600087803b15801561042357600080fd5b505af1158015610437573d6000803e3d6000fd5b505050506040513d601f19601f8201168201806040525081019061045b9190611638565b905060c960008c73ffffffffffffffffffffffffffffffffffffffff1673ffffffffffffffffffffffffffffffffffffffff168152602001908152602001600020829080600181540180825580915050600190039060005260206000200160009091909190916101000a81548173ffffffffffffffffffffffffffffffffffffffff021916908373ffffffffffffffffffffffffffffffffffffffff1602179055508061053d576040517f08c379a000000000000000000000000000000000000000000000000000000000815260040161053490611b83565b60405180910390fd5b819250505098975050505050505050565b7f000000000000000000000000000000000000000000000000000000000000000073ffffffffffffffffffffffffffffffffffffffff163073ffffffffffffffffffffffffffffffffffffffff1614156105dd576040517f08c379a00000000000000000000000000000000000000000000000000000000081526004016105d490611b43565b60405180910390fd5b7f000000000000000000000000000000000000000000000000000000000000000073ffffffffffffffffffffffffffffffffffffffff1661061c610aa8565b73ffffffffffffffffffffffffffffffffffffffff1614610672576040517f08c379a000000000000000000000000000000000000000000000000000000000815260040161066990611b63565b60405180910390fd5b61067b82610aff565b61068782826001610b7e565b5050565b610693610e24565b73ffffffffffffffffffffffffffffffffffffffff166106b1610713565b73ffffffffffffffffffffffffffffffffffffffff1614610707576040517f08c379a00000000000000000000000000000000000000000000000000000000081526004016106fe90611c03565b60405180910390fd5b6107116000610e2c565b565b6000609760009054906101000a900473ffffffffffffffffffffffffffffffffffffffff16905090565b600060019054906101000a900460ff166107655760008054906101000a900460ff161561076e565b61076d610ef2565b5b6107ad576040517f08c379a00000000000000000000000000000000000000000000000000000000081526004016107a490611bc3565b60405180910390fd5b60008060019054906101000a900460ff1615905080156107fd576001600060016101000a81548160ff02191690831515021790555060016000806101000a81548160ff0219169083151502179055505b600073ffffffffffffffffffffffffffffffffffffffff168273ffffffffffffffffffffffffffffffffffffffff16141561086d576040517f08c379a000000000000000000000000000000000000000000000000000000000815260040161086490611c23565b60405180910390fd5b610875610f03565b61087d610f64565b8160ca60006101000a81548173ffffffffffffffffffffffffffffffffffffffff021916908373ffffffffffffffffffffffffffffffffffffffff16021790555080156108df5760008060016101000a81548160ff0219169083151502179055505b5050565b6108eb610e24565b73ffffffffffffffffffffffffffffffffffffffff16610909610713565b73ffffffffffffffffffffffffffffffffffffffff161461095f576040517f08c379a000000000000000000000000000000000000000000000000000000000815260040161095690611c03565b60405180910390fd5b600073ffffffffffffffffffffffffffffffffffffffff168173ffffffffffffffffffffffffffffffffffffffff1614156109cf576040517f08c379a00000000000000000000000000000000000000000000000000000000081526004016109c690611b23565b60405180910390fd5b6109d881610e2c565b50565b606060c960008373ffffffffffffffffffffffffffffffffffffffff1673ffffffffffffffffffffffffffffffffffffffff168152602001908152602001600020805480602002602001604051908101604052809291908181526020018280548015610a9c57602002820191906000526020600020905b8160009054906101000a900473ffffffffffffffffffffffffffffffffffffffff1673ffffffffffffffffffffffffffffffffffffffff1681526020019060010190808311610a52575b50505050509050919050565b6000610ad67f360894a13ba1a3210667c828492db98dca3e2076cc3735a920a3ca505d382bbc60001b610fc5565b60000160009054906101000a900473ffffffffffffffffffffffffffffffffffffffff16905090565b610b07610e24565b73ffffffffffffffffffffffffffffffffffffffff16610b25610713565b73ffffffffffffffffffffffffffffffffffffffff1614610b7b576040517f08c379a0000000000000000000000000000000000000000000000000000000008152600401610b7290611c03565b60405180910390fd5b50565b6000610b88610aa8565b9050610b9384610fcf565b600083511180610ba05750815b15610bb157610baf8484611088565b505b6000610bdf7f4910fdfa16fed3260ed0e7147f7cc6da11a60208b5b9406d12a635614ffd914360001b61116c565b90508060000160009054906101000a900460ff16610d485760018160000160006101000a81548160ff021916908315150217905550610cab8583604051602401610c299190611a31565b6040516020818303038152906040527f3659cfe6000000000000000000000000000000000000000000000000000000007bffffffffffffffffffffffffffffffffffffffffffffffffffffffff19166020820180517bffffffffffffffffffffffffffffffffffffffffffffffffffffffff8381831617835250505050611088565b5060008160000160006101000a81548160ff021916908315150217905550610cd1610aa8565b73ffffffffffffffffffffffffffffffffffffffff168273ffffffffffffffffffffffffffffffffffffffff1614610d3e576040517f08c379a0000000000000000000000000000000000000000000000000000000008152600401610d3590611b03565b60405180910390fd5b610d4785611176565b5b5050505050565b60006040517f3d602d80600a3d3981f3363d3d373d3d3d363d7300000000000000000000000081528260601b60148201527f5af43d82803e903d91602b57fd5bf3000000000000000000000000000000000060288201526037816000f0915050600073ffffffffffffffffffffffffffffffffffffffff168173ffffffffffffffffffffffffffffffffffffffff161415610e1f576040517f08c379a0000000000000000000000000000000000000000000000000000000008152600401610e1690611ba3565b60405180910390fd5b919050565b600033905090565b6000609760009054906101000a900473ffffffffffffffffffffffffffffffffffffffff16905081609760006101000a81548173ffffffffffffffffffffffffffffffffffffffff021916908373ffffffffffffffffffffffffffffffffffffffff1602179055508173ffffffffffffffffffffffffffffffffffffffff168173ffffffffffffffffffffffffffffffffffffffff167f8be0079c531659141344cd1fd0a4f28419497f9722a3daafe3b4186f6b6457e060405160405180910390a35050565b6000610efd306111c5565b15905090565b600060019054906101000a900460ff16610f52576040517f08c379a0000000000000000000000000000000000000000000000000000000008152600401610f4990611c63565b60405180910390fd5b610f5a6111d8565b610f62611229565b565b600060019054906101000a900460ff16610fb3576040517f08c379a0000000000000000000000000000000000000000000000000000000008152600401610faa90611c63565b60405180910390fd5b610fbb61128a565b610fc36112db565b565b6000819050919050565b610fd8816111c5565b611017576040517f08c379a000000000000000000000000000000000000000000000000000000000815260040161100e90611be3565b60405180910390fd5b806110447f360894a13ba1a3210667c828492db98dca3e2076cc3735a920a3ca505d382bbc60001b610fc5565b60000160006101000a81548173ffffffffffffffffffffffffffffffffffffffff021916908373ffffffffffffffffffffffffffffffffffffffff16021790555050565b6060611093836111c5565b6110d2576040517f08c379a00000000000000000000000000000000000000000000000000000000081526004016110c990611c43565b60405180910390fd5b6000808473ffffffffffffffffffffffffffffffffffffffff16846040516110fa9190611a1a565b600060405180830381855af49150503d8060008114611135576040519150601f19603f3d011682016040523d82523d6000602084013e61113a565b606091505b509150915061116282826040518060600160405280602781526020016122906027913961132c565b9250505092915050565b6000819050919050565b61117f81610fcf565b8073ffffffffffffffffffffffffffffffffffffffff167fbc7cd75a20ee27fd9adebab32041f755214dbc6bffa90cc0225b39da2e5c2d3b60405160405180910390a250565b600080823b905060008111915050919050565b600060019054906101000a900460ff16611227576040517f08c379a000000000000000000000000000000000000000000000000000000000815260040161121e90611c63565b60405180910390fd5b565b600060019054906101000a900460ff16611278576040517f08c379a000000000000000000000000000000000000000000000000000000000815260040161126f90611c63565b60405180910390fd5b611288611283610e24565b610e2c565b565b600060019054906101000a900460ff166112d9576040517f08c379a00000000000000000000000000000000000000000000000000000000081526004016112d090611c63565b60405180910390fd5b565b600060019054906101000a900460ff1661132a576040517f08c379a000000000000000000000000000000000000000000000000000000000815260040161132190611c63565b60405180910390fd5b565b6060831561133c5782905061138c565b60008351111561134f5782518084602001fd5b816040517f08c379a00000000000000000000000000000000000000000000000000000000081526004016113839190611ae1565b60405180910390fd5b9392505050565b60006113a66113a184611ca8565b611c83565b9050828152602081018484840111156113be57600080fd5b6113c9848285611e27565b509392505050565b6000813590506113e08161221c565b92915050565b60008083601f8401126113f857600080fd5b8235905067ffffffffffffffff81111561141157600080fd5b60208301915083602082028301111561142957600080fd5b9250929050565b60008083601f84011261144257600080fd5b8235905067ffffffffffffffff81111561145b57600080fd5b60208301915083602082028301111561147357600080fd5b9250929050565b60008151905061148981612233565b92915050565b600082601f8301126114a057600080fd5b81356114b0848260208601611393565b91505092915050565b6000813590506114c88161224a565b92915050565b6000813590506114dd81612261565b92915050565b6000813590506114f281612278565b92915050565b60006020828403121561150a57600080fd5b6000611518848285016113d1565b91505092915050565b60008060008060008060008060c0898b03121561153d57600080fd5b600061154b8b828c016113d1565b985050602061155c8b828c016113d1565b975050604061156d8b828c016114b9565b965050606089013567ffffffffffffffff81111561158a57600080fd5b6115968b828c016113e6565b9550955050608089013567ffffffffffffffff8111156115b557600080fd5b6115c18b828c01611430565b935093505060a06115d48b828c016114b9565b9150509295985092959890939650565b600080604083850312156115f757600080fd5b6000611605858286016113d1565b925050602083013567ffffffffffffffff81111561162257600080fd5b61162e8582860161148f565b9150509250929050565b60006020828403121561164a57600080fd5b60006116588482850161147a565b91505092915050565b600061166d83836116a9565b60208301905092915050565b600061168583836119fc565b60208301905092915050565b600061169d8383611a0b565b60208301905092915050565b6116b281611dc2565b82525050565b6116c181611dc2565b82525050565b60006116d282611cfd565b6116dc8185611d45565b93506116e783611cd9565b8060005b838110156117185781516116ff8882611661565b975061170a83611d1e565b9250506001810190506116eb565b5085935050505092915050565b60006117318385611d56565b935061173c82611ce9565b8060005b85811015611775576117528284611d94565b61175c8882611679565b975061176783611d2b565b925050600181019050611740565b5085925050509392505050565b600061178e8385611d67565b935061179982611cf3565b8060005b858110156117d2576117af8284611dab565b6117b98882611691565b97506117c483611d38565b92505060018101905061179d565b5085925050509392505050565b60006117ea82611d08565b6117f48185611d78565b9350611804818560208601611e36565b80840191505092915050565b600061181b82611d13565b6118258185611d83565b9350611835818560208601611e36565b61183e81611ec9565b840191505092915050565b6000611856602f83611d83565b915061186182611eda565b604082019050919050565b6000611879602683611d83565b915061188482611f29565b604082019050919050565b600061189c602c83611d83565b91506118a782611f78565b604082019050919050565b60006118bf602c83611d83565b91506118ca82611fc7565b604082019050919050565b60006118e2602383611d83565b91506118ed82612016565b604082019050919050565b6000611905601683611d83565b915061191082612065565b602082019050919050565b6000611928602e83611d83565b91506119338261208e565b604082019050919050565b600061194b602d83611d83565b9150611956826120dd565b604082019050919050565b600061196e602083611d83565b91506119798261212c565b602082019050919050565b6000611991601283611d83565b915061199c82612155565b602082019050919050565b60006119b4602683611d83565b91506119bf8261217e565b604082019050919050565b60006119d7602b83611d83565b91506119e2826121cd565b604082019050919050565b6119f681611e00565b82525050565b611a0581611e0a565b82525050565b611a1481611e1a565b82525050565b6000611a2682846117df565b915081905092915050565b6000602082019050611a4660008301846116b8565b92915050565b600060c082019050611a61600083018b6116b8565b611a6e602083018a6116b8565b611a7b60408301896119ed565b8181036060830152611a8e818789611725565b90508181036080830152611aa3818587611782565b9050611ab260a08301846119ed565b9998505050505050505050565b60006020820190508181036000830152611ad981846116c7565b905092915050565b60006020820190508181036000830152611afb8184611810565b905092915050565b60006020820190508181036000830152611b1c81611849565b9050919050565b60006020820190508181036000830152611b3c8161186c565b9050919050565b60006020820190508181036000830152611b5c8161188f565b9050919050565b60006020820190508181036000830152611b7c816118b2565b9050919050565b60006020820190508181036000830152611b9c816118d5565b9050919050565b60006020820190508181036000830152611bbc816118f8565b9050919050565b60006020820190508181036000830152611bdc8161191b565b9050919050565b60006020820190508181036000830152611bfc8161193e565b9050919050565b60006020820190508181036000830152611c1c81611961565b9050919050565b60006020820190508181036000830152611c3c81611984565b9050919050565b60006020820190508181036000830152611c5c816119a7565b9050919050565b60006020820190508181036000830152611c7c816119ca565b9050919050565b6000611c8d611c9e565b9050611c998282611e69565b919050565b6000604051905090565b600067ffffffffffffffff821115611cc357611cc2611e9a565b5b611ccc82611ec9565b9050602081019050919050565b6000819050602082019050919050565b6000819050919050565b6000819050919050565b600081519050919050565b600081519050919050565b600081519050919050565b6000602082019050919050565b6000602082019050919050565b6000602082019050919050565b600082825260208201905092915050565b600082825260208201905092915050565b600082825260208201905092915050565b600081905092915050565b600082825260208201905092915050565b6000611da360208401846114ce565b905092915050565b6000611dba60208401846114e3565b905092915050565b6000611dcd82611de0565b9050919050565b60008115159050919050565b600073ffffffffffffffffffffffffffffffffffffffff82169050919050565b6000819050919050565b600063ffffffff82169050919050565b600060ff82169050919050565b82818337600083830152505050565b60005b83811015611e54578082015181840152602081019050611e39565b83811115611e63576000848401525b50505050565b611e7282611ec9565b810181811067ffffffffffffffff82111715611e9157611e90611e9a565b5b80604052505050565b7f4e487b7100000000000000000000000000000000000000000000000000000000600052604160045260246000fd5b6000601f19601f8301169050919050565b7f45524331393637557067726164653a207570677261646520627265616b73206660008201527f7572746865722075706772616465730000000000000000000000000000000000602082015250565b7f4f776e61626c653a206e6577206f776e657220697320746865207a65726f206160008201527f6464726573730000000000000000000000000000000000000000000000000000602082015250565b7f46756e6374696f6e206d7573742062652063616c6c6564207468726f7567682060008201527f64656c656761746563616c6c0000000000000000000000000000000000000000602082015250565b7f46756e6374696f6e206d7573742062652063616c6c6564207468726f7567682060008201527f6163746976652070726f78790000000000000000000000000000000000000000602082015250565b7f546f6b656e54696d654c6f636b20636f6e74726163743a2063616e277420736560008201527f7475700000000000000000000000000000000000000000000000000000000000602082015250565b7f455243313136373a20637265617465206661696c656400000000000000000000600082015250565b7f496e697469616c697a61626c653a20636f6e747261637420697320616c72656160008201527f647920696e697469616c697a6564000000000000000000000000000000000000602082015250565b7f455243313936373a206e657720696d706c656d656e746174696f6e206973206e60008201527f6f74206120636f6e747261637400000000000000000000000000000000000000602082015250565b7f4f776e61626c653a2063616c6c6572206973206e6f7420746865206f776e6572600082015250565b7f436f6d70617469626c6520616464726573730000000000000000000000000000600082015250565b7f416464726573733a2064656c65676174652063616c6c20746f206e6f6e2d636f60008201527f6e74726163740000000000000000000000000000000000000000000000000000602082015250565b7f496e697469616c697a61626c653a20636f6e7472616374206973206e6f74206960008201527f6e697469616c697a696e67000000000000000000000000000000000000000000602082015250565b61222581611dc2565b811461223057600080fd5b50565b61223c81611dd4565b811461224757600080fd5b50565b61225381611e00565b811461225e57600080fd5b50565b61226a81611e0a565b811461227557600080fd5b50565b61228181611e1a565b811461228c57600080fd5b5056fe416464726573733a206c6f772d6c6576656c2064656c65676174652063616c6c206661696c6564a2646970667358221220823df942c8718e4dafa7fdf64c36f43e14bc62a18d641d2b9401af80e32cc28a64736f6c63430008020033",
  "immutableReferences": {
    "641": [
      {
        "length": 32,
        "start": 483
      },
      {
        "length": 32,
        "start": 626
      },
      {
        "length": 32,
        "start": 1360
      },
      {
        "length": 32,
        "start": 1503
      }
    ]
  },
  "source": "// SPDX-License-Identifier: MIT\npragma solidity ^0.8.0;\n\nimport \"@openzeppelin/contracts/proxy/Clones.sol\";\nimport \"@openzeppelin/contracts-upgradeable/proxy/utils/Initializable.sol\";\nimport \"@openzeppelin/contracts-upgradeable/proxy/utils/UUPSUpgradeable.sol\";\nimport \"@openzeppelin/contracts-upgradeable/access/OwnableUpgradeable.sol\";\nimport \"./TokenTimeLock.sol\";\nimport \"./CUPCake.sol\";\n\ncontract TokenTimeLockProxyFactory is Initializable, UUPSUpgradeable, OwnableUpgradeable, LockFactory {\n    mapping(address => address[]) wallets;\n    address masterContract;\n\n    function initialize(address _masterContract) external initializer {\n        require(_masterContract != address(0), \"Compatible address\");\n        __Ownable_init();\n        __UUPSUpgradeable_init();\n\n        masterContract = _masterContract;\n    }\n\n    function _authorizeUpgrade(address newImplementation) internal override onlyOwner {}\n\n    function createBlockWallet(\n        address user_,\n        address token_,\n        uint256 amount_,\n        uint32[] calldata lockDurations_,\n        uint8[] calldata releasePercents_,\n        uint256 startDate_\n    )\n    external\n    override\n    returns (address) {\n        TokenTimeLock timeLockWallet = TokenTimeLock(Clones.clone(masterContract));\n        bool setupResult = timeLockWallet.initialize(\n            user_,\n            token_,\n            amount_,\n            lockDurations_,\n            releasePercents_,\n            startDate_\n        );\n        wallets[user_].push(address(timeLockWallet));\n        require(setupResult, \"TokenTimeLock contract: can't setup\");\n        return address(timeLockWallet);\n    }\n\n    function getLockWallets(address owner_)\n    external\n    override\n    view returns (address[] memory){\n        return wallets[owner_];\n    }\n\n    receive() external payable {\n        revert();\n    }\n}\n",
  "sourcePath": "/Users/bean/WebstormProjects/cup-contracts/contracts/TokenTimeLockProxyFactory.sol",
  "compiler": {
    "name": "solc",
    "version": "0.8.2+commit.661d1103.Emscripten.clang"
  },
  "schemaVersion": "3.4.3",
  "updatedAt": "2021-12-22T04:29:57.389Z",
  "networkType": "ethereum",
  "devdoc": {
    "kind": "dev",
    "methods": {
      "owner()": {
        "details": "Returns the address of the current owner."
      },
      "renounceOwnership()": {
        "details": "Leaves the contract without owner. It will not be possible to call `onlyOwner` functions anymore. Can only be called by the current owner. NOTE: Renouncing ownership will leave the contract without an owner, thereby removing any functionality that is only available to the owner."
      },
      "transferOwnership(address)": {
        "details": "Transfers ownership of the contract to a new account (`newOwner`). Can only be called by the current owner."
      },
      "upgradeTo(address)": {
        "details": "Upgrade the implementation of the proxy to `newImplementation`. Calls {_authorizeUpgrade}. Emits an {Upgraded} event."
      },
      "upgradeToAndCall(address,bytes)": {
        "details": "Upgrade the implementation of the proxy to `newImplementation`, and subsequently execute the function call encoded in `data`. Calls {_authorizeUpgrade}. Emits an {Upgraded} event."
      }
    },
    "version": 1
  },
  "userdoc": {
    "kind": "user",
    "methods": {},
    "version": 1
  }
}